{
  "contractName": "ERC721",
  "abi": [
    {
      "constant": true,
      "inputs": [
        {
          "name": "_interfaceID",
          "type": "bytes4"
        }
      ],
      "name": "supportsInterface",
      "outputs": [
        {
          "name": "",
          "type": "bool"
        }
      ],
      "payable": false,
      "stateMutability": "view",
      "type": "function"
    },
    {
      "constant": true,
      "inputs": [],
      "name": "name",
      "outputs": [
        {
          "name": "",
          "type": "string"
        }
      ],
      "payable": false,
      "stateMutability": "view",
      "type": "function"
    },
    {
      "constant": false,
      "inputs": [
        {
          "name": "_to",
          "type": "address"
        },
        {
          "name": "_tokenId",
          "type": "uint256"
        }
      ],
      "name": "approve",
      "outputs": [],
      "payable": false,
      "stateMutability": "nonpayable",
      "type": "function"
    },
    {
      "constant": true,
      "inputs": [],
      "name": "totalSupply",
      "outputs": [
        {
          "name": "",
          "type": "uint256"
        }
      ],
      "payable": false,
      "stateMutability": "view",
      "type": "function"
    },
    {
      "constant": true,
      "inputs": [
        {
          "name": "",
          "type": "uint256"
        }
      ],
      "name": "tokenIndexToOwner",
      "outputs": [
        {
          "name": "",
          "type": "address"
        }
      ],
      "payable": false,
      "stateMutability": "view",
      "type": "function"
    },
    {
      "constant": false,
      "inputs": [
        {
          "name": "_from",
          "type": "address"
        },
        {
          "name": "_to",
          "type": "address"
        },
        {
          "name": "_tokenId",
          "type": "uint256"
        }
      ],
      "name": "transferFrom",
      "outputs": [],
      "payable": false,
      "stateMutability": "nonpayable",
      "type": "function"
    },
    {
      "constant": true,
      "inputs": [
        {
          "name": "_tokenId",
          "type": "uint256"
        }
      ],
      "name": "ownerOf",
      "outputs": [
        {
          "name": "",
          "type": "address"
        }
      ],
      "payable": false,
      "stateMutability": "view",
      "type": "function"
    },
    {
      "constant": true,
      "inputs": [
        {
          "name": "_tokenId",
          "type": "uint256"
        }
      ],
      "name": "tokenMetadata",
      "outputs": [
        {
          "name": "infoUrl",
          "type": "string"
        }
      ],
      "payable": false,
      "stateMutability": "view",
      "type": "function"
    },
    {
      "constant": true,
      "inputs": [
        {
          "name": "_owner",
          "type": "address"
        }
      ],
      "name": "balanceOf",
      "outputs": [
        {
          "name": "count",
          "type": "uint256"
        }
      ],
      "payable": false,
      "stateMutability": "view",
      "type": "function"
    },
    {
      "constant": true,
      "inputs": [
        {
          "name": "_owner",
          "type": "address"
        }
      ],
      "name": "tokensOfOwner",
      "outputs": [
        {
          "name": "ownerTokens",
          "type": "uint256[]"
        }
      ],
      "payable": false,
      "stateMutability": "view",
      "type": "function"
    },
    {
      "constant": true,
      "inputs": [],
      "name": "owner",
      "outputs": [
        {
          "name": "",
          "type": "address"
        }
      ],
      "payable": false,
      "stateMutability": "view",
      "type": "function"
    },
    {
      "constant": true,
      "inputs": [],
      "name": "symbol",
      "outputs": [
        {
          "name": "",
          "type": "string"
        }
      ],
      "payable": false,
      "stateMutability": "view",
      "type": "function"
    },
    {
      "constant": true,
      "inputs": [
        {
          "name": "",
          "type": "uint256"
        }
      ],
      "name": "tokenIndexToApproved",
      "outputs": [
        {
          "name": "",
          "type": "address"
        }
      ],
      "payable": false,
      "stateMutability": "view",
      "type": "function"
    },
    {
      "constant": false,
      "inputs": [
        {
          "name": "_to",
          "type": "address"
        },
        {
          "name": "_tokenId",
          "type": "uint256"
        }
      ],
      "name": "transfer",
      "outputs": [],
      "payable": false,
      "stateMutability": "nonpayable",
      "type": "function"
    },
    {
      "constant": true,
      "inputs": [
        {
          "name": "_tokenId",
          "type": "uint256"
        }
      ],
      "name": "valueOf",
      "outputs": [
        {
          "name": "value",
          "type": "uint256"
        }
      ],
      "payable": false,
      "stateMutability": "view",
      "type": "function"
    },
    {
      "constant": true,
      "inputs": [
        {
          "name": "",
          "type": "address"
        },
        {
          "name": "",
          "type": "address"
        }
      ],
      "name": "allowance",
      "outputs": [
        {
          "name": "",
          "type": "uint256"
        }
      ],
      "payable": false,
      "stateMutability": "view",
      "type": "function"
    },
    {
      "inputs": [
        {
          "name": "_n",
          "type": "string"
        },
        {
          "name": "_s",
          "type": "string"
        }
      ],
      "payable": false,
      "stateMutability": "nonpayable",
      "type": "constructor"
    },
    {
      "anonymous": false,
      "inputs": [
        {
          "indexed": false,
          "name": "from",
          "type": "address"
        },
        {
          "indexed": false,
          "name": "to",
          "type": "address"
        },
        {
          "indexed": false,
          "name": "tokenId",
          "type": "uint256"
        }
      ],
      "name": "Transfer",
      "type": "event"
    },
    {
      "anonymous": false,
      "inputs": [
        {
          "indexed": false,
          "name": "owner",
          "type": "address"
        },
        {
          "indexed": false,
          "name": "approved",
          "type": "address"
        },
        {
          "indexed": false,
          "name": "tokenId",
          "type": "uint256"
        }
      ],
      "name": "Approval",
      "type": "event"
    },
    {
      "anonymous": false,
      "inputs": [
        {
          "indexed": false,
          "name": "value",
          "type": "uint256"
        },
        {
          "indexed": false,
          "name": "metadata",
          "type": "string"
        },
        {
          "indexed": false,
          "name": "kind",
          "type": "uint256"
        },
        {
          "indexed": false,
          "name": "owner",
          "type": "address"
        }
      ],
      "name": "Birth",
      "type": "event"
    }
  ],
  "bytecode": "0x606060405234156200001057600080fd5b6040516200167f3803806200167f8339810160405280805182019190602001805182019190505033600260006101000a81548173ffffffffffffffffffffffffffffffffffffffff021916908373ffffffffffffffffffffffffffffffffffffffff160217905550816000908051906020019062000090929190620000b2565b508060019080519060200190620000a9929190620000b2565b50505062000161565b828054600181600116156101000203166002900490600052602060002090601f016020900481019282601f10620000f557805160ff191683800117855562000126565b8280016001018555821562000126579182015b828111156200012557825182559160200191906001019062000108565b5b50905062000135919062000139565b5090565b6200015e91905b808211156200015a57600081600090555060010162000140565b5090565b90565b61150e80620001716000396000f3006060604052600436106100e6576000357c0100000000000000000000000000000000000000000000000000000000900463ffffffff16806301ffc9a7146100eb57806306fdde0314610145578063095ea7b3146101d357806318160ddd146102155780631d36e06c1461023e57806323b872dd146102a15780636352211e146103025780636914db601461036557806370a08231146104015780638462151c1461044e5780638da5cb5b146104dc57806395d89b4114610531578063a8bd9c32146105bf578063a9059cbb14610622578063cadf338f14610664578063dd62ed3e1461069b575b600080fd5b34156100f657600080fd5b61012b60048080357bffffffffffffffffffffffffffffffffffffffffffffffffffffffff1916906020019091905050610707565b604051808215151515815260200191505060405180910390f35b341561015057600080fd5b610158610a18565b6040518080602001828103825283818151815260200191508051906020019080838360005b8381101561019857808201518184015260208101905061017d565b50505050905090810190601f1680156101c55780820380516001836020036101000a031916815260200191505b509250505060405180910390f35b34156101de57600080fd5b610213600480803573ffffffffffffffffffffffffffffffffffffffff16906020019091908035906020019091905050610ac0565b005b341561022057600080fd5b610228610b82565b6040518082815260200191505060405180910390f35b341561024957600080fd5b61025f6004808035906020019091905050610ba4565b604051808273ffffffffffffffffffffffffffffffffffffffff1673ffffffffffffffffffffffffffffffffffffffff16815260200191505060405180910390f35b34156102ac57600080fd5b610300600480803573ffffffffffffffffffffffffffffffffffffffff1690602001909190803573ffffffffffffffffffffffffffffffffffffffff16906020019091908035906020019091905050610bd7565b005b341561030d57600080fd5b6103236004808035906020019091905050610c88565b604051808273ffffffffffffffffffffffffffffffffffffffff1673ffffffffffffffffffffffffffffffffffffffff16815260200191505060405180910390f35b341561037057600080fd5b6103866004808035906020019091905050610d06565b6040518080602001828103825283818151815260200191508051906020019080838360005b838110156103c65780820151818401526020810190506103ab565b50505050905090810190601f1680156103f35780820380516001836020036101000a031916815260200191505b509250505060405180910390f35b341561040c57600080fd5b610438600480803573ffffffffffffffffffffffffffffffffffffffff16906020019091905050610dce565b6040518082815260200191505060405180910390f35b341561045957600080fd5b610485600480803573ffffffffffffffffffffffffffffffffffffffff16906020019091905050610e17565b6040518080602001828103825283818151815260200191508051906020019060200280838360005b838110156104c85780820151818401526020810190506104ad565b505050509050019250505060405180910390f35b34156104e757600080fd5b6104ef610e2f565b604051808273ffffffffffffffffffffffffffffffffffffffff1673ffffffffffffffffffffffffffffffffffffffff16815260200191505060405180910390f35b341561053c57600080fd5b610544610e55565b6040518080602001828103825283818151815260200191508051906020019080838360005b83811015610584578082015181840152602081019050610569565b50505050905090810190601f1680156105b15780820380516001836020036101000a031916815260200191505b509250505060405180910390f35b34156105ca57600080fd5b6105e06004808035906020019091905050610efd565b604051808273ffffffffffffffffffffffffffffffffffffffff1673ffffffffffffffffffffffffffffffffffffffff16815260200191505060405180910390f35b341561062d57600080fd5b610662600480803573ffffffffffffffffffffffffffffffffffffffff16906020019091908035906020019091905050610f30565b005b341561066f57600080fd5b6106856004808035906020019091905050610fcb565b6040518082815260200191505060405180910390f35b34156106a657600080fd5b6106f1600480803573ffffffffffffffffffffffffffffffffffffffff1690602001909190803573ffffffffffffffffffffffffffffffffffffffff16906020019091905050610ff5565b6040518082815260200191505060405180910390f35b600060405180807f737570706f727473496e74657266616365286279746573342900000000000000815250601901905060405180910390207bffffffffffffffffffffffffffffffffffffffffffffffffffffffff1916827bffffffffffffffffffffffffffffffffffffffffffffffffffffffff19161480610a11575060405180807f746f6b656e4d657461646174612875696e743235362c737472696e6729000000815250601d019050604051809103902060405180807f746f6b656e734f664f776e6572286164647265737329000000000000000000008152506016019050604051809103902060405180807f7472616e7366657246726f6d28616464726573732c616464726573732c75696e81526020017f74323536290000000000000000000000000000000000000000000000000000008152506025019050604051809103902060405180807f7472616e7366657228616464726573732c75696e7432353629000000000000008152506019019050604051809103902060405180807f617070726f766528616464726573732c75696e743235362900000000000000008152506018019050604051809103902060405180807f6f776e65724f662875696e7432353629000000000000000000000000000000008152506010019050604051809103902060405180807f62616c616e63654f6628616464726573732900000000000000000000000000008152506012019050604051809103902060405180807f746f74616c537570706c79282900000000000000000000000000000000000000815250600d019050604051809103902060405180807f73796d626f6c28290000000000000000000000000000000000000000000000008152506008019050604051809103902060405180807f6e616d6528290000000000000000000000000000000000000000000000000000815250600601905060405180910390201818181818181818187bffffffffffffffffffffffffffffffffffffffffffffffffffffffff1916827bffffffffffffffffffffffffffffffffffffffffffffffffffffffff1916145b9050919050565b610a206114ba565b60008054600181600116156101000203166002900480601f016020809104026020016040519081016040528092919081815260200182805460018160011615610100020316600290048015610ab65780601f10610a8b57610100808354040283529160200191610ab6565b820191906000526020600020905b815481529060010190602001808311610a9957829003601f168201915b5050505050905090565b610aca338261101a565b1515610ad557600080fd5b610adf8183611086565b7f8c5be1e5ebec7d5bd14f71427d1e84f3dd0314c0f7b2291e5b200ac8c7c3b925338383604051808473ffffffffffffffffffffffffffffffffffffffff1673ffffffffffffffffffffffffffffffffffffffff1681526020018373ffffffffffffffffffffffffffffffffffffffff1673ffffffffffffffffffffffffffffffffffffffff168152602001828152602001935050505060405180910390a15050565b60008060038054905090506000811115610b9d576001810390505b8091505090565b60046020528060005260406000206000915054906101000a900473ffffffffffffffffffffffffffffffffffffffff1681565b600073ffffffffffffffffffffffffffffffffffffffff168273ffffffffffffffffffffffffffffffffffffffff1614151515610c1357600080fd5b3073ffffffffffffffffffffffffffffffffffffffff168273ffffffffffffffffffffffffffffffffffffffff1614151515610c4e57600080fd5b610c5833826110dc565b1515610c6357600080fd5b610c6d838261101a565b1515610c7857600080fd5b610c83838383611148565b505050565b6000806004600084815260200190815260200160002060009054906101000a900473ffffffffffffffffffffffffffffffffffffffff169050600073ffffffffffffffffffffffffffffffffffffffff168173ffffffffffffffffffffffffffffffffffffffff1614151515610cfd57600080fd5b80915050919050565b610d0e6114ba565b600382815481101515610d1d57fe5b90600052602060002090600502016001018054600181600116156101000203166002900480601f016020809104026020016040519081016040528092919081815260200182805460018160011615610100020316600290048015610dc25780601f10610d9757610100808354040283529160200191610dc2565b820191906000526020600020905b815481529060010190602001808311610da557829003601f168201915b50505050509050919050565b6000600560008373ffffffffffffffffffffffffffffffffffffffff1673ffffffffffffffffffffffffffffffffffffffff168152602001908152602001600020549050919050565b610e1f6114ce565b610e288261134a565b9050919050565b600260009054906101000a900473ffffffffffffffffffffffffffffffffffffffff1681565b610e5d6114ba565b60018054600181600116156101000203166002900480601f016020809104026020016040519081016040528092919081815260200182805460018160011615610100020316600290048015610ef35780601f10610ec857610100808354040283529160200191610ef3565b820191906000526020600020905b815481529060010190602001808311610ed657829003601f168201915b5050505050905090565b60066020528060005260406000206000915054906101000a900473ffffffffffffffffffffffffffffffffffffffff1681565b600073ffffffffffffffffffffffffffffffffffffffff168273ffffffffffffffffffffffffffffffffffffffff1614151515610f6c57600080fd5b3073ffffffffffffffffffffffffffffffffffffffff168273ffffffffffffffffffffffffffffffffffffffff1614151515610fa757600080fd5b610fb1338261101a565b1515610fbc57600080fd5b610fc7338383611148565b5050565b6000600382815481101515610fdc57fe5b9060005260206000209060050201600001549050919050565b6007602052816000526040600020602052806000526040600020600091509150505481565b60008273ffffffffffffffffffffffffffffffffffffffff166004600084815260200190815260200160002060009054906101000a900473ffffffffffffffffffffffffffffffffffffffff1673ffffffffffffffffffffffffffffffffffffffff1614905092915050565b806006600084815260200190815260200160002060006101000a81548173ffffffffffffffffffffffffffffffffffffffff021916908373ffffffffffffffffffffffffffffffffffffffff1602179055505050565b60008273ffffffffffffffffffffffffffffffffffffffff166006600084815260200190815260200160002060009054906101000a900473ffffffffffffffffffffffffffffffffffffffff1673ffffffffffffffffffffffffffffffffffffffff1614905092915050565b600560008373ffffffffffffffffffffffffffffffffffffffff1673ffffffffffffffffffffffffffffffffffffffff16815260200190815260200160002060008154809291906001019190505550816004600083815260200190815260200160002060006101000a81548173ffffffffffffffffffffffffffffffffffffffff021916908373ffffffffffffffffffffffffffffffffffffffff160217905550600073ffffffffffffffffffffffffffffffffffffffff168373ffffffffffffffffffffffffffffffffffffffff161415156112a657600560008473ffffffffffffffffffffffffffffffffffffffff1673ffffffffffffffffffffffffffffffffffffffff16815260200190815260200160002060008154809291906001900391905055506006600082815260200190815260200160002060006101000a81549073ffffffffffffffffffffffffffffffffffffffff02191690555b7fddf252ad1be2c89b69c2b068fc378daa952ba7f163c4a11628f55a4df523b3ef838383604051808473ffffffffffffffffffffffffffffffffffffffff1673ffffffffffffffffffffffffffffffffffffffff1681526020018373ffffffffffffffffffffffffffffffffffffffff1673ffffffffffffffffffffffffffffffffffffffff168152602001828152602001935050505060405180910390a1505050565b6113526114ce565b600061135c6114ce565b60008060008073ffffffffffffffffffffffffffffffffffffffff168773ffffffffffffffffffffffffffffffffffffffff161415151561139c57600080fd5b6113a587610dce565b945060008514156113d75760006040518059106113bf5750595b908082528060200260200182016040525095506114b0565b846040518059106113e55750595b90808252806020026020018201604052509350611400610b82565b925060009150600190505b82811115156114ac578673ffffffffffffffffffffffffffffffffffffffff166004600083815260200190815260200160002060009054906101000a900473ffffffffffffffffffffffffffffffffffffffff1673ffffffffffffffffffffffffffffffffffffffff16141561149f5780848380600101945081518110151561149057fe5b90602001906020020181815250505b808060010191505061140b565b8395505b5050505050919050565b602060405190810160405280600081525090565b6020604051908101604052806000815250905600a165627a7a7230582076954698f190e00464366d902035392b91be18bfad9b61a06b266c5edc8f38e90029",
  "source": "pragma solidity ^0.4.17;\n\nimport './interfaces/IERC721.sol';\n\ncontract ERC721 is IERC721 {\n\n    string _name; string _symbol;\n\n    bytes4 constant InterfaceSignature_ERC165 =\n        bytes4(keccak256(\"supportsInterface(bytes4)\"));\n\n    bytes4 constant InterfaceSignature_ERC721 =\n        bytes4(keccak256(\"name()\")) ^\n        bytes4(keccak256(\"symbol()\")) ^\n        bytes4(keccak256(\"totalSupply()\")) ^\n        bytes4(keccak256(\"balanceOf(address)\")) ^\n        bytes4(keccak256(\"ownerOf(uint256)\")) ^\n        bytes4(keccak256(\"approve(address,uint256)\")) ^\n        bytes4(keccak256(\"transfer(address,uint256)\")) ^\n        bytes4(keccak256(\"transferFrom(address,address,uint256)\")) ^\n        bytes4(keccak256(\"tokensOfOwner(address)\")) ^\n        bytes4(keccak256(\"tokenMetadata(uint256,string)\"));\n\n    struct NFT {\n        uint256 value;          // NFT value \n        string  metadata;       // ... metadata: IPFS path\n        uint256 kind;           // ... type\n        uint256 level;          // ... activities level\n        uint256 state;          // ... state\n    }\n\n    address public owner;       // Smart contract owner \n    NFT[] nfts;                 // tokens\n\n    // ERC721 mappings\n    mapping (uint256 => address) public tokenIndexToOwner;              // NFT ID --> owner address\n    mapping (address => uint256) ownershipTokenCount;                   // owner address --> NFT index\n    mapping (uint256 => address) public tokenIndexToApproved;           // case ID --> new owner approved address\n    mapping (address => mapping (address => uint256)) public allowance; // transfer allowance\n\n    // ERC721 events\n    event Transfer(address from, address to, uint256 tokenId);\n    event Approval(address owner, address approved, uint256 tokenId);\n    event Birth(uint256 value, string  metadata, uint256 kind, address owner);\n\n    // ERC721 Helpers\n    function _transfer(address _from, address _to, uint256 _tokenId) internal {\n        ownershipTokenCount[_to]++;\n        tokenIndexToOwner[_tokenId] = _to;\n\n        // _from == 0 for new NFT there is not any current owner\n        if (_from != address(0)) {\n            ownershipTokenCount[_from]--;\n            \n            delete tokenIndexToApproved[_tokenId];\n        }\n        // Fire event\n        Transfer(_from, _to, _tokenId);\n    }\n\n    function _createNFT(uint256 _value, string  _metadata, uint256 _kind, address _owner) internal returns (uint) {   \n        // allocate new NFT\n        NFT memory _nft = NFT({\n            value: _value,\n            metadata: _metadata,\n            kind: _kind,\n            level: uint256(0),\n            state: uint256(0)\n        });\n        // save new NFT in array and get token Id\n        uint256 newId = nfts.push(_nft) - 1; // push returns new array length, so caseId starts from 0\n        if (newId == uint32(0)) {\n            // we need to reserve index 0 as null, so let's push another copy and make it 1\n            newId = nfts.push(_nft) - 1;\n        }\n        require(newId == uint256(uint32(newId)));\n        // emit the birth event\n        Birth(_value, _metadata, _kind, _owner);\n        // transfer to the Owner\n        _transfer(0, _owner, newId);\n        // return new token Id > 0\n        return newId;\n    }\n\n    function _owns(address _claimant, uint256 _tokenId) internal view returns (bool) {\n        return tokenIndexToOwner[_tokenId] == _claimant;\n    }\n\n    function _approvedFor(address _claimant, uint256 _tokenId) internal view returns (bool) {\n        return tokenIndexToApproved[_tokenId] == _claimant;\n    }\n\n    function _approve(uint256 _tokenId, address _approved) internal {\n        tokenIndexToApproved[_tokenId] = _approved;\n    }\n\n    function _tokensOfOwner(address _owner) view internal returns(uint256[] ownerTokens) {\n        require(_owner != address(0));\n        uint256 tokenCount = balanceOf(_owner);\n        \n        if (tokenCount == 0) {\n            return new uint256[](0);    // Return an empty array\n        } else {\n            uint256[] memory result = new uint256[](tokenCount);\n            uint256 totalCases = totalSupply(); // totalSupply is cases.lenght -1, 0 index is reserved\n            uint256 resultIndex = 0;\n\n            for (uint256 id = 1; id <= totalCases; id++) {\n                if (tokenIndexToOwner[id] == _owner) {\n                    result[resultIndex++] = id;\n                }\n            }\n            return result;\n        }\n    }\n\n    // ERC721 Public\n    function name() public view returns (string) {\n        return _name;\n    }\n    function symbol() public view returns (string) {\n        return _symbol;\n    }\n    function supportsInterface(bytes4 _interfaceID) external view returns (bool) {\n        return ((_interfaceID == InterfaceSignature_ERC165) || (_interfaceID == InterfaceSignature_ERC721));\n    }\n    function balanceOf(address _owner) public view returns (uint256 count) {\n        return ownershipTokenCount[_owner];\n    }\n    function valueOf(uint256 _tokenId) public view returns (uint256 value) {\n        return nfts[_tokenId].value;\n    }\n    function transfer(address _to, uint256 _tokenId) external {\n        require(_to != address(0));\n        require(_to != address(this));\n\n        require(_owns(msg.sender, _tokenId));\n        _transfer(msg.sender, _to, _tokenId);\n    }\n    function approve(address _to, uint256 _tokenId) external {\n        require(_owns(msg.sender, _tokenId));\n\n        _approve(_tokenId, _to);\n        Approval(msg.sender, _to, _tokenId);\n    }\n    function transferFrom(address _from, address _to, uint256 _tokenId) external {\n        require(_to != address(0));\n        require(_to != address(this));\n        require(_approvedFor(msg.sender, _tokenId));\n        require(_owns(_from, _tokenId));\n\n        _transfer(_from, _to, _tokenId);\n    }\n    function totalSupply() public view returns (uint) {\n        uint result = nfts.length;\n        if (result > 0) {\n            result = result - 1;\n        }\n        return result;\n    }\n    function ownerOf(uint256 _tokenId) external view returns (address) {\n        address _owner = tokenIndexToOwner[_tokenId];\n\n        require(_owner != address(0));\n        return _owner;\n    }\n    function tokensOfOwner(address _owner) external view returns(uint256[] ownerTokens) {\n        return _tokensOfOwner(_owner);\n    }\n    \n    function tokenMetadata(uint256 _tokenId) public constant returns (string infoUrl) {\n        return nfts[_tokenId].metadata;\n    }\n\n    // Constructor\n    function ERC721(string _n, string _s) public {\n        owner = msg.sender; _name = _n; _symbol = _s;\n    }\n}\n",
  "sourcePath": "/Users/sergei/ERC721SmartToken/contracts/ERC721.sol",
  "compiler": {
    "name": "solc",
    "version": "0.4.18+commit.9cf6e910.Emscripten.clang"
  },
  "schemaVersion": "1.0.1",
  "updatedAt": "2018-04-01T17:33:23.476Z"
}