{
  "contractName": "LuggageCrowdsurance",
  "abi": [
    {
      "constant": false,
      "inputs": [
        {
          "name": "_id",
          "type": "uint256"
        }
      ],
      "name": "insertPool",
      "outputs": [
        {
          "name": "",
          "type": "bool"
        }
      ],
      "payable": false,
      "stateMutability": "nonpayable",
      "type": "function"
    },
    {
      "constant": true,
      "inputs": [
        {
          "name": "_interfaceID",
          "type": "bytes4"
        }
      ],
      "name": "supportsInterface",
      "outputs": [
        {
          "name": "",
          "type": "bool"
        }
      ],
      "payable": false,
      "stateMutability": "view",
      "type": "function"
    },
    {
      "constant": true,
      "inputs": [],
      "name": "name",
      "outputs": [
        {
          "name": "",
          "type": "string"
        }
      ],
      "payable": false,
      "stateMutability": "view",
      "type": "function"
    },
    {
      "constant": false,
      "inputs": [
        {
          "name": "_to",
          "type": "address"
        },
        {
          "name": "_tokenId",
          "type": "uint256"
        }
      ],
      "name": "approve",
      "outputs": [],
      "payable": false,
      "stateMutability": "nonpayable",
      "type": "function"
    },
    {
      "constant": true,
      "inputs": [
        {
          "name": "_id",
          "type": "uint256"
        }
      ],
      "name": "votingStatus",
      "outputs": [
        {
          "name": "votingEnded",
          "type": "bool"
        },
        {
          "name": "positive",
          "type": "uint8"
        },
        {
          "name": "negative",
          "type": "uint8"
        }
      ],
      "payable": false,
      "stateMutability": "view",
      "type": "function"
    },
    {
      "constant": false,
      "inputs": [
        {
          "name": "_nodeId",
          "type": "uint256"
        },
        {
          "name": "_parentId",
          "type": "uint256"
        }
      ],
      "name": "addToken",
      "outputs": [],
      "payable": false,
      "stateMutability": "nonpayable",
      "type": "function"
    },
    {
      "constant": true,
      "inputs": [],
      "name": "totalSupply",
      "outputs": [
        {
          "name": "",
          "type": "uint256"
        }
      ],
      "payable": false,
      "stateMutability": "view",
      "type": "function"
    },
    {
      "constant": true,
      "inputs": [],
      "name": "getDistribution",
      "outputs": [
        {
          "name": "distribution",
          "type": "uint256[4]"
        }
      ],
      "payable": false,
      "stateMutability": "view",
      "type": "function"
    },
    {
      "constant": true,
      "inputs": [
        {
          "name": "",
          "type": "uint256"
        }
      ],
      "name": "tokenIndexToOwner",
      "outputs": [
        {
          "name": "",
          "type": "address"
        }
      ],
      "payable": false,
      "stateMutability": "view",
      "type": "function"
    },
    {
      "constant": true,
      "inputs": [],
      "name": "RST",
      "outputs": [
        {
          "name": "",
          "type": "address"
        }
      ],
      "payable": false,
      "stateMutability": "view",
      "type": "function"
    },
    {
      "constant": false,
      "inputs": [
        {
          "name": "_from",
          "type": "address"
        },
        {
          "name": "_to",
          "type": "address"
        },
        {
          "name": "_tokenId",
          "type": "uint256"
        }
      ],
      "name": "transferFrom",
      "outputs": [],
      "payable": false,
      "stateMutability": "nonpayable",
      "type": "function"
    },
    {
      "constant": false,
      "inputs": [
        {
          "name": "_to",
          "type": "address"
        },
        {
          "name": "_toId",
          "type": "uint256"
        },
        {
          "name": "_level",
          "type": "uint256"
        }
      ],
      "name": "setLevel",
      "outputs": [],
      "payable": false,
      "stateMutability": "nonpayable",
      "type": "function"
    },
    {
      "constant": false,
      "inputs": [
        {
          "name": "_spender",
          "type": "address"
        },
        {
          "name": "_value",
          "type": "uint256"
        }
      ],
      "name": "cApprove",
      "outputs": [
        {
          "name": "success",
          "type": "bool"
        }
      ],
      "payable": false,
      "stateMutability": "nonpayable",
      "type": "function"
    },
    {
      "constant": false,
      "inputs": [
        {
          "name": "_nodeId",
          "type": "uint256"
        }
      ],
      "name": "removeToken",
      "outputs": [],
      "payable": false,
      "stateMutability": "nonpayable",
      "type": "function"
    },
    {
      "constant": false,
      "inputs": [
        {
          "name": "_to",
          "type": "address"
        },
        {
          "name": "_toId",
          "type": "uint256"
        }
      ],
      "name": "increaseLevel",
      "outputs": [],
      "payable": false,
      "stateMutability": "nonpayable",
      "type": "function"
    },
    {
      "constant": true,
      "inputs": [
        {
          "name": "",
          "type": "address"
        }
      ],
      "name": "addressToAmount",
      "outputs": [
        {
          "name": "",
          "type": "uint256"
        }
      ],
      "payable": false,
      "stateMutability": "view",
      "type": "function"
    },
    {
      "constant": false,
      "inputs": [
        {
          "name": "_from",
          "type": "address"
        },
        {
          "name": "_fromId",
          "type": "uint256"
        },
        {
          "name": "_amount",
          "type": "uint256"
        }
      ],
      "name": "cDestroy",
      "outputs": [],
      "payable": false,
      "stateMutability": "nonpayable",
      "type": "function"
    },
    {
      "constant": true,
      "inputs": [],
      "name": "paybackRatio",
      "outputs": [
        {
          "name": "",
          "type": "uint8"
        }
      ],
      "payable": false,
      "stateMutability": "view",
      "type": "function"
    },
    {
      "constant": true,
      "inputs": [],
      "name": "ETHOnly",
      "outputs": [
        {
          "name": "",
          "type": "bool"
        }
      ],
      "payable": false,
      "stateMutability": "view",
      "type": "function"
    },
    {
      "constant": false,
      "inputs": [
        {
          "name": "_to",
          "type": "address"
        },
        {
          "name": "_toId",
          "type": "uint256"
        },
        {
          "name": "_amount",
          "type": "uint256"
        }
      ],
      "name": "cIssue",
      "outputs": [],
      "payable": false,
      "stateMutability": "nonpayable",
      "type": "function"
    },
    {
      "constant": true,
      "inputs": [
        {
          "name": "_tokenId",
          "type": "uint256"
        }
      ],
      "name": "ownerOf",
      "outputs": [
        {
          "name": "",
          "type": "address"
        }
      ],
      "payable": false,
      "stateMutability": "view",
      "type": "function"
    },
    {
      "constant": false,
      "inputs": [
        {
          "name": "_to",
          "type": "address"
        },
        {
          "name": "_value",
          "type": "uint256"
        }
      ],
      "name": "cTransfer",
      "outputs": [
        {
          "name": "success",
          "type": "bool"
        }
      ],
      "payable": false,
      "stateMutability": "nonpayable",
      "type": "function"
    },
    {
      "constant": true,
      "inputs": [
        {
          "name": "_tokenId",
          "type": "uint256"
        }
      ],
      "name": "tokenMetadata",
      "outputs": [
        {
          "name": "infoUrl",
          "type": "string"
        }
      ],
      "payable": false,
      "stateMutability": "view",
      "type": "function"
    },
    {
      "constant": true,
      "inputs": [
        {
          "name": "_owner",
          "type": "address"
        }
      ],
      "name": "balanceOf",
      "outputs": [
        {
          "name": "count",
          "type": "uint256"
        }
      ],
      "payable": false,
      "stateMutability": "view",
      "type": "function"
    },
    {
      "constant": false,
      "inputs": [],
      "name": "acceptOwnership",
      "outputs": [],
      "payable": false,
      "stateMutability": "nonpayable",
      "type": "function"
    },
    {
      "constant": true,
      "inputs": [
        {
          "name": "",
          "type": "uint256"
        }
      ],
      "name": "requests",
      "outputs": [
        {
          "name": "amount",
          "type": "uint256"
        },
        {
          "name": "timeStamp",
          "type": "uint256"
        },
        {
          "name": "duration",
          "type": "uint256"
        },
        {
          "name": "positive",
          "type": "uint8"
        },
        {
          "name": "negative",
          "type": "uint8"
        },
        {
          "name": "number",
          "type": "uint8"
        }
      ],
      "payable": false,
      "stateMutability": "view",
      "type": "function"
    },
    {
      "constant": true,
      "inputs": [
        {
          "name": "_owner",
          "type": "address"
        }
      ],
      "name": "tokensOfOwner",
      "outputs": [
        {
          "name": "ownerTokens",
          "type": "uint256[]"
        }
      ],
      "payable": false,
      "stateMutability": "view",
      "type": "function"
    },
    {
      "constant": true,
      "inputs": [],
      "name": "parameters",
      "outputs": [
        {
          "name": "joinAmount",
          "type": "uint256"
        },
        {
          "name": "coverageDuration",
          "type": "uint256"
        },
        {
          "name": "maxClaimAmount",
          "type": "uint256"
        },
        {
          "name": "maxClaimNumber",
          "type": "uint8"
        },
        {
          "name": "paymentRatio",
          "type": "uint8"
        },
        {
          "name": "maxPaymentAmount",
          "type": "uint256"
        },
        {
          "name": "minJuriesNumber",
          "type": "uint8"
        },
        {
          "name": "votingDuration",
          "type": "uint256"
        },
        {
          "name": "juriesNumber",
          "type": "uint8"
        }
      ],
      "payable": false,
      "stateMutability": "view",
      "type": "function"
    },
    {
      "constant": false,
      "inputs": [
        {
          "name": "_id",
          "type": "uint256"
        }
      ],
      "name": "payment",
      "outputs": [],
      "payable": false,
      "stateMutability": "nonpayable",
      "type": "function"
    },
    {
      "constant": true,
      "inputs": [],
      "name": "owner",
      "outputs": [
        {
          "name": "",
          "type": "address"
        }
      ],
      "payable": false,
      "stateMutability": "view",
      "type": "function"
    },
    {
      "constant": true,
      "inputs": [],
      "name": "cTotalSupply",
      "outputs": [
        {
          "name": "",
          "type": "uint256"
        }
      ],
      "payable": false,
      "stateMutability": "view",
      "type": "function"
    },
    {
      "constant": false,
      "inputs": [
        {
          "name": "_id",
          "type": "uint256"
        }
      ],
      "name": "getPayback",
      "outputs": [],
      "payable": false,
      "stateMutability": "nonpayable",
      "type": "function"
    },
    {
      "constant": true,
      "inputs": [],
      "name": "symbol",
      "outputs": [
        {
          "name": "",
          "type": "string"
        }
      ],
      "payable": false,
      "stateMutability": "view",
      "type": "function"
    },
    {
      "constant": false,
      "inputs": [
        {
          "name": "_fromId",
          "type": "uint256"
        },
        {
          "name": "_spender",
          "type": "address"
        },
        {
          "name": "_toId",
          "type": "uint256"
        },
        {
          "name": "_value",
          "type": "uint256"
        }
      ],
      "name": "cApproveFrom",
      "outputs": [
        {
          "name": "success",
          "type": "bool"
        }
      ],
      "payable": false,
      "stateMutability": "nonpayable",
      "type": "function"
    },
    {
      "constant": true,
      "inputs": [],
      "name": "maxHold",
      "outputs": [
        {
          "name": "",
          "type": "uint8"
        }
      ],
      "payable": false,
      "stateMutability": "view",
      "type": "function"
    },
    {
      "constant": true,
      "inputs": [
        {
          "name": "",
          "type": "uint256"
        }
      ],
      "name": "tokenIndexToPoolToken",
      "outputs": [
        {
          "name": "",
          "type": "uint256"
        }
      ],
      "payable": false,
      "stateMutability": "view",
      "type": "function"
    },
    {
      "constant": true,
      "inputs": [
        {
          "name": "",
          "type": "address"
        }
      ],
      "name": "voters",
      "outputs": [
        {
          "name": "",
          "type": "uint256"
        }
      ],
      "payable": false,
      "stateMutability": "view",
      "type": "function"
    },
    {
      "constant": true,
      "inputs": [
        {
          "name": "",
          "type": "uint256"
        }
      ],
      "name": "payback",
      "outputs": [
        {
          "name": "",
          "type": "uint256"
        }
      ],
      "payable": false,
      "stateMutability": "view",
      "type": "function"
    },
    {
      "constant": true,
      "inputs": [
        {
          "name": "",
          "type": "uint256"
        }
      ],
      "name": "tokenIndexToApproved",
      "outputs": [
        {
          "name": "",
          "type": "address"
        }
      ],
      "payable": false,
      "stateMutability": "view",
      "type": "function"
    },
    {
      "constant": false,
      "inputs": [
        {
          "name": "_to",
          "type": "address"
        },
        {
          "name": "_tokenId",
          "type": "uint256"
        }
      ],
      "name": "transfer",
      "outputs": [],
      "payable": false,
      "stateMutability": "nonpayable",
      "type": "function"
    },
    {
      "constant": true,
      "inputs": [
        {
          "name": "_to",
          "type": "address"
        },
        {
          "name": "_toId",
          "type": "uint256"
        }
      ],
      "name": "getLevel",
      "outputs": [
        {
          "name": "",
          "type": "uint256"
        }
      ],
      "payable": false,
      "stateMutability": "view",
      "type": "function"
    },
    {
      "constant": false,
      "inputs": [
        {
          "name": "_id",
          "type": "uint256"
        },
        {
          "name": "_amount",
          "type": "uint256"
        }
      ],
      "name": "setPayback",
      "outputs": [
        {
          "name": "",
          "type": "bool"
        }
      ],
      "payable": false,
      "stateMutability": "nonpayable",
      "type": "function"
    },
    {
      "constant": true,
      "inputs": [
        {
          "name": "_owner",
          "type": "address"
        }
      ],
      "name": "cBalanceOf",
      "outputs": [
        {
          "name": "",
          "type": "uint256"
        }
      ],
      "payable": false,
      "stateMutability": "view",
      "type": "function"
    },
    {
      "constant": false,
      "inputs": [
        {
          "name": "_id",
          "type": "uint256"
        }
      ],
      "name": "activate",
      "outputs": [],
      "payable": false,
      "stateMutability": "nonpayable",
      "type": "function"
    },
    {
      "constant": false,
      "inputs": [],
      "name": "join",
      "outputs": [
        {
          "name": "cowdsuranceId",
          "type": "uint256"
        }
      ],
      "payable": true,
      "stateMutability": "payable",
      "type": "function"
    },
    {
      "constant": false,
      "inputs": [
        {
          "name": "_jury",
          "type": "address"
        },
        {
          "name": "_id",
          "type": "uint256"
        }
      ],
      "name": "addVoter",
      "outputs": [],
      "payable": false,
      "stateMutability": "nonpayable",
      "type": "function"
    },
    {
      "constant": true,
      "inputs": [],
      "name": "rstETHRate",
      "outputs": [
        {
          "name": "",
          "type": "uint256"
        }
      ],
      "payable": false,
      "stateMutability": "view",
      "type": "function"
    },
    {
      "constant": false,
      "inputs": [
        {
          "name": "_from",
          "type": "address"
        },
        {
          "name": "_to",
          "type": "address"
        },
        {
          "name": "_value",
          "type": "uint256"
        }
      ],
      "name": "cTransferFrom",
      "outputs": [
        {
          "name": "success",
          "type": "bool"
        }
      ],
      "payable": false,
      "stateMutability": "nonpayable",
      "type": "function"
    },
    {
      "constant": true,
      "inputs": [
        {
          "name": "_member",
          "type": "address"
        },
        {
          "name": "_status",
          "type": "uint8"
        }
      ],
      "name": "statusCount",
      "outputs": [
        {
          "name": "count",
          "type": "uint256"
        }
      ],
      "payable": false,
      "stateMutability": "view",
      "type": "function"
    },
    {
      "constant": false,
      "inputs": [
        {
          "name": "_id",
          "type": "uint256"
        },
        {
          "name": "_claim",
          "type": "uint256"
        }
      ],
      "name": "claim",
      "outputs": [
        {
          "name": "",
          "type": "bool"
        }
      ],
      "payable": false,
      "stateMutability": "nonpayable",
      "type": "function"
    },
    {
      "constant": true,
      "inputs": [
        {
          "name": "",
          "type": "address"
        }
      ],
      "name": "addressToScore",
      "outputs": [
        {
          "name": "",
          "type": "uint256"
        }
      ],
      "payable": false,
      "stateMutability": "view",
      "type": "function"
    },
    {
      "constant": false,
      "inputs": [
        {
          "name": "_id",
          "type": "uint256"
        },
        {
          "name": "_positive",
          "type": "bool"
        }
      ],
      "name": "vote",
      "outputs": [],
      "payable": false,
      "stateMutability": "nonpayable",
      "type": "function"
    },
    {
      "constant": true,
      "inputs": [
        {
          "name": "_tokenId",
          "type": "uint256"
        }
      ],
      "name": "valueOf",
      "outputs": [
        {
          "name": "value",
          "type": "uint256"
        }
      ],
      "payable": false,
      "stateMutability": "view",
      "type": "function"
    },
    {
      "constant": true,
      "inputs": [
        {
          "name": "",
          "type": "address"
        },
        {
          "name": "",
          "type": "address"
        }
      ],
      "name": "allowanceAmt",
      "outputs": [
        {
          "name": "",
          "type": "uint256"
        }
      ],
      "payable": false,
      "stateMutability": "view",
      "type": "function"
    },
    {
      "constant": true,
      "inputs": [],
      "name": "maxLevel",
      "outputs": [
        {
          "name": "",
          "type": "uint256"
        }
      ],
      "payable": false,
      "stateMutability": "view",
      "type": "function"
    },
    {
      "constant": false,
      "inputs": [
        {
          "name": "_member",
          "type": "address"
        },
        {
          "name": "_score",
          "type": "uint256"
        },
        {
          "name": "_amount",
          "type": "uint256"
        }
      ],
      "name": "scoring",
      "outputs": [],
      "payable": false,
      "stateMutability": "nonpayable",
      "type": "function"
    },
    {
      "constant": true,
      "inputs": [],
      "name": "joinAmountRST",
      "outputs": [
        {
          "name": "",
          "type": "uint256"
        }
      ],
      "payable": false,
      "stateMutability": "view",
      "type": "function"
    },
    {
      "constant": true,
      "inputs": [],
      "name": "newOwner",
      "outputs": [
        {
          "name": "",
          "type": "address"
        }
      ],
      "payable": false,
      "stateMutability": "view",
      "type": "function"
    },
    {
      "constant": true,
      "inputs": [],
      "name": "apply",
      "outputs": [
        {
          "name": "amount",
          "type": "uint256"
        }
      ],
      "payable": false,
      "stateMutability": "view",
      "type": "function"
    },
    {
      "constant": true,
      "inputs": [
        {
          "name": "",
          "type": "uint256"
        }
      ],
      "name": "extensions",
      "outputs": [
        {
          "name": "timeStamp",
          "type": "uint256"
        },
        {
          "name": "activated",
          "type": "uint256"
        },
        {
          "name": "duration",
          "type": "uint256"
        },
        {
          "name": "amount",
          "type": "uint256"
        },
        {
          "name": "paid",
          "type": "uint256"
        },
        {
          "name": "score",
          "type": "uint256"
        },
        {
          "name": "claimNumber",
          "type": "uint8"
        },
        {
          "name": "status",
          "type": "uint8"
        }
      ],
      "payable": false,
      "stateMutability": "view",
      "type": "function"
    },
    {
      "constant": true,
      "inputs": [
        {
          "name": "",
          "type": "address"
        },
        {
          "name": "",
          "type": "address"
        }
      ],
      "name": "allowance",
      "outputs": [
        {
          "name": "",
          "type": "uint256"
        }
      ],
      "payable": false,
      "stateMutability": "view",
      "type": "function"
    },
    {
      "constant": true,
      "inputs": [],
      "name": "getComission",
      "outputs": [
        {
          "name": "commission",
          "type": "uint256"
        }
      ],
      "payable": false,
      "stateMutability": "view",
      "type": "function"
    },
    {
      "constant": true,
      "inputs": [
        {
          "name": "_nodeId",
          "type": "uint256"
        }
      ],
      "name": "getPath",
      "outputs": [
        {
          "name": "path",
          "type": "uint256[]"
        }
      ],
      "payable": false,
      "stateMutability": "view",
      "type": "function"
    },
    {
      "constant": true,
      "inputs": [
        {
          "name": "",
          "type": "address"
        },
        {
          "name": "",
          "type": "address"
        }
      ],
      "name": "allowanceIds",
      "outputs": [
        {
          "name": "",
          "type": "uint256"
        }
      ],
      "payable": false,
      "stateMutability": "view",
      "type": "function"
    },
    {
      "constant": false,
      "inputs": [],
      "name": "getCommission",
      "outputs": [],
      "payable": false,
      "stateMutability": "nonpayable",
      "type": "function"
    },
    {
      "constant": false,
      "inputs": [
        {
          "name": "_newOwner",
          "type": "address"
        }
      ],
      "name": "transferOwnership",
      "outputs": [],
      "payable": false,
      "stateMutability": "nonpayable",
      "type": "function"
    },
    {
      "constant": true,
      "inputs": [
        {
          "name": "_owner",
          "type": "address"
        },
        {
          "name": "_spender",
          "type": "address"
        }
      ],
      "name": "cAllowance",
      "outputs": [
        {
          "name": "",
          "type": "uint256"
        }
      ],
      "payable": false,
      "stateMutability": "view",
      "type": "function"
    },
    {
      "inputs": [
        {
          "name": "_rst",
          "type": "address"
        },
        {
          "name": "_amount",
          "type": "uint256"
        },
        {
          "name": "_only",
          "type": "bool"
        },
        {
          "name": "_max",
          "type": "uint8"
        }
      ],
      "payable": false,
      "stateMutability": "nonpayable",
      "type": "constructor"
    },
    {
      "anonymous": false,
      "inputs": [
        {
          "indexed": false,
          "name": "member",
          "type": "address"
        },
        {
          "indexed": false,
          "name": "score",
          "type": "uint256"
        },
        {
          "indexed": false,
          "name": "amount",
          "type": "uint256"
        }
      ],
      "name": "Apply",
      "type": "event"
    },
    {
      "anonymous": false,
      "inputs": [
        {
          "indexed": false,
          "name": "member",
          "type": "address"
        },
        {
          "indexed": false,
          "name": "id",
          "type": "uint256"
        },
        {
          "indexed": false,
          "name": "amount",
          "type": "uint256"
        }
      ],
      "name": "Join",
      "type": "event"
    },
    {
      "anonymous": false,
      "inputs": [
        {
          "indexed": false,
          "name": "member",
          "type": "address"
        },
        {
          "indexed": false,
          "name": "score",
          "type": "uint256"
        },
        {
          "indexed": false,
          "name": "amount",
          "type": "uint256"
        }
      ],
      "name": "Scoring",
      "type": "event"
    },
    {
      "anonymous": false,
      "inputs": [
        {
          "indexed": false,
          "name": "id",
          "type": "uint256"
        },
        {
          "indexed": false,
          "name": "amount",
          "type": "uint256"
        },
        {
          "indexed": false,
          "name": "score",
          "type": "uint256"
        }
      ],
      "name": "Activate",
      "type": "event"
    },
    {
      "anonymous": false,
      "inputs": [
        {
          "indexed": false,
          "name": "id",
          "type": "uint256"
        },
        {
          "indexed": false,
          "name": "claim",
          "type": "uint256"
        },
        {
          "indexed": false,
          "name": "number",
          "type": "uint8"
        }
      ],
      "name": "Claim",
      "type": "event"
    },
    {
      "anonymous": false,
      "inputs": [
        {
          "indexed": false,
          "name": "jury",
          "type": "address"
        },
        {
          "indexed": false,
          "name": "id",
          "type": "uint256"
        },
        {
          "indexed": false,
          "name": "positive",
          "type": "bool"
        }
      ],
      "name": "Vote",
      "type": "event"
    },
    {
      "anonymous": false,
      "inputs": [
        {
          "indexed": false,
          "name": "reciever",
          "type": "address"
        },
        {
          "indexed": false,
          "name": "id",
          "type": "uint256"
        },
        {
          "indexed": false,
          "name": "amount",
          "type": "uint256"
        },
        {
          "indexed": false,
          "name": "status",
          "type": "uint8"
        }
      ],
      "name": "Payment",
      "type": "event"
    },
    {
      "anonymous": false,
      "inputs": [
        {
          "indexed": false,
          "name": "id",
          "type": "uint256"
        },
        {
          "indexed": false,
          "name": "poolId",
          "type": "uint256"
        },
        {
          "indexed": false,
          "name": "level",
          "type": "uint8"
        }
      ],
      "name": "InsertPool",
      "type": "event"
    },
    {
      "anonymous": false,
      "inputs": [
        {
          "indexed": false,
          "name": "id",
          "type": "uint256"
        },
        {
          "indexed": false,
          "name": "superPoolValue",
          "type": "uint256"
        },
        {
          "indexed": false,
          "name": "poolValue",
          "type": "uint256"
        },
        {
          "indexed": false,
          "name": "subPoolValue",
          "type": "uint256"
        },
        {
          "indexed": false,
          "name": "comission",
          "type": "uint256"
        }
      ],
      "name": "DistributeValue",
      "type": "event"
    },
    {
      "anonymous": false,
      "inputs": [
        {
          "indexed": false,
          "name": "id",
          "type": "uint256"
        },
        {
          "indexed": false,
          "name": "value",
          "type": "uint256"
        }
      ],
      "name": "SecondTierCall",
      "type": "event"
    },
    {
      "anonymous": false,
      "inputs": [
        {
          "indexed": false,
          "name": "id",
          "type": "uint256"
        },
        {
          "indexed": false,
          "name": "poolId",
          "type": "uint256"
        },
        {
          "indexed": false,
          "name": "value",
          "type": "uint256"
        },
        {
          "indexed": false,
          "name": "level",
          "type": "uint8"
        }
      ],
      "name": "ShortOfFunds",
      "type": "event"
    },
    {
      "anonymous": false,
      "inputs": [
        {
          "indexed": false,
          "name": "id",
          "type": "uint256"
        },
        {
          "indexed": false,
          "name": "value",
          "type": "uint256"
        },
        {
          "indexed": false,
          "name": "level",
          "type": "uint8"
        }
      ],
      "name": "PaymentValue",
      "type": "event"
    },
    {
      "anonymous": false,
      "inputs": [
        {
          "indexed": false,
          "name": "nodeId",
          "type": "uint256"
        },
        {
          "indexed": false,
          "name": "parentId",
          "type": "uint256"
        },
        {
          "indexed": false,
          "name": "level",
          "type": "uint256"
        }
      ],
      "name": "AddToken",
      "type": "event"
    },
    {
      "anonymous": false,
      "inputs": [
        {
          "indexed": false,
          "name": "nodeId",
          "type": "uint256"
        },
        {
          "indexed": false,
          "name": "level",
          "type": "uint256"
        }
      ],
      "name": "RemoveToken",
      "type": "event"
    },
    {
      "anonymous": false,
      "inputs": [
        {
          "indexed": false,
          "name": "from",
          "type": "address"
        },
        {
          "indexed": false,
          "name": "fromId",
          "type": "uint256"
        },
        {
          "indexed": false,
          "name": "to",
          "type": "address"
        },
        {
          "indexed": false,
          "name": "toId",
          "type": "uint256"
        },
        {
          "indexed": false,
          "name": "value",
          "type": "uint256"
        }
      ],
      "name": "Transfer",
      "type": "event"
    },
    {
      "anonymous": false,
      "inputs": [
        {
          "indexed": false,
          "name": "to",
          "type": "address"
        },
        {
          "indexed": false,
          "name": "toId",
          "type": "uint256"
        },
        {
          "indexed": false,
          "name": "value",
          "type": "uint256"
        }
      ],
      "name": "AddValue",
      "type": "event"
    },
    {
      "anonymous": false,
      "inputs": [
        {
          "indexed": false,
          "name": "from",
          "type": "address"
        },
        {
          "indexed": false,
          "name": "fromId",
          "type": "uint256"
        },
        {
          "indexed": false,
          "name": "value",
          "type": "uint256"
        }
      ],
      "name": "RemoveValue",
      "type": "event"
    },
    {
      "anonymous": false,
      "inputs": [
        {
          "indexed": false,
          "name": "to",
          "type": "address"
        },
        {
          "indexed": false,
          "name": "toId",
          "type": "uint256"
        },
        {
          "indexed": false,
          "name": "level",
          "type": "uint256"
        }
      ],
      "name": "SetLevel",
      "type": "event"
    },
    {
      "anonymous": false,
      "inputs": [
        {
          "indexed": false,
          "name": "to",
          "type": "address"
        },
        {
          "indexed": false,
          "name": "toId",
          "type": "uint256"
        }
      ],
      "name": "IncreaseLevel",
      "type": "event"
    },
    {
      "anonymous": false,
      "inputs": [
        {
          "indexed": true,
          "name": "_prevOwner",
          "type": "address"
        },
        {
          "indexed": true,
          "name": "_newOwner",
          "type": "address"
        }
      ],
      "name": "OwnerUpdate",
      "type": "event"
    },
    {
      "anonymous": false,
      "inputs": [
        {
          "indexed": false,
          "name": "fromId",
          "type": "uint256"
        },
        {
          "indexed": false,
          "name": "spender",
          "type": "address"
        },
        {
          "indexed": false,
          "name": "toId",
          "type": "uint256"
        },
        {
          "indexed": false,
          "name": "value",
          "type": "uint256"
        }
      ],
      "name": "CApproveFrom",
      "type": "event"
    },
    {
      "anonymous": false,
      "inputs": [
        {
          "indexed": false,
          "name": "spender",
          "type": "address"
        },
        {
          "indexed": false,
          "name": "value",
          "type": "uint256"
        }
      ],
      "name": "CApprove",
      "type": "event"
    },
    {
      "anonymous": false,
      "inputs": [
        {
          "indexed": false,
          "name": "from",
          "type": "address"
        },
        {
          "indexed": false,
          "name": "fromId",
          "type": "uint256"
        },
        {
          "indexed": false,
          "name": "to",
          "type": "address"
        },
        {
          "indexed": false,
          "name": "toId",
          "type": "uint256"
        },
        {
          "indexed": false,
          "name": "value",
          "type": "uint256"
        },
        {
          "indexed": false,
          "name": "allowance",
          "type": "uint256"
        }
      ],
      "name": "CTransferFrom",
      "type": "event"
    },
    {
      "anonymous": false,
      "inputs": [
        {
          "indexed": false,
          "name": "to",
          "type": "address"
        },
        {
          "indexed": false,
          "name": "toId",
          "type": "uint256"
        },
        {
          "indexed": false,
          "name": "amount",
          "type": "uint256"
        }
      ],
      "name": "CIssue",
      "type": "event"
    },
    {
      "anonymous": false,
      "inputs": [
        {
          "indexed": false,
          "name": "from",
          "type": "address"
        },
        {
          "indexed": false,
          "name": "fromId",
          "type": "uint256"
        },
        {
          "indexed": false,
          "name": "amount",
          "type": "uint256"
        }
      ],
      "name": "CDestroy",
      "type": "event"
    },
    {
      "anonymous": false,
      "inputs": [
        {
          "indexed": false,
          "name": "from",
          "type": "address"
        },
        {
          "indexed": false,
          "name": "to",
          "type": "address"
        },
        {
          "indexed": false,
          "name": "tokenId",
          "type": "uint256"
        }
      ],
      "name": "Transfer",
      "type": "event"
    },
    {
      "anonymous": false,
      "inputs": [
        {
          "indexed": false,
          "name": "owner",
          "type": "address"
        },
        {
          "indexed": false,
          "name": "approved",
          "type": "address"
        },
        {
          "indexed": false,
          "name": "tokenId",
          "type": "uint256"
        }
      ],
      "name": "Approval",
      "type": "event"
    },
    {
      "anonymous": false,
      "inputs": [
        {
          "indexed": false,
          "name": "value",
          "type": "uint256"
        },
        {
          "indexed": false,
          "name": "metadata",
          "type": "string"
        },
        {
          "indexed": false,
          "name": "kind",
          "type": "uint256"
        },
        {
          "indexed": false,
          "name": "owner",
          "type": "address"
        }
      ],
      "name": "Birth",
      "type": "event"
    }
  ],
  "bytecode": "0x606060405234156200001057600080fd5b60405160808062008022833981016040528080519060200190919080519060200190919080519060200190919080519060200190919050506040805190810160405280601881526020017f4c7567676167652043726f7764737572616e6365204e465400000000000000008152506040805190810160405280600381526020017f4c4353000000000000000000000000000000000000000000000000000000000081525081816000806000620000c562000d46565b620000cf62000d46565b620000d962000d46565b87878181818133600260006101000a81548173ffffffffffffffffffffffffffffffffffffffff021916908373ffffffffffffffffffffffffffffffffffffffff16021790555081600090805190602001906200013892919062000d80565b5080600190805190602001906200015192919062000d80565b50505033600a60006101000a81548173ffffffffffffffffffffffffffffffffffffffff021916908373ffffffffffffffffffffffffffffffffffffffff16021790555050506004600c8190555050506004600c819055506200022460006040805190810160405280600981526020017f5375706572506f6f6c00000000000000000000000000000000000000000000008152506001600a60009054906101000a900473ffffffffffffffffffffffffffffffffffffffff16620007666401000000000262006978176401000000009004565b9550620002a160006040805190810160405280600481526020017f506f6f6c000000000000000000000000000000000000000000000000000000008152506001600a60009054906101000a900473ffffffffffffffffffffffffffffffffffffffff16620007666401000000000262006978176401000000009004565b94506200031e60006040805190810160405280600781526020017f537562506f6f6c000000000000000000000000000000000000000000000000008152506002600a60009054906101000a900473ffffffffffffffffffffffffffffffffffffffff16620007666401000000000262006978176401000000009004565b9350620003408587620009cc6401000000000262001cb4176401000000009004565b620003608486620009cc6401000000000262001cb4176401000000009004565b60c060405190810160405280600060ff16815260200160018152602001600a815260200160018152602001878152602001600a8152509250600e8054806001018281620003ae919062000e07565b9160005260206000209060060201600085909190915060008201518160000160006101000a81548160ff021916908360ff1602179055506020820151816001015560408201518160020155606082015181600301556080820151816004015560a0820151816005015550505060c060405190810160405280600160ff168152602001600a8152602001606481526020016001815260200186815260200160148152509150600e805480600101828162000468919062000e07565b9160005260206000209060060201600084909190915060008201518160000160006101000a81548160ff021916908360ff1602179055506020820151816001015560408201518160020155606082015181600301556080820151816004015560a0820151816005015550505060c060405190810160405280600260ff1681526020016103e88152602001606481526020016001815260200185815260200160328152509050600e805480600101828162000523919062000e07565b9160005260206000209060060201600083909190915060008201518160000160006101000a81548160ff021916908360ff1602179055506020820151816001015560408201518160020155606082015181600301556080820151816004015560a08201518160050155505050505050505050505067016345785d8a0000600f6000018190555062ed4e00600f60010181905550678ac7230489e80000600f600201819055506001600f60030160006101000a81548160ff021916908360ff1602179055506050600f60030160016101000a81548160ff021916908360ff160217905550678ac7230489e80000600f600401819055506003600f60050160006101000a81548160ff021916908360ff1602179055506202a30060ff16600f600601819055506005600f60070160006101000a81548160ff021916908360ff160217905550505083601c60006101000a81548173ffffffffffffffffffffffffffffffffffffffff021916908373ffffffffffffffffffffffffffffffffffffffff1602179055506000831415620006c1576001601d81905550620006c9565b82601d819055505b600060ff168160ff161415620006fb576003601e60016101000a81548160ff021916908360ff16021790555062000717565b80601e60016101000a81548160ff021916908360ff1602179055505b81601e60006101000a81548160ff0219169083151502179055506701aa535d3d0c0000601f819055506032602060006101000a81548160ff021916908360ff160217905550505050506200106a565b60006200077262000e3c565b600060a0604051908101604052808881526020018781526020018681526020016000815260200160008152509150600160038054806001018281620007b8919062000e74565b91600052602060002090600502016000859091909150600082015181600001556020820151816001019080519060200190620007f692919062000ea9565b506040820151816002015560608201518160030155608082015181600401555050039050600063ffffffff16811415620008a55760016003805480600101828162000842919062000e74565b916000526020600020906005020160008590919091506000820151816000015560208201518160010190805190602001906200088092919062000ea9565b5060408201518160020155606082015181600301556080820151816004015550500390505b8063ffffffff1681141515620008ba57600080fd5b7fdea8e87d69047e1b3cd43ad599d34e3eacfe4408b4dfc5d0f6ac6a15a468de5c8787878760405180858152602001806020018481526020018373ffffffffffffffffffffffffffffffffffffffff1673ffffffffffffffffffffffffffffffffffffffff168152602001828103825285818151815260200191508051906020019080838360005b838110156200095f57808201518184015260208101905062000942565b50505050905090810190601f1680156200098d5780820380516001836020036101000a031916815260200191505b509550505050505060405180910390a1620009bf6000858362000b136401000000000262005d45176401000000009004565b8092505050949350505050565b60008214158015620009e2575060038054905082105b1515620009ee57600080fd5b6000811415801562000a04575060038054905081105b151562000a1057600080fd5b6001600c540360038281548110151562000a2657fe5b90600052602060002090600502016003015410151562000a4557600080fd5b80600d600084815260200190815260200160002081905550600160038281548110151562000a6f57fe5b9060005260206000209060050201600301540160038381548110151562000a9257fe5b9060005260206000209060050201600301819055507f0900f87897aa374bb21fa36753905fa2944dd2301242246101a9047a0ed227a0828260038581548110151562000ada57fe5b90600052602060002090600502016003015460405180848152602001838152602001828152602001935050505060405180910390a15050565b61040060038281548110151562000b2657fe5b9060005260206000209060050201600401541415151562000b4357fe5b600560008373ffffffffffffffffffffffffffffffffffffffff1673ffffffffffffffffffffffffffffffffffffffff16815260200190815260200160002060008154809291906001019190505550816004600083815260200190815260200160002060006101000a81548173ffffffffffffffffffffffffffffffffffffffff021916908373ffffffffffffffffffffffffffffffffffffffff160217905550600073ffffffffffffffffffffffffffffffffffffffff168373ffffffffffffffffffffffffffffffffffffffff1614151562000ca257600560008473ffffffffffffffffffffffffffffffffffffffff1673ffffffffffffffffffffffffffffffffffffffff16815260200190815260200160002060008154809291906001900391905055506006600082815260200190815260200160002060006101000a81549073ffffffffffffffffffffffffffffffffffffffff02191690555b7fddf252ad1be2c89b69c2b068fc378daa952ba7f163c4a11628f55a4df523b3ef838383604051808473ffffffffffffffffffffffffffffffffffffffff1673ffffffffffffffffffffffffffffffffffffffff1681526020018373ffffffffffffffffffffffffffffffffffffffff1673ffffffffffffffffffffffffffffffffffffffff168152602001828152602001935050505060405180910390a1505050565b60c060405190810160405280600060ff16815260200160008152602001600081526020016000815260200160008152602001600081525090565b828054600181600116156101000203166002900490600052602060002090601f016020900481019282601f1062000dc357805160ff191683800117855562000df4565b8280016001018555821562000df4579182015b8281111562000df357825182559160200191906001019062000dd6565b5b50905062000e03919062000f30565b5090565b81548183558181151162000e375760060281600602836000526020600020918201910162000e36919062000f58565b5b505050565b60a0604051908101604052806000815260200162000e5962000fb6565b81526020016000815260200160008152602001600081525090565b81548183558181151162000ea45760050281600502836000526020600020918201910162000ea3919062000fca565b5b505050565b828054600181600116156101000203166002900490600052602060002090601f016020900481019282601f1062000eec57805160ff191683800117855562000f1d565b8280016001018555821562000f1d579182015b8281111562000f1c57825182559160200191906001019062000eff565b5b50905062000f2c919062000f30565b5090565b62000f5591905b8082111562000f5157600081600090555060010162000f37565b5090565b90565b62000fb391905b8082111562000faf57600080820160006101000a81549060ff0219169055600182016000905560028201600090556003820160009055600482016000905560058201600090555060060162000f5f565b5090565b90565b602060405190810160405280600081525090565b6200101b91905b80821115620010175760008082016000905560018201600062000ff591906200101e565b6002820160009055600382016000905560048201600090555060050162000fd1565b5090565b90565b50805460018160011615610100020316600290046000825580601f1062001046575062001067565b601f01602090049060005260206000209081019062001066919062000f30565b5b50565b616fa8806200107a6000396000f300606060405260043610610316576000357c0100000000000000000000000000000000000000000000000000000000900463ffffffff168062607b7f1461031b57806301ffc9a71461035657806306fdde03146103b0578063095ea7b31461043e5780630e13dd741461048057806317b9ebec146104d557806318160ddd146105015780631cced51b1461052a5780631d36e06c1461057b5780631de565d6146105de57806323b872dd14610633578063296250051461069457806332c4ee83146106df57806336c5d7241461073957806339e6cdb11461075c5780633c7e7d281461079e5780634cabcfac146107eb5780634dc621fa146108365780635237277714610865578063545c3d55146108925780636352211e146108dd57806366d80ba5146109405780636914db601461099a57806370a0823114610a3657806379ba509714610a8357806381d12c5814610a985780638462151c14610b045780638903573014610b925780638b3c99e314610c0b5780638da5cb5b14610c2e5780638f1fc77c14610c83578063930f34fd14610cac57806395d89b4114610ccf57806398dc5c9514610d5d5780639a6c614e14610dc95780639ca0883114610df8578063a3ec138d14610e2f578063a846c2fd14610e7c578063a8bd9c3214610eb3578063a9059cbb14610f16578063b121f2ac14610f58578063b129273f14610fae578063b135707914610ff2578063b260c42a1461103f578063b688a36314611062578063b9f05f2f14611080578063bc89b1cf146110c2578063bf622665146110eb578063c0521d7614611164578063c3490263146111bd578063c52380e914611201578063c9d27afe1461124e578063cadf338f1461127c578063cbbc9f89146112b3578063cc06c3591461131f578063cf7c436714611348578063d0d8074a14611393578063d4ee1d90146113bc578063db595b3b14611411578063db85d59c1461143a578063dd62ed3e146114ae578063dd6d3ca71461151a578063e176507314611543578063e527cc9d146115bb578063e65d6b4914611627578063f2fde38b1461163c578063f81fd7ea14611675575b600080fd5b341561032657600080fd5b61033c60048080359060200190919050506116e1565b604051808215151515815260200191505060405180910390f35b341561036157600080fd5b61039660048080357bffffffffffffffffffffffffffffffffffffffffffffffffffffffff1916906020019091905050611789565b604051808215151515815260200191505060405180910390f35b34156103bb57600080fd5b6103c3611a9a565b6040518080602001828103825283818151815260200191508051906020019080838360005b838110156104035780820151818401526020810190506103e8565b50505050905090810190601f1680156104305780820380516001836020036101000a031916815260200191505b509250505060405180910390f35b341561044957600080fd5b61047e600480803573ffffffffffffffffffffffffffffffffffffffff16906020019091908035906020019091905050611b42565b005b341561048b57600080fd5b6104a16004808035906020019091905050611c04565b60405180841515151581526020018360ff1660ff1681526020018260ff1660ff168152602001935050505060405180910390f35b34156104e057600080fd5b6104ff6004808035906020019091908035906020019091905050611cb4565b005b341561050c57600080fd5b610514611df2565b6040518082815260200191505060405180910390f35b341561053557600080fd5b61053d611e14565b6040518082600460200280838360005b8381101561056857808201518184015260208101905061054d565b5050505090500191505060405180910390f35b341561058657600080fd5b61059c6004808035906020019091905050611f81565b604051808273ffffffffffffffffffffffffffffffffffffffff1673ffffffffffffffffffffffffffffffffffffffff16815260200191505060405180910390f35b34156105e957600080fd5b6105f1611fb4565b604051808273ffffffffffffffffffffffffffffffffffffffff1673ffffffffffffffffffffffffffffffffffffffff16815260200191505060405180910390f35b341561063e57600080fd5b610692600480803573ffffffffffffffffffffffffffffffffffffffff1690602001909190803573ffffffffffffffffffffffffffffffffffffffff16906020019091908035906020019091905050611fda565b005b341561069f57600080fd5b6106dd600480803573ffffffffffffffffffffffffffffffffffffffff1690602001909190803590602001909190803590602001909190505061208b565b005b34156106ea57600080fd5b61071f600480803573ffffffffffffffffffffffffffffffffffffffff16906020019091908035906020019091905050612196565b604051808215151515815260200191505060405180910390f35b341561074457600080fd5b61075a600480803590602001909190505061242b565b005b341561076757600080fd5b61079c600480803573ffffffffffffffffffffffffffffffffffffffff169060200190919080359060200190919050506124e0565b005b34156107a957600080fd5b6107d5600480803573ffffffffffffffffffffffffffffffffffffffff16906020019091905050612605565b6040518082815260200191505060405180910390f35b34156107f657600080fd5b610834600480803573ffffffffffffffffffffffffffffffffffffffff1690602001909190803590602001909190803590602001909190505061261d565b005b341561084157600080fd5b610849612716565b604051808260ff1660ff16815260200191505060405180910390f35b341561087057600080fd5b610878612729565b604051808215151515815260200191505060405180910390f35b341561089d57600080fd5b6108db600480803573ffffffffffffffffffffffffffffffffffffffff1690602001909190803590602001909190803590602001909190505061273c565b005b34156108e857600080fd5b6108fe6004808035906020019091905050612835565b604051808273ffffffffffffffffffffffffffffffffffffffff1673ffffffffffffffffffffffffffffffffffffffff16815260200191505060405180910390f35b341561094b57600080fd5b610980600480803573ffffffffffffffffffffffffffffffffffffffff169060200190919080359060200190919050506128b3565b604051808215151515815260200191505060405180910390f35b34156109a557600080fd5b6109bb6004808035906020019091905050612919565b6040518080602001828103825283818151815260200191508051906020019080838360005b838110156109fb5780820151818401526020810190506109e0565b50505050905090810190601f168015610a285780820380516001836020036101000a031916815260200191505b509250505060405180910390f35b3415610a4157600080fd5b610a6d600480803573ffffffffffffffffffffffffffffffffffffffff169060200190919050506129e1565b6040518082815260200191505060405180910390f35b3415610a8e57600080fd5b610a96612a2a565b005b3415610aa357600080fd5b610ab96004808035906020019091905050612bcb565b604051808781526020018681526020018581526020018460ff1660ff1681526020018360ff1660ff1681526020018260ff1660ff168152602001965050505050505060405180910390f35b3415610b0f57600080fd5b610b3b600480803573ffffffffffffffffffffffffffffffffffffffff16906020019091905050612c2e565b6040518080602001828103825283818151815260200191508051906020019060200280838360005b83811015610b7e578082015181840152602081019050610b63565b505050509050019250505060405180910390f35b3415610b9d57600080fd5b610ba5612c46565b604051808a81526020018981526020018881526020018760ff1660ff1681526020018660ff1660ff1681526020018581526020018460ff1660ff1681526020018381526020018260ff1660ff168152602001995050505050505050505060405180910390f35b3415610c1657600080fd5b610c2c6004808035906020019091905050612cb6565b005b3415610c3957600080fd5b610c416132cd565b604051808273ffffffffffffffffffffffffffffffffffffffff1673ffffffffffffffffffffffffffffffffffffffff16815260200191505060405180910390f35b3415610c8e57600080fd5b610c966132f3565b6040518082815260200191505060405180910390f35b3415610cb757600080fd5b610ccd600480803590602001909190505061334d565b005b3415610cda57600080fd5b610ce261341e565b6040518080602001828103825283818151815260200191508051906020019080838360005b83811015610d22578082015181840152602081019050610d07565b50505050905090810190601f168015610d4f5780820380516001836020036101000a031916815260200191505b509250505060405180910390f35b3415610d6857600080fd5b610daf600480803590602001909190803573ffffffffffffffffffffffffffffffffffffffff169060200190919080359060200190919080359060200190919050506134c6565b604051808215151515815260200191505060405180910390f35b3415610dd457600080fd5b610ddc613752565b604051808260ff1660ff16815260200191505060405180910390f35b3415610e0357600080fd5b610e196004808035906020019091905050613765565b6040518082815260200191505060405180910390f35b3415610e3a57600080fd5b610e66600480803573ffffffffffffffffffffffffffffffffffffffff1690602001909190505061377d565b6040518082815260200191505060405180910390f35b3415610e8757600080fd5b610e9d6004808035906020019091905050613795565b6040518082815260200191505060405180910390f35b3415610ebe57600080fd5b610ed460048080359060200190919050506137ad565b604051808273ffffffffffffffffffffffffffffffffffffffff1673ffffffffffffffffffffffffffffffffffffffff16815260200191505060405180910390f35b3415610f2157600080fd5b610f56600480803573ffffffffffffffffffffffffffffffffffffffff169060200190919080359060200190919050506137e0565b005b3415610f6357600080fd5b610f98600480803573ffffffffffffffffffffffffffffffffffffffff1690602001909190803590602001909190505061387b565b6040518082815260200191505060405180910390f35b3415610fb957600080fd5b610fd860048080359060200190919080359060200190919050506138bb565b604051808215151515815260200191505060405180910390f35b3415610ffd57600080fd5b611029600480803573ffffffffffffffffffffffffffffffffffffffff169060200190919050506139f2565b6040518082815260200191505060405180910390f35b341561104a57600080fd5b6110606004808035906020019091905050613a76565b005b61106a613abd565b6040518082815260200191505060405180910390f35b341561108b57600080fd5b6110c0600480803573ffffffffffffffffffffffffffffffffffffffff16906020019091908035906020019091905050613f31565b005b34156110cd57600080fd5b6110d561416d565b6040518082815260200191505060405180910390f35b34156110f657600080fd5b61114a600480803573ffffffffffffffffffffffffffffffffffffffff1690602001909190803573ffffffffffffffffffffffffffffffffffffffff16906020019091908035906020019091905050614173565b604051808215151515815260200191505060405180910390f35b341561116f57600080fd5b6111a7600480803573ffffffffffffffffffffffffffffffffffffffff1690602001909190803560ff169060200190919050506147e8565b6040518082815260200191505060405180910390f35b34156111c857600080fd5b6111e76004808035906020019091908035906020019091905050614877565b604051808215151515815260200191505060405180910390f35b341561120c57600080fd5b611238600480803573ffffffffffffffffffffffffffffffffffffffff16906020019091905050614bb8565b6040518082815260200191505060405180910390f35b341561125957600080fd5b61127a60048080359060200190919080351515906020019091905050614bd0565b005b341561128757600080fd5b61129d6004808035906020019091905050614dd8565b6040518082815260200191505060405180910390f35b34156112be57600080fd5b611309600480803573ffffffffffffffffffffffffffffffffffffffff1690602001909190803573ffffffffffffffffffffffffffffffffffffffff16906020019091905050614e02565b6040518082815260200191505060405180910390f35b341561132a57600080fd5b611332614e27565b6040518082815260200191505060405180910390f35b341561135357600080fd5b611391600480803573ffffffffffffffffffffffffffffffffffffffff16906020019091908035906020019091908035906020019091905050614e2d565b005b341561139e57600080fd5b6113a6614ff3565b6040518082815260200191505060405180910390f35b34156113c757600080fd5b6113cf614ff9565b604051808273ffffffffffffffffffffffffffffffffffffffff1673ffffffffffffffffffffffffffffffffffffffff16815260200191505060405180910390f35b341561141c57600080fd5b61142461501f565b6040518082815260200191505060405180910390f35b341561144557600080fd5b61145b600480803590602001909190505061511d565b604051808981526020018881526020018781526020018681526020018581526020018481526020018360ff1660ff1681526020018260ff1660ff1681526020019850505050505050505060405180910390f35b34156114b957600080fd5b611504600480803573ffffffffffffffffffffffffffffffffffffffff1690602001909190803573ffffffffffffffffffffffffffffffffffffffff1690602001909190505061517f565b6040518082815260200191505060405180910390f35b341561152557600080fd5b61152d6151a4565b6040518082815260200191505060405180910390f35b341561154e57600080fd5b61156460048080359060200190919050506151cd565b6040518080602001828103825283818151815260200191508051906020019060200280838360005b838110156115a757808201518184015260208101905061158c565b505050509050019250505060405180910390f35b34156115c657600080fd5b611611600480803573ffffffffffffffffffffffffffffffffffffffff1690602001909190803573ffffffffffffffffffffffffffffffffffffffff16906020019091905050615244565b6040518082815260200191505060405180910390f35b341561163257600080fd5b61163a615269565b005b341561164757600080fd5b611673600480803573ffffffffffffffffffffffffffffffffffffffff16906020019091905050615362565b005b341561168057600080fd5b6116cb600480803573ffffffffffffffffffffffffffffffffffffffff1690602001909190803573ffffffffffffffffffffffffffffffffffffffff1690602001909190505061545c565b6040518082815260200191505060405180910390f35b6000600a60009054906101000a900473ffffffffffffffffffffffffffffffffffffffff1673ffffffffffffffffffffffffffffffffffffffff163373ffffffffffffffffffffffffffffffffffffffff1614151561173c57fe5b60008214158015611751575060038054905082105b151561175c57600080fd5b61176782600261555a565b151561176f57fe5b6117788261583c565b151561178057fe5b60019050919050565b600060405180807f737570706f727473496e74657266616365286279746573342900000000000000815250601901905060405180910390207bffffffffffffffffffffffffffffffffffffffffffffffffffffffff1916827bffffffffffffffffffffffffffffffffffffffffffffffffffffffff19161480611a93575060405180807f746f6b656e4d657461646174612875696e743235362c737472696e6729000000815250601d019050604051809103902060405180807f746f6b656e734f664f776e6572286164647265737329000000000000000000008152506016019050604051809103902060405180807f7472616e7366657246726f6d28616464726573732c616464726573732c75696e81526020017f74323536290000000000000000000000000000000000000000000000000000008152506025019050604051809103902060405180807f7472616e7366657228616464726573732c75696e7432353629000000000000008152506019019050604051809103902060405180807f617070726f766528616464726573732c75696e743235362900000000000000008152506018019050604051809103902060405180807f6f776e65724f662875696e7432353629000000000000000000000000000000008152506010019050604051809103902060405180807f62616c616e63654f6628616464726573732900000000000000000000000000008152506012019050604051809103902060405180807f746f74616c537570706c79282900000000000000000000000000000000000000815250600d019050604051809103902060405180807f73796d626f6c28290000000000000000000000000000000000000000000000008152506008019050604051809103902060405180807f6e616d6528290000000000000000000000000000000000000000000000000000815250600601905060405180910390201818181818181818187bffffffffffffffffffffffffffffffffffffffffffffffffffffffff1916827bffffffffffffffffffffffffffffffffffffffffffffffffffffffff1916145b9050919050565b611aa2616bb9565b60008054600181600116156101000203166002900480601f016020809104026020016040519081016040528092919081815260200182805460018160011615610100020316600290048015611b385780601f10611b0d57610100808354040283529160200191611b38565b820191906000526020600020905b815481529060010190602001808311611b1b57829003601f168201915b5050505050905090565b611b4c3382615c17565b1515611b5757600080fd5b611b618183615c83565b7f8c5be1e5ebec7d5bd14f71427d1e84f3dd0314c0f7b2291e5b200ac8c7c3b925338383604051808473ffffffffffffffffffffffffffffffffffffffff1673ffffffffffffffffffffffffffffffffffffffff1681526020018373ffffffffffffffffffffffffffffffffffffffff1673ffffffffffffffffffffffffffffffffffffffff168152602001828152602001935050505060405180910390a15050565b6000806000806000808614151515611c1b57600080fd5b60026005811115611c2857fe5b6019600088815260200190815260200160002060060160019054906101000a900460ff1660ff16141515611c5b57600080fd5b601b60008781526020019081526020016000209150816002015482600101540190504281111594508160030160009054906101000a900460ff1693508160030160019054906101000a900460ff16925050509193909250565b60008214158015611cc9575060038054905082105b1515611cd457600080fd5b60008114158015611ce9575060038054905081105b1515611cf457600080fd5b6001600c5403600382815481101515611d0957fe5b906000526020600020906005020160030154101515611d2757600080fd5b80600d6000848152602001908152602001600020819055506001600382815481101515611d5057fe5b90600052602060002090600502016003015401600383815481101515611d7257fe5b9060005260206000209060050201600301819055507f0900f87897aa374bb21fa36753905fa2944dd2301242246101a9047a0ed227a08282600385815481101515611db957fe5b90600052602060002090600502016003015460405180848152602001838152602001828152602001935050505060405180910390a15050565b60008060038054905090506000811115611e0d576001810390505b8091505090565b611e1c616bcd565b6000806000836000600481101515611e3057fe5b6020020181815250506000836001600481101515611e4a57fe5b6020020181815250506000836002600481101515611e6457fe5b6020020181815250506000836003600481101515611e7e57fe5b602002018181525050600190505b600380549050811015611f7c57600381815481101515611ea857fe5b9060005260206000209060050201600301549150600c548260ff161015611f2057600381815481101515611ed857fe5b906000526020600020906005020160000154838360ff16600481101515611efb57fe5b602002015101838360ff16600481101515611f1257fe5b602002018181525050611f6f565b600381815481101515611f2f57fe5b906000526020600020906005020160000154836003600481101515611f5057fe5b602002015101836003600481101515611f6557fe5b6020020181815250505b8080600101915050611e8c565b505090565b60046020528060005260406000206000915054906101000a900473ffffffffffffffffffffffffffffffffffffffff1681565b601c60009054906101000a900473ffffffffffffffffffffffffffffffffffffffff1681565b600073ffffffffffffffffffffffffffffffffffffffff168273ffffffffffffffffffffffffffffffffffffffff161415151561201657600080fd5b3073ffffffffffffffffffffffffffffffffffffffff168273ffffffffffffffffffffffffffffffffffffffff161415151561205157600080fd5b61205b3382615cd9565b151561206657600080fd5b6120708382615c17565b151561207b57600080fd5b612086838383615d45565b505050565b600a60009054906101000a900473ffffffffffffffffffffffffffffffffffffffff1673ffffffffffffffffffffffffffffffffffffffff163373ffffffffffffffffffffffffffffffffffffffff161415156120e457fe5b6120ee8383615c17565b15156120f957600080fd5b8060038381548110151561210957fe5b9060005260206000209060050201600301819055507f48ed1b5769aee6cf16cda3da1db2a0acf83c194c9d2a98ebeff4904567af58f6838383604051808473ffffffffffffffffffffffffffffffffffffffff1673ffffffffffffffffffffffffffffffffffffffff168152602001838152602001828152602001935050505060405180910390a1505050565b600080600080600073ffffffffffffffffffffffffffffffffffffffff168673ffffffffffffffffffffffffffffffffffffffff16141515156121d857600080fd5b600085141515156121e857600080fd5b3392506121f483615f75565b91506121ff86615f75565b905080821415151561221057600080fd5b6000821415151561222057600080fd5b6000811415151561223057600080fd5b80600860008573ffffffffffffffffffffffffffffffffffffffff1673ffffffffffffffffffffffffffffffffffffffff16815260200190815260200160002060008873ffffffffffffffffffffffffffffffffffffffff1673ffffffffffffffffffffffffffffffffffffffff1681526020019081526020016000208190555081600860008573ffffffffffffffffffffffffffffffffffffffff1673ffffffffffffffffffffffffffffffffffffffff16815260200190815260200160002060008573ffffffffffffffffffffffffffffffffffffffff1673ffffffffffffffffffffffffffffffffffffffff1681526020019081526020016000208190555084600960008573ffffffffffffffffffffffffffffffffffffffff1673ffffffffffffffffffffffffffffffffffffffff16815260200190815260200160002060008873ffffffffffffffffffffffffffffffffffffffff1673ffffffffffffffffffffffffffffffffffffffff168152602001908152602001600020819055507fe051949e9a44e2e9c21ee7d1c7b03ef0bf501aa3b7c4616a8543f229c0bede7a8686604051808373ffffffffffffffffffffffffffffffffffffffff1673ffffffffffffffffffffffffffffffffffffffff1681526020018281526020019250505060405180910390a16001935050505092915050565b6000808214158015612441575060038054905082105b151561244c57600080fd5b61245582615fc5565b905060008114151561246657600080fd5b600d6000838152602001908152602001600020600090557f399c331be71add502e95a2402ba7370605a945c1c6c1dc01c5e30f7e896cfa56826003848154811015156124ae57fe5b906000526020600020906005020160030154604051808381526020018281526020019250505060405180910390a15050565b600a60009054906101000a900473ffffffffffffffffffffffffffffffffffffffff1673ffffffffffffffffffffffffffffffffffffffff163373ffffffffffffffffffffffffffffffffffffffff1614151561253957fe5b6125438282615c17565b151561254e57600080fd5b600160038281548110151561255f57fe5b9060005260206000209060050201600301540160038281548110151561258157fe5b9060005260206000209060050201600301819055507fb6ffa2bc58069f160ac94855c396bc8a7c591ae4b9e69d78cc004ad2e4d70d858282604051808373ffffffffffffffffffffffffffffffffffffffff1673ffffffffffffffffffffffffffffffffffffffff1681526020018281526020019250505060405180910390a15050565b60176020528060005260406000206000915090505481565b60008073ffffffffffffffffffffffffffffffffffffffff168473ffffffffffffffffffffffffffffffffffffffff161415151561265a57600080fd5b6000821415151561266a57600080fd5b82905060008114156126825761267f84615f75565b90505b6000811415151561269257600080fd5b61269d84828461603d565b7f8ee078ba6dd38678f9ffdc8f1df2d512559df0cae2db32c829459127e1003197848484604051808473ffffffffffffffffffffffffffffffffffffffff1673ffffffffffffffffffffffffffffffffffffffff168152602001838152602001828152602001935050505060405180910390a150505050565b602060009054906101000a900460ff1681565b601e60009054906101000a900460ff1681565b60008073ffffffffffffffffffffffffffffffffffffffff168473ffffffffffffffffffffffffffffffffffffffff161415151561277957600080fd5b6000821415151561278957600080fd5b82905060008114156127a15761279e84615f75565b90505b600081141515156127b157600080fd5b6127bc848284616150565b7ff3d0e22890d929d2a1cd5ca9e5f6498c4271ce2f0223ab4092297c2d11c9ef75848484604051808473ffffffffffffffffffffffffffffffffffffffff1673ffffffffffffffffffffffffffffffffffffffff168152602001838152602001828152602001935050505060405180910390a150505050565b6000806004600084815260200190815260200160002060009054906101000a900473ffffffffffffffffffffffffffffffffffffffff169050600073ffffffffffffffffffffffffffffffffffffffff168173ffffffffffffffffffffffffffffffffffffffff16141515156128aa57600080fd5b80915050919050565b600080600073ffffffffffffffffffffffffffffffffffffffff168473ffffffffffffffffffffffffffffffffffffffff16141515156128f257600080fd5b6000831415151561290257600080fd5b339050612910818585614173565b91505092915050565b612921616bb9565b60038281548110151561293057fe5b90600052602060002090600502016001018054600181600116156101000203166002900480601f0160208091040260200160405190810160405280929190818152602001828054600181600116156101000203166002900480156129d55780601f106129aa576101008083540402835291602001916129d5565b820191906000526020600020905b8154815290600101906020018083116129b857829003601f168201915b50505050509050919050565b6000600560008373ffffffffffffffffffffffffffffffffffffffff1673ffffffffffffffffffffffffffffffffffffffff168152602001908152602001600020549050919050565b600b60009054906101000a900473ffffffffffffffffffffffffffffffffffffffff1673ffffffffffffffffffffffffffffffffffffffff163373ffffffffffffffffffffffffffffffffffffffff16141515612a8657600080fd5b600b60009054906101000a900473ffffffffffffffffffffffffffffffffffffffff1673ffffffffffffffffffffffffffffffffffffffff16600a60009054906101000a900473ffffffffffffffffffffffffffffffffffffffff1673ffffffffffffffffffffffffffffffffffffffff167f343765429aea5a34b3ff6a3785a98a5abb2597aca87bfbb58632c173d585373a60405160405180910390a3600b60009054906101000a900473ffffffffffffffffffffffffffffffffffffffff16600a60006101000a81548173ffffffffffffffffffffffffffffffffffffffff021916908373ffffffffffffffffffffffffffffffffffffffff1602179055506000600b60006101000a81548173ffffffffffffffffffffffffffffffffffffffff021916908373ffffffffffffffffffffffffffffffffffffffff160217905550565b601b6020528060005260406000206000915090508060000154908060010154908060020154908060030160009054906101000a900460ff16908060030160019054906101000a900460ff16908060030160029054906101000a900460ff16905086565b612c36616bf5565b612c3f82616234565b9050919050565b600f8060000154908060010154908060020154908060030160009054906101000a900460ff16908060030160019054906101000a900460ff16908060040154908060050160009054906101000a900460ff16908060060154908060070160009054906101000a900460ff16905089565b60008060008060008514151515612ccc57600080fd5b612cd63386615c17565b1515612ce157600080fd5b60026005811115612cee57fe5b6019600087815260200190815260200160002060060160019054906101000a900460ff1660ff16141515612d2157600080fd5b601b6000868152602001908152602001600020935083600201548460010154019250428311151515612d5257600080fd5b8360030160019054906101000a900460ff1660ff168460030160009054906101000a900460ff1660ff161115612eec57600f60030160019054906101000a900460ff1660ff166064856000015402811515612da957fe5b0491503373ffffffffffffffffffffffffffffffffffffffff166108fc839081150290604051600060405180830381858888f193505050501515612dec57600080fd5b60036005811115612df957fe5b6019600087815260200190815260200160002060060160016101000a81548160ff021916908360ff1602179055508160196000878152602001908152602001600020600401540160196000878152602001908152602001600020600401819055507f261826fbdc11ee0da48a5356542bcb46786deaed4c215b871d3df7a03652262d33868460036005811115612e8b57fe5b604051808573ffffffffffffffffffffffffffffffffffffffff1673ffffffffffffffffffffffffffffffffffffffff1681526020018481526020018381526020018260ff1660ff16815260200194505050505060405180910390a16131ad565b8360030160019054906101000a900460ff1660ff168460030160009054906101000a900460ff1660ff161480612f5d5750600f60050160009054906101000a900460ff1660ff168460030160019054906101000a900460ff168560030160009054906101000a900460ff160160ff16105b156130e2573373ffffffffffffffffffffffffffffffffffffffff166108fc60196000888152602001908152602001600020600301549081150290604051600060405180830381858888f193505050501515612fb857600080fd5b600580811115612fc457fe5b6019600087815260200190815260200160002060060160016101000a81548160ff021916908360ff160217905550601960008681526020019081526020016000206003015460196000878152602001908152602001600020600401540160196000878152602001908152602001600020600401819055507f261826fbdc11ee0da48a5356542bcb46786deaed4c215b871d3df7a03652262d3386601960008981526020019081526020016000206003015460058081111561308157fe5b604051808573ffffffffffffffffffffffffffffffffffffffff1673ffffffffffffffffffffffffffffffffffffffff1681526020018481526020018381526020018260ff1660ff16815260200194505050505060405180910390a16131ac565b600460058111156130ef57fe5b6019600087815260200190815260200160002060060160016101000a81548160ff021916908360ff1602179055507f261826fbdc11ee0da48a5356542bcb46786deaed4c215b871d3df7a03652262d338660006004600581111561314f57fe5b604051808573ffffffffffffffffffffffffffffffffffffffff1673ffffffffffffffffffffffffffffffffffffffff1681526020018481526020018381526020018260ff1660ff16815260200194505050505060405180910390a15b5b5b8360030160029054906101000a900460ff1660ff1681101561324c57601a600085600401836005811015156131df57fe5b0160009054906101000a900473ffffffffffffffffffffffffffffffffffffffff1673ffffffffffffffffffffffffffffffffffffffff1673ffffffffffffffffffffffffffffffffffffffff1681526020019081526020016000206000905580806001019150506131ae565b601b6000868152602001908152602001600020600080820160009055600182016000905560028201600090556003820160006101000a81549060ff02191690556003820160016101000a81549060ff02191690556003820160026101000a81549060ff02191690556004820160006132c49190616c09565b50505050505050565b600a60009054906101000a900473ffffffffffffffffffffffffffffffffffffffff1681565b600080600080600092506003805490509150600190505b818110156133445760038181548110151561332157fe5b90600052602060002090600502016000015483019250808060010191505061330a565b82935050505090565b60006133593383615c17565b151561336457600080fd5b6000821415151561337457600080fd5b602160008381526020019081526020016000205490506000811415151561339a57600080fd5b600060196000848152602001908152602001600020600401541415156133bf57600080fd5b8060196000848152602001908152602001600020600401819055503373ffffffffffffffffffffffffffffffffffffffff166108fc829081150290604051600060405180830381858888f19350505050151561341a57600080fd5b5050565b613426616bb9565b60018054600181600116156101000203166002900480601f0160208091040260200160405190810160405280929190818152602001828054600181600116156101000203166002900480156134bc5780601f10613491576101008083540402835291602001916134bc565b820191906000526020600020905b81548152906001019060200180831161349f57829003601f168201915b5050505050905090565b600080600073ffffffffffffffffffffffffffffffffffffffff168573ffffffffffffffffffffffffffffffffffffffff161415151561350557600080fd5b83861415151561351457600080fd5b6000861415151561352457600080fd5b6000841415151561353457600080fd5b6000831415151561354457600080fd5b33905083600860008373ffffffffffffffffffffffffffffffffffffffff1673ffffffffffffffffffffffffffffffffffffffff16815260200190815260200160002060008773ffffffffffffffffffffffffffffffffffffffff1673ffffffffffffffffffffffffffffffffffffffff1681526020019081526020016000208190555085600860008373ffffffffffffffffffffffffffffffffffffffff1673ffffffffffffffffffffffffffffffffffffffff16815260200190815260200160002060008373ffffffffffffffffffffffffffffffffffffffff1673ffffffffffffffffffffffffffffffffffffffff1681526020019081526020016000208190555082600960008373ffffffffffffffffffffffffffffffffffffffff1673ffffffffffffffffffffffffffffffffffffffff16815260200190815260200160002060008773ffffffffffffffffffffffffffffffffffffffff1673ffffffffffffffffffffffffffffffffffffffff168152602001908152602001600020819055507fef4beaa380feab20776f162f92bbf15b04c59f8fd4e8ab2508b8d29fed7dfd6186868686604051808581526020018473ffffffffffffffffffffffffffffffffffffffff1673ffffffffffffffffffffffffffffffffffffffff16815260200183815260200182815260200194505050505060405180910390a16001915050949350505050565b601e60019054906101000a900460ff1681565b600d6020528060005260406000206000915090505481565b601a6020528060005260406000206000915090505481565b60216020528060005260406000206000915090505481565b60066020528060005260406000206000915054906101000a900473ffffffffffffffffffffffffffffffffffffffff1681565b600073ffffffffffffffffffffffffffffffffffffffff168273ffffffffffffffffffffffffffffffffffffffff161415151561381c57600080fd5b3073ffffffffffffffffffffffffffffffffffffffff168273ffffffffffffffffffffffffffffffffffffffff161415151561385757600080fd5b6138613382615c17565b151561386c57600080fd5b613877338383615d45565b5050565b60006138878383615c17565b151561389257600080fd5b6003828154811015156138a157fe5b906000526020600020906005020160030154905092915050565b600080600a60009054906101000a900473ffffffffffffffffffffffffffffffffffffffff1673ffffffffffffffffffffffffffffffffffffffff163373ffffffffffffffffffffffffffffffffffffffff1614151561391757fe5b6000841415151561392757600080fd5b6000831415151561393757600080fd5b6064602060009054906101000a900460ff1660ff16600f600001540281151561395c57fe5b04831115151561396b57600080fd5b6000601960008681526020019081526020016000206004015414151561399057600080fd5b6019600085815260200190815260200160002060020154601960008681526020019081526020016000206001015401905042811015156139cf57600080fd5b826021600086815260200190815260200160002081905550600191505092915050565b60006139fc616bf5565b6000806000613a0a86616234565b93506000925083519150600090505b81811015613a6a5760038482815181101515613a3157fe5b90602001906020020151815481101515613a4757fe5b906000526020600020906005020160000154830192508080600101915050613a19565b82945050505050919050565b6000339050601e60019054906101000a900460ff1660ff16613aa48260016005811115613a9f57fe5b6147e8565b101515613ab057600080fd5b613ab9826163a4565b5050565b6000806000806000349350339250601860008473ffffffffffffffffffffffffffffffffffffffff1673ffffffffffffffffffffffffffffffffffffffff16815260200190815260200160002054915060008214151515613b1d57600080fd5b601e60009054906101000a900460ff16158015613b3a5750600034145b15613eae57600073ffffffffffffffffffffffffffffffffffffffff16601c60009054906101000a900473ffffffffffffffffffffffffffffffffffffffff1673ffffffffffffffffffffffffffffffffffffffff1614151515613b9d57600080fd5b6000601d5414151515613baf57600080fd5b601c60009054906101000a900473ffffffffffffffffffffffffffffffffffffffff1673ffffffffffffffffffffffffffffffffffffffff1663dd62ed3e84600a60009054906101000a900473ffffffffffffffffffffffffffffffffffffffff166000604051602001526040518363ffffffff167c0100000000000000000000000000000000000000000000000000000000028152600401808373ffffffffffffffffffffffffffffffffffffffff1673ffffffffffffffffffffffffffffffffffffffff1681526020018273ffffffffffffffffffffffffffffffffffffffff1673ffffffffffffffffffffffffffffffffffffffff16815260200192505050602060405180830381600087803b1515613cca57600080fd5b6102c65a03f11515613cdb57600080fd5b505050604051805190509050601d548110151515613cf857600080fd5b601760008473ffffffffffffffffffffffffffffffffffffffff1673ffffffffffffffffffffffffffffffffffffffff16815260200190815260200160002054935083601f54820210158015613d535750600f600001548410155b1515613d5e57600080fd5b601c60009054906101000a900473ffffffffffffffffffffffffffffffffffffffff1673ffffffffffffffffffffffffffffffffffffffff166323b872dd84600a60009054906101000a900473ffffffffffffffffffffffffffffffffffffffff16601d546000604051602001526040518463ffffffff167c0100000000000000000000000000000000000000000000000000000000028152600401808473ffffffffffffffffffffffffffffffffffffffff1673ffffffffffffffffffffffffffffffffffffffff1681526020018373ffffffffffffffffffffffffffffffffffffffff1673ffffffffffffffffffffffffffffffffffffffff1681526020018281526020019350505050602060405180830381600087803b1515613e8357600080fd5b6102c65a03f11515613e9457600080fd5b505050604051805190501515613ea957600080fd5b613f1d565b60008414158015613ec45750600f600001548410155b1515613ecf57600080fd5b601760008473ffffffffffffffffffffffffffffffffffffffff1673ffffffffffffffffffffffffffffffffffffffff1681526020019081526020016000205484141515613f1c57600080fd5b5b613f288383866164e2565b94505050505090565b6000806000600a60009054906101000a900473ffffffffffffffffffffffffffffffffffffffff1673ffffffffffffffffffffffffffffffffffffffff163373ffffffffffffffffffffffffffffffffffffffff16141515613f8f57fe5b600073ffffffffffffffffffffffffffffffffffffffff168573ffffffffffffffffffffffffffffffffffffffff1614151515613fcb57600080fd5b60008414151515613fdb57600080fd5b60026005811115613fe857fe5b6019600086815260200190815260200160002060060160019054906101000a900460ff1660ff1614151561401b57600080fd5b601b60008581526020019081526020016000209250600083600001541415151561404457600080fd5b8260020154836001015401915042821015151561406057600080fd5b8260030160029054906101000a900460ff169050600f60070160009054906101000a900460ff1660ff168160ff1610151561409a57600080fd5b84836004018260ff166005811015156140af57fe5b0160006101000a81548173ffffffffffffffffffffffffffffffffffffffff021916908373ffffffffffffffffffffffffffffffffffffffff16021790555082600301600281819054906101000a900460ff168092919060010191906101000a81548160ff021916908360ff1602179055505083601a60008773ffffffffffffffffffffffffffffffffffffffff1673ffffffffffffffffffffffffffffffffffffffff168152602001908152602001600020819055505050505050565b601f5481565b60008060008060008073ffffffffffffffffffffffffffffffffffffffff168773ffffffffffffffffffffffffffffffffffffffff16141515156141b657600080fd5b600086141515156141c657600080fd5b879350600860008573ffffffffffffffffffffffffffffffffffffffff1673ffffffffffffffffffffffffffffffffffffffff16815260200190815260200160002060008873ffffffffffffffffffffffffffffffffffffffff1673ffffffffffffffffffffffffffffffffffffffff168152602001908152602001600020549250600860008573ffffffffffffffffffffffffffffffffffffffff1673ffffffffffffffffffffffffffffffffffffffff16815260200190815260200160002060008573ffffffffffffffffffffffffffffffffffffffff1673ffffffffffffffffffffffffffffffffffffffff168152602001908152602001600020549150600960008573ffffffffffffffffffffffffffffffffffffffff1673ffffffffffffffffffffffffffffffffffffffff16815260200190815260200160002060008873ffffffffffffffffffffffffffffffffffffffff1673ffffffffffffffffffffffffffffffffffffffff16815260200190815260200160002054905081831415151561435557600080fd5b6000831415151561436557600080fd5b6000821415151561437557600080fd5b6000811415151561438557600080fd5b85811015151561439457600080fd5b6143a1848389868a61672c565b85600960008673ffffffffffffffffffffffffffffffffffffffff1673ffffffffffffffffffffffffffffffffffffffff16815260200190815260200160002060008973ffffffffffffffffffffffffffffffffffffffff1673ffffffffffffffffffffffffffffffffffffffff1681526020019081526020016000205403600960008673ffffffffffffffffffffffffffffffffffffffff1673ffffffffffffffffffffffffffffffffffffffff16815260200190815260200160002060008973ffffffffffffffffffffffffffffffffffffffff1673ffffffffffffffffffffffffffffffffffffffff168152602001908152602001600020819055506000600960008673ffffffffffffffffffffffffffffffffffffffff1673ffffffffffffffffffffffffffffffffffffffff16815260200190815260200160002060008973ffffffffffffffffffffffffffffffffffffffff1673ffffffffffffffffffffffffffffffffffffffff1681526020019081526020016000205414156146a657600960008573ffffffffffffffffffffffffffffffffffffffff1673ffffffffffffffffffffffffffffffffffffffff16815260200190815260200160002060008873ffffffffffffffffffffffffffffffffffffffff1673ffffffffffffffffffffffffffffffffffffffff16815260200190815260200160002060009055600860008573ffffffffffffffffffffffffffffffffffffffff1673ffffffffffffffffffffffffffffffffffffffff16815260200190815260200160002060008573ffffffffffffffffffffffffffffffffffffffff1673ffffffffffffffffffffffffffffffffffffffff16815260200190815260200160002060009055600860008573ffffffffffffffffffffffffffffffffffffffff1673ffffffffffffffffffffffffffffffffffffffff16815260200190815260200160002060008873ffffffffffffffffffffffffffffffffffffffff1673ffffffffffffffffffffffffffffffffffffffff168152602001908152602001600020600090555b7fa085ba1c72fda1f13ecb6e0347284ac7d016a73b7a47c0ba151368bbe5ce2db9888389868a600960008b73ffffffffffffffffffffffffffffffffffffffff1673ffffffffffffffffffffffffffffffffffffffff16815260200190815260200160002060008e73ffffffffffffffffffffffffffffffffffffffff1673ffffffffffffffffffffffffffffffffffffffff16815260200190815260200160002054604051808773ffffffffffffffffffffffffffffffffffffffff1673ffffffffffffffffffffffffffffffffffffffff1681526020018681526020018573ffffffffffffffffffffffffffffffffffffffff1673ffffffffffffffffffffffffffffffffffffffff168152602001848152602001838152602001828152602001965050505050505060405180910390a160019450505050509392505050565b60006147f2616bf5565b60006147fd85616234565b915060009250600090505b815181101561486f578360ff1660196000848481518110151561482757fe5b90602001906020020151815260200190815260200160002060060160019054906101000a900460ff1660ff1614156148625782806001019350505b8080600101915050614808565b505092915050565b6000806000614884616c2c565b6000861415151561489457600080fd5b61489e3387615c17565b15156148a957600080fd5b600085141515156148b957600080fd5b600160058111156148c657fe5b6019600088815260200190815260200160002060060160019054906101000a900460ff1660ff161415156148f957600080fd5b600f60030160009054906101000a900460ff1660ff166019600088815260200190815260200160002060060160009054906101000a900460ff1660ff1610151561494257600080fd5b600f60030160019054906101000a900460ff1660ff166064860281151561496557fe5b049250600f60040154836019600089815260200190815260200160002060040154011115151561499457600080fd5b601960008781526020019081526020016000206002015460196000888152602001908152602001600020600101540191504282101515156149d457600080fd5b8481600001818152505042816020018181525050600f6006015481604001818152505060008160a0019060ff16908160ff168152505080601b600088815260200190815260200160002060008201518160000155602082015181600101556040820151816002015560608201518160030160006101000a81548160ff021916908360ff16021790555060808201518160030160016101000a81548160ff021916908360ff16021790555060a08201518160030160026101000a81548160ff021916908360ff16021790555060c082015181600401906005614ab6929190616c7a565b5090505060196000878152602001908152602001600020600601600081819054906101000a900460ff168092919060010191906101000a81548160ff021916908360ff1602179055505060026005811115614b0d57fe5b6019600088815260200190815260200160002060060160016101000a81548160ff021916908360ff1602179055507fb3ef0c14cd9ed6533151b9a921ddb33f8716dd3593254ffc741ae770313e3bea8686601960008a815260200190815260200160002060060160009054906101000a900460ff16604051808481526020018381526020018260ff1660ff168152602001935050505060405180910390a16001935050505092915050565b60186020528060005260406000206000915090505481565b60008060008414151515614be357600080fd5b601a60003373ffffffffffffffffffffffffffffffffffffffff1673ffffffffffffffffffffffffffffffffffffffff1681526020019081526020016000205484141515614c3057600080fd5b60026005811115614c3d57fe5b60ff166019600086815260200190815260200160002060060160019054906101000a900460ff1660ff16141515614c7357600080fd5b601b6000858152602001908152602001600020915081600201548260010154019050428110151515614ca457600080fd5b8215614ce35781600301600081819054906101000a900460ff168092919060010191906101000a81548160ff021916908360ff16021790555050614d18565b81600301600181819054906101000a900460ff168092919060010191906101000a81548160ff021916908360ff160217905550505b601a60003373ffffffffffffffffffffffffffffffffffffffff1673ffffffffffffffffffffffffffffffffffffffff168152602001908152602001600020600090557f8d85a70fd2c5d140a4a01143492d27ff82cfad4cead313e66c53f39b0feb5e0f338585604051808473ffffffffffffffffffffffffffffffffffffffff1673ffffffffffffffffffffffffffffffffffffffff16815260200183815260200182151515158152602001935050505060405180910390a150505050565b6000600382815481101515614de957fe5b9060005260206000209060050201600001549050919050565b6009602052816000526040600020602052806000526040600020600091509150505481565b600c5481565b600a60009054906101000a900473ffffffffffffffffffffffffffffffffffffffff1673ffffffffffffffffffffffffffffffffffffffff163373ffffffffffffffffffffffffffffffffffffffff16141515614e8657fe5b600073ffffffffffffffffffffffffffffffffffffffff168373ffffffffffffffffffffffffffffffffffffffff1614151515614ec257600080fd5b60008214151515614ed257600080fd5b60008114158015614ee85750600f600001548110155b1515614ef357600080fd5b80601760008573ffffffffffffffffffffffffffffffffffffffff1673ffffffffffffffffffffffffffffffffffffffff1681526020019081526020016000208190555081601860008573ffffffffffffffffffffffffffffffffffffffff1673ffffffffffffffffffffffffffffffffffffffff168152602001908152602001600020819055507f21619a95128e7e5c5367774b6479b6edbc059210239e39bbd50dbae00cfe0972838383604051808473ffffffffffffffffffffffffffffffffffffffff1673ffffffffffffffffffffffffffffffffffffffff168152602001838152602001828152602001935050505060405180910390a1505050565b601d5481565b600b60009054906101000a900473ffffffffffffffffffffffffffffffffffffffff1681565b600080601760003373ffffffffffffffffffffffffffffffffffffffff1673ffffffffffffffffffffffffffffffffffffffff168152602001908152602001600020549150601860003373ffffffffffffffffffffffffffffffffffffffff1673ffffffffffffffffffffffffffffffffffffffff1681526020019081526020016000205490507fdafdd0f2a3af66f1d9ab59928d5fb2e9eb5428db4b63362502d21e2511624ff7338284604051808473ffffffffffffffffffffffffffffffffffffffff1673ffffffffffffffffffffffffffffffffffffffff168152602001838152602001828152602001935050505060405180910390a15090565b60196020528060005260406000206000915090508060000154908060010154908060020154908060030154908060040154908060050154908060060160009054906101000a900460ff16908060060160019054906101000a900460ff16905088565b6007602052816000526040600020602052806000526040600020600091509150505481565b6000600360008154811015156151b657fe5b906000526020600020906005020160000154905090565b6151d5616bf5565b600080600d6000858152602001908152602001600020549150600090505b600c5481101561523d5781838281518110151561520c57fe5b9060200190602002018181525050600d600083815260200190815260200160002054915080806001019150506151f3565b5050919050565b6008602052816000526040600020602052806000526040600020600091509150505481565b6000600a60009054906101000a900473ffffffffffffffffffffffffffffffffffffffff1673ffffffffffffffffffffffffffffffffffffffff163373ffffffffffffffffffffffffffffffffffffffff161415156152c457fe5b600360008154811015156152d457fe5b9060005260206000209060050201600001549050600081141515156152f857600080fd5b60006003600081548110151561530a57fe5b9060005260206000209060050201600001819055503373ffffffffffffffffffffffffffffffffffffffff166108fc829081150290604051600060405180830381858888f19350505050151561535f57600080fd5b50565b600a60009054906101000a900473ffffffffffffffffffffffffffffffffffffffff1673ffffffffffffffffffffffffffffffffffffffff163373ffffffffffffffffffffffffffffffffffffffff161415156153bb57fe5b600a60009054906101000a900473ffffffffffffffffffffffffffffffffffffffff1673ffffffffffffffffffffffffffffffffffffffff168173ffffffffffffffffffffffffffffffffffffffff161415151561541857600080fd5b80600b60006101000a81548173ffffffffffffffffffffffffffffffffffffffff021916908373ffffffffffffffffffffffffffffffffffffffff16021790555050565b60008073ffffffffffffffffffffffffffffffffffffffff168273ffffffffffffffffffffffffffffffffffffffff161415151561549957600080fd5b600073ffffffffffffffffffffffffffffffffffffffff168373ffffffffffffffffffffffffffffffffffffffff16141515156154d557600080fd5b600960008473ffffffffffffffffffffffffffffffffffffffff1673ffffffffffffffffffffffffffffffffffffffff16815260200190815260200160002060008373ffffffffffffffffffffffffffffffffffffffff1673ffffffffffffffffffffffffffffffffffffffff16815260200190815260200160002054905092915050565b600080600080600061556c8787616919565b935061557784615fc5565b92506155838787616947565b9150818310156155ed576155978785611cb4565b7f69186e91a26c2cd1f67397df408ddeb0db9249dbd6e2a428ad8ae0d59ba3bc88878588604051808481526020018381526020018260ff1660ff168152602001935050505060405180910390a160019450615832565b600e8660ff168154811015156155ff57fe5b906000526020600020906006020160010154600e8760ff1681548110151561562357fe5b90600052602060002090600602016003015414156156445760009450615832565b61574b600060038681548110151561565857fe5b90600052602060002090600502016001018054600181600116156101000203166002900480601f0160208091040260200160405190810160405280929190818152602001828054600181600116156101000203166002900480156156fd5780601f106156d2576101008083540402835291602001916156fd565b820191906000526020600020905b8154815290600101906020018083116156e057829003601f168201915b505050505060038781548110151561571157fe5b906000526020600020906005020160020154600a60009054906101000a900473ffffffffffffffffffffffffffffffffffffffff16616978565b905060008114151561582d57615764816001880361555a565b15615824576157738782611cb4565b7f69186e91a26c2cd1f67397df408ddeb0db9249dbd6e2a428ad8ae0d59ba3bc88878288604051808481526020018381526020018260ff1660ff168152602001935050505060405180910390a180600e8760ff168154811015156157d357fe5b906000526020600020906006020160040181905550600e8660ff168154811015156157fa57fe5b90600052602060002090600602016003016000815480929190600101919050555060019450615832565b60009450615832565b600094505b5050505092915050565b6000806000806000806000806000891415801561585d575060038054905089105b151561586857600080fd5b6001600c540360038a81548110151561587d57fe5b90600052602060002090600502016003015414151561589b57600080fd5b600d60008a8152602001908152602001600020549650600087141515156158c157600080fd5b600d6000888152602001908152602001600020549550600086141515156158e757600080fd5b600d60008781526020019081526020016000205494506000851415151561590d57600080fd5b600e600281548110151561591d57fe5b906000526020600020906006020160050154606460038b81548110151561594057fe5b9060005260206000209060050201600001540281151561595c57fe5b0493506000841415151561596f57600080fd5b600e600181548110151561597f57fe5b906000526020600020906006020160050154606460038b8154811015156159a257fe5b906000526020600020906005020160000154028115156159be57fe5b049250600083141515156159d157600080fd5b600e60008154811015156159e157fe5b906000526020600020906006020160050154606460038b815481101515615a0457fe5b90600052602060002090600502016000015402811515615a2057fe5b04915060008214151515615a3357600080fd5b81838560038c815481101515615a4557fe5b906000526020600020906005020160000154030303905060008114151515615a6c57600080fd5b83600388815481101515615a7c57fe5b90600052602060002090600502016000015401600388815481101515615a9e57fe5b90600052602060002090600502016000018190555082600387815481101515615ac357fe5b90600052602060002090600502016000015401600387815481101515615ae557fe5b90600052602060002090600502016000018190555081600386815481101515615b0a57fe5b90600052602060002090600502016000015401600386815481101515615b2c57fe5b9060005260206000209060050201600001819055508060036000815481101515615b5257fe5b9060005260206000209060050201600001540160036000815481101515615b7557fe5b906000526020600020906005020160000181905550600060038a815481101515615b9b57fe5b9060005260206000209060050201600001819055507fcfd3c3fcdcb63bcee48ff9a9ec28351afef5ba4fc9b5a8f46d5aa65565a3b1a38983858785604051808681526020018581526020018481526020018381526020018281526020019550505050505060405180910390a16001975050505050505050919050565b60008273ffffffffffffffffffffffffffffffffffffffff166004600084815260200190815260200160002060009054906101000a900473ffffffffffffffffffffffffffffffffffffffff1673ffffffffffffffffffffffffffffffffffffffff1614905092915050565b806006600084815260200190815260200160002060006101000a81548173ffffffffffffffffffffffffffffffffffffffff021916908373ffffffffffffffffffffffffffffffffffffffff1602179055505050565b60008273ffffffffffffffffffffffffffffffffffffffff166006600084815260200190815260200160002060009054906101000a900473ffffffffffffffffffffffffffffffffffffffff1673ffffffffffffffffffffffffffffffffffffffff1614905092915050565b610400600382815481101515615d5757fe5b90600052602060002090600502016004015414151515615d7357fe5b600560008373ffffffffffffffffffffffffffffffffffffffff1673ffffffffffffffffffffffffffffffffffffffff16815260200190815260200160002060008154809291906001019190505550816004600083815260200190815260200160002060006101000a81548173ffffffffffffffffffffffffffffffffffffffff021916908373ffffffffffffffffffffffffffffffffffffffff160217905550600073ffffffffffffffffffffffffffffffffffffffff168373ffffffffffffffffffffffffffffffffffffffff16141515615ed157600560008473ffffffffffffffffffffffffffffffffffffffff1673ffffffffffffffffffffffffffffffffffffffff16815260200190815260200160002060008154809291906001900391905055506006600082815260200190815260200160002060006101000a81549073ffffffffffffffffffffffffffffffffffffffff02191690555b7fddf252ad1be2c89b69c2b068fc378daa952ba7f163c4a11628f55a4df523b3ef838383604051808473ffffffffffffffffffffffffffffffffffffffff1673ffffffffffffffffffffffffffffffffffffffff1681526020018373ffffffffffffffffffffffffffffffffffffffff1673ffffffffffffffffffffffffffffffffffffffff168152602001828152602001935050505060405180910390a1505050565b6000615f7f616bf5565b6000615f8a84616234565b9150815190506000811415615fa25760009250615fbe565b816000815181101515615fb157fe5b9060200190602002015192505b5050919050565b6000806000808414158015615fde575060038054905084105b1515615fe957600080fd5b615ff1611df2565b915060009250600190505b81811115156160365783600d60008381526020019081526020016000205414156160295782806001019350505b8080600101915050615ffc565b5050919050565b6160478383615c17565b151561605257600080fd5b6000811415151561606257600080fd5b8060038381548110151561607257fe5b9060005260206000209060050201600001541015151561609157600080fd5b806003838154811015156160a157fe5b906000526020600020906005020160000154036003838154811015156160c357fe5b9060005260206000209060050201600001819055507f45dacd427fd388bf162986dbc958cdcf160c31b40efe076907cff377b9857c79838383604051808473ffffffffffffffffffffffffffffffffffffffff1673ffffffffffffffffffffffffffffffffffffffff168152602001838152602001828152602001935050505060405180910390a1505050565b61615a8383615c17565b151561616557600080fd5b6000811415151561617557600080fd5b8060038381548110151561618557fe5b906000526020600020906005020160000154016003838154811015156161a757fe5b9060005260206000209060050201600001819055507f20f4934a3b4928cca0e51f3f1eaac12dee9af151a8a8ba5a424a89d93f6bf53d838383604051808473ffffffffffffffffffffffffffffffffffffffff1673ffffffffffffffffffffffffffffffffffffffff168152602001838152602001828152602001935050505060405180910390a1505050565b61623c616bf5565b6000616246616bf5565b60008060008073ffffffffffffffffffffffffffffffffffffffff168773ffffffffffffffffffffffffffffffffffffffff161415151561628657600080fd5b61628f876129e1565b945060008514156162c15760006040518059106162a95750595b9080825280602002602001820160405250955061639a565b846040518059106162cf5750595b908082528060200260200182016040525093506162ea611df2565b925060009150600190505b8281111515616396578673ffffffffffffffffffffffffffffffffffffffff166004600083815260200190815260200160002060009054906101000a900473ffffffffffffffffffffffffffffffffffffffff1673ffffffffffffffffffffffffffffffffffffffff1614156163895780848380600101945081518110151561637a57fe5b90602001906020020181815250505b80806001019150506162f5565b8395505b5050505050919050565b600081141515156163b457600080fd5b6163be3382615c17565b15156163c957600080fd5b60006019600083815260200190815260200160002060030154141515156163ef57600080fd5b61040060038281548110151561640157fe5b9060005260206000209060050201600401819055506001600581111561642357fe5b6019600083815260200190815260200160002060060160016101000a81548160ff021916908360ff1602179055504260196000838152602001908152602001600020600101819055507ff5d2d36fd2c60192fd8f874c962737f1858ff797bf9865d071ade33eeee00701816019600084815260200190815260200160002060030154601960008581526020019081526020016000206005015460405180848152602001838152602001828152602001935050505060405180910390a150565b6000806164ed616cf7565b61652f846040805190810160405280600c81526020017f43726f7764737572616e63650000000000000000000000000000000000000000815250600089616978565b91506101006040519081016040528042815260200160008152602001600f60010154815260200185815260200160008152602001868152602001600060ff1681526020016000600581111561658057fe5b60ff1681525090508060196000848152602001908152602001600020600082015181600001556020820151816001015560408201518160020155606082015181600301556080820151816004015560a0820151816005015560c08201518160060160006101000a81548160ff021916908360ff16021790555060e08201518160060160016101000a81548160ff021916908360ff160217905550905050616626826116e1565b507fbca387acb0ba7d06e329c4372885bb664f19a98153ccf3e74e56c136bf0e88c4868386604051808473ffffffffffffffffffffffffffffffffffffffff1673ffffffffffffffffffffffffffffffffffffffff168152602001838152602001828152602001935050505060405180910390a1601760008773ffffffffffffffffffffffffffffffffffffffff1673ffffffffffffffffffffffffffffffffffffffff16815260200190815260200160002060009055601860008773ffffffffffffffffffffffffffffffffffffffff1673ffffffffffffffffffffffffffffffffffffffff1681526020019081526020016000206000905581925050509392505050565b6167368585615c17565b151561674157600080fd5b61674b8383615c17565b151561675657600080fd5b6000811415151561676657600080fd5b81841415151561677557600080fd5b8060038581548110151561678557fe5b906000526020600020906005020160000154101515156167a457600080fd5b6104006003858154811015156167b657fe5b906000526020600020906005020160040154141515156167d557600080fd5b806003858154811015156167e557fe5b9060005260206000209060050201600001540360038581548110151561680757fe5b9060005260206000209060050201600001819055508060038381548110151561682c57fe5b9060005260206000209060050201600001540160038381548110151561684e57fe5b9060005260206000209060050201600001819055507f6d401b913d27047ecd2042f0331e2354d30e664920b31480dc71955edb996c388585858585604051808673ffffffffffffffffffffffffffffffffffffffff1673ffffffffffffffffffffffffffffffffffffffff1681526020018581526020018473ffffffffffffffffffffffffffffffffffffffff1673ffffffffffffffffffffffffffffffffffffffff1681526020018381526020018281526020019550505050505060405180910390a15050505050565b6000600e8260ff1681548110151561692d57fe5b906000526020600020906006020160040154905092915050565b60006001600e8360ff1681548110151561695d57fe5b90600052602060002090600602016002015403905092915050565b6000616982616d43565b600060a06040519081016040528088815260200187815260200186815260200160008152602001600081525091506001600380548060010182816169c69190616d79565b91600052602060002090600502016000859091909150600082015181600001556020820151816001019080519060200190616a02929190616dab565b506040820151816002015560608201518160030155608082015181600401555050039050600063ffffffff16811415616aac57600160038054806001018281616a4b9190616d79565b91600052602060002090600502016000859091909150600082015181600001556020820151816001019080519060200190616a87929190616dab565b5060408201518160020155606082015181600301556080820151816004015550500390505b8063ffffffff1681141515616ac057600080fd5b7fdea8e87d69047e1b3cd43ad599d34e3eacfe4408b4dfc5d0f6ac6a15a468de5c8787878760405180858152602001806020018481526020018373ffffffffffffffffffffffffffffffffffffffff1673ffffffffffffffffffffffffffffffffffffffff168152602001828103825285818151815260200191508051906020019080838360005b83811015616b63578082015181840152602081019050616b48565b50505050905090810190601f168015616b905780820380516001836020036101000a031916815260200191505b509550505050505060405180910390a1616bac60008583615d45565b8092505050949350505050565b602060405190810160405280600081525090565b6080604051908101604052806004905b6000815260200190600190039081616bdd5790505090565b602060405190810160405280600081525090565b506000815560010160008155600101600081556001016000815560010160009055565b61016060405190810160405280600081526020016000815260200160008152602001600060ff168152602001600060ff168152602001600060ff168152602001616c74616e2b565b81525090565b8260058101928215616ce6579160200282015b82811115616ce55782518260006101000a81548173ffffffffffffffffffffffffffffffffffffffff021916908373ffffffffffffffffffffffffffffffffffffffff16021790555091602001919060010190616c8d565b5b509050616cf39190616e69565b5090565b61010060405190810160405280600081526020016000815260200160008152602001600081526020016000815260200160008152602001600060ff168152602001600060ff1681525090565b60a06040519081016040528060008152602001616d5e616eac565b81526020016000815260200160008152602001600081525090565b815481835581811511616da657600502816005028360005260206000209182019101616da59190616ec0565b5b505050565b828054600181600116156101000203166002900490600052602060002090601f016020900481019282601f10616dec57805160ff1916838001178555616e1a565b82800160010185558215616e1a579182015b82811115616e19578251825591602001919060010190616dfe565b5b509050616e279190616f0f565b5090565b60a0604051908101604052806005905b600073ffffffffffffffffffffffffffffffffffffffff16815260200190600190039081616e3b5790505090565b616ea991905b80821115616ea557600081816101000a81549073ffffffffffffffffffffffffffffffffffffffff021916905550600101616e6f565b5090565b90565b602060405190810160405280600081525090565b616f0c91905b80821115616f0857600080820160009055600182016000616ee79190616f34565b60028201600090556003820160009055600482016000905550600501616ec6565b5090565b90565b616f3191905b80821115616f2d576000816000905550600101616f15565b5090565b90565b50805460018160011615610100020316600290046000825580601f10616f5a5750616f79565b601f016020900490600052602060002090810190616f789190616f0f565b5b505600a165627a7a72305820839a4443b51acf496d51fdfd5c67585601b1e926069aee33af1a893dc94be6ee0029",
  "source": "// \n// MIT License\n// \n// Copyright (c) 2018 REGA Risk Sharing\n//   \n// Permission is hereby granted, free of charge, to any person obtaining a copy\n// of this software and associated documentation files (the \"Software\"), to deal\n// in the Software without restriction, including without limitation the rights\n// to use, copy, modify, merge, publish, distribute, sublicense, and/or sell\n// copies of the Software, and to permit persons to whom the Software is\n// furnished to do so, subject to the following conditions:\n// \n// The above copyright notice and this permission notice shall be included in all\n// copies or substantial portions of the Software.\n// \n// THE SOFTWARE IS PROVIDED \"AS IS\", WITHOUT WARRANTY OF ANY KIND, EXPRESS OR\n// IMPLIED, INCLUDING BUT NOT LIMITED TO THE WARRANTIES OF MERCHANTABILITY,\n// FITNESS FOR A PARTICULAR PURPOSE AND NONINFRINGEMENT. IN NO EVENT SHALL THE\n// AUTHORS OR COPYRIGHT HOLDERS BE LIABLE FOR ANY CLAIM, DAMAGES OR OTHER\n// LIABILITY, WHETHER IN AN ACTION OF CONTRACT, TORT OR OTHERWISE, ARISING FROM,\n// OUT OF OR IN CONNECTION WITH THE SOFTWARE OR THE USE OR OTHER DEALINGS IN THE\n// SOFTWARE.\n// \n// Author: Sergei Sevriugin\n// Version: 0.0.1\n//  \n\npragma solidity ^0.4.17;\n\nimport './TokenCrowdsurance.sol';\nimport './interfaces/IERC20Token.sol';\n\n/// Luggage crowdsurance protection product based on TokenCrowdsurance NFT token \ncontract LuggageCrowdsurance is TokenCrowdsurance {\n    /// REGA Risk Sharing Token smart contract address\n    IERC20Token public  RST;                // RST smart contract address\n    uint256     public  joinAmountRST;      // Join amount in RST\n    bool        public  ETHOnly;            // Join only for RST tokens\n    uint8       public  maxHold;            // Maximum number of toikens for one address\n    uint256     public  rstETHRate;         // RST/ETH rate\n    uint8       public  paybackRatio;       // Payback ratio\n\n    mapping (uint256 => uint256) public payback;    // payback mapping\n    /// join function\n    /// @return cowdsuranceId NFT token ID for created crowdsurance\n    function join() public payable returns(uint256 cowdsuranceId) {\n        uint256 amount = msg.value;\n        address member = msg.sender;\n        uint256 score = addressToScore[member];\n        require(score != uint256(0));\n\n        if (!ETHOnly && msg.value == uint256(0)) {\n            // now need to check that the member has approved the transfer joinAmountRST to join\n            require(RST != address(0));                     // check that we have valid contract address\n            require(joinAmountRST != uint256(0));           // join RST amount must be > 0\n            uint256 rstAmt = RST.allowance(member, owner);  // check if the member has gave permision to spend some amount\n            require(rstAmt >= joinAmountRST);               // ... and check if allowance is more then joinAmount\n            amount = addressToAmount[member];               // get join amount and check...\n            require((rstAmt * rstETHRate) >= amount && amount >= parameters.joinAmount);\n            // transfer join RST amount to the owner account\n            require(RST.transferFrom(member, owner, joinAmountRST));\n        }\n        else {\n            require(amount != uint256(0) && amount >= parameters.joinAmount);\n            require(amount == addressToAmount[member]);\n        }\n        // call internal _join after all checkups \n        cowdsuranceId = _join(member, score, amount);\n    }\n    /// set payback amount function\n    /// @param _id crowdsurance token ID\n    /// @param _amount payback amount to set\n    /// @return true if successful \n    function setPayback(uint256 _id, uint256 _amount) ownerOnly public returns (bool) {\n        require(_id != uint256(0));\n        require(_amount != uint256(0));\n        require(_amount <= parameters.joinAmount * paybackRatio / 100);\n        require(extensions[_id].paid == uint256(0));\n        uint coverageEnd = extensions[_id].activated + extensions[_id].duration;\n        require(coverageEnd < now);\n        payback[_id] = _amount;\n        return true;\n    }\n    /// get payback function\n    /// @param _id luggage protection token to get payback\n    function getPayback(uint256 _id) public {\n        require(_owns(msg.sender, _id));\n        require(_id != uint256(0));\n        uint256 _amount = payback[_id];\n        require(_amount != uint256(0));\n        require(extensions[_id].paid == uint256(0));\n        extensions[_id].paid = _amount;\n        msg.sender.transfer(_amount);\n    }\n    /// activate function \n    /// @param _id NFT token ID to activate\n    function activate(uint256 _id) public {\n        address member = msg.sender;\n        // check if number of tokens is not more then maxHold\n        require(statusCount(member, uint8(Status.Active)) < maxHold);   \n        super.activate(_id);\n    }\n    /// get commission function\n    function getCommission() ownerOnly public {\n        uint256 commission = nfts[0].value;\n        require(commission != uint256(0)); \n        nfts[0].value = 0;\n        msg.sender.transfer(commission);\n    }\n    function LuggageCrowdsurance(address _rst, uint256 _amount, bool _only, uint8 _max) \n                TokenCrowdsurance(\"Luggage Crowdsurance NFT\", \"LCS\") public {\n        // setting up contract parameters \n        RST = IERC20Token(_rst);\n        if (_amount == uint256(0)) {\n            joinAmountRST = 1; \n        }\n        else {\n            joinAmountRST = _amount; \n        }\n        if (_max == uint8(0)) {\n            maxHold = 3;\n        }\n        else {\n            maxHold = _max;\n        }\n        ETHOnly = _only;\n        rstETHRate = 0.12 ether;\n        paybackRatio = 50;\n    }\n}",
  "sourcePath": "/Users/sergei/ERC721SmartToken/contracts/LuggageCrowdsurance.sol",
  "compiler": {
    "name": "solc",
    "version": "0.4.18+commit.9cf6e910.Emscripten.clang"
  },
  "schemaVersion": "1.0.1",
  "updatedAt": "2018-04-19T12:45:55.484Z"
}