{
  "contractName": "LuggageCrowdsurance",
  "abi": [
    {
      "constant": false,
      "inputs": [
        {
          "name": "_id",
          "type": "uint256"
        }
      ],
      "name": "insertPool",
      "outputs": [
        {
          "name": "",
          "type": "bool"
        }
      ],
      "payable": false,
      "stateMutability": "nonpayable",
      "type": "function"
    },
    {
      "constant": true,
      "inputs": [
        {
          "name": "_interfaceID",
          "type": "bytes4"
        }
      ],
      "name": "supportsInterface",
      "outputs": [
        {
          "name": "",
          "type": "bool"
        }
      ],
      "payable": false,
      "stateMutability": "view",
      "type": "function"
    },
    {
      "constant": true,
      "inputs": [],
      "name": "name",
      "outputs": [
        {
          "name": "",
          "type": "string"
        }
      ],
      "payable": false,
      "stateMutability": "view",
      "type": "function"
    },
    {
      "constant": false,
      "inputs": [
        {
          "name": "_to",
          "type": "address"
        },
        {
          "name": "_tokenId",
          "type": "uint256"
        }
      ],
      "name": "approve",
      "outputs": [],
      "payable": false,
      "stateMutability": "nonpayable",
      "type": "function"
    },
    {
      "constant": true,
      "inputs": [
        {
          "name": "_id",
          "type": "uint256"
        }
      ],
      "name": "votingStatus",
      "outputs": [
        {
          "name": "votingEnded",
          "type": "bool"
        },
        {
          "name": "positive",
          "type": "uint8"
        },
        {
          "name": "negative",
          "type": "uint8"
        }
      ],
      "payable": false,
      "stateMutability": "view",
      "type": "function"
    },
    {
      "constant": false,
      "inputs": [
        {
          "name": "_nodeId",
          "type": "uint256"
        },
        {
          "name": "_parentId",
          "type": "uint256"
        }
      ],
      "name": "addToken",
      "outputs": [],
      "payable": false,
      "stateMutability": "nonpayable",
      "type": "function"
    },
    {
      "constant": true,
      "inputs": [],
      "name": "totalSupply",
      "outputs": [
        {
          "name": "",
          "type": "uint256"
        }
      ],
      "payable": false,
      "stateMutability": "view",
      "type": "function"
    },
    {
      "constant": true,
      "inputs": [],
      "name": "RSTOnly",
      "outputs": [
        {
          "name": "",
          "type": "bool"
        }
      ],
      "payable": false,
      "stateMutability": "view",
      "type": "function"
    },
    {
      "constant": true,
      "inputs": [],
      "name": "getDistribution",
      "outputs": [
        {
          "name": "distribution",
          "type": "uint256[4]"
        }
      ],
      "payable": false,
      "stateMutability": "view",
      "type": "function"
    },
    {
      "constant": true,
      "inputs": [
        {
          "name": "",
          "type": "uint256"
        }
      ],
      "name": "tokenIndexToOwner",
      "outputs": [
        {
          "name": "",
          "type": "address"
        }
      ],
      "payable": false,
      "stateMutability": "view",
      "type": "function"
    },
    {
      "constant": true,
      "inputs": [],
      "name": "RST",
      "outputs": [
        {
          "name": "",
          "type": "address"
        }
      ],
      "payable": false,
      "stateMutability": "view",
      "type": "function"
    },
    {
      "constant": false,
      "inputs": [
        {
          "name": "_from",
          "type": "address"
        },
        {
          "name": "_to",
          "type": "address"
        },
        {
          "name": "_tokenId",
          "type": "uint256"
        }
      ],
      "name": "transferFrom",
      "outputs": [],
      "payable": false,
      "stateMutability": "nonpayable",
      "type": "function"
    },
    {
      "constant": false,
      "inputs": [
        {
          "name": "_to",
          "type": "address"
        },
        {
          "name": "_toId",
          "type": "uint256"
        },
        {
          "name": "_level",
          "type": "uint256"
        }
      ],
      "name": "setLevel",
      "outputs": [],
      "payable": false,
      "stateMutability": "nonpayable",
      "type": "function"
    },
    {
      "constant": false,
      "inputs": [
        {
          "name": "_spender",
          "type": "address"
        },
        {
          "name": "_value",
          "type": "uint256"
        }
      ],
      "name": "cApprove",
      "outputs": [
        {
          "name": "success",
          "type": "bool"
        }
      ],
      "payable": false,
      "stateMutability": "nonpayable",
      "type": "function"
    },
    {
      "constant": false,
      "inputs": [
        {
          "name": "_nodeId",
          "type": "uint256"
        }
      ],
      "name": "removeToken",
      "outputs": [],
      "payable": false,
      "stateMutability": "nonpayable",
      "type": "function"
    },
    {
      "constant": false,
      "inputs": [
        {
          "name": "_to",
          "type": "address"
        },
        {
          "name": "_toId",
          "type": "uint256"
        }
      ],
      "name": "increaseLevel",
      "outputs": [],
      "payable": false,
      "stateMutability": "nonpayable",
      "type": "function"
    },
    {
      "constant": true,
      "inputs": [
        {
          "name": "",
          "type": "address"
        }
      ],
      "name": "addressToAmount",
      "outputs": [
        {
          "name": "",
          "type": "uint256"
        }
      ],
      "payable": false,
      "stateMutability": "view",
      "type": "function"
    },
    {
      "constant": false,
      "inputs": [
        {
          "name": "_from",
          "type": "address"
        },
        {
          "name": "_fromId",
          "type": "uint256"
        },
        {
          "name": "_amount",
          "type": "uint256"
        }
      ],
      "name": "cDestroy",
      "outputs": [],
      "payable": false,
      "stateMutability": "nonpayable",
      "type": "function"
    },
    {
      "constant": false,
      "inputs": [
        {
          "name": "_to",
          "type": "address"
        },
        {
          "name": "_toId",
          "type": "uint256"
        },
        {
          "name": "_amount",
          "type": "uint256"
        }
      ],
      "name": "cIssue",
      "outputs": [],
      "payable": false,
      "stateMutability": "nonpayable",
      "type": "function"
    },
    {
      "constant": true,
      "inputs": [
        {
          "name": "_tokenId",
          "type": "uint256"
        }
      ],
      "name": "ownerOf",
      "outputs": [
        {
          "name": "",
          "type": "address"
        }
      ],
      "payable": false,
      "stateMutability": "view",
      "type": "function"
    },
    {
      "constant": false,
      "inputs": [
        {
          "name": "_to",
          "type": "address"
        },
        {
          "name": "_value",
          "type": "uint256"
        }
      ],
      "name": "cTransfer",
      "outputs": [
        {
          "name": "success",
          "type": "bool"
        }
      ],
      "payable": false,
      "stateMutability": "nonpayable",
      "type": "function"
    },
    {
      "constant": true,
      "inputs": [
        {
          "name": "_tokenId",
          "type": "uint256"
        }
      ],
      "name": "tokenMetadata",
      "outputs": [
        {
          "name": "infoUrl",
          "type": "string"
        }
      ],
      "payable": false,
      "stateMutability": "view",
      "type": "function"
    },
    {
      "constant": true,
      "inputs": [
        {
          "name": "_owner",
          "type": "address"
        }
      ],
      "name": "balanceOf",
      "outputs": [
        {
          "name": "count",
          "type": "uint256"
        }
      ],
      "payable": false,
      "stateMutability": "view",
      "type": "function"
    },
    {
      "constant": false,
      "inputs": [],
      "name": "acceptOwnership",
      "outputs": [],
      "payable": false,
      "stateMutability": "nonpayable",
      "type": "function"
    },
    {
      "constant": true,
      "inputs": [
        {
          "name": "",
          "type": "uint256"
        }
      ],
      "name": "requests",
      "outputs": [
        {
          "name": "amount",
          "type": "uint256"
        },
        {
          "name": "timeStamp",
          "type": "uint256"
        },
        {
          "name": "duration",
          "type": "uint256"
        },
        {
          "name": "positive",
          "type": "uint8"
        },
        {
          "name": "negative",
          "type": "uint8"
        },
        {
          "name": "number",
          "type": "uint8"
        }
      ],
      "payable": false,
      "stateMutability": "view",
      "type": "function"
    },
    {
      "constant": true,
      "inputs": [
        {
          "name": "_owner",
          "type": "address"
        }
      ],
      "name": "tokensOfOwner",
      "outputs": [
        {
          "name": "ownerTokens",
          "type": "uint256[]"
        }
      ],
      "payable": false,
      "stateMutability": "view",
      "type": "function"
    },
    {
      "constant": true,
      "inputs": [],
      "name": "parameters",
      "outputs": [
        {
          "name": "joinAmount",
          "type": "uint256"
        },
        {
          "name": "coverageDuration",
          "type": "uint256"
        },
        {
          "name": "maxClaimAmount",
          "type": "uint256"
        },
        {
          "name": "maxClaimNumber",
          "type": "uint8"
        },
        {
          "name": "paymentRatio",
          "type": "uint8"
        },
        {
          "name": "maxPaymentAmount",
          "type": "uint256"
        },
        {
          "name": "minJuriesNumber",
          "type": "uint8"
        },
        {
          "name": "votingDuration",
          "type": "uint256"
        },
        {
          "name": "juriesNumber",
          "type": "uint8"
        }
      ],
      "payable": false,
      "stateMutability": "view",
      "type": "function"
    },
    {
      "constant": false,
      "inputs": [
        {
          "name": "_id",
          "type": "uint256"
        }
      ],
      "name": "payment",
      "outputs": [],
      "payable": false,
      "stateMutability": "nonpayable",
      "type": "function"
    },
    {
      "constant": true,
      "inputs": [],
      "name": "owner",
      "outputs": [
        {
          "name": "",
          "type": "address"
        }
      ],
      "payable": false,
      "stateMutability": "view",
      "type": "function"
    },
    {
      "constant": true,
      "inputs": [],
      "name": "cTotalSupply",
      "outputs": [
        {
          "name": "",
          "type": "uint256"
        }
      ],
      "payable": false,
      "stateMutability": "view",
      "type": "function"
    },
    {
      "constant": true,
      "inputs": [],
      "name": "symbol",
      "outputs": [
        {
          "name": "",
          "type": "string"
        }
      ],
      "payable": false,
      "stateMutability": "view",
      "type": "function"
    },
    {
      "constant": false,
      "inputs": [
        {
          "name": "_fromId",
          "type": "uint256"
        },
        {
          "name": "_spender",
          "type": "address"
        },
        {
          "name": "_toId",
          "type": "uint256"
        },
        {
          "name": "_value",
          "type": "uint256"
        }
      ],
      "name": "cApproveFrom",
      "outputs": [
        {
          "name": "success",
          "type": "bool"
        }
      ],
      "payable": false,
      "stateMutability": "nonpayable",
      "type": "function"
    },
    {
      "constant": true,
      "inputs": [],
      "name": "maxHold",
      "outputs": [
        {
          "name": "",
          "type": "uint8"
        }
      ],
      "payable": false,
      "stateMutability": "view",
      "type": "function"
    },
    {
      "constant": true,
      "inputs": [
        {
          "name": "",
          "type": "uint256"
        }
      ],
      "name": "tokenIndexToPoolToken",
      "outputs": [
        {
          "name": "",
          "type": "uint256"
        }
      ],
      "payable": false,
      "stateMutability": "view",
      "type": "function"
    },
    {
      "constant": true,
      "inputs": [
        {
          "name": "",
          "type": "address"
        }
      ],
      "name": "voters",
      "outputs": [
        {
          "name": "",
          "type": "uint256"
        }
      ],
      "payable": false,
      "stateMutability": "view",
      "type": "function"
    },
    {
      "constant": true,
      "inputs": [
        {
          "name": "",
          "type": "uint256"
        }
      ],
      "name": "tokenIndexToApproved",
      "outputs": [
        {
          "name": "",
          "type": "address"
        }
      ],
      "payable": false,
      "stateMutability": "view",
      "type": "function"
    },
    {
      "constant": false,
      "inputs": [
        {
          "name": "_to",
          "type": "address"
        },
        {
          "name": "_tokenId",
          "type": "uint256"
        }
      ],
      "name": "transfer",
      "outputs": [],
      "payable": false,
      "stateMutability": "nonpayable",
      "type": "function"
    },
    {
      "constant": true,
      "inputs": [
        {
          "name": "_to",
          "type": "address"
        },
        {
          "name": "_toId",
          "type": "uint256"
        }
      ],
      "name": "getLevel",
      "outputs": [
        {
          "name": "",
          "type": "uint256"
        }
      ],
      "payable": false,
      "stateMutability": "view",
      "type": "function"
    },
    {
      "constant": true,
      "inputs": [
        {
          "name": "_owner",
          "type": "address"
        }
      ],
      "name": "cBalanceOf",
      "outputs": [
        {
          "name": "",
          "type": "uint256"
        }
      ],
      "payable": false,
      "stateMutability": "view",
      "type": "function"
    },
    {
      "constant": false,
      "inputs": [
        {
          "name": "_id",
          "type": "uint256"
        }
      ],
      "name": "activate",
      "outputs": [],
      "payable": false,
      "stateMutability": "nonpayable",
      "type": "function"
    },
    {
      "constant": false,
      "inputs": [],
      "name": "join",
      "outputs": [
        {
          "name": "cowdsuranceId",
          "type": "uint256"
        }
      ],
      "payable": true,
      "stateMutability": "payable",
      "type": "function"
    },
    {
      "constant": false,
      "inputs": [
        {
          "name": "_jury",
          "type": "address"
        },
        {
          "name": "_id",
          "type": "uint256"
        }
      ],
      "name": "addVoter",
      "outputs": [],
      "payable": false,
      "stateMutability": "nonpayable",
      "type": "function"
    },
    {
      "constant": false,
      "inputs": [
        {
          "name": "_from",
          "type": "address"
        },
        {
          "name": "_to",
          "type": "address"
        },
        {
          "name": "_value",
          "type": "uint256"
        }
      ],
      "name": "cTransferFrom",
      "outputs": [
        {
          "name": "success",
          "type": "bool"
        }
      ],
      "payable": false,
      "stateMutability": "nonpayable",
      "type": "function"
    },
    {
      "constant": false,
      "inputs": [
        {
          "name": "_id",
          "type": "uint256"
        },
        {
          "name": "_claim",
          "type": "uint256"
        }
      ],
      "name": "claim",
      "outputs": [
        {
          "name": "",
          "type": "bool"
        }
      ],
      "payable": false,
      "stateMutability": "nonpayable",
      "type": "function"
    },
    {
      "constant": true,
      "inputs": [
        {
          "name": "",
          "type": "address"
        }
      ],
      "name": "addressToScore",
      "outputs": [
        {
          "name": "",
          "type": "uint256"
        }
      ],
      "payable": false,
      "stateMutability": "view",
      "type": "function"
    },
    {
      "constant": false,
      "inputs": [
        {
          "name": "_id",
          "type": "uint256"
        },
        {
          "name": "_positive",
          "type": "bool"
        }
      ],
      "name": "vote",
      "outputs": [],
      "payable": false,
      "stateMutability": "nonpayable",
      "type": "function"
    },
    {
      "constant": true,
      "inputs": [
        {
          "name": "_tokenId",
          "type": "uint256"
        }
      ],
      "name": "valueOf",
      "outputs": [
        {
          "name": "value",
          "type": "uint256"
        }
      ],
      "payable": false,
      "stateMutability": "view",
      "type": "function"
    },
    {
      "constant": true,
      "inputs": [
        {
          "name": "",
          "type": "address"
        },
        {
          "name": "",
          "type": "address"
        }
      ],
      "name": "allowanceAmt",
      "outputs": [
        {
          "name": "",
          "type": "uint256"
        }
      ],
      "payable": false,
      "stateMutability": "view",
      "type": "function"
    },
    {
      "constant": true,
      "inputs": [],
      "name": "maxLevel",
      "outputs": [
        {
          "name": "",
          "type": "uint256"
        }
      ],
      "payable": false,
      "stateMutability": "view",
      "type": "function"
    },
    {
      "constant": false,
      "inputs": [
        {
          "name": "_member",
          "type": "address"
        },
        {
          "name": "_score",
          "type": "uint256"
        },
        {
          "name": "_amount",
          "type": "uint256"
        }
      ],
      "name": "scoring",
      "outputs": [],
      "payable": false,
      "stateMutability": "nonpayable",
      "type": "function"
    },
    {
      "constant": true,
      "inputs": [],
      "name": "joinAmountRST",
      "outputs": [
        {
          "name": "",
          "type": "uint256"
        }
      ],
      "payable": false,
      "stateMutability": "view",
      "type": "function"
    },
    {
      "constant": true,
      "inputs": [],
      "name": "newOwner",
      "outputs": [
        {
          "name": "",
          "type": "address"
        }
      ],
      "payable": false,
      "stateMutability": "view",
      "type": "function"
    },
    {
      "constant": true,
      "inputs": [],
      "name": "apply",
      "outputs": [
        {
          "name": "amount",
          "type": "uint256"
        }
      ],
      "payable": false,
      "stateMutability": "view",
      "type": "function"
    },
    {
      "constant": true,
      "inputs": [
        {
          "name": "",
          "type": "uint256"
        }
      ],
      "name": "extensions",
      "outputs": [
        {
          "name": "timeStamp",
          "type": "uint256"
        },
        {
          "name": "activated",
          "type": "uint256"
        },
        {
          "name": "duration",
          "type": "uint256"
        },
        {
          "name": "amount",
          "type": "uint256"
        },
        {
          "name": "paid",
          "type": "uint256"
        },
        {
          "name": "score",
          "type": "uint256"
        },
        {
          "name": "claimNumber",
          "type": "uint8"
        },
        {
          "name": "status",
          "type": "uint8"
        }
      ],
      "payable": false,
      "stateMutability": "view",
      "type": "function"
    },
    {
      "constant": true,
      "inputs": [
        {
          "name": "",
          "type": "address"
        },
        {
          "name": "",
          "type": "address"
        }
      ],
      "name": "allowance",
      "outputs": [
        {
          "name": "",
          "type": "uint256"
        }
      ],
      "payable": false,
      "stateMutability": "view",
      "type": "function"
    },
    {
      "constant": true,
      "inputs": [],
      "name": "getComission",
      "outputs": [
        {
          "name": "commission",
          "type": "uint256"
        }
      ],
      "payable": false,
      "stateMutability": "view",
      "type": "function"
    },
    {
      "constant": true,
      "inputs": [
        {
          "name": "_nodeId",
          "type": "uint256"
        }
      ],
      "name": "getPath",
      "outputs": [
        {
          "name": "path",
          "type": "uint256[]"
        }
      ],
      "payable": false,
      "stateMutability": "view",
      "type": "function"
    },
    {
      "constant": true,
      "inputs": [
        {
          "name": "",
          "type": "address"
        },
        {
          "name": "",
          "type": "address"
        }
      ],
      "name": "allowanceIds",
      "outputs": [
        {
          "name": "",
          "type": "uint256"
        }
      ],
      "payable": false,
      "stateMutability": "view",
      "type": "function"
    },
    {
      "constant": false,
      "inputs": [
        {
          "name": "_newOwner",
          "type": "address"
        }
      ],
      "name": "transferOwnership",
      "outputs": [],
      "payable": false,
      "stateMutability": "nonpayable",
      "type": "function"
    },
    {
      "constant": true,
      "inputs": [
        {
          "name": "_owner",
          "type": "address"
        },
        {
          "name": "_spender",
          "type": "address"
        }
      ],
      "name": "cAllowance",
      "outputs": [
        {
          "name": "",
          "type": "uint256"
        }
      ],
      "payable": false,
      "stateMutability": "view",
      "type": "function"
    },
    {
      "inputs": [
        {
          "name": "_rst",
          "type": "address"
        },
        {
          "name": "_amount",
          "type": "uint256"
        },
        {
          "name": "_only",
          "type": "bool"
        },
        {
          "name": "_max",
          "type": "uint8"
        }
      ],
      "payable": false,
      "stateMutability": "nonpayable",
      "type": "constructor"
    },
    {
      "anonymous": false,
      "inputs": [
        {
          "indexed": false,
          "name": "member",
          "type": "address"
        },
        {
          "indexed": false,
          "name": "score",
          "type": "uint256"
        },
        {
          "indexed": false,
          "name": "amount",
          "type": "uint256"
        }
      ],
      "name": "Apply",
      "type": "event"
    },
    {
      "anonymous": false,
      "inputs": [
        {
          "indexed": false,
          "name": "member",
          "type": "address"
        },
        {
          "indexed": false,
          "name": "id",
          "type": "uint256"
        },
        {
          "indexed": false,
          "name": "amount",
          "type": "uint256"
        }
      ],
      "name": "Join",
      "type": "event"
    },
    {
      "anonymous": false,
      "inputs": [
        {
          "indexed": false,
          "name": "member",
          "type": "address"
        },
        {
          "indexed": false,
          "name": "score",
          "type": "uint256"
        },
        {
          "indexed": false,
          "name": "amount",
          "type": "uint256"
        }
      ],
      "name": "Scoring",
      "type": "event"
    },
    {
      "anonymous": false,
      "inputs": [
        {
          "indexed": false,
          "name": "id",
          "type": "uint256"
        },
        {
          "indexed": false,
          "name": "amount",
          "type": "uint256"
        },
        {
          "indexed": false,
          "name": "score",
          "type": "uint256"
        }
      ],
      "name": "Activate",
      "type": "event"
    },
    {
      "anonymous": false,
      "inputs": [
        {
          "indexed": false,
          "name": "id",
          "type": "uint256"
        },
        {
          "indexed": false,
          "name": "claim",
          "type": "uint256"
        },
        {
          "indexed": false,
          "name": "number",
          "type": "uint8"
        }
      ],
      "name": "Claim",
      "type": "event"
    },
    {
      "anonymous": false,
      "inputs": [
        {
          "indexed": false,
          "name": "jury",
          "type": "address"
        },
        {
          "indexed": false,
          "name": "id",
          "type": "uint256"
        },
        {
          "indexed": false,
          "name": "positive",
          "type": "bool"
        }
      ],
      "name": "Vote",
      "type": "event"
    },
    {
      "anonymous": false,
      "inputs": [
        {
          "indexed": false,
          "name": "reciever",
          "type": "address"
        },
        {
          "indexed": false,
          "name": "id",
          "type": "uint256"
        },
        {
          "indexed": false,
          "name": "amount",
          "type": "uint256"
        },
        {
          "indexed": false,
          "name": "status",
          "type": "uint8"
        }
      ],
      "name": "Payment",
      "type": "event"
    },
    {
      "anonymous": false,
      "inputs": [
        {
          "indexed": false,
          "name": "id",
          "type": "uint256"
        },
        {
          "indexed": false,
          "name": "poolId",
          "type": "uint256"
        },
        {
          "indexed": false,
          "name": "level",
          "type": "uint8"
        }
      ],
      "name": "InsertPool",
      "type": "event"
    },
    {
      "anonymous": false,
      "inputs": [
        {
          "indexed": false,
          "name": "id",
          "type": "uint256"
        },
        {
          "indexed": false,
          "name": "superPoolValue",
          "type": "uint256"
        },
        {
          "indexed": false,
          "name": "poolValue",
          "type": "uint256"
        },
        {
          "indexed": false,
          "name": "subPoolValue",
          "type": "uint256"
        },
        {
          "indexed": false,
          "name": "comission",
          "type": "uint256"
        }
      ],
      "name": "DistributeValue",
      "type": "event"
    },
    {
      "anonymous": false,
      "inputs": [
        {
          "indexed": false,
          "name": "id",
          "type": "uint256"
        },
        {
          "indexed": false,
          "name": "value",
          "type": "uint256"
        }
      ],
      "name": "SecondTierCall",
      "type": "event"
    },
    {
      "anonymous": false,
      "inputs": [
        {
          "indexed": false,
          "name": "id",
          "type": "uint256"
        },
        {
          "indexed": false,
          "name": "poolId",
          "type": "uint256"
        },
        {
          "indexed": false,
          "name": "value",
          "type": "uint256"
        },
        {
          "indexed": false,
          "name": "level",
          "type": "uint8"
        }
      ],
      "name": "ShortOfFunds",
      "type": "event"
    },
    {
      "anonymous": false,
      "inputs": [
        {
          "indexed": false,
          "name": "id",
          "type": "uint256"
        },
        {
          "indexed": false,
          "name": "value",
          "type": "uint256"
        },
        {
          "indexed": false,
          "name": "level",
          "type": "uint8"
        }
      ],
      "name": "PaymentValue",
      "type": "event"
    },
    {
      "anonymous": false,
      "inputs": [
        {
          "indexed": false,
          "name": "nodeId",
          "type": "uint256"
        },
        {
          "indexed": false,
          "name": "parentId",
          "type": "uint256"
        },
        {
          "indexed": false,
          "name": "level",
          "type": "uint256"
        }
      ],
      "name": "AddToken",
      "type": "event"
    },
    {
      "anonymous": false,
      "inputs": [
        {
          "indexed": false,
          "name": "nodeId",
          "type": "uint256"
        },
        {
          "indexed": false,
          "name": "level",
          "type": "uint256"
        }
      ],
      "name": "RemoveToken",
      "type": "event"
    },
    {
      "anonymous": false,
      "inputs": [
        {
          "indexed": false,
          "name": "from",
          "type": "address"
        },
        {
          "indexed": false,
          "name": "fromId",
          "type": "uint256"
        },
        {
          "indexed": false,
          "name": "to",
          "type": "address"
        },
        {
          "indexed": false,
          "name": "toId",
          "type": "uint256"
        },
        {
          "indexed": false,
          "name": "value",
          "type": "uint256"
        }
      ],
      "name": "Transfer",
      "type": "event"
    },
    {
      "anonymous": false,
      "inputs": [
        {
          "indexed": false,
          "name": "to",
          "type": "address"
        },
        {
          "indexed": false,
          "name": "toId",
          "type": "uint256"
        },
        {
          "indexed": false,
          "name": "value",
          "type": "uint256"
        }
      ],
      "name": "AddValue",
      "type": "event"
    },
    {
      "anonymous": false,
      "inputs": [
        {
          "indexed": false,
          "name": "from",
          "type": "address"
        },
        {
          "indexed": false,
          "name": "fromId",
          "type": "uint256"
        },
        {
          "indexed": false,
          "name": "value",
          "type": "uint256"
        }
      ],
      "name": "RemoveValue",
      "type": "event"
    },
    {
      "anonymous": false,
      "inputs": [
        {
          "indexed": false,
          "name": "to",
          "type": "address"
        },
        {
          "indexed": false,
          "name": "toId",
          "type": "uint256"
        },
        {
          "indexed": false,
          "name": "level",
          "type": "uint256"
        }
      ],
      "name": "SetLevel",
      "type": "event"
    },
    {
      "anonymous": false,
      "inputs": [
        {
          "indexed": false,
          "name": "to",
          "type": "address"
        },
        {
          "indexed": false,
          "name": "toId",
          "type": "uint256"
        }
      ],
      "name": "IncreaseLevel",
      "type": "event"
    },
    {
      "anonymous": false,
      "inputs": [
        {
          "indexed": true,
          "name": "_prevOwner",
          "type": "address"
        },
        {
          "indexed": true,
          "name": "_newOwner",
          "type": "address"
        }
      ],
      "name": "OwnerUpdate",
      "type": "event"
    },
    {
      "anonymous": false,
      "inputs": [
        {
          "indexed": false,
          "name": "fromId",
          "type": "uint256"
        },
        {
          "indexed": false,
          "name": "spender",
          "type": "address"
        },
        {
          "indexed": false,
          "name": "toId",
          "type": "uint256"
        },
        {
          "indexed": false,
          "name": "value",
          "type": "uint256"
        }
      ],
      "name": "CApproveFrom",
      "type": "event"
    },
    {
      "anonymous": false,
      "inputs": [
        {
          "indexed": false,
          "name": "spender",
          "type": "address"
        },
        {
          "indexed": false,
          "name": "value",
          "type": "uint256"
        }
      ],
      "name": "CApprove",
      "type": "event"
    },
    {
      "anonymous": false,
      "inputs": [
        {
          "indexed": false,
          "name": "from",
          "type": "address"
        },
        {
          "indexed": false,
          "name": "fromId",
          "type": "uint256"
        },
        {
          "indexed": false,
          "name": "to",
          "type": "address"
        },
        {
          "indexed": false,
          "name": "toId",
          "type": "uint256"
        },
        {
          "indexed": false,
          "name": "value",
          "type": "uint256"
        },
        {
          "indexed": false,
          "name": "allowance",
          "type": "uint256"
        }
      ],
      "name": "CTransferFrom",
      "type": "event"
    },
    {
      "anonymous": false,
      "inputs": [
        {
          "indexed": false,
          "name": "to",
          "type": "address"
        },
        {
          "indexed": false,
          "name": "toId",
          "type": "uint256"
        },
        {
          "indexed": false,
          "name": "amount",
          "type": "uint256"
        }
      ],
      "name": "CIssue",
      "type": "event"
    },
    {
      "anonymous": false,
      "inputs": [
        {
          "indexed": false,
          "name": "from",
          "type": "address"
        },
        {
          "indexed": false,
          "name": "fromId",
          "type": "uint256"
        },
        {
          "indexed": false,
          "name": "amount",
          "type": "uint256"
        }
      ],
      "name": "CDestroy",
      "type": "event"
    },
    {
      "anonymous": false,
      "inputs": [
        {
          "indexed": false,
          "name": "from",
          "type": "address"
        },
        {
          "indexed": false,
          "name": "to",
          "type": "address"
        },
        {
          "indexed": false,
          "name": "tokenId",
          "type": "uint256"
        }
      ],
      "name": "Transfer",
      "type": "event"
    },
    {
      "anonymous": false,
      "inputs": [
        {
          "indexed": false,
          "name": "owner",
          "type": "address"
        },
        {
          "indexed": false,
          "name": "approved",
          "type": "address"
        },
        {
          "indexed": false,
          "name": "tokenId",
          "type": "uint256"
        }
      ],
      "name": "Approval",
      "type": "event"
    },
    {
      "anonymous": false,
      "inputs": [
        {
          "indexed": false,
          "name": "value",
          "type": "uint256"
        },
        {
          "indexed": false,
          "name": "metadata",
          "type": "string"
        },
        {
          "indexed": false,
          "name": "kind",
          "type": "uint256"
        },
        {
          "indexed": false,
          "name": "owner",
          "type": "address"
        }
      ],
      "name": "Birth",
      "type": "event"
    }
  ],
  "bytecode": "0x606060405234156200001057600080fd5b604051608080620076da833981016040528080519060200190919080519060200190919080519060200190919080519060200190919050506040805190810160405280601881526020017f4c7567676167652043726f7764737572616e6365204e465400000000000000008152506040805190810160405280600381526020017f4c4353000000000000000000000000000000000000000000000000000000000081525081816000806000620000c562000ccf565b620000cf62000ccf565b620000d962000ccf565b87878181818133600260006101000a81548173ffffffffffffffffffffffffffffffffffffffff021916908373ffffffffffffffffffffffffffffffffffffffff16021790555081600090805190602001906200013892919062000d09565b5080600190805190602001906200015192919062000d09565b50505033600a60006101000a81548173ffffffffffffffffffffffffffffffffffffffff021916908373ffffffffffffffffffffffffffffffffffffffff16021790555050506004600c8190555050506004600c819055506200022460006040805190810160405280600981526020017f5375706572506f6f6c00000000000000000000000000000000000000000000008152506001600a60009054906101000a900473ffffffffffffffffffffffffffffffffffffffff16620006ef64010000000002620060a7176401000000009004565b9550620002a160006040805190810160405280600481526020017f506f6f6c000000000000000000000000000000000000000000000000000000008152506001600a60009054906101000a900473ffffffffffffffffffffffffffffffffffffffff16620006ef64010000000002620060a7176401000000009004565b94506200031e60006040805190810160405280600781526020017f537562506f6f6c000000000000000000000000000000000000000000000000008152506002600a60009054906101000a900473ffffffffffffffffffffffffffffffffffffffff16620006ef64010000000002620060a7176401000000009004565b9350620003408587620009556401000000000262001b03176401000000009004565b620003608486620009556401000000000262001b03176401000000009004565b60c060405190810160405280600060ff16815260200160018152602001600a815260200160018152602001878152602001600a8152509250600e8054806001018281620003ae919062000d90565b9160005260206000209060060201600085909190915060008201518160000160006101000a81548160ff021916908360ff1602179055506020820151816001015560408201518160020155606082015181600301556080820151816004015560a0820151816005015550505060c060405190810160405280600160ff168152602001600a8152602001606481526020016001815260200186815260200160148152509150600e805480600101828162000468919062000d90565b9160005260206000209060060201600084909190915060008201518160000160006101000a81548160ff021916908360ff1602179055506020820151816001015560408201518160020155606082015181600301556080820151816004015560a0820151816005015550505060c060405190810160405280600260ff1681526020016103e88152602001606481526020016001815260200185815260200160328152509050600e805480600101828162000523919062000d90565b9160005260206000209060060201600083909190915060008201518160000160006101000a81548160ff021916908360ff1602179055506020820151816001015560408201518160020155606082015181600301556080820151816004015560a08201518160050155505050505050505050505067016345785d8a0000600f6000018190555062ed4e00600f60010181905550678ac7230489e80000600f600201819055506001600f60030160006101000a81548160ff021916908360ff1602179055506050600f60030160016101000a81548160ff021916908360ff160217905550678ac7230489e80000600f600401819055506003600f60050160006101000a81548160ff021916908360ff1602179055506202a30060ff16600f600601819055506005600f60070160006101000a81548160ff021916908360ff160217905550505083601c60006101000a81548173ffffffffffffffffffffffffffffffffffffffff021916908373ffffffffffffffffffffffffffffffffffffffff16021790555082601d8190555081601e60006101000a81548160ff02191690831515021790555080601e60016101000a81548160ff021916908360ff1602179055505050505062000ff3565b6000620006fb62000dc5565b600060a060405190810160405280888152602001878152602001868152602001600081526020016000815250915060016003805480600101828162000741919062000dfd565b916000526020600020906005020160008590919091506000820151816000015560208201518160010190805190602001906200077f92919062000e32565b506040820151816002015560608201518160030155608082015181600401555050039050600063ffffffff168114156200082e57600160038054806001018281620007cb919062000dfd565b916000526020600020906005020160008590919091506000820151816000015560208201518160010190805190602001906200080992919062000e32565b5060408201518160020155606082015181600301556080820151816004015550500390505b8063ffffffff16811415156200084357600080fd5b7fdea8e87d69047e1b3cd43ad599d34e3eacfe4408b4dfc5d0f6ac6a15a468de5c8787878760405180858152602001806020018481526020018373ffffffffffffffffffffffffffffffffffffffff1673ffffffffffffffffffffffffffffffffffffffff168152602001828103825285818151815260200191508051906020019080838360005b83811015620008e8578082015181840152602081019050620008cb565b50505050905090810190601f168015620009165780820380516001836020036101000a031916815260200191505b509550505050505060405180910390a1620009486000858362000a9c64010000000002620055b2176401000000009004565b8092505050949350505050565b600082141580156200096b575060038054905082105b15156200097757600080fd5b600081141580156200098d575060038054905081105b15156200099957600080fd5b6001600c5403600382815481101515620009af57fe5b906000526020600020906005020160030154101515620009ce57600080fd5b80600d6000848152602001908152602001600020819055506001600382815481101515620009f857fe5b9060005260206000209060050201600301540160038381548110151562000a1b57fe5b9060005260206000209060050201600301819055507f0900f87897aa374bb21fa36753905fa2944dd2301242246101a9047a0ed227a0828260038581548110151562000a6357fe5b90600052602060002090600502016003015460405180848152602001838152602001828152602001935050505060405180910390a15050565b61040060038281548110151562000aaf57fe5b9060005260206000209060050201600401541415151562000acc57fe5b600560008373ffffffffffffffffffffffffffffffffffffffff1673ffffffffffffffffffffffffffffffffffffffff16815260200190815260200160002060008154809291906001019190505550816004600083815260200190815260200160002060006101000a81548173ffffffffffffffffffffffffffffffffffffffff021916908373ffffffffffffffffffffffffffffffffffffffff160217905550600073ffffffffffffffffffffffffffffffffffffffff168373ffffffffffffffffffffffffffffffffffffffff1614151562000c2b57600560008473ffffffffffffffffffffffffffffffffffffffff1673ffffffffffffffffffffffffffffffffffffffff16815260200190815260200160002060008154809291906001900391905055506006600082815260200190815260200160002060006101000a81549073ffffffffffffffffffffffffffffffffffffffff02191690555b7fddf252ad1be2c89b69c2b068fc378daa952ba7f163c4a11628f55a4df523b3ef838383604051808473ffffffffffffffffffffffffffffffffffffffff1673ffffffffffffffffffffffffffffffffffffffff1681526020018373ffffffffffffffffffffffffffffffffffffffff1673ffffffffffffffffffffffffffffffffffffffff168152602001828152602001935050505060405180910390a1505050565b60c060405190810160405280600060ff16815260200160008152602001600081526020016000815260200160008152602001600081525090565b828054600181600116156101000203166002900490600052602060002090601f016020900481019282601f1062000d4c57805160ff191683800117855562000d7d565b8280016001018555821562000d7d579182015b8281111562000d7c57825182559160200191906001019062000d5f565b5b50905062000d8c919062000eb9565b5090565b81548183558181151162000dc05760060281600602836000526020600020918201910162000dbf919062000ee1565b5b505050565b60a0604051908101604052806000815260200162000de262000f3f565b81526020016000815260200160008152602001600081525090565b81548183558181151162000e2d5760050281600502836000526020600020918201910162000e2c919062000f53565b5b505050565b828054600181600116156101000203166002900490600052602060002090601f016020900481019282601f1062000e7557805160ff191683800117855562000ea6565b8280016001018555821562000ea6579182015b8281111562000ea557825182559160200191906001019062000e88565b5b50905062000eb5919062000eb9565b5090565b62000ede91905b8082111562000eda57600081600090555060010162000ec0565b5090565b90565b62000f3c91905b8082111562000f3857600080820160006101000a81549060ff0219169055600182016000905560028201600090556003820160009055600482016000905560058201600090555060060162000ee8565b5090565b90565b602060405190810160405280600081525090565b62000fa491905b8082111562000fa05760008082016000905560018201600062000f7e919062000fa7565b6002820160009055600382016000905560048201600090555060050162000f5a565b5090565b90565b50805460018160011615610100020316600290046000825580601f1062000fcf575062000ff0565b601f01602090049060005260206000209081019062000fef919062000eb9565b5b50565b6166d780620010036000396000f3006060604052600436106102c9576000357c0100000000000000000000000000000000000000000000000000000000900463ffffffff168062607b7f146102ce57806301ffc9a71461030957806306fdde0314610363578063095ea7b3146103f15780630e13dd741461043357806317b9ebec1461048857806318160ddd146104b45780631b5c45de146104dd5780631cced51b1461050a5780631d36e06c1461055b5780631de565d6146105be57806323b872dd14610613578063296250051461067457806332c4ee83146106bf57806336c5d7241461071957806339e6cdb11461073c5780633c7e7d281461077e5780634cabcfac146107cb578063545c3d55146108165780636352211e1461086157806366d80ba5146108c45780636914db601461091e57806370a08231146109ba57806379ba509714610a0757806381d12c5814610a1c5780638462151c14610a885780638903573014610b165780638b3c99e314610b8f5780638da5cb5b14610bb25780638f1fc77c14610c0757806395d89b4114610c3057806398dc5c9514610cbe5780639a6c614e14610d2a5780639ca0883114610d59578063a3ec138d14610d90578063a8bd9c3214610ddd578063a9059cbb14610e40578063b121f2ac14610e82578063b135707914610ed8578063b260c42a14610f25578063b688a36314610f48578063b9f05f2f14610f66578063bf62266514610fa8578063c349026314611021578063c52380e914611065578063c9d27afe146110b2578063cadf338f146110e0578063cbbc9f8914611117578063cc06c35914611183578063cf7c4367146111ac578063d0d8074a146111f7578063d4ee1d9014611220578063db595b3b14611275578063db85d59c1461129e578063dd62ed3e14611312578063dd6d3ca71461137e578063e1765073146113a7578063e527cc9d1461141f578063f2fde38b1461148b578063f81fd7ea146114c4575b600080fd5b34156102d957600080fd5b6102ef6004808035906020019091905050611530565b604051808215151515815260200191505060405180910390f35b341561031457600080fd5b61034960048080357bffffffffffffffffffffffffffffffffffffffffffffffffffffffff19169060200190919050506115d8565b604051808215151515815260200191505060405180910390f35b341561036e57600080fd5b6103766118e9565b6040518080602001828103825283818151815260200191508051906020019080838360005b838110156103b657808201518184015260208101905061039b565b50505050905090810190601f1680156103e35780820380516001836020036101000a031916815260200191505b509250505060405180910390f35b34156103fc57600080fd5b610431600480803573ffffffffffffffffffffffffffffffffffffffff16906020019091908035906020019091905050611991565b005b341561043e57600080fd5b6104546004808035906020019091905050611a53565b60405180841515151581526020018360ff1660ff1681526020018260ff1660ff168152602001935050505060405180910390f35b341561049357600080fd5b6104b26004808035906020019091908035906020019091905050611b03565b005b34156104bf57600080fd5b6104c7611c41565b6040518082815260200191505060405180910390f35b34156104e857600080fd5b6104f0611c63565b604051808215151515815260200191505060405180910390f35b341561051557600080fd5b61051d611c76565b6040518082600460200280838360005b8381101561054857808201518184015260208101905061052d565b5050505090500191505060405180910390f35b341561056657600080fd5b61057c6004808035906020019091905050611de3565b604051808273ffffffffffffffffffffffffffffffffffffffff1673ffffffffffffffffffffffffffffffffffffffff16815260200191505060405180910390f35b34156105c957600080fd5b6105d1611e16565b604051808273ffffffffffffffffffffffffffffffffffffffff1673ffffffffffffffffffffffffffffffffffffffff16815260200191505060405180910390f35b341561061e57600080fd5b610672600480803573ffffffffffffffffffffffffffffffffffffffff1690602001909190803573ffffffffffffffffffffffffffffffffffffffff16906020019091908035906020019091905050611e3c565b005b341561067f57600080fd5b6106bd600480803573ffffffffffffffffffffffffffffffffffffffff16906020019091908035906020019091908035906020019091905050611eed565b005b34156106ca57600080fd5b6106ff600480803573ffffffffffffffffffffffffffffffffffffffff16906020019091908035906020019091905050611ff8565b604051808215151515815260200191505060405180910390f35b341561072457600080fd5b61073a600480803590602001909190505061228d565b005b341561074757600080fd5b61077c600480803573ffffffffffffffffffffffffffffffffffffffff16906020019091908035906020019091905050612342565b005b341561078957600080fd5b6107b5600480803573ffffffffffffffffffffffffffffffffffffffff16906020019091905050612467565b6040518082815260200191505060405180910390f35b34156107d657600080fd5b610814600480803573ffffffffffffffffffffffffffffffffffffffff1690602001909190803590602001909190803590602001909190505061247f565b005b341561082157600080fd5b61085f600480803573ffffffffffffffffffffffffffffffffffffffff16906020019091908035906020019091908035906020019091905050612578565b005b341561086c57600080fd5b6108826004808035906020019091905050612671565b604051808273ffffffffffffffffffffffffffffffffffffffff1673ffffffffffffffffffffffffffffffffffffffff16815260200191505060405180910390f35b34156108cf57600080fd5b610904600480803573ffffffffffffffffffffffffffffffffffffffff169060200190919080359060200190919050506126ef565b604051808215151515815260200191505060405180910390f35b341561092957600080fd5b61093f6004808035906020019091905050612755565b6040518080602001828103825283818151815260200191508051906020019080838360005b8381101561097f578082015181840152602081019050610964565b50505050905090810190601f1680156109ac5780820380516001836020036101000a031916815260200191505b509250505060405180910390f35b34156109c557600080fd5b6109f1600480803573ffffffffffffffffffffffffffffffffffffffff1690602001909190505061281d565b6040518082815260200191505060405180910390f35b3415610a1257600080fd5b610a1a612866565b005b3415610a2757600080fd5b610a3d6004808035906020019091905050612a07565b604051808781526020018681526020018581526020018460ff1660ff1681526020018360ff1660ff1681526020018260ff1660ff168152602001965050505050505060405180910390f35b3415610a9357600080fd5b610abf600480803573ffffffffffffffffffffffffffffffffffffffff16906020019091905050612a6a565b6040518080602001828103825283818151815260200191508051906020019060200280838360005b83811015610b02578082015181840152602081019050610ae7565b505050509050019250505060405180910390f35b3415610b2157600080fd5b610b29612a82565b604051808a81526020018981526020018881526020018760ff1660ff1681526020018660ff1660ff1681526020018581526020018460ff1660ff1681526020018381526020018260ff1660ff168152602001995050505050505050505060405180910390f35b3415610b9a57600080fd5b610bb06004808035906020019091905050612af2565b005b3415610bbd57600080fd5b610bc5613109565b604051808273ffffffffffffffffffffffffffffffffffffffff1673ffffffffffffffffffffffffffffffffffffffff16815260200191505060405180910390f35b3415610c1257600080fd5b610c1a61312f565b6040518082815260200191505060405180910390f35b3415610c3b57600080fd5b610c43613189565b6040518080602001828103825283818151815260200191508051906020019080838360005b83811015610c83578082015181840152602081019050610c68565b50505050905090810190601f168015610cb05780820380516001836020036101000a031916815260200191505b509250505060405180910390f35b3415610cc957600080fd5b610d10600480803590602001909190803573ffffffffffffffffffffffffffffffffffffffff16906020019091908035906020019091908035906020019091905050613231565b604051808215151515815260200191505060405180910390f35b3415610d3557600080fd5b610d3d6134bd565b604051808260ff1660ff16815260200191505060405180910390f35b3415610d6457600080fd5b610d7a60048080359060200190919050506134d0565b6040518082815260200191505060405180910390f35b3415610d9b57600080fd5b610dc7600480803573ffffffffffffffffffffffffffffffffffffffff169060200190919050506134e8565b6040518082815260200191505060405180910390f35b3415610de857600080fd5b610dfe6004808035906020019091905050613500565b604051808273ffffffffffffffffffffffffffffffffffffffff1673ffffffffffffffffffffffffffffffffffffffff16815260200191505060405180910390f35b3415610e4b57600080fd5b610e80600480803573ffffffffffffffffffffffffffffffffffffffff16906020019091908035906020019091905050613533565b005b3415610e8d57600080fd5b610ec2600480803573ffffffffffffffffffffffffffffffffffffffff169060200190919080359060200190919050506135ce565b6040518082815260200191505060405180910390f35b3415610ee357600080fd5b610f0f600480803573ffffffffffffffffffffffffffffffffffffffff1690602001909190505061360e565b6040518082815260200191505060405180910390f35b3415610f3057600080fd5b610f466004808035906020019091905050613692565b005b610f506137d0565b6040518082815260200191505060405180910390f35b3415610f7157600080fd5b610fa6600480803573ffffffffffffffffffffffffffffffffffffffff16906020019091908035906020019091905050613928565b005b3415610fb357600080fd5b611007600480803573ffffffffffffffffffffffffffffffffffffffff1690602001909190803573ffffffffffffffffffffffffffffffffffffffff16906020019091908035906020019091905050613b64565b604051808215151515815260200191505060405180910390f35b341561102c57600080fd5b61104b60048080359060200190919080359060200190919050506141d9565b604051808215151515815260200191505060405180910390f35b341561107057600080fd5b61109c600480803573ffffffffffffffffffffffffffffffffffffffff1690602001909190505061451e565b6040518082815260200191505060405180910390f35b34156110bd57600080fd5b6110de60048080359060200190919080351515906020019091905050614536565b005b34156110eb57600080fd5b611101600480803590602001909190505061473e565b6040518082815260200191505060405180910390f35b341561112257600080fd5b61116d600480803573ffffffffffffffffffffffffffffffffffffffff1690602001909190803573ffffffffffffffffffffffffffffffffffffffff16906020019091905050614768565b6040518082815260200191505060405180910390f35b341561118e57600080fd5b61119661478d565b6040518082815260200191505060405180910390f35b34156111b757600080fd5b6111f5600480803573ffffffffffffffffffffffffffffffffffffffff16906020019091908035906020019091908035906020019091905050614793565b005b341561120257600080fd5b61120a614959565b6040518082815260200191505060405180910390f35b341561122b57600080fd5b61123361495f565b604051808273ffffffffffffffffffffffffffffffffffffffff1673ffffffffffffffffffffffffffffffffffffffff16815260200191505060405180910390f35b341561128057600080fd5b611288614985565b6040518082815260200191505060405180910390f35b34156112a957600080fd5b6112bf6004808035906020019091905050614a83565b604051808981526020018881526020018781526020018681526020018581526020018481526020018360ff1660ff1681526020018260ff1660ff1681526020019850505050505050505060405180910390f35b341561131d57600080fd5b611368600480803573ffffffffffffffffffffffffffffffffffffffff1690602001909190803573ffffffffffffffffffffffffffffffffffffffff16906020019091905050614ae5565b6040518082815260200191505060405180910390f35b341561138957600080fd5b611391614b0a565b6040518082815260200191505060405180910390f35b34156113b257600080fd5b6113c86004808035906020019091905050614b33565b6040518080602001828103825283818151815260200191508051906020019060200280838360005b8381101561140b5780820151818401526020810190506113f0565b505050509050019250505060405180910390f35b341561142a57600080fd5b611475600480803573ffffffffffffffffffffffffffffffffffffffff1690602001909190803573ffffffffffffffffffffffffffffffffffffffff16906020019091905050614baa565b6040518082815260200191505060405180910390f35b341561149657600080fd5b6114c2600480803573ffffffffffffffffffffffffffffffffffffffff16906020019091905050614bcf565b005b34156114cf57600080fd5b61151a600480803573ffffffffffffffffffffffffffffffffffffffff1690602001909190803573ffffffffffffffffffffffffffffffffffffffff16906020019091905050614cc9565b6040518082815260200191505060405180910390f35b6000600a60009054906101000a900473ffffffffffffffffffffffffffffffffffffffff1673ffffffffffffffffffffffffffffffffffffffff163373ffffffffffffffffffffffffffffffffffffffff1614151561158b57fe5b600082141580156115a0575060038054905082105b15156115ab57600080fd5b6115b6826002614dc7565b15156115be57fe5b6115c7826150a9565b15156115cf57fe5b60019050919050565b600060405180807f737570706f727473496e74657266616365286279746573342900000000000000815250601901905060405180910390207bffffffffffffffffffffffffffffffffffffffffffffffffffffffff1916827bffffffffffffffffffffffffffffffffffffffffffffffffffffffff191614806118e2575060405180807f746f6b656e4d657461646174612875696e743235362c737472696e6729000000815250601d019050604051809103902060405180807f746f6b656e734f664f776e6572286164647265737329000000000000000000008152506016019050604051809103902060405180807f7472616e7366657246726f6d28616464726573732c616464726573732c75696e81526020017f74323536290000000000000000000000000000000000000000000000000000008152506025019050604051809103902060405180807f7472616e7366657228616464726573732c75696e7432353629000000000000008152506019019050604051809103902060405180807f617070726f766528616464726573732c75696e743235362900000000000000008152506018019050604051809103902060405180807f6f776e65724f662875696e7432353629000000000000000000000000000000008152506010019050604051809103902060405180807f62616c616e63654f6628616464726573732900000000000000000000000000008152506012019050604051809103902060405180807f746f74616c537570706c79282900000000000000000000000000000000000000815250600d019050604051809103902060405180807f73796d626f6c28290000000000000000000000000000000000000000000000008152506008019050604051809103902060405180807f6e616d6528290000000000000000000000000000000000000000000000000000815250600601905060405180910390201818181818181818187bffffffffffffffffffffffffffffffffffffffffffffffffffffffff1916827bffffffffffffffffffffffffffffffffffffffffffffffffffffffff1916145b9050919050565b6118f16162e8565b60008054600181600116156101000203166002900480601f0160208091040260200160405190810160405280929190818152602001828054600181600116156101000203166002900480156119875780601f1061195c57610100808354040283529160200191611987565b820191906000526020600020905b81548152906001019060200180831161196a57829003601f168201915b5050505050905090565b61199b3382615484565b15156119a657600080fd5b6119b081836154f0565b7f8c5be1e5ebec7d5bd14f71427d1e84f3dd0314c0f7b2291e5b200ac8c7c3b925338383604051808473ffffffffffffffffffffffffffffffffffffffff1673ffffffffffffffffffffffffffffffffffffffff1681526020018373ffffffffffffffffffffffffffffffffffffffff1673ffffffffffffffffffffffffffffffffffffffff168152602001828152602001935050505060405180910390a15050565b6000806000806000808614151515611a6a57600080fd5b60026005811115611a7757fe5b6019600088815260200190815260200160002060060160019054906101000a900460ff1660ff16141515611aaa57600080fd5b601b60008781526020019081526020016000209150816002015482600101540190504281111594508160030160009054906101000a900460ff1693508160030160019054906101000a900460ff16925050509193909250565b60008214158015611b18575060038054905082105b1515611b2357600080fd5b60008114158015611b38575060038054905081105b1515611b4357600080fd5b6001600c5403600382815481101515611b5857fe5b906000526020600020906005020160030154101515611b7657600080fd5b80600d6000848152602001908152602001600020819055506001600382815481101515611b9f57fe5b90600052602060002090600502016003015401600383815481101515611bc157fe5b9060005260206000209060050201600301819055507f0900f87897aa374bb21fa36753905fa2944dd2301242246101a9047a0ed227a08282600385815481101515611c0857fe5b90600052602060002090600502016003015460405180848152602001838152602001828152602001935050505060405180910390a15050565b60008060038054905090506000811115611c5c576001810390505b8091505090565b601e60009054906101000a900460ff1681565b611c7e6162fc565b6000806000836000600481101515611c9257fe5b6020020181815250506000836001600481101515611cac57fe5b6020020181815250506000836002600481101515611cc657fe5b6020020181815250506000836003600481101515611ce057fe5b602002018181525050600190505b600380549050811015611dde57600381815481101515611d0a57fe5b9060005260206000209060050201600301549150600c548260ff161015611d8257600381815481101515611d3a57fe5b906000526020600020906005020160000154838360ff16600481101515611d5d57fe5b602002015101838360ff16600481101515611d7457fe5b602002018181525050611dd1565b600381815481101515611d9157fe5b906000526020600020906005020160000154836003600481101515611db257fe5b602002015101836003600481101515611dc757fe5b6020020181815250505b8080600101915050611cee565b505090565b60046020528060005260406000206000915054906101000a900473ffffffffffffffffffffffffffffffffffffffff1681565b601c60009054906101000a900473ffffffffffffffffffffffffffffffffffffffff1681565b600073ffffffffffffffffffffffffffffffffffffffff168273ffffffffffffffffffffffffffffffffffffffff1614151515611e7857600080fd5b3073ffffffffffffffffffffffffffffffffffffffff168273ffffffffffffffffffffffffffffffffffffffff1614151515611eb357600080fd5b611ebd3382615546565b1515611ec857600080fd5b611ed28382615484565b1515611edd57600080fd5b611ee88383836155b2565b505050565b600a60009054906101000a900473ffffffffffffffffffffffffffffffffffffffff1673ffffffffffffffffffffffffffffffffffffffff163373ffffffffffffffffffffffffffffffffffffffff16141515611f4657fe5b611f508383615484565b1515611f5b57600080fd5b80600383815481101515611f6b57fe5b9060005260206000209060050201600301819055507f48ed1b5769aee6cf16cda3da1db2a0acf83c194c9d2a98ebeff4904567af58f6838383604051808473ffffffffffffffffffffffffffffffffffffffff1673ffffffffffffffffffffffffffffffffffffffff168152602001838152602001828152602001935050505060405180910390a1505050565b600080600080600073ffffffffffffffffffffffffffffffffffffffff168673ffffffffffffffffffffffffffffffffffffffff161415151561203a57600080fd5b6000851415151561204a57600080fd5b339250612056836157e2565b9150612061866157e2565b905080821415151561207257600080fd5b6000821415151561208257600080fd5b6000811415151561209257600080fd5b80600860008573ffffffffffffffffffffffffffffffffffffffff1673ffffffffffffffffffffffffffffffffffffffff16815260200190815260200160002060008873ffffffffffffffffffffffffffffffffffffffff1673ffffffffffffffffffffffffffffffffffffffff1681526020019081526020016000208190555081600860008573ffffffffffffffffffffffffffffffffffffffff1673ffffffffffffffffffffffffffffffffffffffff16815260200190815260200160002060008573ffffffffffffffffffffffffffffffffffffffff1673ffffffffffffffffffffffffffffffffffffffff1681526020019081526020016000208190555084600960008573ffffffffffffffffffffffffffffffffffffffff1673ffffffffffffffffffffffffffffffffffffffff16815260200190815260200160002060008873ffffffffffffffffffffffffffffffffffffffff1673ffffffffffffffffffffffffffffffffffffffff168152602001908152602001600020819055507fe051949e9a44e2e9c21ee7d1c7b03ef0bf501aa3b7c4616a8543f229c0bede7a8686604051808373ffffffffffffffffffffffffffffffffffffffff1673ffffffffffffffffffffffffffffffffffffffff1681526020018281526020019250505060405180910390a16001935050505092915050565b60008082141580156122a3575060038054905082105b15156122ae57600080fd5b6122b782615832565b90506000811415156122c857600080fd5b600d6000838152602001908152602001600020600090557f399c331be71add502e95a2402ba7370605a945c1c6c1dc01c5e30f7e896cfa568260038481548110151561231057fe5b906000526020600020906005020160030154604051808381526020018281526020019250505060405180910390a15050565b600a60009054906101000a900473ffffffffffffffffffffffffffffffffffffffff1673ffffffffffffffffffffffffffffffffffffffff163373ffffffffffffffffffffffffffffffffffffffff1614151561239b57fe5b6123a58282615484565b15156123b057600080fd5b60016003828154811015156123c157fe5b906000526020600020906005020160030154016003828154811015156123e357fe5b9060005260206000209060050201600301819055507fb6ffa2bc58069f160ac94855c396bc8a7c591ae4b9e69d78cc004ad2e4d70d858282604051808373ffffffffffffffffffffffffffffffffffffffff1673ffffffffffffffffffffffffffffffffffffffff1681526020018281526020019250505060405180910390a15050565b60176020528060005260406000206000915090505481565b60008073ffffffffffffffffffffffffffffffffffffffff168473ffffffffffffffffffffffffffffffffffffffff16141515156124bc57600080fd5b600082141515156124cc57600080fd5b82905060008114156124e4576124e1846157e2565b90505b600081141515156124f457600080fd5b6124ff8482846158aa565b7f8ee078ba6dd38678f9ffdc8f1df2d512559df0cae2db32c829459127e1003197848484604051808473ffffffffffffffffffffffffffffffffffffffff1673ffffffffffffffffffffffffffffffffffffffff168152602001838152602001828152602001935050505060405180910390a150505050565b60008073ffffffffffffffffffffffffffffffffffffffff168473ffffffffffffffffffffffffffffffffffffffff16141515156125b557600080fd5b600082141515156125c557600080fd5b82905060008114156125dd576125da846157e2565b90505b600081141515156125ed57600080fd5b6125f88482846159bd565b7ff3d0e22890d929d2a1cd5ca9e5f6498c4271ce2f0223ab4092297c2d11c9ef75848484604051808473ffffffffffffffffffffffffffffffffffffffff1673ffffffffffffffffffffffffffffffffffffffff168152602001838152602001828152602001935050505060405180910390a150505050565b6000806004600084815260200190815260200160002060009054906101000a900473ffffffffffffffffffffffffffffffffffffffff169050600073ffffffffffffffffffffffffffffffffffffffff168173ffffffffffffffffffffffffffffffffffffffff16141515156126e657600080fd5b80915050919050565b600080600073ffffffffffffffffffffffffffffffffffffffff168473ffffffffffffffffffffffffffffffffffffffff161415151561272e57600080fd5b6000831415151561273e57600080fd5b33905061274c818585613b64565b91505092915050565b61275d6162e8565b60038281548110151561276c57fe5b90600052602060002090600502016001018054600181600116156101000203166002900480601f0160208091040260200160405190810160405280929190818152602001828054600181600116156101000203166002900480156128115780601f106127e657610100808354040283529160200191612811565b820191906000526020600020905b8154815290600101906020018083116127f457829003601f168201915b50505050509050919050565b6000600560008373ffffffffffffffffffffffffffffffffffffffff1673ffffffffffffffffffffffffffffffffffffffff168152602001908152602001600020549050919050565b600b60009054906101000a900473ffffffffffffffffffffffffffffffffffffffff1673ffffffffffffffffffffffffffffffffffffffff163373ffffffffffffffffffffffffffffffffffffffff161415156128c257600080fd5b600b60009054906101000a900473ffffffffffffffffffffffffffffffffffffffff1673ffffffffffffffffffffffffffffffffffffffff16600a60009054906101000a900473ffffffffffffffffffffffffffffffffffffffff1673ffffffffffffffffffffffffffffffffffffffff167f343765429aea5a34b3ff6a3785a98a5abb2597aca87bfbb58632c173d585373a60405160405180910390a3600b60009054906101000a900473ffffffffffffffffffffffffffffffffffffffff16600a60006101000a81548173ffffffffffffffffffffffffffffffffffffffff021916908373ffffffffffffffffffffffffffffffffffffffff1602179055506000600b60006101000a81548173ffffffffffffffffffffffffffffffffffffffff021916908373ffffffffffffffffffffffffffffffffffffffff160217905550565b601b6020528060005260406000206000915090508060000154908060010154908060020154908060030160009054906101000a900460ff16908060030160019054906101000a900460ff16908060030160029054906101000a900460ff16905086565b612a72616324565b612a7b82615aa1565b9050919050565b600f8060000154908060010154908060020154908060030160009054906101000a900460ff16908060030160019054906101000a900460ff16908060040154908060050160009054906101000a900460ff16908060060154908060070160009054906101000a900460ff16905089565b60008060008060008514151515612b0857600080fd5b612b123386615484565b1515612b1d57600080fd5b60026005811115612b2a57fe5b6019600087815260200190815260200160002060060160019054906101000a900460ff1660ff16141515612b5d57600080fd5b601b6000868152602001908152602001600020935083600201548460010154019250428311151515612b8e57600080fd5b8360030160019054906101000a900460ff1660ff168460030160009054906101000a900460ff1660ff161115612d2857600f60030160019054906101000a900460ff1660ff166064856000015402811515612be557fe5b0491503373ffffffffffffffffffffffffffffffffffffffff166108fc839081150290604051600060405180830381858888f193505050501515612c2857600080fd5b60036005811115612c3557fe5b6019600087815260200190815260200160002060060160016101000a81548160ff021916908360ff1602179055508160196000878152602001908152602001600020600401540160196000878152602001908152602001600020600401819055507f261826fbdc11ee0da48a5356542bcb46786deaed4c215b871d3df7a03652262d33868460036005811115612cc757fe5b604051808573ffffffffffffffffffffffffffffffffffffffff1673ffffffffffffffffffffffffffffffffffffffff1681526020018481526020018381526020018260ff1660ff16815260200194505050505060405180910390a1612fe9565b8360030160019054906101000a900460ff1660ff168460030160009054906101000a900460ff1660ff161480612d995750600f60050160009054906101000a900460ff1660ff168460030160019054906101000a900460ff168560030160009054906101000a900460ff160160ff16105b15612f1e573373ffffffffffffffffffffffffffffffffffffffff166108fc60196000888152602001908152602001600020600301549081150290604051600060405180830381858888f193505050501515612df457600080fd5b600580811115612e0057fe5b6019600087815260200190815260200160002060060160016101000a81548160ff021916908360ff160217905550601960008681526020019081526020016000206003015460196000878152602001908152602001600020600401540160196000878152602001908152602001600020600401819055507f261826fbdc11ee0da48a5356542bcb46786deaed4c215b871d3df7a03652262d33866019600089815260200190815260200160002060030154600580811115612ebd57fe5b604051808573ffffffffffffffffffffffffffffffffffffffff1673ffffffffffffffffffffffffffffffffffffffff1681526020018481526020018381526020018260ff1660ff16815260200194505050505060405180910390a1612fe8565b60046005811115612f2b57fe5b6019600087815260200190815260200160002060060160016101000a81548160ff021916908360ff1602179055507f261826fbdc11ee0da48a5356542bcb46786deaed4c215b871d3df7a03652262d3386600060046005811115612f8b57fe5b604051808573ffffffffffffffffffffffffffffffffffffffff1673ffffffffffffffffffffffffffffffffffffffff1681526020018481526020018381526020018260ff1660ff16815260200194505050505060405180910390a15b5b5b8360030160029054906101000a900460ff1660ff1681101561308857601a6000856004018360058110151561301b57fe5b0160009054906101000a900473ffffffffffffffffffffffffffffffffffffffff1673ffffffffffffffffffffffffffffffffffffffff1673ffffffffffffffffffffffffffffffffffffffff168152602001908152602001600020600090558080600101915050612fea565b601b6000868152602001908152602001600020600080820160009055600182016000905560028201600090556003820160006101000a81549060ff02191690556003820160016101000a81549060ff02191690556003820160026101000a81549060ff02191690556004820160006131009190616338565b50505050505050565b600a60009054906101000a900473ffffffffffffffffffffffffffffffffffffffff1681565b600080600080600092506003805490509150600190505b818110156131805760038181548110151561315d57fe5b906000526020600020906005020160000154830192508080600101915050613146565b82935050505090565b6131916162e8565b60018054600181600116156101000203166002900480601f0160208091040260200160405190810160405280929190818152602001828054600181600116156101000203166002900480156132275780601f106131fc57610100808354040283529160200191613227565b820191906000526020600020905b81548152906001019060200180831161320a57829003601f168201915b5050505050905090565b600080600073ffffffffffffffffffffffffffffffffffffffff168573ffffffffffffffffffffffffffffffffffffffff161415151561327057600080fd5b83861415151561327f57600080fd5b6000861415151561328f57600080fd5b6000841415151561329f57600080fd5b600083141515156132af57600080fd5b33905083600860008373ffffffffffffffffffffffffffffffffffffffff1673ffffffffffffffffffffffffffffffffffffffff16815260200190815260200160002060008773ffffffffffffffffffffffffffffffffffffffff1673ffffffffffffffffffffffffffffffffffffffff1681526020019081526020016000208190555085600860008373ffffffffffffffffffffffffffffffffffffffff1673ffffffffffffffffffffffffffffffffffffffff16815260200190815260200160002060008373ffffffffffffffffffffffffffffffffffffffff1673ffffffffffffffffffffffffffffffffffffffff1681526020019081526020016000208190555082600960008373ffffffffffffffffffffffffffffffffffffffff1673ffffffffffffffffffffffffffffffffffffffff16815260200190815260200160002060008773ffffffffffffffffffffffffffffffffffffffff1673ffffffffffffffffffffffffffffffffffffffff168152602001908152602001600020819055507fef4beaa380feab20776f162f92bbf15b04c59f8fd4e8ab2508b8d29fed7dfd6186868686604051808581526020018473ffffffffffffffffffffffffffffffffffffffff1673ffffffffffffffffffffffffffffffffffffffff16815260200183815260200182815260200194505050505060405180910390a16001915050949350505050565b601e60019054906101000a900460ff1681565b600d6020528060005260406000206000915090505481565b601a6020528060005260406000206000915090505481565b60066020528060005260406000206000915054906101000a900473ffffffffffffffffffffffffffffffffffffffff1681565b600073ffffffffffffffffffffffffffffffffffffffff168273ffffffffffffffffffffffffffffffffffffffff161415151561356f57600080fd5b3073ffffffffffffffffffffffffffffffffffffffff168273ffffffffffffffffffffffffffffffffffffffff16141515156135aa57600080fd5b6135b43382615484565b15156135bf57600080fd5b6135ca3383836155b2565b5050565b60006135da8383615484565b15156135e557600080fd5b6003828154811015156135f457fe5b906000526020600020906005020160030154905092915050565b6000613618616324565b600080600061362686615aa1565b93506000925083519150600090505b81811015613686576003848281518110151561364d57fe5b9060200190602002015181548110151561366357fe5b906000526020600020906005020160000154830192508080600101915050613635565b82945050505050919050565b600081141515156136a257600080fd5b6136ac3382615484565b15156136b757600080fd5b60006019600083815260200190815260200160002060030154141515156136dd57600080fd5b6104006003828154811015156136ef57fe5b9060005260206000209060050201600401819055506001600581111561371157fe5b6019600083815260200190815260200160002060060160016101000a81548160ff021916908360ff1602179055504260196000838152602001908152602001600020600101819055507ff5d2d36fd2c60192fd8f874c962737f1858ff797bf9865d071ade33eeee00701816019600084815260200190815260200160002060030154601960008581526020019081526020016000206005015460405180848152602001838152602001828152602001935050505060405180910390a150565b600080600080349250339150601860008373ffffffffffffffffffffffffffffffffffffffff1673ffffffffffffffffffffffffffffffffffffffff168152602001908152602001600020549050601e60009054906101000a900460ff161561389657600073ffffffffffffffffffffffffffffffffffffffff16601c60009054906101000a900473ffffffffffffffffffffffffffffffffffffffff1673ffffffffffffffffffffffffffffffffffffffff161415151561389157600080fd5b613915565b600083141580156138ac5750600f600001548310155b15156138b757600080fd5b600081141515156138c757600080fd5b601760008373ffffffffffffffffffffffffffffffffffffffff1673ffffffffffffffffffffffffffffffffffffffff168152602001908152602001600020548314151561391457600080fd5b5b613920828285615c11565b935050505090565b6000806000600a60009054906101000a900473ffffffffffffffffffffffffffffffffffffffff1673ffffffffffffffffffffffffffffffffffffffff163373ffffffffffffffffffffffffffffffffffffffff1614151561398657fe5b600073ffffffffffffffffffffffffffffffffffffffff168573ffffffffffffffffffffffffffffffffffffffff16141515156139c257600080fd5b600084141515156139d257600080fd5b600260058111156139df57fe5b6019600086815260200190815260200160002060060160019054906101000a900460ff1660ff16141515613a1257600080fd5b601b600085815260200190815260200160002092506000836000015414151515613a3b57600080fd5b82600201548360010154019150428210151515613a5757600080fd5b8260030160029054906101000a900460ff169050600f60070160009054906101000a900460ff1660ff168160ff16101515613a9157600080fd5b84836004018260ff16600581101515613aa657fe5b0160006101000a81548173ffffffffffffffffffffffffffffffffffffffff021916908373ffffffffffffffffffffffffffffffffffffffff16021790555082600301600281819054906101000a900460ff168092919060010191906101000a81548160ff021916908360ff1602179055505083601a60008773ffffffffffffffffffffffffffffffffffffffff1673ffffffffffffffffffffffffffffffffffffffff168152602001908152602001600020819055505050505050565b60008060008060008073ffffffffffffffffffffffffffffffffffffffff168773ffffffffffffffffffffffffffffffffffffffff1614151515613ba757600080fd5b60008614151515613bb757600080fd5b879350600860008573ffffffffffffffffffffffffffffffffffffffff1673ffffffffffffffffffffffffffffffffffffffff16815260200190815260200160002060008873ffffffffffffffffffffffffffffffffffffffff1673ffffffffffffffffffffffffffffffffffffffff168152602001908152602001600020549250600860008573ffffffffffffffffffffffffffffffffffffffff1673ffffffffffffffffffffffffffffffffffffffff16815260200190815260200160002060008573ffffffffffffffffffffffffffffffffffffffff1673ffffffffffffffffffffffffffffffffffffffff168152602001908152602001600020549150600960008573ffffffffffffffffffffffffffffffffffffffff1673ffffffffffffffffffffffffffffffffffffffff16815260200190815260200160002060008873ffffffffffffffffffffffffffffffffffffffff1673ffffffffffffffffffffffffffffffffffffffff168152602001908152602001600020549050818314151515613d4657600080fd5b60008314151515613d5657600080fd5b60008214151515613d6657600080fd5b60008114151515613d7657600080fd5b858110151515613d8557600080fd5b613d92848389868a615e5b565b85600960008673ffffffffffffffffffffffffffffffffffffffff1673ffffffffffffffffffffffffffffffffffffffff16815260200190815260200160002060008973ffffffffffffffffffffffffffffffffffffffff1673ffffffffffffffffffffffffffffffffffffffff1681526020019081526020016000205403600960008673ffffffffffffffffffffffffffffffffffffffff1673ffffffffffffffffffffffffffffffffffffffff16815260200190815260200160002060008973ffffffffffffffffffffffffffffffffffffffff1673ffffffffffffffffffffffffffffffffffffffff168152602001908152602001600020819055506000600960008673ffffffffffffffffffffffffffffffffffffffff1673ffffffffffffffffffffffffffffffffffffffff16815260200190815260200160002060008973ffffffffffffffffffffffffffffffffffffffff1673ffffffffffffffffffffffffffffffffffffffff16815260200190815260200160002054141561409757600960008573ffffffffffffffffffffffffffffffffffffffff1673ffffffffffffffffffffffffffffffffffffffff16815260200190815260200160002060008873ffffffffffffffffffffffffffffffffffffffff1673ffffffffffffffffffffffffffffffffffffffff16815260200190815260200160002060009055600860008573ffffffffffffffffffffffffffffffffffffffff1673ffffffffffffffffffffffffffffffffffffffff16815260200190815260200160002060008573ffffffffffffffffffffffffffffffffffffffff1673ffffffffffffffffffffffffffffffffffffffff16815260200190815260200160002060009055600860008573ffffffffffffffffffffffffffffffffffffffff1673ffffffffffffffffffffffffffffffffffffffff16815260200190815260200160002060008873ffffffffffffffffffffffffffffffffffffffff1673ffffffffffffffffffffffffffffffffffffffff168152602001908152602001600020600090555b7fa085ba1c72fda1f13ecb6e0347284ac7d016a73b7a47c0ba151368bbe5ce2db9888389868a600960008b73ffffffffffffffffffffffffffffffffffffffff1673ffffffffffffffffffffffffffffffffffffffff16815260200190815260200160002060008e73ffffffffffffffffffffffffffffffffffffffff1673ffffffffffffffffffffffffffffffffffffffff16815260200190815260200160002054604051808773ffffffffffffffffffffffffffffffffffffffff1673ffffffffffffffffffffffffffffffffffffffff1681526020018681526020018573ffffffffffffffffffffffffffffffffffffffff1673ffffffffffffffffffffffffffffffffffffffff168152602001848152602001838152602001828152602001965050505050505060405180910390a160019450505050509392505050565b60008060006141e661635b565b600086141515156141f657600080fd5b6142003387615484565b151561420b57600080fd5b6000851415151561421b57600080fd5b6001600581111561422857fe5b6019600088815260200190815260200160002060060160019054906101000a900460ff1660ff1614151561425b57600080fd5b600f60030160009054906101000a900460ff1660ff1660016019600089815260200190815260200160002060060160009054906101000a900460ff160160ff16111515156142a857600080fd5b600f60030160019054906101000a900460ff1660ff16606486028115156142cb57fe5b049250600f6004015483601960008981526020019081526020016000206004015401111515156142fa57600080fd5b6019600087815260200190815260200160002060020154601960008881526020019081526020016000206001015401915042821015151561433a57600080fd5b8481600001818152505042816020018181525050600f6006015481604001818152505060008160a0019060ff16908160ff168152505080601b600088815260200190815260200160002060008201518160000155602082015181600101556040820151816002015560608201518160030160006101000a81548160ff021916908360ff16021790555060808201518160030160016101000a81548160ff021916908360ff16021790555060a08201518160030160026101000a81548160ff021916908360ff16021790555060c08201518160040190600561441c9291906163a9565b5090505060196000878152602001908152602001600020600601600081819054906101000a900460ff168092919060010191906101000a81548160ff021916908360ff160217905550506002600581111561447357fe5b6019600088815260200190815260200160002060060160016101000a81548160ff021916908360ff1602179055507fb3ef0c14cd9ed6533151b9a921ddb33f8716dd3593254ffc741ae770313e3bea8686601960008a815260200190815260200160002060060160009054906101000a900460ff16604051808481526020018381526020018260ff1660ff168152602001935050505060405180910390a16001935050505092915050565b60186020528060005260406000206000915090505481565b6000806000841415151561454957600080fd5b601a60003373ffffffffffffffffffffffffffffffffffffffff1673ffffffffffffffffffffffffffffffffffffffff168152602001908152602001600020548414151561459657600080fd5b600260058111156145a357fe5b60ff166019600086815260200190815260200160002060060160019054906101000a900460ff1660ff161415156145d957600080fd5b601b600085815260200190815260200160002091508160020154826001015401905042811015151561460a57600080fd5b82156146495781600301600081819054906101000a900460ff168092919060010191906101000a81548160ff021916908360ff1602179055505061467e565b81600301600181819054906101000a900460ff168092919060010191906101000a81548160ff021916908360ff160217905550505b601a60003373ffffffffffffffffffffffffffffffffffffffff1673ffffffffffffffffffffffffffffffffffffffff168152602001908152602001600020600090557f8d85a70fd2c5d140a4a01143492d27ff82cfad4cead313e66c53f39b0feb5e0f338585604051808473ffffffffffffffffffffffffffffffffffffffff1673ffffffffffffffffffffffffffffffffffffffff16815260200183815260200182151515158152602001935050505060405180910390a150505050565b600060038281548110151561474f57fe5b9060005260206000209060050201600001549050919050565b6009602052816000526040600020602052806000526040600020600091509150505481565b600c5481565b600a60009054906101000a900473ffffffffffffffffffffffffffffffffffffffff1673ffffffffffffffffffffffffffffffffffffffff163373ffffffffffffffffffffffffffffffffffffffff161415156147ec57fe5b600073ffffffffffffffffffffffffffffffffffffffff168373ffffffffffffffffffffffffffffffffffffffff161415151561482857600080fd5b6000821415151561483857600080fd5b6000811415801561484e5750600f600001548110155b151561485957600080fd5b80601760008573ffffffffffffffffffffffffffffffffffffffff1673ffffffffffffffffffffffffffffffffffffffff1681526020019081526020016000208190555081601860008573ffffffffffffffffffffffffffffffffffffffff1673ffffffffffffffffffffffffffffffffffffffff168152602001908152602001600020819055507f21619a95128e7e5c5367774b6479b6edbc059210239e39bbd50dbae00cfe0972838383604051808473ffffffffffffffffffffffffffffffffffffffff1673ffffffffffffffffffffffffffffffffffffffff168152602001838152602001828152602001935050505060405180910390a1505050565b601d5481565b600b60009054906101000a900473ffffffffffffffffffffffffffffffffffffffff1681565b600080601760003373ffffffffffffffffffffffffffffffffffffffff1673ffffffffffffffffffffffffffffffffffffffff168152602001908152602001600020549150601860003373ffffffffffffffffffffffffffffffffffffffff1673ffffffffffffffffffffffffffffffffffffffff1681526020019081526020016000205490507fdafdd0f2a3af66f1d9ab59928d5fb2e9eb5428db4b63362502d21e2511624ff7338284604051808473ffffffffffffffffffffffffffffffffffffffff1673ffffffffffffffffffffffffffffffffffffffff168152602001838152602001828152602001935050505060405180910390a15090565b60196020528060005260406000206000915090508060000154908060010154908060020154908060030154908060040154908060050154908060060160009054906101000a900460ff16908060060160019054906101000a900460ff16905088565b6007602052816000526040600020602052806000526040600020600091509150505481565b600060036000815481101515614b1c57fe5b906000526020600020906005020160000154905090565b614b3b616324565b600080600d6000858152602001908152602001600020549150600090505b600c54811015614ba357818382815181101515614b7257fe5b9060200190602002018181525050600d60008381526020019081526020016000205491508080600101915050614b59565b5050919050565b6008602052816000526040600020602052806000526040600020600091509150505481565b600a60009054906101000a900473ffffffffffffffffffffffffffffffffffffffff1673ffffffffffffffffffffffffffffffffffffffff163373ffffffffffffffffffffffffffffffffffffffff16141515614c2857fe5b600a60009054906101000a900473ffffffffffffffffffffffffffffffffffffffff1673ffffffffffffffffffffffffffffffffffffffff168173ffffffffffffffffffffffffffffffffffffffff1614151515614c8557600080fd5b80600b60006101000a81548173ffffffffffffffffffffffffffffffffffffffff021916908373ffffffffffffffffffffffffffffffffffffffff16021790555050565b60008073ffffffffffffffffffffffffffffffffffffffff168273ffffffffffffffffffffffffffffffffffffffff1614151515614d0657600080fd5b600073ffffffffffffffffffffffffffffffffffffffff168373ffffffffffffffffffffffffffffffffffffffff1614151515614d4257600080fd5b600960008473ffffffffffffffffffffffffffffffffffffffff1673ffffffffffffffffffffffffffffffffffffffff16815260200190815260200160002060008373ffffffffffffffffffffffffffffffffffffffff1673ffffffffffffffffffffffffffffffffffffffff16815260200190815260200160002054905092915050565b6000806000806000614dd98787616048565b9350614de484615832565b9250614df08787616076565b915081831015614e5a57614e048785611b03565b7f69186e91a26c2cd1f67397df408ddeb0db9249dbd6e2a428ad8ae0d59ba3bc88878588604051808481526020018381526020018260ff1660ff168152602001935050505060405180910390a16001945061509f565b600e8660ff16815481101515614e6c57fe5b906000526020600020906006020160010154600e8760ff16815481101515614e9057fe5b9060005260206000209060060201600301541415614eb1576000945061509f565b614fb86000600386815481101515614ec557fe5b90600052602060002090600502016001018054600181600116156101000203166002900480601f016020809104026020016040519081016040528092919081815260200182805460018160011615610100020316600290048015614f6a5780601f10614f3f57610100808354040283529160200191614f6a565b820191906000526020600020905b815481529060010190602001808311614f4d57829003601f168201915b5050505050600387815481101515614f7e57fe5b906000526020600020906005020160020154600a60009054906101000a900473ffffffffffffffffffffffffffffffffffffffff166160a7565b905060008114151561509a57614fd18160018803614dc7565b1561509157614fe08782611b03565b7f69186e91a26c2cd1f67397df408ddeb0db9249dbd6e2a428ad8ae0d59ba3bc88878288604051808481526020018381526020018260ff1660ff168152602001935050505060405180910390a180600e8760ff1681548110151561504057fe5b906000526020600020906006020160040181905550600e8660ff1681548110151561506757fe5b9060005260206000209060060201600301600081548092919060010191905055506001945061509f565b6000945061509f565b600094505b5050505092915050565b600080600080600080600080600089141580156150ca575060038054905089105b15156150d557600080fd5b6001600c540360038a8154811015156150ea57fe5b90600052602060002090600502016003015414151561510857600080fd5b600d60008a81526020019081526020016000205496506000871415151561512e57600080fd5b600d60008881526020019081526020016000205495506000861415151561515457600080fd5b600d60008781526020019081526020016000205494506000851415151561517a57600080fd5b600e600281548110151561518a57fe5b906000526020600020906006020160050154606460038b8154811015156151ad57fe5b906000526020600020906005020160000154028115156151c957fe5b049350600084141515156151dc57600080fd5b600e60018154811015156151ec57fe5b906000526020600020906006020160050154606460038b81548110151561520f57fe5b9060005260206000209060050201600001540281151561522b57fe5b0492506000831415151561523e57600080fd5b600e600081548110151561524e57fe5b906000526020600020906006020160050154606460038b81548110151561527157fe5b9060005260206000209060050201600001540281151561528d57fe5b049150600082141515156152a057600080fd5b81838560038c8154811015156152b257fe5b9060005260206000209060050201600001540303039050600081141515156152d957600080fd5b836003888154811015156152e957fe5b9060005260206000209060050201600001540160038881548110151561530b57fe5b9060005260206000209060050201600001819055508260038781548110151561533057fe5b9060005260206000209060050201600001540160038781548110151561535257fe5b9060005260206000209060050201600001819055508160038681548110151561537757fe5b9060005260206000209060050201600001540160038681548110151561539957fe5b90600052602060002090600502016000018190555080600360008154811015156153bf57fe5b90600052602060002090600502016000015401600360008154811015156153e257fe5b906000526020600020906005020160000181905550600060038a81548110151561540857fe5b9060005260206000209060050201600001819055507fcfd3c3fcdcb63bcee48ff9a9ec28351afef5ba4fc9b5a8f46d5aa65565a3b1a38983858785604051808681526020018581526020018481526020018381526020018281526020019550505050505060405180910390a16001975050505050505050919050565b60008273ffffffffffffffffffffffffffffffffffffffff166004600084815260200190815260200160002060009054906101000a900473ffffffffffffffffffffffffffffffffffffffff1673ffffffffffffffffffffffffffffffffffffffff1614905092915050565b806006600084815260200190815260200160002060006101000a81548173ffffffffffffffffffffffffffffffffffffffff021916908373ffffffffffffffffffffffffffffffffffffffff1602179055505050565b60008273ffffffffffffffffffffffffffffffffffffffff166006600084815260200190815260200160002060009054906101000a900473ffffffffffffffffffffffffffffffffffffffff1673ffffffffffffffffffffffffffffffffffffffff1614905092915050565b6104006003828154811015156155c457fe5b906000526020600020906005020160040154141515156155e057fe5b600560008373ffffffffffffffffffffffffffffffffffffffff1673ffffffffffffffffffffffffffffffffffffffff16815260200190815260200160002060008154809291906001019190505550816004600083815260200190815260200160002060006101000a81548173ffffffffffffffffffffffffffffffffffffffff021916908373ffffffffffffffffffffffffffffffffffffffff160217905550600073ffffffffffffffffffffffffffffffffffffffff168373ffffffffffffffffffffffffffffffffffffffff1614151561573e57600560008473ffffffffffffffffffffffffffffffffffffffff1673ffffffffffffffffffffffffffffffffffffffff16815260200190815260200160002060008154809291906001900391905055506006600082815260200190815260200160002060006101000a81549073ffffffffffffffffffffffffffffffffffffffff02191690555b7fddf252ad1be2c89b69c2b068fc378daa952ba7f163c4a11628f55a4df523b3ef838383604051808473ffffffffffffffffffffffffffffffffffffffff1673ffffffffffffffffffffffffffffffffffffffff1681526020018373ffffffffffffffffffffffffffffffffffffffff1673ffffffffffffffffffffffffffffffffffffffff168152602001828152602001935050505060405180910390a1505050565b60006157ec616324565b60006157f784615aa1565b915081519050600081141561580f576000925061582b565b81600081518110151561581e57fe5b9060200190602002015192505b5050919050565b600080600080841415801561584b575060038054905084105b151561585657600080fd5b61585e611c41565b915060009250600190505b81811115156158a35783600d60008381526020019081526020016000205414156158965782806001019350505b8080600101915050615869565b5050919050565b6158b48383615484565b15156158bf57600080fd5b600081141515156158cf57600080fd5b806003838154811015156158df57fe5b906000526020600020906005020160000154101515156158fe57600080fd5b8060038381548110151561590e57fe5b9060005260206000209060050201600001540360038381548110151561593057fe5b9060005260206000209060050201600001819055507f45dacd427fd388bf162986dbc958cdcf160c31b40efe076907cff377b9857c79838383604051808473ffffffffffffffffffffffffffffffffffffffff1673ffffffffffffffffffffffffffffffffffffffff168152602001838152602001828152602001935050505060405180910390a1505050565b6159c78383615484565b15156159d257600080fd5b600081141515156159e257600080fd5b806003838154811015156159f257fe5b90600052602060002090600502016000015401600383815481101515615a1457fe5b9060005260206000209060050201600001819055507f20f4934a3b4928cca0e51f3f1eaac12dee9af151a8a8ba5a424a89d93f6bf53d838383604051808473ffffffffffffffffffffffffffffffffffffffff1673ffffffffffffffffffffffffffffffffffffffff168152602001838152602001828152602001935050505060405180910390a1505050565b615aa9616324565b6000615ab3616324565b60008060008073ffffffffffffffffffffffffffffffffffffffff168773ffffffffffffffffffffffffffffffffffffffff1614151515615af357600080fd5b615afc8761281d565b94506000851415615b2e576000604051805910615b165750595b90808252806020026020018201604052509550615c07565b84604051805910615b3c5750595b90808252806020026020018201604052509350615b57611c41565b925060009150600190505b8281111515615c03578673ffffffffffffffffffffffffffffffffffffffff166004600083815260200190815260200160002060009054906101000a900473ffffffffffffffffffffffffffffffffffffffff1673ffffffffffffffffffffffffffffffffffffffff161415615bf657808483806001019450815181101515615be757fe5b90602001906020020181815250505b8080600101915050615b62565b8395505b5050505050919050565b600080615c1c616426565b615c5e846040805190810160405280600c81526020017f43726f7764737572616e636500000000000000000000000000000000000000008152506000896160a7565b91506101006040519081016040528042815260200160008152602001600f60010154815260200185815260200160008152602001868152602001600060ff16815260200160006005811115615caf57fe5b60ff1681525090508060196000848152602001908152602001600020600082015181600001556020820151816001015560408201518160020155606082015181600301556080820151816004015560a0820151816005015560c08201518160060160006101000a81548160ff021916908360ff16021790555060e08201518160060160016101000a81548160ff021916908360ff160217905550905050615d5582611530565b507fbca387acb0ba7d06e329c4372885bb664f19a98153ccf3e74e56c136bf0e88c4868386604051808473ffffffffffffffffffffffffffffffffffffffff1673ffffffffffffffffffffffffffffffffffffffff168152602001838152602001828152602001935050505060405180910390a1601760008773ffffffffffffffffffffffffffffffffffffffff1673ffffffffffffffffffffffffffffffffffffffff16815260200190815260200160002060009055601860008773ffffffffffffffffffffffffffffffffffffffff1673ffffffffffffffffffffffffffffffffffffffff1681526020019081526020016000206000905581925050509392505050565b615e658585615484565b1515615e7057600080fd5b615e7a8383615484565b1515615e8557600080fd5b60008114151515615e9557600080fd5b818414151515615ea457600080fd5b80600385815481101515615eb457fe5b90600052602060002090600502016000015410151515615ed357600080fd5b610400600385815481101515615ee557fe5b90600052602060002090600502016004015414151515615f0457600080fd5b80600385815481101515615f1457fe5b90600052602060002090600502016000015403600385815481101515615f3657fe5b90600052602060002090600502016000018190555080600383815481101515615f5b57fe5b90600052602060002090600502016000015401600383815481101515615f7d57fe5b9060005260206000209060050201600001819055507f6d401b913d27047ecd2042f0331e2354d30e664920b31480dc71955edb996c388585858585604051808673ffffffffffffffffffffffffffffffffffffffff1673ffffffffffffffffffffffffffffffffffffffff1681526020018581526020018473ffffffffffffffffffffffffffffffffffffffff1673ffffffffffffffffffffffffffffffffffffffff1681526020018381526020018281526020019550505050505060405180910390a15050505050565b6000600e8260ff1681548110151561605c57fe5b906000526020600020906006020160040154905092915050565b60006001600e8360ff1681548110151561608c57fe5b90600052602060002090600602016002015403905092915050565b60006160b1616472565b600060a06040519081016040528088815260200187815260200186815260200160008152602001600081525091506001600380548060010182816160f591906164a8565b916000526020600020906005020160008590919091506000820151816000015560208201518160010190805190602001906161319291906164da565b506040820151816002015560608201518160030155608082015181600401555050039050600063ffffffff168114156161db5760016003805480600101828161617a91906164a8565b916000526020600020906005020160008590919091506000820151816000015560208201518160010190805190602001906161b69291906164da565b5060408201518160020155606082015181600301556080820151816004015550500390505b8063ffffffff16811415156161ef57600080fd5b7fdea8e87d69047e1b3cd43ad599d34e3eacfe4408b4dfc5d0f6ac6a15a468de5c8787878760405180858152602001806020018481526020018373ffffffffffffffffffffffffffffffffffffffff1673ffffffffffffffffffffffffffffffffffffffff168152602001828103825285818151815260200191508051906020019080838360005b83811015616292578082015181840152602081019050616277565b50505050905090810190601f1680156162bf5780820380516001836020036101000a031916815260200191505b509550505050505060405180910390a16162db600085836155b2565b8092505050949350505050565b602060405190810160405280600081525090565b6080604051908101604052806004905b600081526020019060019003908161630c5790505090565b602060405190810160405280600081525090565b506000815560010160008155600101600081556001016000815560010160009055565b61016060405190810160405280600081526020016000815260200160008152602001600060ff168152602001600060ff168152602001600060ff1681526020016163a361655a565b81525090565b8260058101928215616415579160200282015b828111156164145782518260006101000a81548173ffffffffffffffffffffffffffffffffffffffff021916908373ffffffffffffffffffffffffffffffffffffffff160217905550916020019190600101906163bc565b5b5090506164229190616598565b5090565b61010060405190810160405280600081526020016000815260200160008152602001600081526020016000815260200160008152602001600060ff168152602001600060ff1681525090565b60a0604051908101604052806000815260200161648d6165db565b81526020016000815260200160008152602001600081525090565b8154818355818115116164d5576005028160050283600052602060002091820191016164d491906165ef565b5b505050565b828054600181600116156101000203166002900490600052602060002090601f016020900481019282601f1061651b57805160ff1916838001178555616549565b82800160010185558215616549579182015b8281111561654857825182559160200191906001019061652d565b5b509050616556919061663e565b5090565b60a0604051908101604052806005905b600073ffffffffffffffffffffffffffffffffffffffff1681526020019060019003908161656a5790505090565b6165d891905b808211156165d457600081816101000a81549073ffffffffffffffffffffffffffffffffffffffff02191690555060010161659e565b5090565b90565b602060405190810160405280600081525090565b61663b91905b80821115616637576000808201600090556001820160006166169190616663565b600282016000905560038201600090556004820160009055506005016165f5565b5090565b90565b61666091905b8082111561665c576000816000905550600101616644565b5090565b90565b50805460018160011615610100020316600290046000825580601f1061668957506166a8565b601f0160209004906000526020600020908101906166a7919061663e565b5b505600a165627a7a723058209600630a2df8181ef59a7b17a1e08bba248f940ddb76fb5668cbf91056a50e810029",
  "source": "// \n// MIT License\n// \n// Copyright (c) 2018 REGA Risk Sharing\n//   \n// Permission is hereby granted, free of charge, to any person obtaining a copy\n// of this software and associated documentation files (the \"Software\"), to deal\n// in the Software without restriction, including without limitation the rights\n// to use, copy, modify, merge, publish, distribute, sublicense, and/or sell\n// copies of the Software, and to permit persons to whom the Software is\n// furnished to do so, subject to the following conditions:\n// \n// The above copyright notice and this permission notice shall be included in all\n// copies or substantial portions of the Software.\n// \n// THE SOFTWARE IS PROVIDED \"AS IS\", WITHOUT WARRANTY OF ANY KIND, EXPRESS OR\n// IMPLIED, INCLUDING BUT NOT LIMITED TO THE WARRANTIES OF MERCHANTABILITY,\n// FITNESS FOR A PARTICULAR PURPOSE AND NONINFRINGEMENT. IN NO EVENT SHALL THE\n// AUTHORS OR COPYRIGHT HOLDERS BE LIABLE FOR ANY CLAIM, DAMAGES OR OTHER\n// LIABILITY, WHETHER IN AN ACTION OF CONTRACT, TORT OR OTHERWISE, ARISING FROM,\n// OUT OF OR IN CONNECTION WITH THE SOFTWARE OR THE USE OR OTHER DEALINGS IN THE\n// SOFTWARE.\n// \n// Author: Sergei Sevriugin\n// Version: 0.0.1\n//  \n\npragma solidity ^0.4.17;\n\nimport './TokenCrowdsurance.sol';\nimport './interfaces/IERC20Token.sol';\n\n/// Luggage crowdsurance protection product based on TokenCrowdsurance NFT token \ncontract LuggageCrowdsurance is TokenCrowdsurance {\n    /// REGA Risk Sharing Token smart contract address\n    IERC20Token public  RST;                // RST smart contract address\n    uint256     public  joinAmountRST;      // Join amount in RST\n    bool        public  RSTOnly;            // Join only for RST tokens\n    uint8       public  maxHold;            // Maximum number of toikens for one address\n    /// join function\n    /// @return cowdsuranceId NFT token ID for created crowdsurance\n    function join() public payable returns(uint256 cowdsuranceId) {\n        uint256 amount = msg.value;\n        address member = msg.sender;\n        uint256 score = addressToScore[member];\n        if (RSTOnly) {\n            // now need to check that the member has approved the transfer joinAmountRST to join\n            require(RST != address(0));     // check that we have valid contract address\n\n        }\n        else {\n            require(amount != uint256(0) && amount >= parameters.joinAmount);\n            require(score != uint256(0));\n            require(amount == addressToAmount[member]);\n        }\n        // call internal _join after all checkups \n        cowdsuranceId = _join(member, score, amount);\n    }\n    function LuggageCrowdsurance(address _rst, uint256 _amount, bool _only, uint8 _max) \n                TokenCrowdsurance(\"Luggage Crowdsurance NFT\", \"LCS\") public {\n        // setting up contract parameters \n        RST = IERC20Token(_rst);\n        joinAmountRST = _amount; \n        RSTOnly = _only; \n        maxHold = _max;\n    }\n}",
  "sourcePath": "/Users/sergei/ERC721SmartToken/contracts/LuggageCrowdsurance.sol",
  "compiler": {
    "name": "solc",
    "version": "0.4.18+commit.9cf6e910.Emscripten.clang"
  },
  "schemaVersion": "1.0.1",
  "updatedAt": "2018-04-18T14:28:56.548Z"
}