{
  "contractName": "LuggageCrowdsurance",
  "abi": [
    {
      "constant": false,
      "inputs": [
        {
          "name": "_id",
          "type": "uint256"
        }
      ],
      "name": "insertPool",
      "outputs": [
        {
          "name": "",
          "type": "bool"
        }
      ],
      "payable": false,
      "stateMutability": "nonpayable",
      "type": "function"
    },
    {
      "constant": true,
      "inputs": [
        {
          "name": "_interfaceID",
          "type": "bytes4"
        }
      ],
      "name": "supportsInterface",
      "outputs": [
        {
          "name": "",
          "type": "bool"
        }
      ],
      "payable": false,
      "stateMutability": "view",
      "type": "function"
    },
    {
      "constant": true,
      "inputs": [],
      "name": "name",
      "outputs": [
        {
          "name": "",
          "type": "string"
        }
      ],
      "payable": false,
      "stateMutability": "view",
      "type": "function"
    },
    {
      "constant": false,
      "inputs": [
        {
          "name": "_to",
          "type": "address"
        },
        {
          "name": "_tokenId",
          "type": "uint256"
        }
      ],
      "name": "approve",
      "outputs": [],
      "payable": false,
      "stateMutability": "nonpayable",
      "type": "function"
    },
    {
      "constant": true,
      "inputs": [
        {
          "name": "_id",
          "type": "uint256"
        }
      ],
      "name": "votingStatus",
      "outputs": [
        {
          "name": "votingEnded",
          "type": "bool"
        },
        {
          "name": "positive",
          "type": "uint8"
        },
        {
          "name": "negative",
          "type": "uint8"
        }
      ],
      "payable": false,
      "stateMutability": "view",
      "type": "function"
    },
    {
      "constant": false,
      "inputs": [
        {
          "name": "_nodeId",
          "type": "uint256"
        },
        {
          "name": "_parentId",
          "type": "uint256"
        }
      ],
      "name": "addToken",
      "outputs": [],
      "payable": false,
      "stateMutability": "nonpayable",
      "type": "function"
    },
    {
      "constant": true,
      "inputs": [],
      "name": "totalSupply",
      "outputs": [
        {
          "name": "",
          "type": "uint256"
        }
      ],
      "payable": false,
      "stateMutability": "view",
      "type": "function"
    },
    {
      "constant": true,
      "inputs": [],
      "name": "getDistribution",
      "outputs": [
        {
          "name": "distribution",
          "type": "uint256[4]"
        }
      ],
      "payable": false,
      "stateMutability": "view",
      "type": "function"
    },
    {
      "constant": true,
      "inputs": [
        {
          "name": "",
          "type": "uint256"
        }
      ],
      "name": "tokenIndexToOwner",
      "outputs": [
        {
          "name": "",
          "type": "address"
        }
      ],
      "payable": false,
      "stateMutability": "view",
      "type": "function"
    },
    {
      "constant": true,
      "inputs": [],
      "name": "RST",
      "outputs": [
        {
          "name": "",
          "type": "address"
        }
      ],
      "payable": false,
      "stateMutability": "view",
      "type": "function"
    },
    {
      "constant": false,
      "inputs": [
        {
          "name": "_from",
          "type": "address"
        },
        {
          "name": "_to",
          "type": "address"
        },
        {
          "name": "_tokenId",
          "type": "uint256"
        }
      ],
      "name": "transferFrom",
      "outputs": [],
      "payable": false,
      "stateMutability": "nonpayable",
      "type": "function"
    },
    {
      "constant": false,
      "inputs": [
        {
          "name": "_to",
          "type": "address"
        },
        {
          "name": "_toId",
          "type": "uint256"
        },
        {
          "name": "_level",
          "type": "uint256"
        }
      ],
      "name": "setLevel",
      "outputs": [],
      "payable": false,
      "stateMutability": "nonpayable",
      "type": "function"
    },
    {
      "constant": false,
      "inputs": [
        {
          "name": "_spender",
          "type": "address"
        },
        {
          "name": "_value",
          "type": "uint256"
        }
      ],
      "name": "cApprove",
      "outputs": [
        {
          "name": "success",
          "type": "bool"
        }
      ],
      "payable": false,
      "stateMutability": "nonpayable",
      "type": "function"
    },
    {
      "constant": false,
      "inputs": [
        {
          "name": "_nodeId",
          "type": "uint256"
        }
      ],
      "name": "removeToken",
      "outputs": [],
      "payable": false,
      "stateMutability": "nonpayable",
      "type": "function"
    },
    {
      "constant": false,
      "inputs": [
        {
          "name": "_to",
          "type": "address"
        },
        {
          "name": "_toId",
          "type": "uint256"
        }
      ],
      "name": "increaseLevel",
      "outputs": [],
      "payable": false,
      "stateMutability": "nonpayable",
      "type": "function"
    },
    {
      "constant": true,
      "inputs": [
        {
          "name": "",
          "type": "address"
        }
      ],
      "name": "addressToAmount",
      "outputs": [
        {
          "name": "",
          "type": "uint256"
        }
      ],
      "payable": false,
      "stateMutability": "view",
      "type": "function"
    },
    {
      "constant": false,
      "inputs": [
        {
          "name": "_from",
          "type": "address"
        },
        {
          "name": "_fromId",
          "type": "uint256"
        },
        {
          "name": "_amount",
          "type": "uint256"
        }
      ],
      "name": "cDestroy",
      "outputs": [],
      "payable": false,
      "stateMutability": "nonpayable",
      "type": "function"
    },
    {
      "constant": true,
      "inputs": [],
      "name": "paybackRatio",
      "outputs": [
        {
          "name": "",
          "type": "uint8"
        }
      ],
      "payable": false,
      "stateMutability": "view",
      "type": "function"
    },
    {
      "constant": true,
      "inputs": [],
      "name": "ETHOnly",
      "outputs": [
        {
          "name": "",
          "type": "bool"
        }
      ],
      "payable": false,
      "stateMutability": "view",
      "type": "function"
    },
    {
      "constant": false,
      "inputs": [
        {
          "name": "_to",
          "type": "address"
        },
        {
          "name": "_toId",
          "type": "uint256"
        },
        {
          "name": "_amount",
          "type": "uint256"
        }
      ],
      "name": "cIssue",
      "outputs": [],
      "payable": false,
      "stateMutability": "nonpayable",
      "type": "function"
    },
    {
      "constant": true,
      "inputs": [
        {
          "name": "_tokenId",
          "type": "uint256"
        }
      ],
      "name": "ownerOf",
      "outputs": [
        {
          "name": "",
          "type": "address"
        }
      ],
      "payable": false,
      "stateMutability": "view",
      "type": "function"
    },
    {
      "constant": false,
      "inputs": [
        {
          "name": "_to",
          "type": "address"
        },
        {
          "name": "_value",
          "type": "uint256"
        }
      ],
      "name": "cTransfer",
      "outputs": [
        {
          "name": "success",
          "type": "bool"
        }
      ],
      "payable": false,
      "stateMutability": "nonpayable",
      "type": "function"
    },
    {
      "constant": true,
      "inputs": [
        {
          "name": "_tokenId",
          "type": "uint256"
        }
      ],
      "name": "tokenMetadata",
      "outputs": [
        {
          "name": "infoUrl",
          "type": "string"
        }
      ],
      "payable": false,
      "stateMutability": "view",
      "type": "function"
    },
    {
      "constant": true,
      "inputs": [
        {
          "name": "_owner",
          "type": "address"
        }
      ],
      "name": "balanceOf",
      "outputs": [
        {
          "name": "count",
          "type": "uint256"
        }
      ],
      "payable": false,
      "stateMutability": "view",
      "type": "function"
    },
    {
      "constant": false,
      "inputs": [],
      "name": "acceptOwnership",
      "outputs": [],
      "payable": false,
      "stateMutability": "nonpayable",
      "type": "function"
    },
    {
      "constant": true,
      "inputs": [
        {
          "name": "",
          "type": "uint256"
        }
      ],
      "name": "requests",
      "outputs": [
        {
          "name": "amount",
          "type": "uint256"
        },
        {
          "name": "timeStamp",
          "type": "uint256"
        },
        {
          "name": "duration",
          "type": "uint256"
        },
        {
          "name": "positive",
          "type": "uint8"
        },
        {
          "name": "negative",
          "type": "uint8"
        },
        {
          "name": "number",
          "type": "uint8"
        }
      ],
      "payable": false,
      "stateMutability": "view",
      "type": "function"
    },
    {
      "constant": true,
      "inputs": [
        {
          "name": "_owner",
          "type": "address"
        }
      ],
      "name": "tokensOfOwner",
      "outputs": [
        {
          "name": "ownerTokens",
          "type": "uint256[]"
        }
      ],
      "payable": false,
      "stateMutability": "view",
      "type": "function"
    },
    {
      "constant": true,
      "inputs": [],
      "name": "parameters",
      "outputs": [
        {
          "name": "joinAmount",
          "type": "uint256"
        },
        {
          "name": "coverageDuration",
          "type": "uint256"
        },
        {
          "name": "maxClaimAmount",
          "type": "uint256"
        },
        {
          "name": "maxClaimNumber",
          "type": "uint8"
        },
        {
          "name": "paymentRatio",
          "type": "uint8"
        },
        {
          "name": "maxPaymentAmount",
          "type": "uint256"
        },
        {
          "name": "minJuriesNumber",
          "type": "uint8"
        },
        {
          "name": "votingDuration",
          "type": "uint256"
        },
        {
          "name": "juriesNumber",
          "type": "uint8"
        }
      ],
      "payable": false,
      "stateMutability": "view",
      "type": "function"
    },
    {
      "constant": false,
      "inputs": [
        {
          "name": "_id",
          "type": "uint256"
        }
      ],
      "name": "payment",
      "outputs": [],
      "payable": false,
      "stateMutability": "nonpayable",
      "type": "function"
    },
    {
      "constant": true,
      "inputs": [],
      "name": "owner",
      "outputs": [
        {
          "name": "",
          "type": "address"
        }
      ],
      "payable": false,
      "stateMutability": "view",
      "type": "function"
    },
    {
      "constant": true,
      "inputs": [],
      "name": "cTotalSupply",
      "outputs": [
        {
          "name": "",
          "type": "uint256"
        }
      ],
      "payable": false,
      "stateMutability": "view",
      "type": "function"
    },
    {
      "constant": false,
      "inputs": [
        {
          "name": "_id",
          "type": "uint256"
        }
      ],
      "name": "getPayback",
      "outputs": [],
      "payable": false,
      "stateMutability": "nonpayable",
      "type": "function"
    },
    {
      "constant": true,
      "inputs": [],
      "name": "symbol",
      "outputs": [
        {
          "name": "",
          "type": "string"
        }
      ],
      "payable": false,
      "stateMutability": "view",
      "type": "function"
    },
    {
      "constant": false,
      "inputs": [
        {
          "name": "_fromId",
          "type": "uint256"
        },
        {
          "name": "_spender",
          "type": "address"
        },
        {
          "name": "_toId",
          "type": "uint256"
        },
        {
          "name": "_value",
          "type": "uint256"
        }
      ],
      "name": "cApproveFrom",
      "outputs": [
        {
          "name": "success",
          "type": "bool"
        }
      ],
      "payable": false,
      "stateMutability": "nonpayable",
      "type": "function"
    },
    {
      "constant": true,
      "inputs": [],
      "name": "maxHold",
      "outputs": [
        {
          "name": "",
          "type": "uint8"
        }
      ],
      "payable": false,
      "stateMutability": "view",
      "type": "function"
    },
    {
      "constant": true,
      "inputs": [
        {
          "name": "",
          "type": "uint256"
        }
      ],
      "name": "tokenIndexToPoolToken",
      "outputs": [
        {
          "name": "",
          "type": "uint256"
        }
      ],
      "payable": false,
      "stateMutability": "view",
      "type": "function"
    },
    {
      "constant": true,
      "inputs": [
        {
          "name": "",
          "type": "address"
        }
      ],
      "name": "voters",
      "outputs": [
        {
          "name": "",
          "type": "uint256"
        }
      ],
      "payable": false,
      "stateMutability": "view",
      "type": "function"
    },
    {
      "constant": true,
      "inputs": [
        {
          "name": "",
          "type": "uint256"
        }
      ],
      "name": "payback",
      "outputs": [
        {
          "name": "",
          "type": "uint256"
        }
      ],
      "payable": false,
      "stateMutability": "view",
      "type": "function"
    },
    {
      "constant": true,
      "inputs": [
        {
          "name": "",
          "type": "uint256"
        }
      ],
      "name": "tokenIndexToApproved",
      "outputs": [
        {
          "name": "",
          "type": "address"
        }
      ],
      "payable": false,
      "stateMutability": "view",
      "type": "function"
    },
    {
      "constant": false,
      "inputs": [
        {
          "name": "_to",
          "type": "address"
        },
        {
          "name": "_tokenId",
          "type": "uint256"
        }
      ],
      "name": "transfer",
      "outputs": [],
      "payable": false,
      "stateMutability": "nonpayable",
      "type": "function"
    },
    {
      "constant": true,
      "inputs": [
        {
          "name": "_to",
          "type": "address"
        },
        {
          "name": "_toId",
          "type": "uint256"
        }
      ],
      "name": "getLevel",
      "outputs": [
        {
          "name": "",
          "type": "uint256"
        }
      ],
      "payable": false,
      "stateMutability": "view",
      "type": "function"
    },
    {
      "constant": false,
      "inputs": [
        {
          "name": "_id",
          "type": "uint256"
        },
        {
          "name": "_amount",
          "type": "uint256"
        }
      ],
      "name": "setPayback",
      "outputs": [
        {
          "name": "",
          "type": "bool"
        }
      ],
      "payable": false,
      "stateMutability": "nonpayable",
      "type": "function"
    },
    {
      "constant": true,
      "inputs": [
        {
          "name": "_owner",
          "type": "address"
        }
      ],
      "name": "cBalanceOf",
      "outputs": [
        {
          "name": "",
          "type": "uint256"
        }
      ],
      "payable": false,
      "stateMutability": "view",
      "type": "function"
    },
    {
      "constant": false,
      "inputs": [
        {
          "name": "_id",
          "type": "uint256"
        }
      ],
      "name": "activate",
      "outputs": [],
      "payable": false,
      "stateMutability": "nonpayable",
      "type": "function"
    },
    {
      "constant": false,
      "inputs": [],
      "name": "join",
      "outputs": [
        {
          "name": "cowdsuranceId",
          "type": "uint256"
        }
      ],
      "payable": true,
      "stateMutability": "payable",
      "type": "function"
    },
    {
      "constant": false,
      "inputs": [
        {
          "name": "_jury",
          "type": "address"
        },
        {
          "name": "_id",
          "type": "uint256"
        }
      ],
      "name": "addVoter",
      "outputs": [],
      "payable": false,
      "stateMutability": "nonpayable",
      "type": "function"
    },
    {
      "constant": true,
      "inputs": [],
      "name": "rstETHRate",
      "outputs": [
        {
          "name": "",
          "type": "uint256"
        }
      ],
      "payable": false,
      "stateMutability": "view",
      "type": "function"
    },
    {
      "constant": false,
      "inputs": [
        {
          "name": "_from",
          "type": "address"
        },
        {
          "name": "_to",
          "type": "address"
        },
        {
          "name": "_value",
          "type": "uint256"
        }
      ],
      "name": "cTransferFrom",
      "outputs": [
        {
          "name": "success",
          "type": "bool"
        }
      ],
      "payable": false,
      "stateMutability": "nonpayable",
      "type": "function"
    },
    {
      "constant": false,
      "inputs": [
        {
          "name": "_id",
          "type": "uint256"
        },
        {
          "name": "_claim",
          "type": "uint256"
        }
      ],
      "name": "claim",
      "outputs": [
        {
          "name": "",
          "type": "bool"
        }
      ],
      "payable": false,
      "stateMutability": "nonpayable",
      "type": "function"
    },
    {
      "constant": true,
      "inputs": [
        {
          "name": "",
          "type": "address"
        }
      ],
      "name": "addressToScore",
      "outputs": [
        {
          "name": "",
          "type": "uint256"
        }
      ],
      "payable": false,
      "stateMutability": "view",
      "type": "function"
    },
    {
      "constant": false,
      "inputs": [
        {
          "name": "_id",
          "type": "uint256"
        },
        {
          "name": "_positive",
          "type": "bool"
        }
      ],
      "name": "vote",
      "outputs": [],
      "payable": false,
      "stateMutability": "nonpayable",
      "type": "function"
    },
    {
      "constant": true,
      "inputs": [
        {
          "name": "_tokenId",
          "type": "uint256"
        }
      ],
      "name": "valueOf",
      "outputs": [
        {
          "name": "value",
          "type": "uint256"
        }
      ],
      "payable": false,
      "stateMutability": "view",
      "type": "function"
    },
    {
      "constant": true,
      "inputs": [
        {
          "name": "",
          "type": "address"
        },
        {
          "name": "",
          "type": "address"
        }
      ],
      "name": "allowanceAmt",
      "outputs": [
        {
          "name": "",
          "type": "uint256"
        }
      ],
      "payable": false,
      "stateMutability": "view",
      "type": "function"
    },
    {
      "constant": true,
      "inputs": [],
      "name": "maxLevel",
      "outputs": [
        {
          "name": "",
          "type": "uint256"
        }
      ],
      "payable": false,
      "stateMutability": "view",
      "type": "function"
    },
    {
      "constant": false,
      "inputs": [
        {
          "name": "_member",
          "type": "address"
        },
        {
          "name": "_score",
          "type": "uint256"
        },
        {
          "name": "_amount",
          "type": "uint256"
        }
      ],
      "name": "scoring",
      "outputs": [],
      "payable": false,
      "stateMutability": "nonpayable",
      "type": "function"
    },
    {
      "constant": true,
      "inputs": [],
      "name": "joinAmountRST",
      "outputs": [
        {
          "name": "",
          "type": "uint256"
        }
      ],
      "payable": false,
      "stateMutability": "view",
      "type": "function"
    },
    {
      "constant": true,
      "inputs": [],
      "name": "newOwner",
      "outputs": [
        {
          "name": "",
          "type": "address"
        }
      ],
      "payable": false,
      "stateMutability": "view",
      "type": "function"
    },
    {
      "constant": true,
      "inputs": [],
      "name": "apply",
      "outputs": [
        {
          "name": "amount",
          "type": "uint256"
        }
      ],
      "payable": false,
      "stateMutability": "view",
      "type": "function"
    },
    {
      "constant": true,
      "inputs": [
        {
          "name": "",
          "type": "uint256"
        }
      ],
      "name": "extensions",
      "outputs": [
        {
          "name": "timeStamp",
          "type": "uint256"
        },
        {
          "name": "activated",
          "type": "uint256"
        },
        {
          "name": "duration",
          "type": "uint256"
        },
        {
          "name": "amount",
          "type": "uint256"
        },
        {
          "name": "paid",
          "type": "uint256"
        },
        {
          "name": "score",
          "type": "uint256"
        },
        {
          "name": "claimNumber",
          "type": "uint8"
        },
        {
          "name": "status",
          "type": "uint8"
        }
      ],
      "payable": false,
      "stateMutability": "view",
      "type": "function"
    },
    {
      "constant": true,
      "inputs": [
        {
          "name": "",
          "type": "address"
        },
        {
          "name": "",
          "type": "address"
        }
      ],
      "name": "allowance",
      "outputs": [
        {
          "name": "",
          "type": "uint256"
        }
      ],
      "payable": false,
      "stateMutability": "view",
      "type": "function"
    },
    {
      "constant": true,
      "inputs": [],
      "name": "getComission",
      "outputs": [
        {
          "name": "commission",
          "type": "uint256"
        }
      ],
      "payable": false,
      "stateMutability": "view",
      "type": "function"
    },
    {
      "constant": true,
      "inputs": [
        {
          "name": "_nodeId",
          "type": "uint256"
        }
      ],
      "name": "getPath",
      "outputs": [
        {
          "name": "path",
          "type": "uint256[]"
        }
      ],
      "payable": false,
      "stateMutability": "view",
      "type": "function"
    },
    {
      "constant": true,
      "inputs": [
        {
          "name": "",
          "type": "address"
        },
        {
          "name": "",
          "type": "address"
        }
      ],
      "name": "allowanceIds",
      "outputs": [
        {
          "name": "",
          "type": "uint256"
        }
      ],
      "payable": false,
      "stateMutability": "view",
      "type": "function"
    },
    {
      "constant": false,
      "inputs": [
        {
          "name": "_newOwner",
          "type": "address"
        }
      ],
      "name": "transferOwnership",
      "outputs": [],
      "payable": false,
      "stateMutability": "nonpayable",
      "type": "function"
    },
    {
      "constant": true,
      "inputs": [
        {
          "name": "_owner",
          "type": "address"
        },
        {
          "name": "_spender",
          "type": "address"
        }
      ],
      "name": "cAllowance",
      "outputs": [
        {
          "name": "",
          "type": "uint256"
        }
      ],
      "payable": false,
      "stateMutability": "view",
      "type": "function"
    },
    {
      "inputs": [
        {
          "name": "_rst",
          "type": "address"
        },
        {
          "name": "_amount",
          "type": "uint256"
        },
        {
          "name": "_only",
          "type": "bool"
        },
        {
          "name": "_max",
          "type": "uint8"
        }
      ],
      "payable": false,
      "stateMutability": "nonpayable",
      "type": "constructor"
    },
    {
      "anonymous": false,
      "inputs": [
        {
          "indexed": false,
          "name": "member",
          "type": "address"
        },
        {
          "indexed": false,
          "name": "score",
          "type": "uint256"
        },
        {
          "indexed": false,
          "name": "amount",
          "type": "uint256"
        }
      ],
      "name": "Apply",
      "type": "event"
    },
    {
      "anonymous": false,
      "inputs": [
        {
          "indexed": false,
          "name": "member",
          "type": "address"
        },
        {
          "indexed": false,
          "name": "id",
          "type": "uint256"
        },
        {
          "indexed": false,
          "name": "amount",
          "type": "uint256"
        }
      ],
      "name": "Join",
      "type": "event"
    },
    {
      "anonymous": false,
      "inputs": [
        {
          "indexed": false,
          "name": "member",
          "type": "address"
        },
        {
          "indexed": false,
          "name": "score",
          "type": "uint256"
        },
        {
          "indexed": false,
          "name": "amount",
          "type": "uint256"
        }
      ],
      "name": "Scoring",
      "type": "event"
    },
    {
      "anonymous": false,
      "inputs": [
        {
          "indexed": false,
          "name": "id",
          "type": "uint256"
        },
        {
          "indexed": false,
          "name": "amount",
          "type": "uint256"
        },
        {
          "indexed": false,
          "name": "score",
          "type": "uint256"
        }
      ],
      "name": "Activate",
      "type": "event"
    },
    {
      "anonymous": false,
      "inputs": [
        {
          "indexed": false,
          "name": "id",
          "type": "uint256"
        },
        {
          "indexed": false,
          "name": "claim",
          "type": "uint256"
        },
        {
          "indexed": false,
          "name": "number",
          "type": "uint8"
        }
      ],
      "name": "Claim",
      "type": "event"
    },
    {
      "anonymous": false,
      "inputs": [
        {
          "indexed": false,
          "name": "jury",
          "type": "address"
        },
        {
          "indexed": false,
          "name": "id",
          "type": "uint256"
        },
        {
          "indexed": false,
          "name": "positive",
          "type": "bool"
        }
      ],
      "name": "Vote",
      "type": "event"
    },
    {
      "anonymous": false,
      "inputs": [
        {
          "indexed": false,
          "name": "reciever",
          "type": "address"
        },
        {
          "indexed": false,
          "name": "id",
          "type": "uint256"
        },
        {
          "indexed": false,
          "name": "amount",
          "type": "uint256"
        },
        {
          "indexed": false,
          "name": "status",
          "type": "uint8"
        }
      ],
      "name": "Payment",
      "type": "event"
    },
    {
      "anonymous": false,
      "inputs": [
        {
          "indexed": false,
          "name": "id",
          "type": "uint256"
        },
        {
          "indexed": false,
          "name": "poolId",
          "type": "uint256"
        },
        {
          "indexed": false,
          "name": "level",
          "type": "uint8"
        }
      ],
      "name": "InsertPool",
      "type": "event"
    },
    {
      "anonymous": false,
      "inputs": [
        {
          "indexed": false,
          "name": "id",
          "type": "uint256"
        },
        {
          "indexed": false,
          "name": "superPoolValue",
          "type": "uint256"
        },
        {
          "indexed": false,
          "name": "poolValue",
          "type": "uint256"
        },
        {
          "indexed": false,
          "name": "subPoolValue",
          "type": "uint256"
        },
        {
          "indexed": false,
          "name": "comission",
          "type": "uint256"
        }
      ],
      "name": "DistributeValue",
      "type": "event"
    },
    {
      "anonymous": false,
      "inputs": [
        {
          "indexed": false,
          "name": "id",
          "type": "uint256"
        },
        {
          "indexed": false,
          "name": "value",
          "type": "uint256"
        }
      ],
      "name": "SecondTierCall",
      "type": "event"
    },
    {
      "anonymous": false,
      "inputs": [
        {
          "indexed": false,
          "name": "id",
          "type": "uint256"
        },
        {
          "indexed": false,
          "name": "poolId",
          "type": "uint256"
        },
        {
          "indexed": false,
          "name": "value",
          "type": "uint256"
        },
        {
          "indexed": false,
          "name": "level",
          "type": "uint8"
        }
      ],
      "name": "ShortOfFunds",
      "type": "event"
    },
    {
      "anonymous": false,
      "inputs": [
        {
          "indexed": false,
          "name": "id",
          "type": "uint256"
        },
        {
          "indexed": false,
          "name": "value",
          "type": "uint256"
        },
        {
          "indexed": false,
          "name": "level",
          "type": "uint8"
        }
      ],
      "name": "PaymentValue",
      "type": "event"
    },
    {
      "anonymous": false,
      "inputs": [
        {
          "indexed": false,
          "name": "nodeId",
          "type": "uint256"
        },
        {
          "indexed": false,
          "name": "parentId",
          "type": "uint256"
        },
        {
          "indexed": false,
          "name": "level",
          "type": "uint256"
        }
      ],
      "name": "AddToken",
      "type": "event"
    },
    {
      "anonymous": false,
      "inputs": [
        {
          "indexed": false,
          "name": "nodeId",
          "type": "uint256"
        },
        {
          "indexed": false,
          "name": "level",
          "type": "uint256"
        }
      ],
      "name": "RemoveToken",
      "type": "event"
    },
    {
      "anonymous": false,
      "inputs": [
        {
          "indexed": false,
          "name": "from",
          "type": "address"
        },
        {
          "indexed": false,
          "name": "fromId",
          "type": "uint256"
        },
        {
          "indexed": false,
          "name": "to",
          "type": "address"
        },
        {
          "indexed": false,
          "name": "toId",
          "type": "uint256"
        },
        {
          "indexed": false,
          "name": "value",
          "type": "uint256"
        }
      ],
      "name": "Transfer",
      "type": "event"
    },
    {
      "anonymous": false,
      "inputs": [
        {
          "indexed": false,
          "name": "to",
          "type": "address"
        },
        {
          "indexed": false,
          "name": "toId",
          "type": "uint256"
        },
        {
          "indexed": false,
          "name": "value",
          "type": "uint256"
        }
      ],
      "name": "AddValue",
      "type": "event"
    },
    {
      "anonymous": false,
      "inputs": [
        {
          "indexed": false,
          "name": "from",
          "type": "address"
        },
        {
          "indexed": false,
          "name": "fromId",
          "type": "uint256"
        },
        {
          "indexed": false,
          "name": "value",
          "type": "uint256"
        }
      ],
      "name": "RemoveValue",
      "type": "event"
    },
    {
      "anonymous": false,
      "inputs": [
        {
          "indexed": false,
          "name": "to",
          "type": "address"
        },
        {
          "indexed": false,
          "name": "toId",
          "type": "uint256"
        },
        {
          "indexed": false,
          "name": "level",
          "type": "uint256"
        }
      ],
      "name": "SetLevel",
      "type": "event"
    },
    {
      "anonymous": false,
      "inputs": [
        {
          "indexed": false,
          "name": "to",
          "type": "address"
        },
        {
          "indexed": false,
          "name": "toId",
          "type": "uint256"
        }
      ],
      "name": "IncreaseLevel",
      "type": "event"
    },
    {
      "anonymous": false,
      "inputs": [
        {
          "indexed": true,
          "name": "_prevOwner",
          "type": "address"
        },
        {
          "indexed": true,
          "name": "_newOwner",
          "type": "address"
        }
      ],
      "name": "OwnerUpdate",
      "type": "event"
    },
    {
      "anonymous": false,
      "inputs": [
        {
          "indexed": false,
          "name": "fromId",
          "type": "uint256"
        },
        {
          "indexed": false,
          "name": "spender",
          "type": "address"
        },
        {
          "indexed": false,
          "name": "toId",
          "type": "uint256"
        },
        {
          "indexed": false,
          "name": "value",
          "type": "uint256"
        }
      ],
      "name": "CApproveFrom",
      "type": "event"
    },
    {
      "anonymous": false,
      "inputs": [
        {
          "indexed": false,
          "name": "spender",
          "type": "address"
        },
        {
          "indexed": false,
          "name": "value",
          "type": "uint256"
        }
      ],
      "name": "CApprove",
      "type": "event"
    },
    {
      "anonymous": false,
      "inputs": [
        {
          "indexed": false,
          "name": "from",
          "type": "address"
        },
        {
          "indexed": false,
          "name": "fromId",
          "type": "uint256"
        },
        {
          "indexed": false,
          "name": "to",
          "type": "address"
        },
        {
          "indexed": false,
          "name": "toId",
          "type": "uint256"
        },
        {
          "indexed": false,
          "name": "value",
          "type": "uint256"
        },
        {
          "indexed": false,
          "name": "allowance",
          "type": "uint256"
        }
      ],
      "name": "CTransferFrom",
      "type": "event"
    },
    {
      "anonymous": false,
      "inputs": [
        {
          "indexed": false,
          "name": "to",
          "type": "address"
        },
        {
          "indexed": false,
          "name": "toId",
          "type": "uint256"
        },
        {
          "indexed": false,
          "name": "amount",
          "type": "uint256"
        }
      ],
      "name": "CIssue",
      "type": "event"
    },
    {
      "anonymous": false,
      "inputs": [
        {
          "indexed": false,
          "name": "from",
          "type": "address"
        },
        {
          "indexed": false,
          "name": "fromId",
          "type": "uint256"
        },
        {
          "indexed": false,
          "name": "amount",
          "type": "uint256"
        }
      ],
      "name": "CDestroy",
      "type": "event"
    },
    {
      "anonymous": false,
      "inputs": [
        {
          "indexed": false,
          "name": "from",
          "type": "address"
        },
        {
          "indexed": false,
          "name": "to",
          "type": "address"
        },
        {
          "indexed": false,
          "name": "tokenId",
          "type": "uint256"
        }
      ],
      "name": "Transfer",
      "type": "event"
    },
    {
      "anonymous": false,
      "inputs": [
        {
          "indexed": false,
          "name": "owner",
          "type": "address"
        },
        {
          "indexed": false,
          "name": "approved",
          "type": "address"
        },
        {
          "indexed": false,
          "name": "tokenId",
          "type": "uint256"
        }
      ],
      "name": "Approval",
      "type": "event"
    },
    {
      "anonymous": false,
      "inputs": [
        {
          "indexed": false,
          "name": "value",
          "type": "uint256"
        },
        {
          "indexed": false,
          "name": "metadata",
          "type": "string"
        },
        {
          "indexed": false,
          "name": "kind",
          "type": "uint256"
        },
        {
          "indexed": false,
          "name": "owner",
          "type": "address"
        }
      ],
      "name": "Birth",
      "type": "event"
    }
  ],
  "bytecode": "0x606060405234156200001057600080fd5b60405160808062007e09833981016040528080519060200190919080519060200190919080519060200190919080519060200190919050506040805190810160405280601881526020017f4c7567676167652043726f7764737572616e6365204e465400000000000000008152506040805190810160405280600381526020017f4c4353000000000000000000000000000000000000000000000000000000000081525081816000806000620000c562000d46565b620000cf62000d46565b620000d962000d46565b87878181818133600260006101000a81548173ffffffffffffffffffffffffffffffffffffffff021916908373ffffffffffffffffffffffffffffffffffffffff16021790555081600090805190602001906200013892919062000d80565b5080600190805190602001906200015192919062000d80565b50505033600a60006101000a81548173ffffffffffffffffffffffffffffffffffffffff021916908373ffffffffffffffffffffffffffffffffffffffff16021790555050506004600c8190555050506004600c819055506200022460006040805190810160405280600981526020017f5375706572506f6f6c00000000000000000000000000000000000000000000008152506001600a60009054906101000a900473ffffffffffffffffffffffffffffffffffffffff1662000766640100000000026200675f176401000000009004565b9550620002a160006040805190810160405280600481526020017f506f6f6c000000000000000000000000000000000000000000000000000000008152506001600a60009054906101000a900473ffffffffffffffffffffffffffffffffffffffff1662000766640100000000026200675f176401000000009004565b94506200031e60006040805190810160405280600781526020017f537562506f6f6c000000000000000000000000000000000000000000000000008152506002600a60009054906101000a900473ffffffffffffffffffffffffffffffffffffffff1662000766640100000000026200675f176401000000009004565b9350620003408587620009cc6401000000000262001c30176401000000009004565b620003608486620009cc6401000000000262001c30176401000000009004565b60c060405190810160405280600060ff16815260200160018152602001600a815260200160018152602001878152602001600a8152509250600e8054806001018281620003ae919062000e07565b9160005260206000209060060201600085909190915060008201518160000160006101000a81548160ff021916908360ff1602179055506020820151816001015560408201518160020155606082015181600301556080820151816004015560a0820151816005015550505060c060405190810160405280600160ff168152602001600a8152602001606481526020016001815260200186815260200160148152509150600e805480600101828162000468919062000e07565b9160005260206000209060060201600084909190915060008201518160000160006101000a81548160ff021916908360ff1602179055506020820151816001015560408201518160020155606082015181600301556080820151816004015560a0820151816005015550505060c060405190810160405280600260ff1681526020016103e88152602001606481526020016001815260200185815260200160328152509050600e805480600101828162000523919062000e07565b9160005260206000209060060201600083909190915060008201518160000160006101000a81548160ff021916908360ff1602179055506020820151816001015560408201518160020155606082015181600301556080820151816004015560a08201518160050155505050505050505050505067016345785d8a0000600f6000018190555062ed4e00600f60010181905550678ac7230489e80000600f600201819055506001600f60030160006101000a81548160ff021916908360ff1602179055506050600f60030160016101000a81548160ff021916908360ff160217905550678ac7230489e80000600f600401819055506003600f60050160006101000a81548160ff021916908360ff1602179055506202a30060ff16600f600601819055506005600f60070160006101000a81548160ff021916908360ff160217905550505083601c60006101000a81548173ffffffffffffffffffffffffffffffffffffffff021916908373ffffffffffffffffffffffffffffffffffffffff1602179055506000831415620006c1576001601d81905550620006c9565b82601d819055505b600060ff168160ff161415620006fb576003601e60016101000a81548160ff021916908360ff16021790555062000717565b80601e60016101000a81548160ff021916908360ff1602179055505b81601e60006101000a81548160ff0219169083151502179055506701aa535d3d0c0000601f819055506032602060006101000a81548160ff021916908360ff160217905550505050506200106a565b60006200077262000e3c565b600060a0604051908101604052808881526020018781526020018681526020016000815260200160008152509150600160038054806001018281620007b8919062000e74565b91600052602060002090600502016000859091909150600082015181600001556020820151816001019080519060200190620007f692919062000ea9565b506040820151816002015560608201518160030155608082015181600401555050039050600063ffffffff16811415620008a55760016003805480600101828162000842919062000e74565b916000526020600020906005020160008590919091506000820151816000015560208201518160010190805190602001906200088092919062000ea9565b5060408201518160020155606082015181600301556080820151816004015550500390505b8063ffffffff1681141515620008ba57600080fd5b7fdea8e87d69047e1b3cd43ad599d34e3eacfe4408b4dfc5d0f6ac6a15a468de5c8787878760405180858152602001806020018481526020018373ffffffffffffffffffffffffffffffffffffffff1673ffffffffffffffffffffffffffffffffffffffff168152602001828103825285818151815260200191508051906020019080838360005b838110156200095f57808201518184015260208101905062000942565b50505050905090810190601f1680156200098d5780820380516001836020036101000a031916815260200191505b509550505050505060405180910390a1620009bf6000858362000b136401000000000262005b2c176401000000009004565b8092505050949350505050565b60008214158015620009e2575060038054905082105b1515620009ee57600080fd5b6000811415801562000a04575060038054905081105b151562000a1057600080fd5b6001600c540360038281548110151562000a2657fe5b90600052602060002090600502016003015410151562000a4557600080fd5b80600d600084815260200190815260200160002081905550600160038281548110151562000a6f57fe5b9060005260206000209060050201600301540160038381548110151562000a9257fe5b9060005260206000209060050201600301819055507f0900f87897aa374bb21fa36753905fa2944dd2301242246101a9047a0ed227a0828260038581548110151562000ada57fe5b90600052602060002090600502016003015460405180848152602001838152602001828152602001935050505060405180910390a15050565b61040060038281548110151562000b2657fe5b9060005260206000209060050201600401541415151562000b4357fe5b600560008373ffffffffffffffffffffffffffffffffffffffff1673ffffffffffffffffffffffffffffffffffffffff16815260200190815260200160002060008154809291906001019190505550816004600083815260200190815260200160002060006101000a81548173ffffffffffffffffffffffffffffffffffffffff021916908373ffffffffffffffffffffffffffffffffffffffff160217905550600073ffffffffffffffffffffffffffffffffffffffff168373ffffffffffffffffffffffffffffffffffffffff1614151562000ca257600560008473ffffffffffffffffffffffffffffffffffffffff1673ffffffffffffffffffffffffffffffffffffffff16815260200190815260200160002060008154809291906001900391905055506006600082815260200190815260200160002060006101000a81549073ffffffffffffffffffffffffffffffffffffffff02191690555b7fddf252ad1be2c89b69c2b068fc378daa952ba7f163c4a11628f55a4df523b3ef838383604051808473ffffffffffffffffffffffffffffffffffffffff1673ffffffffffffffffffffffffffffffffffffffff1681526020018373ffffffffffffffffffffffffffffffffffffffff1673ffffffffffffffffffffffffffffffffffffffff168152602001828152602001935050505060405180910390a1505050565b60c060405190810160405280600060ff16815260200160008152602001600081526020016000815260200160008152602001600081525090565b828054600181600116156101000203166002900490600052602060002090601f016020900481019282601f1062000dc357805160ff191683800117855562000df4565b8280016001018555821562000df4579182015b8281111562000df357825182559160200191906001019062000dd6565b5b50905062000e03919062000f30565b5090565b81548183558181151162000e375760060281600602836000526020600020918201910162000e36919062000f58565b5b505050565b60a0604051908101604052806000815260200162000e5962000fb6565b81526020016000815260200160008152602001600081525090565b81548183558181151162000ea45760050281600502836000526020600020918201910162000ea3919062000fca565b5b505050565b828054600181600116156101000203166002900490600052602060002090601f016020900481019282601f1062000eec57805160ff191683800117855562000f1d565b8280016001018555821562000f1d579182015b8281111562000f1c57825182559160200191906001019062000eff565b5b50905062000f2c919062000f30565b5090565b62000f5591905b8082111562000f5157600081600090555060010162000f37565b5090565b90565b62000fb391905b8082111562000faf57600080820160006101000a81549060ff0219169055600182016000905560028201600090556003820160009055600482016000905560058201600090555060060162000f5f565b5090565b90565b602060405190810160405280600081525090565b6200101b91905b80821115620010175760008082016000905560018201600062000ff591906200101e565b6002820160009055600382016000905560048201600090555060050162000fd1565b5090565b90565b50805460018160011615610100020316600290046000825580601f1062001046575062001067565b601f01602090049060005260206000209081019062001066919062000f30565b5b50565b616d8f806200107a6000396000f300606060405260043610610300576000357c0100000000000000000000000000000000000000000000000000000000900463ffffffff168062607b7f1461030557806301ffc9a71461034057806306fdde031461039a578063095ea7b3146104285780630e13dd741461046a57806317b9ebec146104bf57806318160ddd146104eb5780631cced51b146105145780631d36e06c146105655780631de565d6146105c857806323b872dd1461061d578063296250051461067e57806332c4ee83146106c957806336c5d7241461072357806339e6cdb1146107465780633c7e7d28146107885780634cabcfac146107d55780634dc621fa14610820578063523727771461084f578063545c3d551461087c5780636352211e146108c757806366d80ba51461092a5780636914db601461098457806370a0823114610a2057806379ba509714610a6d57806381d12c5814610a825780638462151c14610aee5780638903573014610b7c5780638b3c99e314610bf55780638da5cb5b14610c185780638f1fc77c14610c6d578063930f34fd14610c9657806395d89b4114610cb957806398dc5c9514610d475780639a6c614e14610db35780639ca0883114610de2578063a3ec138d14610e19578063a846c2fd14610e66578063a8bd9c3214610e9d578063a9059cbb14610f00578063b121f2ac14610f42578063b129273f14610f98578063b135707914610fdc578063b260c42a14611029578063b688a3631461104c578063b9f05f2f1461106a578063bc89b1cf146110ac578063bf622665146110d5578063c34902631461114e578063c52380e914611192578063c9d27afe146111df578063cadf338f1461120d578063cbbc9f8914611244578063cc06c359146112b0578063cf7c4367146112d9578063d0d8074a14611324578063d4ee1d901461134d578063db595b3b146113a2578063db85d59c146113cb578063dd62ed3e1461143f578063dd6d3ca7146114ab578063e1765073146114d4578063e527cc9d1461154c578063f2fde38b146115b8578063f81fd7ea146115f1575b600080fd5b341561031057600080fd5b610326600480803590602001909190505061165d565b604051808215151515815260200191505060405180910390f35b341561034b57600080fd5b61038060048080357bffffffffffffffffffffffffffffffffffffffffffffffffffffffff1916906020019091905050611705565b604051808215151515815260200191505060405180910390f35b34156103a557600080fd5b6103ad611a16565b6040518080602001828103825283818151815260200191508051906020019080838360005b838110156103ed5780820151818401526020810190506103d2565b50505050905090810190601f16801561041a5780820380516001836020036101000a031916815260200191505b509250505060405180910390f35b341561043357600080fd5b610468600480803573ffffffffffffffffffffffffffffffffffffffff16906020019091908035906020019091905050611abe565b005b341561047557600080fd5b61048b6004808035906020019091905050611b80565b60405180841515151581526020018360ff1660ff1681526020018260ff1660ff168152602001935050505060405180910390f35b34156104ca57600080fd5b6104e96004808035906020019091908035906020019091905050611c30565b005b34156104f657600080fd5b6104fe611d6e565b6040518082815260200191505060405180910390f35b341561051f57600080fd5b610527611d90565b6040518082600460200280838360005b83811015610552578082015181840152602081019050610537565b5050505090500191505060405180910390f35b341561057057600080fd5b6105866004808035906020019091905050611efd565b604051808273ffffffffffffffffffffffffffffffffffffffff1673ffffffffffffffffffffffffffffffffffffffff16815260200191505060405180910390f35b34156105d357600080fd5b6105db611f30565b604051808273ffffffffffffffffffffffffffffffffffffffff1673ffffffffffffffffffffffffffffffffffffffff16815260200191505060405180910390f35b341561062857600080fd5b61067c600480803573ffffffffffffffffffffffffffffffffffffffff1690602001909190803573ffffffffffffffffffffffffffffffffffffffff16906020019091908035906020019091905050611f56565b005b341561068957600080fd5b6106c7600480803573ffffffffffffffffffffffffffffffffffffffff16906020019091908035906020019091908035906020019091905050612007565b005b34156106d457600080fd5b610709600480803573ffffffffffffffffffffffffffffffffffffffff16906020019091908035906020019091905050612112565b604051808215151515815260200191505060405180910390f35b341561072e57600080fd5b61074460048080359060200190919050506123a7565b005b341561075157600080fd5b610786600480803573ffffffffffffffffffffffffffffffffffffffff1690602001909190803590602001909190505061245c565b005b341561079357600080fd5b6107bf600480803573ffffffffffffffffffffffffffffffffffffffff16906020019091905050612581565b6040518082815260200191505060405180910390f35b34156107e057600080fd5b61081e600480803573ffffffffffffffffffffffffffffffffffffffff16906020019091908035906020019091908035906020019091905050612599565b005b341561082b57600080fd5b610833612692565b604051808260ff1660ff16815260200191505060405180910390f35b341561085a57600080fd5b6108626126a5565b604051808215151515815260200191505060405180910390f35b341561088757600080fd5b6108c5600480803573ffffffffffffffffffffffffffffffffffffffff169060200190919080359060200190919080359060200190919050506126b8565b005b34156108d257600080fd5b6108e860048080359060200190919050506127b1565b604051808273ffffffffffffffffffffffffffffffffffffffff1673ffffffffffffffffffffffffffffffffffffffff16815260200191505060405180910390f35b341561093557600080fd5b61096a600480803573ffffffffffffffffffffffffffffffffffffffff1690602001909190803590602001909190505061282f565b604051808215151515815260200191505060405180910390f35b341561098f57600080fd5b6109a56004808035906020019091905050612895565b6040518080602001828103825283818151815260200191508051906020019080838360005b838110156109e55780820151818401526020810190506109ca565b50505050905090810190601f168015610a125780820380516001836020036101000a031916815260200191505b509250505060405180910390f35b3415610a2b57600080fd5b610a57600480803573ffffffffffffffffffffffffffffffffffffffff1690602001909190505061295d565b6040518082815260200191505060405180910390f35b3415610a7857600080fd5b610a806129a6565b005b3415610a8d57600080fd5b610aa36004808035906020019091905050612b47565b604051808781526020018681526020018581526020018460ff1660ff1681526020018360ff1660ff1681526020018260ff1660ff168152602001965050505050505060405180910390f35b3415610af957600080fd5b610b25600480803573ffffffffffffffffffffffffffffffffffffffff16906020019091905050612baa565b6040518080602001828103825283818151815260200191508051906020019060200280838360005b83811015610b68578082015181840152602081019050610b4d565b505050509050019250505060405180910390f35b3415610b8757600080fd5b610b8f612bc2565b604051808a81526020018981526020018881526020018760ff1660ff1681526020018660ff1660ff1681526020018581526020018460ff1660ff1681526020018381526020018260ff1660ff168152602001995050505050505050505060405180910390f35b3415610c0057600080fd5b610c166004808035906020019091905050612c32565b005b3415610c2357600080fd5b610c2b613249565b604051808273ffffffffffffffffffffffffffffffffffffffff1673ffffffffffffffffffffffffffffffffffffffff16815260200191505060405180910390f35b3415610c7857600080fd5b610c8061326f565b6040518082815260200191505060405180910390f35b3415610ca157600080fd5b610cb760048080359060200190919050506132c9565b005b3415610cc457600080fd5b610ccc61339a565b6040518080602001828103825283818151815260200191508051906020019080838360005b83811015610d0c578082015181840152602081019050610cf1565b50505050905090810190601f168015610d395780820380516001836020036101000a031916815260200191505b509250505060405180910390f35b3415610d5257600080fd5b610d99600480803590602001909190803573ffffffffffffffffffffffffffffffffffffffff16906020019091908035906020019091908035906020019091905050613442565b604051808215151515815260200191505060405180910390f35b3415610dbe57600080fd5b610dc66136ce565b604051808260ff1660ff16815260200191505060405180910390f35b3415610ded57600080fd5b610e0360048080359060200190919050506136e1565b6040518082815260200191505060405180910390f35b3415610e2457600080fd5b610e50600480803573ffffffffffffffffffffffffffffffffffffffff169060200190919050506136f9565b6040518082815260200191505060405180910390f35b3415610e7157600080fd5b610e876004808035906020019091905050613711565b6040518082815260200191505060405180910390f35b3415610ea857600080fd5b610ebe6004808035906020019091905050613729565b604051808273ffffffffffffffffffffffffffffffffffffffff1673ffffffffffffffffffffffffffffffffffffffff16815260200191505060405180910390f35b3415610f0b57600080fd5b610f40600480803573ffffffffffffffffffffffffffffffffffffffff1690602001909190803590602001909190505061375c565b005b3415610f4d57600080fd5b610f82600480803573ffffffffffffffffffffffffffffffffffffffff169060200190919080359060200190919050506137f7565b6040518082815260200191505060405180910390f35b3415610fa357600080fd5b610fc26004808035906020019091908035906020019091905050613837565b604051808215151515815260200191505060405180910390f35b3415610fe757600080fd5b611013600480803573ffffffffffffffffffffffffffffffffffffffff1690602001909190505061396e565b6040518082815260200191505060405180910390f35b341561103457600080fd5b61104a60048080359060200190919050506139f2565b005b611054613a2c565b6040518082815260200191505060405180910390f35b341561107557600080fd5b6110aa600480803573ffffffffffffffffffffffffffffffffffffffff16906020019091908035906020019091905050613ea0565b005b34156110b757600080fd5b6110bf6140dc565b6040518082815260200191505060405180910390f35b34156110e057600080fd5b611134600480803573ffffffffffffffffffffffffffffffffffffffff1690602001909190803573ffffffffffffffffffffffffffffffffffffffff169060200190919080359060200190919050506140e2565b604051808215151515815260200191505060405180910390f35b341561115957600080fd5b6111786004808035906020019091908035906020019091905050614757565b604051808215151515815260200191505060405180910390f35b341561119d57600080fd5b6111c9600480803573ffffffffffffffffffffffffffffffffffffffff16906020019091905050614a98565b6040518082815260200191505060405180910390f35b34156111ea57600080fd5b61120b60048080359060200190919080351515906020019091905050614ab0565b005b341561121857600080fd5b61122e6004808035906020019091905050614cb8565b6040518082815260200191505060405180910390f35b341561124f57600080fd5b61129a600480803573ffffffffffffffffffffffffffffffffffffffff1690602001909190803573ffffffffffffffffffffffffffffffffffffffff16906020019091905050614ce2565b6040518082815260200191505060405180910390f35b34156112bb57600080fd5b6112c3614d07565b6040518082815260200191505060405180910390f35b34156112e457600080fd5b611322600480803573ffffffffffffffffffffffffffffffffffffffff16906020019091908035906020019091908035906020019091905050614d0d565b005b341561132f57600080fd5b611337614ed3565b6040518082815260200191505060405180910390f35b341561135857600080fd5b611360614ed9565b604051808273ffffffffffffffffffffffffffffffffffffffff1673ffffffffffffffffffffffffffffffffffffffff16815260200191505060405180910390f35b34156113ad57600080fd5b6113b5614eff565b6040518082815260200191505060405180910390f35b34156113d657600080fd5b6113ec6004808035906020019091905050614ffd565b604051808981526020018881526020018781526020018681526020018581526020018481526020018360ff1660ff1681526020018260ff1660ff1681526020019850505050505050505060405180910390f35b341561144a57600080fd5b611495600480803573ffffffffffffffffffffffffffffffffffffffff1690602001909190803573ffffffffffffffffffffffffffffffffffffffff1690602001909190505061505f565b6040518082815260200191505060405180910390f35b34156114b657600080fd5b6114be615084565b6040518082815260200191505060405180910390f35b34156114df57600080fd5b6114f560048080359060200190919050506150ad565b6040518080602001828103825283818151815260200191508051906020019060200280838360005b8381101561153857808201518184015260208101905061151d565b505050509050019250505060405180910390f35b341561155757600080fd5b6115a2600480803573ffffffffffffffffffffffffffffffffffffffff1690602001909190803573ffffffffffffffffffffffffffffffffffffffff16906020019091905050615124565b6040518082815260200191505060405180910390f35b34156115c357600080fd5b6115ef600480803573ffffffffffffffffffffffffffffffffffffffff16906020019091905050615149565b005b34156115fc57600080fd5b611647600480803573ffffffffffffffffffffffffffffffffffffffff1690602001909190803573ffffffffffffffffffffffffffffffffffffffff16906020019091905050615243565b6040518082815260200191505060405180910390f35b6000600a60009054906101000a900473ffffffffffffffffffffffffffffffffffffffff1673ffffffffffffffffffffffffffffffffffffffff163373ffffffffffffffffffffffffffffffffffffffff161415156116b857fe5b600082141580156116cd575060038054905082105b15156116d857600080fd5b6116e3826002615341565b15156116eb57fe5b6116f482615623565b15156116fc57fe5b60019050919050565b600060405180807f737570706f727473496e74657266616365286279746573342900000000000000815250601901905060405180910390207bffffffffffffffffffffffffffffffffffffffffffffffffffffffff1916827bffffffffffffffffffffffffffffffffffffffffffffffffffffffff19161480611a0f575060405180807f746f6b656e4d657461646174612875696e743235362c737472696e6729000000815250601d019050604051809103902060405180807f746f6b656e734f664f776e6572286164647265737329000000000000000000008152506016019050604051809103902060405180807f7472616e7366657246726f6d28616464726573732c616464726573732c75696e81526020017f74323536290000000000000000000000000000000000000000000000000000008152506025019050604051809103902060405180807f7472616e7366657228616464726573732c75696e7432353629000000000000008152506019019050604051809103902060405180807f617070726f766528616464726573732c75696e743235362900000000000000008152506018019050604051809103902060405180807f6f776e65724f662875696e7432353629000000000000000000000000000000008152506010019050604051809103902060405180807f62616c616e63654f6628616464726573732900000000000000000000000000008152506012019050604051809103902060405180807f746f74616c537570706c79282900000000000000000000000000000000000000815250600d019050604051809103902060405180807f73796d626f6c28290000000000000000000000000000000000000000000000008152506008019050604051809103902060405180807f6e616d6528290000000000000000000000000000000000000000000000000000815250600601905060405180910390201818181818181818187bffffffffffffffffffffffffffffffffffffffffffffffffffffffff1916827bffffffffffffffffffffffffffffffffffffffffffffffffffffffff1916145b9050919050565b611a1e6169a0565b60008054600181600116156101000203166002900480601f016020809104026020016040519081016040528092919081815260200182805460018160011615610100020316600290048015611ab45780601f10611a8957610100808354040283529160200191611ab4565b820191906000526020600020905b815481529060010190602001808311611a9757829003601f168201915b5050505050905090565b611ac833826159fe565b1515611ad357600080fd5b611add8183615a6a565b7f8c5be1e5ebec7d5bd14f71427d1e84f3dd0314c0f7b2291e5b200ac8c7c3b925338383604051808473ffffffffffffffffffffffffffffffffffffffff1673ffffffffffffffffffffffffffffffffffffffff1681526020018373ffffffffffffffffffffffffffffffffffffffff1673ffffffffffffffffffffffffffffffffffffffff168152602001828152602001935050505060405180910390a15050565b6000806000806000808614151515611b9757600080fd5b60026005811115611ba457fe5b6019600088815260200190815260200160002060060160019054906101000a900460ff1660ff16141515611bd757600080fd5b601b60008781526020019081526020016000209150816002015482600101540190504281111594508160030160009054906101000a900460ff1693508160030160019054906101000a900460ff16925050509193909250565b60008214158015611c45575060038054905082105b1515611c5057600080fd5b60008114158015611c65575060038054905081105b1515611c7057600080fd5b6001600c5403600382815481101515611c8557fe5b906000526020600020906005020160030154101515611ca357600080fd5b80600d6000848152602001908152602001600020819055506001600382815481101515611ccc57fe5b90600052602060002090600502016003015401600383815481101515611cee57fe5b9060005260206000209060050201600301819055507f0900f87897aa374bb21fa36753905fa2944dd2301242246101a9047a0ed227a08282600385815481101515611d3557fe5b90600052602060002090600502016003015460405180848152602001838152602001828152602001935050505060405180910390a15050565b60008060038054905090506000811115611d89576001810390505b8091505090565b611d986169b4565b6000806000836000600481101515611dac57fe5b6020020181815250506000836001600481101515611dc657fe5b6020020181815250506000836002600481101515611de057fe5b6020020181815250506000836003600481101515611dfa57fe5b602002018181525050600190505b600380549050811015611ef857600381815481101515611e2457fe5b9060005260206000209060050201600301549150600c548260ff161015611e9c57600381815481101515611e5457fe5b906000526020600020906005020160000154838360ff16600481101515611e7757fe5b602002015101838360ff16600481101515611e8e57fe5b602002018181525050611eeb565b600381815481101515611eab57fe5b906000526020600020906005020160000154836003600481101515611ecc57fe5b602002015101836003600481101515611ee157fe5b6020020181815250505b8080600101915050611e08565b505090565b60046020528060005260406000206000915054906101000a900473ffffffffffffffffffffffffffffffffffffffff1681565b601c60009054906101000a900473ffffffffffffffffffffffffffffffffffffffff1681565b600073ffffffffffffffffffffffffffffffffffffffff168273ffffffffffffffffffffffffffffffffffffffff1614151515611f9257600080fd5b3073ffffffffffffffffffffffffffffffffffffffff168273ffffffffffffffffffffffffffffffffffffffff1614151515611fcd57600080fd5b611fd73382615ac0565b1515611fe257600080fd5b611fec83826159fe565b1515611ff757600080fd5b612002838383615b2c565b505050565b600a60009054906101000a900473ffffffffffffffffffffffffffffffffffffffff1673ffffffffffffffffffffffffffffffffffffffff163373ffffffffffffffffffffffffffffffffffffffff1614151561206057fe5b61206a83836159fe565b151561207557600080fd5b8060038381548110151561208557fe5b9060005260206000209060050201600301819055507f48ed1b5769aee6cf16cda3da1db2a0acf83c194c9d2a98ebeff4904567af58f6838383604051808473ffffffffffffffffffffffffffffffffffffffff1673ffffffffffffffffffffffffffffffffffffffff168152602001838152602001828152602001935050505060405180910390a1505050565b600080600080600073ffffffffffffffffffffffffffffffffffffffff168673ffffffffffffffffffffffffffffffffffffffff161415151561215457600080fd5b6000851415151561216457600080fd5b33925061217083615d5c565b915061217b86615d5c565b905080821415151561218c57600080fd5b6000821415151561219c57600080fd5b600081141515156121ac57600080fd5b80600860008573ffffffffffffffffffffffffffffffffffffffff1673ffffffffffffffffffffffffffffffffffffffff16815260200190815260200160002060008873ffffffffffffffffffffffffffffffffffffffff1673ffffffffffffffffffffffffffffffffffffffff1681526020019081526020016000208190555081600860008573ffffffffffffffffffffffffffffffffffffffff1673ffffffffffffffffffffffffffffffffffffffff16815260200190815260200160002060008573ffffffffffffffffffffffffffffffffffffffff1673ffffffffffffffffffffffffffffffffffffffff1681526020019081526020016000208190555084600960008573ffffffffffffffffffffffffffffffffffffffff1673ffffffffffffffffffffffffffffffffffffffff16815260200190815260200160002060008873ffffffffffffffffffffffffffffffffffffffff1673ffffffffffffffffffffffffffffffffffffffff168152602001908152602001600020819055507fe051949e9a44e2e9c21ee7d1c7b03ef0bf501aa3b7c4616a8543f229c0bede7a8686604051808373ffffffffffffffffffffffffffffffffffffffff1673ffffffffffffffffffffffffffffffffffffffff1681526020018281526020019250505060405180910390a16001935050505092915050565b60008082141580156123bd575060038054905082105b15156123c857600080fd5b6123d182615dac565b90506000811415156123e257600080fd5b600d6000838152602001908152602001600020600090557f399c331be71add502e95a2402ba7370605a945c1c6c1dc01c5e30f7e896cfa568260038481548110151561242a57fe5b906000526020600020906005020160030154604051808381526020018281526020019250505060405180910390a15050565b600a60009054906101000a900473ffffffffffffffffffffffffffffffffffffffff1673ffffffffffffffffffffffffffffffffffffffff163373ffffffffffffffffffffffffffffffffffffffff161415156124b557fe5b6124bf82826159fe565b15156124ca57600080fd5b60016003828154811015156124db57fe5b906000526020600020906005020160030154016003828154811015156124fd57fe5b9060005260206000209060050201600301819055507fb6ffa2bc58069f160ac94855c396bc8a7c591ae4b9e69d78cc004ad2e4d70d858282604051808373ffffffffffffffffffffffffffffffffffffffff1673ffffffffffffffffffffffffffffffffffffffff1681526020018281526020019250505060405180910390a15050565b60176020528060005260406000206000915090505481565b60008073ffffffffffffffffffffffffffffffffffffffff168473ffffffffffffffffffffffffffffffffffffffff16141515156125d657600080fd5b600082141515156125e657600080fd5b82905060008114156125fe576125fb84615d5c565b90505b6000811415151561260e57600080fd5b612619848284615e24565b7f8ee078ba6dd38678f9ffdc8f1df2d512559df0cae2db32c829459127e1003197848484604051808473ffffffffffffffffffffffffffffffffffffffff1673ffffffffffffffffffffffffffffffffffffffff168152602001838152602001828152602001935050505060405180910390a150505050565b602060009054906101000a900460ff1681565b601e60009054906101000a900460ff1681565b60008073ffffffffffffffffffffffffffffffffffffffff168473ffffffffffffffffffffffffffffffffffffffff16141515156126f557600080fd5b6000821415151561270557600080fd5b829050600081141561271d5761271a84615d5c565b90505b6000811415151561272d57600080fd5b612738848284615f37565b7ff3d0e22890d929d2a1cd5ca9e5f6498c4271ce2f0223ab4092297c2d11c9ef75848484604051808473ffffffffffffffffffffffffffffffffffffffff1673ffffffffffffffffffffffffffffffffffffffff168152602001838152602001828152602001935050505060405180910390a150505050565b6000806004600084815260200190815260200160002060009054906101000a900473ffffffffffffffffffffffffffffffffffffffff169050600073ffffffffffffffffffffffffffffffffffffffff168173ffffffffffffffffffffffffffffffffffffffff161415151561282657600080fd5b80915050919050565b600080600073ffffffffffffffffffffffffffffffffffffffff168473ffffffffffffffffffffffffffffffffffffffff161415151561286e57600080fd5b6000831415151561287e57600080fd5b33905061288c8185856140e2565b91505092915050565b61289d6169a0565b6003828154811015156128ac57fe5b90600052602060002090600502016001018054600181600116156101000203166002900480601f0160208091040260200160405190810160405280929190818152602001828054600181600116156101000203166002900480156129515780601f1061292657610100808354040283529160200191612951565b820191906000526020600020905b81548152906001019060200180831161293457829003601f168201915b50505050509050919050565b6000600560008373ffffffffffffffffffffffffffffffffffffffff1673ffffffffffffffffffffffffffffffffffffffff168152602001908152602001600020549050919050565b600b60009054906101000a900473ffffffffffffffffffffffffffffffffffffffff1673ffffffffffffffffffffffffffffffffffffffff163373ffffffffffffffffffffffffffffffffffffffff16141515612a0257600080fd5b600b60009054906101000a900473ffffffffffffffffffffffffffffffffffffffff1673ffffffffffffffffffffffffffffffffffffffff16600a60009054906101000a900473ffffffffffffffffffffffffffffffffffffffff1673ffffffffffffffffffffffffffffffffffffffff167f343765429aea5a34b3ff6a3785a98a5abb2597aca87bfbb58632c173d585373a60405160405180910390a3600b60009054906101000a900473ffffffffffffffffffffffffffffffffffffffff16600a60006101000a81548173ffffffffffffffffffffffffffffffffffffffff021916908373ffffffffffffffffffffffffffffffffffffffff1602179055506000600b60006101000a81548173ffffffffffffffffffffffffffffffffffffffff021916908373ffffffffffffffffffffffffffffffffffffffff160217905550565b601b6020528060005260406000206000915090508060000154908060010154908060020154908060030160009054906101000a900460ff16908060030160019054906101000a900460ff16908060030160029054906101000a900460ff16905086565b612bb26169dc565b612bbb8261601b565b9050919050565b600f8060000154908060010154908060020154908060030160009054906101000a900460ff16908060030160019054906101000a900460ff16908060040154908060050160009054906101000a900460ff16908060060154908060070160009054906101000a900460ff16905089565b60008060008060008514151515612c4857600080fd5b612c5233866159fe565b1515612c5d57600080fd5b60026005811115612c6a57fe5b6019600087815260200190815260200160002060060160019054906101000a900460ff1660ff16141515612c9d57600080fd5b601b6000868152602001908152602001600020935083600201548460010154019250428311151515612cce57600080fd5b8360030160019054906101000a900460ff1660ff168460030160009054906101000a900460ff1660ff161115612e6857600f60030160019054906101000a900460ff1660ff166064856000015402811515612d2557fe5b0491503373ffffffffffffffffffffffffffffffffffffffff166108fc839081150290604051600060405180830381858888f193505050501515612d6857600080fd5b60036005811115612d7557fe5b6019600087815260200190815260200160002060060160016101000a81548160ff021916908360ff1602179055508160196000878152602001908152602001600020600401540160196000878152602001908152602001600020600401819055507f261826fbdc11ee0da48a5356542bcb46786deaed4c215b871d3df7a03652262d33868460036005811115612e0757fe5b604051808573ffffffffffffffffffffffffffffffffffffffff1673ffffffffffffffffffffffffffffffffffffffff1681526020018481526020018381526020018260ff1660ff16815260200194505050505060405180910390a1613129565b8360030160019054906101000a900460ff1660ff168460030160009054906101000a900460ff1660ff161480612ed95750600f60050160009054906101000a900460ff1660ff168460030160019054906101000a900460ff168560030160009054906101000a900460ff160160ff16105b1561305e573373ffffffffffffffffffffffffffffffffffffffff166108fc60196000888152602001908152602001600020600301549081150290604051600060405180830381858888f193505050501515612f3457600080fd5b600580811115612f4057fe5b6019600087815260200190815260200160002060060160016101000a81548160ff021916908360ff160217905550601960008681526020019081526020016000206003015460196000878152602001908152602001600020600401540160196000878152602001908152602001600020600401819055507f261826fbdc11ee0da48a5356542bcb46786deaed4c215b871d3df7a03652262d33866019600089815260200190815260200160002060030154600580811115612ffd57fe5b604051808573ffffffffffffffffffffffffffffffffffffffff1673ffffffffffffffffffffffffffffffffffffffff1681526020018481526020018381526020018260ff1660ff16815260200194505050505060405180910390a1613128565b6004600581111561306b57fe5b6019600087815260200190815260200160002060060160016101000a81548160ff021916908360ff1602179055507f261826fbdc11ee0da48a5356542bcb46786deaed4c215b871d3df7a03652262d33866000600460058111156130cb57fe5b604051808573ffffffffffffffffffffffffffffffffffffffff1673ffffffffffffffffffffffffffffffffffffffff1681526020018481526020018381526020018260ff1660ff16815260200194505050505060405180910390a15b5b5b8360030160029054906101000a900460ff1660ff168110156131c857601a6000856004018360058110151561315b57fe5b0160009054906101000a900473ffffffffffffffffffffffffffffffffffffffff1673ffffffffffffffffffffffffffffffffffffffff1673ffffffffffffffffffffffffffffffffffffffff16815260200190815260200160002060009055808060010191505061312a565b601b6000868152602001908152602001600020600080820160009055600182016000905560028201600090556003820160006101000a81549060ff02191690556003820160016101000a81549060ff02191690556003820160026101000a81549060ff021916905560048201600061324091906169f0565b50505050505050565b600a60009054906101000a900473ffffffffffffffffffffffffffffffffffffffff1681565b600080600080600092506003805490509150600190505b818110156132c05760038181548110151561329d57fe5b906000526020600020906005020160000154830192508080600101915050613286565b82935050505090565b60006132d533836159fe565b15156132e057600080fd5b600082141515156132f057600080fd5b602160008381526020019081526020016000205490506000811415151561331657600080fd5b6000601960008481526020019081526020016000206004015414151561333b57600080fd5b8060196000848152602001908152602001600020600401819055503373ffffffffffffffffffffffffffffffffffffffff166108fc829081150290604051600060405180830381858888f19350505050151561339657600080fd5b5050565b6133a26169a0565b60018054600181600116156101000203166002900480601f0160208091040260200160405190810160405280929190818152602001828054600181600116156101000203166002900480156134385780601f1061340d57610100808354040283529160200191613438565b820191906000526020600020905b81548152906001019060200180831161341b57829003601f168201915b5050505050905090565b600080600073ffffffffffffffffffffffffffffffffffffffff168573ffffffffffffffffffffffffffffffffffffffff161415151561348157600080fd5b83861415151561349057600080fd5b600086141515156134a057600080fd5b600084141515156134b057600080fd5b600083141515156134c057600080fd5b33905083600860008373ffffffffffffffffffffffffffffffffffffffff1673ffffffffffffffffffffffffffffffffffffffff16815260200190815260200160002060008773ffffffffffffffffffffffffffffffffffffffff1673ffffffffffffffffffffffffffffffffffffffff1681526020019081526020016000208190555085600860008373ffffffffffffffffffffffffffffffffffffffff1673ffffffffffffffffffffffffffffffffffffffff16815260200190815260200160002060008373ffffffffffffffffffffffffffffffffffffffff1673ffffffffffffffffffffffffffffffffffffffff1681526020019081526020016000208190555082600960008373ffffffffffffffffffffffffffffffffffffffff1673ffffffffffffffffffffffffffffffffffffffff16815260200190815260200160002060008773ffffffffffffffffffffffffffffffffffffffff1673ffffffffffffffffffffffffffffffffffffffff168152602001908152602001600020819055507fef4beaa380feab20776f162f92bbf15b04c59f8fd4e8ab2508b8d29fed7dfd6186868686604051808581526020018473ffffffffffffffffffffffffffffffffffffffff1673ffffffffffffffffffffffffffffffffffffffff16815260200183815260200182815260200194505050505060405180910390a16001915050949350505050565b601e60019054906101000a900460ff1681565b600d6020528060005260406000206000915090505481565b601a6020528060005260406000206000915090505481565b60216020528060005260406000206000915090505481565b60066020528060005260406000206000915054906101000a900473ffffffffffffffffffffffffffffffffffffffff1681565b600073ffffffffffffffffffffffffffffffffffffffff168273ffffffffffffffffffffffffffffffffffffffff161415151561379857600080fd5b3073ffffffffffffffffffffffffffffffffffffffff168273ffffffffffffffffffffffffffffffffffffffff16141515156137d357600080fd5b6137dd33826159fe565b15156137e857600080fd5b6137f3338383615b2c565b5050565b600061380383836159fe565b151561380e57600080fd5b60038281548110151561381d57fe5b906000526020600020906005020160030154905092915050565b600080600a60009054906101000a900473ffffffffffffffffffffffffffffffffffffffff1673ffffffffffffffffffffffffffffffffffffffff163373ffffffffffffffffffffffffffffffffffffffff1614151561389357fe5b600084141515156138a357600080fd5b600083141515156138b357600080fd5b6064602060009054906101000a900460ff1660ff16600f60000154028115156138d857fe5b0483111515156138e757600080fd5b6000601960008681526020019081526020016000206004015414151561390c57600080fd5b60196000858152602001908152602001600020600201546019600086815260200190815260200160002060010154019050428110151561394b57600080fd5b826021600086815260200190815260200160002081905550600191505092915050565b60006139786169dc565b60008060006139868661601b565b93506000925083519150600090505b818110156139e657600384828151811015156139ad57fe5b906020019060200201518154811015156139c357fe5b906000526020600020906005020160000154830192508080600101915050613995565b82945050505050919050565b6000339050601e60019054906101000a900460ff1660ff16613a138261295d565b101515613a1f57600080fd5b613a288261618b565b5050565b6000806000806000349350339250601860008473ffffffffffffffffffffffffffffffffffffffff1673ffffffffffffffffffffffffffffffffffffffff16815260200190815260200160002054915060008214151515613a8c57600080fd5b601e60009054906101000a900460ff16158015613aa95750600034145b15613e1d57600073ffffffffffffffffffffffffffffffffffffffff16601c60009054906101000a900473ffffffffffffffffffffffffffffffffffffffff1673ffffffffffffffffffffffffffffffffffffffff1614151515613b0c57600080fd5b6000601d5414151515613b1e57600080fd5b601c60009054906101000a900473ffffffffffffffffffffffffffffffffffffffff1673ffffffffffffffffffffffffffffffffffffffff1663dd62ed3e84600a60009054906101000a900473ffffffffffffffffffffffffffffffffffffffff166000604051602001526040518363ffffffff167c0100000000000000000000000000000000000000000000000000000000028152600401808373ffffffffffffffffffffffffffffffffffffffff1673ffffffffffffffffffffffffffffffffffffffff1681526020018273ffffffffffffffffffffffffffffffffffffffff1673ffffffffffffffffffffffffffffffffffffffff16815260200192505050602060405180830381600087803b1515613c3957600080fd5b6102c65a03f11515613c4a57600080fd5b505050604051805190509050601d548110151515613c6757600080fd5b601760008473ffffffffffffffffffffffffffffffffffffffff1673ffffffffffffffffffffffffffffffffffffffff16815260200190815260200160002054935083601f54820210158015613cc25750600f600001548410155b1515613ccd57600080fd5b601c60009054906101000a900473ffffffffffffffffffffffffffffffffffffffff1673ffffffffffffffffffffffffffffffffffffffff166323b872dd84600a60009054906101000a900473ffffffffffffffffffffffffffffffffffffffff16601d546000604051602001526040518463ffffffff167c0100000000000000000000000000000000000000000000000000000000028152600401808473ffffffffffffffffffffffffffffffffffffffff1673ffffffffffffffffffffffffffffffffffffffff1681526020018373ffffffffffffffffffffffffffffffffffffffff1673ffffffffffffffffffffffffffffffffffffffff1681526020018281526020019350505050602060405180830381600087803b1515613df257600080fd5b6102c65a03f11515613e0357600080fd5b505050604051805190501515613e1857600080fd5b613e8c565b60008414158015613e335750600f600001548410155b1515613e3e57600080fd5b601760008473ffffffffffffffffffffffffffffffffffffffff1673ffffffffffffffffffffffffffffffffffffffff1681526020019081526020016000205484141515613e8b57600080fd5b5b613e978383866162c9565b94505050505090565b6000806000600a60009054906101000a900473ffffffffffffffffffffffffffffffffffffffff1673ffffffffffffffffffffffffffffffffffffffff163373ffffffffffffffffffffffffffffffffffffffff16141515613efe57fe5b600073ffffffffffffffffffffffffffffffffffffffff168573ffffffffffffffffffffffffffffffffffffffff1614151515613f3a57600080fd5b60008414151515613f4a57600080fd5b60026005811115613f5757fe5b6019600086815260200190815260200160002060060160019054906101000a900460ff1660ff16141515613f8a57600080fd5b601b600085815260200190815260200160002092506000836000015414151515613fb357600080fd5b82600201548360010154019150428210151515613fcf57600080fd5b8260030160029054906101000a900460ff169050600f60070160009054906101000a900460ff1660ff168160ff1610151561400957600080fd5b84836004018260ff1660058110151561401e57fe5b0160006101000a81548173ffffffffffffffffffffffffffffffffffffffff021916908373ffffffffffffffffffffffffffffffffffffffff16021790555082600301600281819054906101000a900460ff168092919060010191906101000a81548160ff021916908360ff1602179055505083601a60008773ffffffffffffffffffffffffffffffffffffffff1673ffffffffffffffffffffffffffffffffffffffff168152602001908152602001600020819055505050505050565b601f5481565b60008060008060008073ffffffffffffffffffffffffffffffffffffffff168773ffffffffffffffffffffffffffffffffffffffff161415151561412557600080fd5b6000861415151561413557600080fd5b879350600860008573ffffffffffffffffffffffffffffffffffffffff1673ffffffffffffffffffffffffffffffffffffffff16815260200190815260200160002060008873ffffffffffffffffffffffffffffffffffffffff1673ffffffffffffffffffffffffffffffffffffffff168152602001908152602001600020549250600860008573ffffffffffffffffffffffffffffffffffffffff1673ffffffffffffffffffffffffffffffffffffffff16815260200190815260200160002060008573ffffffffffffffffffffffffffffffffffffffff1673ffffffffffffffffffffffffffffffffffffffff168152602001908152602001600020549150600960008573ffffffffffffffffffffffffffffffffffffffff1673ffffffffffffffffffffffffffffffffffffffff16815260200190815260200160002060008873ffffffffffffffffffffffffffffffffffffffff1673ffffffffffffffffffffffffffffffffffffffff1681526020019081526020016000205490508183141515156142c457600080fd5b600083141515156142d457600080fd5b600082141515156142e457600080fd5b600081141515156142f457600080fd5b85811015151561430357600080fd5b614310848389868a616513565b85600960008673ffffffffffffffffffffffffffffffffffffffff1673ffffffffffffffffffffffffffffffffffffffff16815260200190815260200160002060008973ffffffffffffffffffffffffffffffffffffffff1673ffffffffffffffffffffffffffffffffffffffff1681526020019081526020016000205403600960008673ffffffffffffffffffffffffffffffffffffffff1673ffffffffffffffffffffffffffffffffffffffff16815260200190815260200160002060008973ffffffffffffffffffffffffffffffffffffffff1673ffffffffffffffffffffffffffffffffffffffff168152602001908152602001600020819055506000600960008673ffffffffffffffffffffffffffffffffffffffff1673ffffffffffffffffffffffffffffffffffffffff16815260200190815260200160002060008973ffffffffffffffffffffffffffffffffffffffff1673ffffffffffffffffffffffffffffffffffffffff16815260200190815260200160002054141561461557600960008573ffffffffffffffffffffffffffffffffffffffff1673ffffffffffffffffffffffffffffffffffffffff16815260200190815260200160002060008873ffffffffffffffffffffffffffffffffffffffff1673ffffffffffffffffffffffffffffffffffffffff16815260200190815260200160002060009055600860008573ffffffffffffffffffffffffffffffffffffffff1673ffffffffffffffffffffffffffffffffffffffff16815260200190815260200160002060008573ffffffffffffffffffffffffffffffffffffffff1673ffffffffffffffffffffffffffffffffffffffff16815260200190815260200160002060009055600860008573ffffffffffffffffffffffffffffffffffffffff1673ffffffffffffffffffffffffffffffffffffffff16815260200190815260200160002060008873ffffffffffffffffffffffffffffffffffffffff1673ffffffffffffffffffffffffffffffffffffffff168152602001908152602001600020600090555b7fa085ba1c72fda1f13ecb6e0347284ac7d016a73b7a47c0ba151368bbe5ce2db9888389868a600960008b73ffffffffffffffffffffffffffffffffffffffff1673ffffffffffffffffffffffffffffffffffffffff16815260200190815260200160002060008e73ffffffffffffffffffffffffffffffffffffffff1673ffffffffffffffffffffffffffffffffffffffff16815260200190815260200160002054604051808773ffffffffffffffffffffffffffffffffffffffff1673ffffffffffffffffffffffffffffffffffffffff1681526020018681526020018573ffffffffffffffffffffffffffffffffffffffff1673ffffffffffffffffffffffffffffffffffffffff168152602001848152602001838152602001828152602001965050505050505060405180910390a160019450505050509392505050565b6000806000614764616a13565b6000861415151561477457600080fd5b61477e33876159fe565b151561478957600080fd5b6000851415151561479957600080fd5b600160058111156147a657fe5b6019600088815260200190815260200160002060060160019054906101000a900460ff1660ff161415156147d957600080fd5b600f60030160009054906101000a900460ff1660ff166019600088815260200190815260200160002060060160009054906101000a900460ff1660ff1610151561482257600080fd5b600f60030160019054906101000a900460ff1660ff166064860281151561484557fe5b049250600f60040154836019600089815260200190815260200160002060040154011115151561487457600080fd5b601960008781526020019081526020016000206002015460196000888152602001908152602001600020600101540191504282101515156148b457600080fd5b8481600001818152505042816020018181525050600f6006015481604001818152505060008160a0019060ff16908160ff168152505080601b600088815260200190815260200160002060008201518160000155602082015181600101556040820151816002015560608201518160030160006101000a81548160ff021916908360ff16021790555060808201518160030160016101000a81548160ff021916908360ff16021790555060a08201518160030160026101000a81548160ff021916908360ff16021790555060c082015181600401906005614996929190616a61565b5090505060196000878152602001908152602001600020600601600081819054906101000a900460ff168092919060010191906101000a81548160ff021916908360ff16021790555050600260058111156149ed57fe5b6019600088815260200190815260200160002060060160016101000a81548160ff021916908360ff1602179055507fb3ef0c14cd9ed6533151b9a921ddb33f8716dd3593254ffc741ae770313e3bea8686601960008a815260200190815260200160002060060160009054906101000a900460ff16604051808481526020018381526020018260ff1660ff168152602001935050505060405180910390a16001935050505092915050565b60186020528060005260406000206000915090505481565b60008060008414151515614ac357600080fd5b601a60003373ffffffffffffffffffffffffffffffffffffffff1673ffffffffffffffffffffffffffffffffffffffff1681526020019081526020016000205484141515614b1057600080fd5b60026005811115614b1d57fe5b60ff166019600086815260200190815260200160002060060160019054906101000a900460ff1660ff16141515614b5357600080fd5b601b6000858152602001908152602001600020915081600201548260010154019050428110151515614b8457600080fd5b8215614bc35781600301600081819054906101000a900460ff168092919060010191906101000a81548160ff021916908360ff16021790555050614bf8565b81600301600181819054906101000a900460ff168092919060010191906101000a81548160ff021916908360ff160217905550505b601a60003373ffffffffffffffffffffffffffffffffffffffff1673ffffffffffffffffffffffffffffffffffffffff168152602001908152602001600020600090557f8d85a70fd2c5d140a4a01143492d27ff82cfad4cead313e66c53f39b0feb5e0f338585604051808473ffffffffffffffffffffffffffffffffffffffff1673ffffffffffffffffffffffffffffffffffffffff16815260200183815260200182151515158152602001935050505060405180910390a150505050565b6000600382815481101515614cc957fe5b9060005260206000209060050201600001549050919050565b6009602052816000526040600020602052806000526040600020600091509150505481565b600c5481565b600a60009054906101000a900473ffffffffffffffffffffffffffffffffffffffff1673ffffffffffffffffffffffffffffffffffffffff163373ffffffffffffffffffffffffffffffffffffffff16141515614d6657fe5b600073ffffffffffffffffffffffffffffffffffffffff168373ffffffffffffffffffffffffffffffffffffffff1614151515614da257600080fd5b60008214151515614db257600080fd5b60008114158015614dc85750600f600001548110155b1515614dd357600080fd5b80601760008573ffffffffffffffffffffffffffffffffffffffff1673ffffffffffffffffffffffffffffffffffffffff1681526020019081526020016000208190555081601860008573ffffffffffffffffffffffffffffffffffffffff1673ffffffffffffffffffffffffffffffffffffffff168152602001908152602001600020819055507f21619a95128e7e5c5367774b6479b6edbc059210239e39bbd50dbae00cfe0972838383604051808473ffffffffffffffffffffffffffffffffffffffff1673ffffffffffffffffffffffffffffffffffffffff168152602001838152602001828152602001935050505060405180910390a1505050565b601d5481565b600b60009054906101000a900473ffffffffffffffffffffffffffffffffffffffff1681565b600080601760003373ffffffffffffffffffffffffffffffffffffffff1673ffffffffffffffffffffffffffffffffffffffff168152602001908152602001600020549150601860003373ffffffffffffffffffffffffffffffffffffffff1673ffffffffffffffffffffffffffffffffffffffff1681526020019081526020016000205490507fdafdd0f2a3af66f1d9ab59928d5fb2e9eb5428db4b63362502d21e2511624ff7338284604051808473ffffffffffffffffffffffffffffffffffffffff1673ffffffffffffffffffffffffffffffffffffffff168152602001838152602001828152602001935050505060405180910390a15090565b60196020528060005260406000206000915090508060000154908060010154908060020154908060030154908060040154908060050154908060060160009054906101000a900460ff16908060060160019054906101000a900460ff16905088565b6007602052816000526040600020602052806000526040600020600091509150505481565b60006003600081548110151561509657fe5b906000526020600020906005020160000154905090565b6150b56169dc565b600080600d6000858152602001908152602001600020549150600090505b600c5481101561511d578183828151811015156150ec57fe5b9060200190602002018181525050600d600083815260200190815260200160002054915080806001019150506150d3565b5050919050565b6008602052816000526040600020602052806000526040600020600091509150505481565b600a60009054906101000a900473ffffffffffffffffffffffffffffffffffffffff1673ffffffffffffffffffffffffffffffffffffffff163373ffffffffffffffffffffffffffffffffffffffff161415156151a257fe5b600a60009054906101000a900473ffffffffffffffffffffffffffffffffffffffff1673ffffffffffffffffffffffffffffffffffffffff168173ffffffffffffffffffffffffffffffffffffffff16141515156151ff57600080fd5b80600b60006101000a81548173ffffffffffffffffffffffffffffffffffffffff021916908373ffffffffffffffffffffffffffffffffffffffff16021790555050565b60008073ffffffffffffffffffffffffffffffffffffffff168273ffffffffffffffffffffffffffffffffffffffff161415151561528057600080fd5b600073ffffffffffffffffffffffffffffffffffffffff168373ffffffffffffffffffffffffffffffffffffffff16141515156152bc57600080fd5b600960008473ffffffffffffffffffffffffffffffffffffffff1673ffffffffffffffffffffffffffffffffffffffff16815260200190815260200160002060008373ffffffffffffffffffffffffffffffffffffffff1673ffffffffffffffffffffffffffffffffffffffff16815260200190815260200160002054905092915050565b60008060008060006153538787616700565b935061535e84615dac565b925061536a878761672e565b9150818310156153d45761537e8785611c30565b7f69186e91a26c2cd1f67397df408ddeb0db9249dbd6e2a428ad8ae0d59ba3bc88878588604051808481526020018381526020018260ff1660ff168152602001935050505060405180910390a160019450615619565b600e8660ff168154811015156153e657fe5b906000526020600020906006020160010154600e8760ff1681548110151561540a57fe5b906000526020600020906006020160030154141561542b5760009450615619565b615532600060038681548110151561543f57fe5b90600052602060002090600502016001018054600181600116156101000203166002900480601f0160208091040260200160405190810160405280929190818152602001828054600181600116156101000203166002900480156154e45780601f106154b9576101008083540402835291602001916154e4565b820191906000526020600020905b8154815290600101906020018083116154c757829003601f168201915b50505050506003878154811015156154f857fe5b906000526020600020906005020160020154600a60009054906101000a900473ffffffffffffffffffffffffffffffffffffffff1661675f565b90506000811415156156145761554b8160018803615341565b1561560b5761555a8782611c30565b7f69186e91a26c2cd1f67397df408ddeb0db9249dbd6e2a428ad8ae0d59ba3bc88878288604051808481526020018381526020018260ff1660ff168152602001935050505060405180910390a180600e8760ff168154811015156155ba57fe5b906000526020600020906006020160040181905550600e8660ff168154811015156155e157fe5b90600052602060002090600602016003016000815480929190600101919050555060019450615619565b60009450615619565b600094505b5050505092915050565b60008060008060008060008060008914158015615644575060038054905089105b151561564f57600080fd5b6001600c540360038a81548110151561566457fe5b90600052602060002090600502016003015414151561568257600080fd5b600d60008a8152602001908152602001600020549650600087141515156156a857600080fd5b600d6000888152602001908152602001600020549550600086141515156156ce57600080fd5b600d6000878152602001908152602001600020549450600085141515156156f457600080fd5b600e600281548110151561570457fe5b906000526020600020906006020160050154606460038b81548110151561572757fe5b9060005260206000209060050201600001540281151561574357fe5b0493506000841415151561575657600080fd5b600e600181548110151561576657fe5b906000526020600020906006020160050154606460038b81548110151561578957fe5b906000526020600020906005020160000154028115156157a557fe5b049250600083141515156157b857600080fd5b600e60008154811015156157c857fe5b906000526020600020906006020160050154606460038b8154811015156157eb57fe5b9060005260206000209060050201600001540281151561580757fe5b0491506000821415151561581a57600080fd5b81838560038c81548110151561582c57fe5b90600052602060002090600502016000015403030390506000811415151561585357600080fd5b8360038881548110151561586357fe5b9060005260206000209060050201600001540160038881548110151561588557fe5b906000526020600020906005020160000181905550826003878154811015156158aa57fe5b906000526020600020906005020160000154016003878154811015156158cc57fe5b906000526020600020906005020160000181905550816003868154811015156158f157fe5b9060005260206000209060050201600001540160038681548110151561591357fe5b906000526020600020906005020160000181905550806003600081548110151561593957fe5b906000526020600020906005020160000154016003600081548110151561595c57fe5b906000526020600020906005020160000181905550600060038a81548110151561598257fe5b9060005260206000209060050201600001819055507fcfd3c3fcdcb63bcee48ff9a9ec28351afef5ba4fc9b5a8f46d5aa65565a3b1a38983858785604051808681526020018581526020018481526020018381526020018281526020019550505050505060405180910390a16001975050505050505050919050565b60008273ffffffffffffffffffffffffffffffffffffffff166004600084815260200190815260200160002060009054906101000a900473ffffffffffffffffffffffffffffffffffffffff1673ffffffffffffffffffffffffffffffffffffffff1614905092915050565b806006600084815260200190815260200160002060006101000a81548173ffffffffffffffffffffffffffffffffffffffff021916908373ffffffffffffffffffffffffffffffffffffffff1602179055505050565b60008273ffffffffffffffffffffffffffffffffffffffff166006600084815260200190815260200160002060009054906101000a900473ffffffffffffffffffffffffffffffffffffffff1673ffffffffffffffffffffffffffffffffffffffff1614905092915050565b610400600382815481101515615b3e57fe5b90600052602060002090600502016004015414151515615b5a57fe5b600560008373ffffffffffffffffffffffffffffffffffffffff1673ffffffffffffffffffffffffffffffffffffffff16815260200190815260200160002060008154809291906001019190505550816004600083815260200190815260200160002060006101000a81548173ffffffffffffffffffffffffffffffffffffffff021916908373ffffffffffffffffffffffffffffffffffffffff160217905550600073ffffffffffffffffffffffffffffffffffffffff168373ffffffffffffffffffffffffffffffffffffffff16141515615cb857600560008473ffffffffffffffffffffffffffffffffffffffff1673ffffffffffffffffffffffffffffffffffffffff16815260200190815260200160002060008154809291906001900391905055506006600082815260200190815260200160002060006101000a81549073ffffffffffffffffffffffffffffffffffffffff02191690555b7fddf252ad1be2c89b69c2b068fc378daa952ba7f163c4a11628f55a4df523b3ef838383604051808473ffffffffffffffffffffffffffffffffffffffff1673ffffffffffffffffffffffffffffffffffffffff1681526020018373ffffffffffffffffffffffffffffffffffffffff1673ffffffffffffffffffffffffffffffffffffffff168152602001828152602001935050505060405180910390a1505050565b6000615d666169dc565b6000615d718461601b565b9150815190506000811415615d895760009250615da5565b816000815181101515615d9857fe5b9060200190602002015192505b5050919050565b6000806000808414158015615dc5575060038054905084105b1515615dd057600080fd5b615dd8611d6e565b915060009250600190505b8181111515615e1d5783600d6000838152602001908152602001600020541415615e105782806001019350505b8080600101915050615de3565b5050919050565b615e2e83836159fe565b1515615e3957600080fd5b60008114151515615e4957600080fd5b80600383815481101515615e5957fe5b90600052602060002090600502016000015410151515615e7857600080fd5b80600383815481101515615e8857fe5b90600052602060002090600502016000015403600383815481101515615eaa57fe5b9060005260206000209060050201600001819055507f45dacd427fd388bf162986dbc958cdcf160c31b40efe076907cff377b9857c79838383604051808473ffffffffffffffffffffffffffffffffffffffff1673ffffffffffffffffffffffffffffffffffffffff168152602001838152602001828152602001935050505060405180910390a1505050565b615f4183836159fe565b1515615f4c57600080fd5b60008114151515615f5c57600080fd5b80600383815481101515615f6c57fe5b90600052602060002090600502016000015401600383815481101515615f8e57fe5b9060005260206000209060050201600001819055507f20f4934a3b4928cca0e51f3f1eaac12dee9af151a8a8ba5a424a89d93f6bf53d838383604051808473ffffffffffffffffffffffffffffffffffffffff1673ffffffffffffffffffffffffffffffffffffffff168152602001838152602001828152602001935050505060405180910390a1505050565b6160236169dc565b600061602d6169dc565b60008060008073ffffffffffffffffffffffffffffffffffffffff168773ffffffffffffffffffffffffffffffffffffffff161415151561606d57600080fd5b6160768761295d565b945060008514156160a85760006040518059106160905750595b90808252806020026020018201604052509550616181565b846040518059106160b65750595b908082528060200260200182016040525093506160d1611d6e565b925060009150600190505b828111151561617d578673ffffffffffffffffffffffffffffffffffffffff166004600083815260200190815260200160002060009054906101000a900473ffffffffffffffffffffffffffffffffffffffff1673ffffffffffffffffffffffffffffffffffffffff1614156161705780848380600101945081518110151561616157fe5b90602001906020020181815250505b80806001019150506160dc565b8395505b5050505050919050565b6000811415151561619b57600080fd5b6161a533826159fe565b15156161b057600080fd5b60006019600083815260200190815260200160002060030154141515156161d657600080fd5b6104006003828154811015156161e857fe5b9060005260206000209060050201600401819055506001600581111561620a57fe5b6019600083815260200190815260200160002060060160016101000a81548160ff021916908360ff1602179055504260196000838152602001908152602001600020600101819055507ff5d2d36fd2c60192fd8f874c962737f1858ff797bf9865d071ade33eeee00701816019600084815260200190815260200160002060030154601960008581526020019081526020016000206005015460405180848152602001838152602001828152602001935050505060405180910390a150565b6000806162d4616ade565b616316846040805190810160405280600c81526020017f43726f7764737572616e6365000000000000000000000000000000000000000081525060008961675f565b91506101006040519081016040528042815260200160008152602001600f60010154815260200185815260200160008152602001868152602001600060ff1681526020016000600581111561636757fe5b60ff1681525090508060196000848152602001908152602001600020600082015181600001556020820151816001015560408201518160020155606082015181600301556080820151816004015560a0820151816005015560c08201518160060160006101000a81548160ff021916908360ff16021790555060e08201518160060160016101000a81548160ff021916908360ff16021790555090505061640d8261165d565b507fbca387acb0ba7d06e329c4372885bb664f19a98153ccf3e74e56c136bf0e88c4868386604051808473ffffffffffffffffffffffffffffffffffffffff1673ffffffffffffffffffffffffffffffffffffffff168152602001838152602001828152602001935050505060405180910390a1601760008773ffffffffffffffffffffffffffffffffffffffff1673ffffffffffffffffffffffffffffffffffffffff16815260200190815260200160002060009055601860008773ffffffffffffffffffffffffffffffffffffffff1673ffffffffffffffffffffffffffffffffffffffff1681526020019081526020016000206000905581925050509392505050565b61651d85856159fe565b151561652857600080fd5b61653283836159fe565b151561653d57600080fd5b6000811415151561654d57600080fd5b81841415151561655c57600080fd5b8060038581548110151561656c57fe5b9060005260206000209060050201600001541015151561658b57600080fd5b61040060038581548110151561659d57fe5b906000526020600020906005020160040154141515156165bc57600080fd5b806003858154811015156165cc57fe5b906000526020600020906005020160000154036003858154811015156165ee57fe5b9060005260206000209060050201600001819055508060038381548110151561661357fe5b9060005260206000209060050201600001540160038381548110151561663557fe5b9060005260206000209060050201600001819055507f6d401b913d27047ecd2042f0331e2354d30e664920b31480dc71955edb996c388585858585604051808673ffffffffffffffffffffffffffffffffffffffff1673ffffffffffffffffffffffffffffffffffffffff1681526020018581526020018473ffffffffffffffffffffffffffffffffffffffff1673ffffffffffffffffffffffffffffffffffffffff1681526020018381526020018281526020019550505050505060405180910390a15050505050565b6000600e8260ff1681548110151561671457fe5b906000526020600020906006020160040154905092915050565b60006001600e8360ff1681548110151561674457fe5b90600052602060002090600602016002015403905092915050565b6000616769616b2a565b600060a06040519081016040528088815260200187815260200186815260200160008152602001600081525091506001600380548060010182816167ad9190616b60565b916000526020600020906005020160008590919091506000820151816000015560208201518160010190805190602001906167e9929190616b92565b506040820151816002015560608201518160030155608082015181600401555050039050600063ffffffff16811415616893576001600380548060010182816168329190616b60565b9160005260206000209060050201600085909190915060008201518160000155602082015181600101908051906020019061686e929190616b92565b5060408201518160020155606082015181600301556080820151816004015550500390505b8063ffffffff16811415156168a757600080fd5b7fdea8e87d69047e1b3cd43ad599d34e3eacfe4408b4dfc5d0f6ac6a15a468de5c8787878760405180858152602001806020018481526020018373ffffffffffffffffffffffffffffffffffffffff1673ffffffffffffffffffffffffffffffffffffffff168152602001828103825285818151815260200191508051906020019080838360005b8381101561694a57808201518184015260208101905061692f565b50505050905090810190601f1680156169775780820380516001836020036101000a031916815260200191505b509550505050505060405180910390a161699360008583615b2c565b8092505050949350505050565b602060405190810160405280600081525090565b6080604051908101604052806004905b60008152602001906001900390816169c45790505090565b602060405190810160405280600081525090565b506000815560010160008155600101600081556001016000815560010160009055565b61016060405190810160405280600081526020016000815260200160008152602001600060ff168152602001600060ff168152602001600060ff168152602001616a5b616c12565b81525090565b8260058101928215616acd579160200282015b82811115616acc5782518260006101000a81548173ffffffffffffffffffffffffffffffffffffffff021916908373ffffffffffffffffffffffffffffffffffffffff16021790555091602001919060010190616a74565b5b509050616ada9190616c50565b5090565b61010060405190810160405280600081526020016000815260200160008152602001600081526020016000815260200160008152602001600060ff168152602001600060ff1681525090565b60a06040519081016040528060008152602001616b45616c93565b81526020016000815260200160008152602001600081525090565b815481835581811511616b8d57600502816005028360005260206000209182019101616b8c9190616ca7565b5b505050565b828054600181600116156101000203166002900490600052602060002090601f016020900481019282601f10616bd357805160ff1916838001178555616c01565b82800160010185558215616c01579182015b82811115616c00578251825591602001919060010190616be5565b5b509050616c0e9190616cf6565b5090565b60a0604051908101604052806005905b600073ffffffffffffffffffffffffffffffffffffffff16815260200190600190039081616c225790505090565b616c9091905b80821115616c8c57600081816101000a81549073ffffffffffffffffffffffffffffffffffffffff021916905550600101616c56565b5090565b90565b602060405190810160405280600081525090565b616cf391905b80821115616cef57600080820160009055600182016000616cce9190616d1b565b60028201600090556003820160009055600482016000905550600501616cad565b5090565b90565b616d1891905b80821115616d14576000816000905550600101616cfc565b5090565b90565b50805460018160011615610100020316600290046000825580601f10616d415750616d60565b601f016020900490600052602060002090810190616d5f9190616cf6565b5b505600a165627a7a723058200024fc0fe2311d1e495491b8b9917abfcd0c616ef0d22aa04d4de0345de563ea0029",
  "source": "// \n// MIT License\n// \n// Copyright (c) 2018 REGA Risk Sharing\n//   \n// Permission is hereby granted, free of charge, to any person obtaining a copy\n// of this software and associated documentation files (the \"Software\"), to deal\n// in the Software without restriction, including without limitation the rights\n// to use, copy, modify, merge, publish, distribute, sublicense, and/or sell\n// copies of the Software, and to permit persons to whom the Software is\n// furnished to do so, subject to the following conditions:\n// \n// The above copyright notice and this permission notice shall be included in all\n// copies or substantial portions of the Software.\n// \n// THE SOFTWARE IS PROVIDED \"AS IS\", WITHOUT WARRANTY OF ANY KIND, EXPRESS OR\n// IMPLIED, INCLUDING BUT NOT LIMITED TO THE WARRANTIES OF MERCHANTABILITY,\n// FITNESS FOR A PARTICULAR PURPOSE AND NONINFRINGEMENT. IN NO EVENT SHALL THE\n// AUTHORS OR COPYRIGHT HOLDERS BE LIABLE FOR ANY CLAIM, DAMAGES OR OTHER\n// LIABILITY, WHETHER IN AN ACTION OF CONTRACT, TORT OR OTHERWISE, ARISING FROM,\n// OUT OF OR IN CONNECTION WITH THE SOFTWARE OR THE USE OR OTHER DEALINGS IN THE\n// SOFTWARE.\n// \n// Author: Sergei Sevriugin\n// Version: 0.0.1\n//  \n\npragma solidity ^0.4.17;\n\nimport './TokenCrowdsurance.sol';\nimport './interfaces/IERC20Token.sol';\n\n/// Luggage crowdsurance protection product based on TokenCrowdsurance NFT token \ncontract LuggageCrowdsurance is TokenCrowdsurance {\n    /// REGA Risk Sharing Token smart contract address\n    IERC20Token public  RST;                // RST smart contract address\n    uint256     public  joinAmountRST;      // Join amount in RST\n    bool        public  ETHOnly;            // Join only for RST tokens\n    uint8       public  maxHold;            // Maximum number of toikens for one address\n    uint256     public  rstETHRate;         // RST/ETH rate\n    uint8       public  paybackRatio;       // Payback ratio\n\n    mapping (uint256 => uint256) public payback;    // payback mapping\n    /// join function\n    /// @return cowdsuranceId NFT token ID for created crowdsurance\n    function join() public payable returns(uint256 cowdsuranceId) {\n        uint256 amount = msg.value;\n        address member = msg.sender;\n        uint256 score = addressToScore[member];\n        require(score != uint256(0));\n\n        if (!ETHOnly && msg.value == uint256(0)) {\n            // now need to check that the member has approved the transfer joinAmountRST to join\n            require(RST != address(0));                     // check that we have valid contract address\n            require(joinAmountRST != uint256(0));           // join RST amount must be > 0\n            uint256 rstAmt = RST.allowance(member, owner);  // check if the member has gave permision to spend some amount\n            require(rstAmt >= joinAmountRST);               // ... and check if allowance is more then joinAmount\n            amount = addressToAmount[member];               // get join amount and check...\n            require((rstAmt * rstETHRate) >= amount && amount >= parameters.joinAmount);\n            // transfer join RST amount to the owner account\n            require(RST.transferFrom(member, owner, joinAmountRST));\n        }\n        else {\n            require(amount != uint256(0) && amount >= parameters.joinAmount);\n            require(amount == addressToAmount[member]);\n        }\n        // call internal _join after all checkups \n        cowdsuranceId = _join(member, score, amount);\n    }\n    /// set payback amount function\n    /// @param _id crowdsurance token ID\n    /// @param _amount payback amount to set\n    /// @return true if successful \n    function setPayback(uint256 _id, uint256 _amount) ownerOnly public returns (bool) {\n        require(_id != uint256(0));\n        require(_amount != uint256(0));\n        require(_amount <= parameters.joinAmount * paybackRatio / 100);\n        require(extensions[_id].paid == uint256(0));\n        uint coverageEnd = extensions[_id].activated + extensions[_id].duration;\n        require(coverageEnd < now);\n        payback[_id] = _amount;\n        return true;\n    }\n    /// get payback function\n    /// @param _id luggage protection token to get payback\n    function getPayback(uint256 _id) public {\n        require(_owns(msg.sender, _id));\n        require(_id != uint256(0));\n        uint256 _amount = payback[_id];\n        require(_amount != uint256(0));\n        require(extensions[_id].paid == uint256(0));\n        extensions[_id].paid = _amount;\n        msg.sender.transfer(_amount);\n    }\n    /// activate function \n    /// @param _id NFT token ID to activate\n    function activate(uint256 _id) public {\n        address member = msg.sender;\n        require(balanceOf(member) < maxHold);   // check if number of tokens is not more then maxHold\n        super.activate(_id);\n    }\n    function LuggageCrowdsurance(address _rst, uint256 _amount, bool _only, uint8 _max) \n                TokenCrowdsurance(\"Luggage Crowdsurance NFT\", \"LCS\") public {\n        // setting up contract parameters \n        RST = IERC20Token(_rst);\n        if (_amount == uint256(0)) {\n            joinAmountRST = 1; \n        }\n        else {\n            joinAmountRST = _amount; \n        }\n        if (_max == uint8(0)) {\n            maxHold = 3;\n        }\n        else {\n            maxHold = _max;\n        }\n        ETHOnly = _only;\n        rstETHRate = 0.12 ether;\n        paybackRatio = 50;\n    }\n}",
  "sourcePath": "/Users/sergei/ERC721SmartToken/contracts/LuggageCrowdsurance.sol",
  "compiler": {
    "name": "solc",
    "version": "0.4.18+commit.9cf6e910.Emscripten.clang"
  },
  "schemaVersion": "1.0.1",
  "updatedAt": "2018-04-19T05:25:54.303Z"
}