{
  "contractName": "TokenPool",
  "abi": [
    {
      "constant": false,
      "inputs": [
        {
          "name": "_id",
          "type": "uint256"
        }
      ],
      "name": "insertPool",
      "outputs": [
        {
          "name": "",
          "type": "bool"
        }
      ],
      "payable": false,
      "stateMutability": "nonpayable",
      "type": "function"
    },
    {
      "constant": true,
      "inputs": [
        {
          "name": "_interfaceID",
          "type": "bytes4"
        }
      ],
      "name": "supportsInterface",
      "outputs": [
        {
          "name": "",
          "type": "bool"
        }
      ],
      "payable": false,
      "stateMutability": "view",
      "type": "function"
    },
    {
      "constant": true,
      "inputs": [],
      "name": "name",
      "outputs": [
        {
          "name": "",
          "type": "string"
        }
      ],
      "payable": false,
      "stateMutability": "view",
      "type": "function"
    },
    {
      "constant": false,
      "inputs": [
        {
          "name": "_to",
          "type": "address"
        },
        {
          "name": "_tokenId",
          "type": "uint256"
        }
      ],
      "name": "approve",
      "outputs": [],
      "payable": false,
      "stateMutability": "nonpayable",
      "type": "function"
    },
    {
      "constant": false,
      "inputs": [
        {
          "name": "_nodeId",
          "type": "uint256"
        },
        {
          "name": "_parentId",
          "type": "uint256"
        }
      ],
      "name": "addToken",
      "outputs": [],
      "payable": false,
      "stateMutability": "nonpayable",
      "type": "function"
    },
    {
      "constant": true,
      "inputs": [],
      "name": "totalSupply",
      "outputs": [
        {
          "name": "",
          "type": "uint256"
        }
      ],
      "payable": false,
      "stateMutability": "view",
      "type": "function"
    },
    {
      "constant": true,
      "inputs": [
        {
          "name": "",
          "type": "uint256"
        }
      ],
      "name": "tokenIndexToOwner",
      "outputs": [
        {
          "name": "",
          "type": "address"
        }
      ],
      "payable": false,
      "stateMutability": "view",
      "type": "function"
    },
    {
      "constant": false,
      "inputs": [
        {
          "name": "_from",
          "type": "address"
        },
        {
          "name": "_to",
          "type": "address"
        },
        {
          "name": "_tokenId",
          "type": "uint256"
        }
      ],
      "name": "transferFrom",
      "outputs": [],
      "payable": false,
      "stateMutability": "nonpayable",
      "type": "function"
    },
    {
      "constant": false,
      "inputs": [
        {
          "name": "_to",
          "type": "address"
        },
        {
          "name": "_toId",
          "type": "uint256"
        },
        {
          "name": "_level",
          "type": "uint256"
        }
      ],
      "name": "setLevel",
      "outputs": [],
      "payable": false,
      "stateMutability": "nonpayable",
      "type": "function"
    },
    {
      "constant": false,
      "inputs": [
        {
          "name": "_spender",
          "type": "address"
        },
        {
          "name": "_value",
          "type": "uint256"
        }
      ],
      "name": "cApprove",
      "outputs": [
        {
          "name": "success",
          "type": "bool"
        }
      ],
      "payable": false,
      "stateMutability": "nonpayable",
      "type": "function"
    },
    {
      "constant": false,
      "inputs": [
        {
          "name": "_nodeId",
          "type": "uint256"
        }
      ],
      "name": "removeToken",
      "outputs": [],
      "payable": false,
      "stateMutability": "nonpayable",
      "type": "function"
    },
    {
      "constant": false,
      "inputs": [
        {
          "name": "_to",
          "type": "address"
        },
        {
          "name": "_toId",
          "type": "uint256"
        }
      ],
      "name": "increaseLevel",
      "outputs": [],
      "payable": false,
      "stateMutability": "nonpayable",
      "type": "function"
    },
    {
      "constant": false,
      "inputs": [
        {
          "name": "_from",
          "type": "address"
        },
        {
          "name": "_fromId",
          "type": "uint256"
        },
        {
          "name": "_amount",
          "type": "uint256"
        }
      ],
      "name": "cDestroy",
      "outputs": [],
      "payable": false,
      "stateMutability": "nonpayable",
      "type": "function"
    },
    {
      "constant": false,
      "inputs": [
        {
          "name": "_to",
          "type": "address"
        },
        {
          "name": "_toId",
          "type": "uint256"
        },
        {
          "name": "_amount",
          "type": "uint256"
        }
      ],
      "name": "cIssue",
      "outputs": [],
      "payable": false,
      "stateMutability": "nonpayable",
      "type": "function"
    },
    {
      "constant": true,
      "inputs": [
        {
          "name": "_tokenId",
          "type": "uint256"
        }
      ],
      "name": "ownerOf",
      "outputs": [
        {
          "name": "",
          "type": "address"
        }
      ],
      "payable": false,
      "stateMutability": "view",
      "type": "function"
    },
    {
      "constant": false,
      "inputs": [
        {
          "name": "_to",
          "type": "address"
        },
        {
          "name": "_value",
          "type": "uint256"
        }
      ],
      "name": "cTransfer",
      "outputs": [
        {
          "name": "success",
          "type": "bool"
        }
      ],
      "payable": false,
      "stateMutability": "nonpayable",
      "type": "function"
    },
    {
      "constant": true,
      "inputs": [
        {
          "name": "_tokenId",
          "type": "uint256"
        }
      ],
      "name": "tokenMetadata",
      "outputs": [
        {
          "name": "infoUrl",
          "type": "string"
        }
      ],
      "payable": false,
      "stateMutability": "view",
      "type": "function"
    },
    {
      "constant": true,
      "inputs": [
        {
          "name": "_owner",
          "type": "address"
        }
      ],
      "name": "balanceOf",
      "outputs": [
        {
          "name": "count",
          "type": "uint256"
        }
      ],
      "payable": false,
      "stateMutability": "view",
      "type": "function"
    },
    {
      "constant": false,
      "inputs": [],
      "name": "acceptOwnership",
      "outputs": [],
      "payable": false,
      "stateMutability": "nonpayable",
      "type": "function"
    },
    {
      "constant": true,
      "inputs": [
        {
          "name": "_owner",
          "type": "address"
        }
      ],
      "name": "tokensOfOwner",
      "outputs": [
        {
          "name": "ownerTokens",
          "type": "uint256[]"
        }
      ],
      "payable": false,
      "stateMutability": "view",
      "type": "function"
    },
    {
      "constant": true,
      "inputs": [],
      "name": "owner",
      "outputs": [
        {
          "name": "",
          "type": "address"
        }
      ],
      "payable": false,
      "stateMutability": "view",
      "type": "function"
    },
    {
      "constant": true,
      "inputs": [],
      "name": "cTotalSupply",
      "outputs": [
        {
          "name": "",
          "type": "uint256"
        }
      ],
      "payable": false,
      "stateMutability": "view",
      "type": "function"
    },
    {
      "constant": true,
      "inputs": [],
      "name": "symbol",
      "outputs": [
        {
          "name": "",
          "type": "string"
        }
      ],
      "payable": false,
      "stateMutability": "view",
      "type": "function"
    },
    {
      "constant": false,
      "inputs": [
        {
          "name": "_fromId",
          "type": "uint256"
        },
        {
          "name": "_spender",
          "type": "address"
        },
        {
          "name": "_toId",
          "type": "uint256"
        },
        {
          "name": "_value",
          "type": "uint256"
        }
      ],
      "name": "cApproveFrom",
      "outputs": [
        {
          "name": "success",
          "type": "bool"
        }
      ],
      "payable": false,
      "stateMutability": "nonpayable",
      "type": "function"
    },
    {
      "constant": true,
      "inputs": [
        {
          "name": "",
          "type": "uint256"
        }
      ],
      "name": "tokenIndexToPoolToken",
      "outputs": [
        {
          "name": "",
          "type": "uint256"
        }
      ],
      "payable": false,
      "stateMutability": "view",
      "type": "function"
    },
    {
      "constant": true,
      "inputs": [
        {
          "name": "",
          "type": "uint256"
        }
      ],
      "name": "tokenIndexToApproved",
      "outputs": [
        {
          "name": "",
          "type": "address"
        }
      ],
      "payable": false,
      "stateMutability": "view",
      "type": "function"
    },
    {
      "constant": false,
      "inputs": [
        {
          "name": "_to",
          "type": "address"
        },
        {
          "name": "_tokenId",
          "type": "uint256"
        }
      ],
      "name": "transfer",
      "outputs": [],
      "payable": false,
      "stateMutability": "nonpayable",
      "type": "function"
    },
    {
      "constant": true,
      "inputs": [
        {
          "name": "_to",
          "type": "address"
        },
        {
          "name": "_toId",
          "type": "uint256"
        }
      ],
      "name": "getLevel",
      "outputs": [
        {
          "name": "",
          "type": "uint256"
        }
      ],
      "payable": false,
      "stateMutability": "view",
      "type": "function"
    },
    {
      "constant": true,
      "inputs": [
        {
          "name": "_owner",
          "type": "address"
        }
      ],
      "name": "cBalanceOf",
      "outputs": [
        {
          "name": "",
          "type": "uint256"
        }
      ],
      "payable": false,
      "stateMutability": "view",
      "type": "function"
    },
    {
      "constant": false,
      "inputs": [
        {
          "name": "_from",
          "type": "address"
        },
        {
          "name": "_to",
          "type": "address"
        },
        {
          "name": "_value",
          "type": "uint256"
        }
      ],
      "name": "cTransferFrom",
      "outputs": [
        {
          "name": "success",
          "type": "bool"
        }
      ],
      "payable": false,
      "stateMutability": "nonpayable",
      "type": "function"
    },
    {
      "constant": true,
      "inputs": [
        {
          "name": "_tokenId",
          "type": "uint256"
        }
      ],
      "name": "valueOf",
      "outputs": [
        {
          "name": "value",
          "type": "uint256"
        }
      ],
      "payable": false,
      "stateMutability": "view",
      "type": "function"
    },
    {
      "constant": true,
      "inputs": [
        {
          "name": "",
          "type": "address"
        },
        {
          "name": "",
          "type": "address"
        }
      ],
      "name": "allowanceAmt",
      "outputs": [
        {
          "name": "",
          "type": "uint256"
        }
      ],
      "payable": false,
      "stateMutability": "view",
      "type": "function"
    },
    {
      "constant": true,
      "inputs": [],
      "name": "maxLevel",
      "outputs": [
        {
          "name": "",
          "type": "uint256"
        }
      ],
      "payable": false,
      "stateMutability": "view",
      "type": "function"
    },
    {
      "constant": true,
      "inputs": [],
      "name": "newOwner",
      "outputs": [
        {
          "name": "",
          "type": "address"
        }
      ],
      "payable": false,
      "stateMutability": "view",
      "type": "function"
    },
    {
      "constant": true,
      "inputs": [
        {
          "name": "",
          "type": "address"
        },
        {
          "name": "",
          "type": "address"
        }
      ],
      "name": "allowance",
      "outputs": [
        {
          "name": "",
          "type": "uint256"
        }
      ],
      "payable": false,
      "stateMutability": "view",
      "type": "function"
    },
    {
      "constant": true,
      "inputs": [
        {
          "name": "_nodeId",
          "type": "uint256"
        }
      ],
      "name": "getPath",
      "outputs": [
        {
          "name": "path",
          "type": "uint256[]"
        }
      ],
      "payable": false,
      "stateMutability": "view",
      "type": "function"
    },
    {
      "constant": true,
      "inputs": [
        {
          "name": "",
          "type": "address"
        },
        {
          "name": "",
          "type": "address"
        }
      ],
      "name": "allowanceIds",
      "outputs": [
        {
          "name": "",
          "type": "uint256"
        }
      ],
      "payable": false,
      "stateMutability": "view",
      "type": "function"
    },
    {
      "constant": false,
      "inputs": [
        {
          "name": "_newOwner",
          "type": "address"
        }
      ],
      "name": "transferOwnership",
      "outputs": [],
      "payable": false,
      "stateMutability": "nonpayable",
      "type": "function"
    },
    {
      "constant": true,
      "inputs": [
        {
          "name": "_owner",
          "type": "address"
        },
        {
          "name": "_spender",
          "type": "address"
        }
      ],
      "name": "cAllowance",
      "outputs": [
        {
          "name": "",
          "type": "uint256"
        }
      ],
      "payable": false,
      "stateMutability": "view",
      "type": "function"
    },
    {
      "inputs": [
        {
          "name": "_name",
          "type": "string"
        },
        {
          "name": "_symbol",
          "type": "string"
        }
      ],
      "payable": false,
      "stateMutability": "nonpayable",
      "type": "constructor"
    },
    {
      "anonymous": false,
      "inputs": [
        {
          "indexed": false,
          "name": "id",
          "type": "uint256"
        },
        {
          "indexed": false,
          "name": "poolId",
          "type": "uint256"
        },
        {
          "indexed": false,
          "name": "level",
          "type": "uint8"
        }
      ],
      "name": "InsertPool",
      "type": "event"
    },
    {
      "anonymous": false,
      "inputs": [
        {
          "indexed": false,
          "name": "nodeId",
          "type": "uint256"
        },
        {
          "indexed": false,
          "name": "parentId",
          "type": "uint256"
        },
        {
          "indexed": false,
          "name": "level",
          "type": "uint256"
        }
      ],
      "name": "AddToken",
      "type": "event"
    },
    {
      "anonymous": false,
      "inputs": [
        {
          "indexed": false,
          "name": "nodeId",
          "type": "uint256"
        },
        {
          "indexed": false,
          "name": "level",
          "type": "uint256"
        }
      ],
      "name": "RemoveToken",
      "type": "event"
    },
    {
      "anonymous": false,
      "inputs": [
        {
          "indexed": false,
          "name": "from",
          "type": "address"
        },
        {
          "indexed": false,
          "name": "fromId",
          "type": "uint256"
        },
        {
          "indexed": false,
          "name": "to",
          "type": "address"
        },
        {
          "indexed": false,
          "name": "toId",
          "type": "uint256"
        },
        {
          "indexed": false,
          "name": "value",
          "type": "uint256"
        }
      ],
      "name": "Transfer",
      "type": "event"
    },
    {
      "anonymous": false,
      "inputs": [
        {
          "indexed": false,
          "name": "to",
          "type": "address"
        },
        {
          "indexed": false,
          "name": "toId",
          "type": "uint256"
        },
        {
          "indexed": false,
          "name": "value",
          "type": "uint256"
        }
      ],
      "name": "AddValue",
      "type": "event"
    },
    {
      "anonymous": false,
      "inputs": [
        {
          "indexed": false,
          "name": "from",
          "type": "address"
        },
        {
          "indexed": false,
          "name": "fromId",
          "type": "uint256"
        },
        {
          "indexed": false,
          "name": "value",
          "type": "uint256"
        }
      ],
      "name": "RemoveValue",
      "type": "event"
    },
    {
      "anonymous": false,
      "inputs": [
        {
          "indexed": false,
          "name": "to",
          "type": "address"
        },
        {
          "indexed": false,
          "name": "toId",
          "type": "uint256"
        },
        {
          "indexed": false,
          "name": "level",
          "type": "uint256"
        }
      ],
      "name": "SetLevel",
      "type": "event"
    },
    {
      "anonymous": false,
      "inputs": [
        {
          "indexed": false,
          "name": "to",
          "type": "address"
        },
        {
          "indexed": false,
          "name": "toId",
          "type": "uint256"
        }
      ],
      "name": "IncreaseLevel",
      "type": "event"
    },
    {
      "anonymous": false,
      "inputs": [
        {
          "indexed": true,
          "name": "_prevOwner",
          "type": "address"
        },
        {
          "indexed": true,
          "name": "_newOwner",
          "type": "address"
        }
      ],
      "name": "OwnerUpdate",
      "type": "event"
    },
    {
      "anonymous": false,
      "inputs": [
        {
          "indexed": false,
          "name": "fromId",
          "type": "uint256"
        },
        {
          "indexed": false,
          "name": "spender",
          "type": "address"
        },
        {
          "indexed": false,
          "name": "toId",
          "type": "uint256"
        },
        {
          "indexed": false,
          "name": "value",
          "type": "uint256"
        }
      ],
      "name": "CApproveFrom",
      "type": "event"
    },
    {
      "anonymous": false,
      "inputs": [
        {
          "indexed": false,
          "name": "spender",
          "type": "address"
        },
        {
          "indexed": false,
          "name": "value",
          "type": "uint256"
        }
      ],
      "name": "CApprove",
      "type": "event"
    },
    {
      "anonymous": false,
      "inputs": [
        {
          "indexed": false,
          "name": "from",
          "type": "address"
        },
        {
          "indexed": false,
          "name": "fromId",
          "type": "uint256"
        },
        {
          "indexed": false,
          "name": "to",
          "type": "address"
        },
        {
          "indexed": false,
          "name": "toId",
          "type": "uint256"
        },
        {
          "indexed": false,
          "name": "value",
          "type": "uint256"
        },
        {
          "indexed": false,
          "name": "allowance",
          "type": "uint256"
        }
      ],
      "name": "CTransferFrom",
      "type": "event"
    },
    {
      "anonymous": false,
      "inputs": [
        {
          "indexed": false,
          "name": "to",
          "type": "address"
        },
        {
          "indexed": false,
          "name": "toId",
          "type": "uint256"
        },
        {
          "indexed": false,
          "name": "amount",
          "type": "uint256"
        }
      ],
      "name": "CIssue",
      "type": "event"
    },
    {
      "anonymous": false,
      "inputs": [
        {
          "indexed": false,
          "name": "from",
          "type": "address"
        },
        {
          "indexed": false,
          "name": "fromId",
          "type": "uint256"
        },
        {
          "indexed": false,
          "name": "amount",
          "type": "uint256"
        }
      ],
      "name": "CDestroy",
      "type": "event"
    },
    {
      "anonymous": false,
      "inputs": [
        {
          "indexed": false,
          "name": "from",
          "type": "address"
        },
        {
          "indexed": false,
          "name": "to",
          "type": "address"
        },
        {
          "indexed": false,
          "name": "tokenId",
          "type": "uint256"
        }
      ],
      "name": "Transfer",
      "type": "event"
    },
    {
      "anonymous": false,
      "inputs": [
        {
          "indexed": false,
          "name": "owner",
          "type": "address"
        },
        {
          "indexed": false,
          "name": "approved",
          "type": "address"
        },
        {
          "indexed": false,
          "name": "tokenId",
          "type": "uint256"
        }
      ],
      "name": "Approval",
      "type": "event"
    },
    {
      "anonymous": false,
      "inputs": [
        {
          "indexed": false,
          "name": "value",
          "type": "uint256"
        },
        {
          "indexed": false,
          "name": "metadata",
          "type": "string"
        },
        {
          "indexed": false,
          "name": "kind",
          "type": "uint256"
        },
        {
          "indexed": false,
          "name": "owner",
          "type": "address"
        }
      ],
      "name": "Birth",
      "type": "event"
    }
  ],
  "bytecode": "0x606060405234156200001057600080fd5b60405162004e5a38038062004e5a8339810160405280805182019190602001805182019190505060008060006200004662000ace565b6200005062000ace565b6200005a62000ace565b87878181818133600260006101000a81548173ffffffffffffffffffffffffffffffffffffffff021916908373ffffffffffffffffffffffffffffffffffffffff1602179055508160009080519060200190620000b992919062000b08565b508060019080519060200190620000d292919062000b08565b50505033600a60006101000a81548173ffffffffffffffffffffffffffffffffffffffff021916908373ffffffffffffffffffffffffffffffffffffffff16021790555050506004600c8190555050506004600c81905550620001a560006040805190810160405280600981526020017f5375706572506f6f6c00000000000000000000000000000000000000000000008152506001600a60009054906101000a900473ffffffffffffffffffffffffffffffffffffffff166200051e6401000000000262003c0b176401000000009004565b95506200022260006040805190810160405280600481526020017f506f6f6c000000000000000000000000000000000000000000000000000000008152506001600a60009054906101000a900473ffffffffffffffffffffffffffffffffffffffff166200051e6401000000000262003c0b176401000000009004565b94506200029f60006040805190810160405280600781526020017f537562506f6f6c000000000000000000000000000000000000000000000000008152506002600a60009054906101000a900473ffffffffffffffffffffffffffffffffffffffff166200051e6401000000000262003c0b176401000000009004565b9350620002c18587620007846401000000000262001372176401000000009004565b620002e18486620007846401000000000262001372176401000000009004565b60c060405190810160405280600060ff16815260200160018152602001600a815260200160018152602001878152602001600a8152509250600e80548060010182816200032f919062000b8f565b9160005260206000209060060201600085909190915060008201518160000160006101000a81548160ff021916908360ff1602179055506020820151816001015560408201518160020155606082015181600301556080820151816004015560a0820151816005015550505060c060405190810160405280600160ff168152602001600a8152602001606481526020016001815260200186815260200160148152509150600e8054806001018281620003e9919062000b8f565b9160005260206000209060060201600084909190915060008201518160000160006101000a81548160ff021916908360ff1602179055506020820151816001015560408201518160020155606082015181600301556080820151816004015560a0820151816005015550505060c060405190810160405280600260ff1681526020016103e88152602001606481526020016001815260200185815260200160328152509050600e8054806001018281620004a4919062000b8f565b9160005260206000209060060201600083909190915060008201518160000160006101000a81548160ff021916908360ff1602179055506020820151816001015560408201518160020155606082015181600301556080820151816004015560a08201518160050155505050505050505050505062000df2565b60006200052a62000bc4565b600060a060405190810160405280888152602001878152602001868152602001600081526020016000815250915060016003805480600101828162000570919062000bfc565b91600052602060002090600502016000859091909150600082015181600001556020820151816001019080519060200190620005ae92919062000c31565b506040820151816002015560608201518160030155608082015181600401555050039050600063ffffffff168114156200065d57600160038054806001018281620005fa919062000bfc565b916000526020600020906005020160008590919091506000820151816000015560208201518160010190805190602001906200063892919062000c31565b5060408201518160020155606082015181600301556080820151816004015550500390505b8063ffffffff16811415156200067257600080fd5b7fdea8e87d69047e1b3cd43ad599d34e3eacfe4408b4dfc5d0f6ac6a15a468de5c8787878760405180858152602001806020018481526020018373ffffffffffffffffffffffffffffffffffffffff1673ffffffffffffffffffffffffffffffffffffffff168152602001828103825285818151815260200191508051906020019080838360005b8381101562000717578082015181840152602081019050620006fa565b50505050905090810190601f168015620007455780820380516001836020036101000a031916815260200191505b509550505050505060405180910390a16200077760008583620008cb640100000000026200341e176401000000009004565b8092505050949350505050565b600082141580156200079a575060038054905082105b1515620007a657600080fd5b60008114158015620007bc575060038054905081105b1515620007c857600080fd5b6001600c5403600382815481101515620007de57fe5b906000526020600020906005020160030154101515620007fd57600080fd5b80600d60008481526020019081526020016000208190555060016003828154811015156200082757fe5b906000526020600020906005020160030154016003838154811015156200084a57fe5b9060005260206000209060050201600301819055507f0900f87897aa374bb21fa36753905fa2944dd2301242246101a9047a0ed227a082826003858154811015156200089257fe5b90600052602060002090600502016003015460405180848152602001838152602001828152602001935050505060405180910390a15050565b600560008373ffffffffffffffffffffffffffffffffffffffff1673ffffffffffffffffffffffffffffffffffffffff16815260200190815260200160002060008154809291906001019190505550816004600083815260200190815260200160002060006101000a81548173ffffffffffffffffffffffffffffffffffffffff021916908373ffffffffffffffffffffffffffffffffffffffff160217905550600073ffffffffffffffffffffffffffffffffffffffff168373ffffffffffffffffffffffffffffffffffffffff1614151562000a2a57600560008473ffffffffffffffffffffffffffffffffffffffff1673ffffffffffffffffffffffffffffffffffffffff16815260200190815260200160002060008154809291906001900391905055506006600082815260200190815260200160002060006101000a81549073ffffffffffffffffffffffffffffffffffffffff02191690555b7fddf252ad1be2c89b69c2b068fc378daa952ba7f163c4a11628f55a4df523b3ef838383604051808473ffffffffffffffffffffffffffffffffffffffff1673ffffffffffffffffffffffffffffffffffffffff1681526020018373ffffffffffffffffffffffffffffffffffffffff1673ffffffffffffffffffffffffffffffffffffffff168152602001828152602001935050505060405180910390a1505050565b60c060405190810160405280600060ff16815260200160008152602001600081526020016000815260200160008152602001600081525090565b828054600181600116156101000203166002900490600052602060002090601f016020900481019282601f1062000b4b57805160ff191683800117855562000b7c565b8280016001018555821562000b7c579182015b8281111562000b7b57825182559160200191906001019062000b5e565b5b50905062000b8b919062000cb8565b5090565b81548183558181151162000bbf5760060281600602836000526020600020918201910162000bbe919062000ce0565b5b505050565b60a0604051908101604052806000815260200162000be162000d3e565b81526020016000815260200160008152602001600081525090565b81548183558181151162000c2c5760050281600502836000526020600020918201910162000c2b919062000d52565b5b505050565b828054600181600116156101000203166002900490600052602060002090601f016020900481019282601f1062000c7457805160ff191683800117855562000ca5565b8280016001018555821562000ca5579182015b8281111562000ca457825182559160200191906001019062000c87565b5b50905062000cb4919062000cb8565b5090565b62000cdd91905b8082111562000cd957600081600090555060010162000cbf565b5090565b90565b62000d3b91905b8082111562000d3757600080820160006101000a81549060ff0219169055600182016000905560028201600090556003820160009055600482016000905560058201600090555060060162000ce7565b5090565b90565b602060405190810160405280600081525090565b62000da391905b8082111562000d9f5760008082016000905560018201600062000d7d919062000da6565b6002820160009055600382016000905560048201600090555060050162000d59565b5090565b90565b50805460018160011615610100020316600290046000825580601f1062000dce575062000def565b601f01602090049060005260206000209081019062000dee919062000cb8565b5b50565b6140588062000e026000396000f3006060604052600436106101e2576000357c0100000000000000000000000000000000000000000000000000000000900463ffffffff168062607b7f146101e757806301ffc9a71461022257806306fdde031461027c578063095ea7b31461030a57806317b9ebec1461034c57806318160ddd146103785780631d36e06c146103a157806323b872dd14610404578063296250051461046557806332c4ee83146104b057806336c5d7241461050a57806339e6cdb11461052d5780634cabcfac1461056f578063545c3d55146105ba5780636352211e1461060557806366d80ba5146106685780636914db60146106c257806370a082311461075e57806379ba5097146107ab5780638462151c146107c05780638da5cb5b1461084e5780638f1fc77c146108a357806395d89b41146108cc57806398dc5c951461095a5780639ca08831146109c6578063a8bd9c32146109fd578063a9059cbb14610a60578063b121f2ac14610aa2578063b135707914610af8578063bf62266514610b45578063cadf338f14610bbe578063cbbc9f8914610bf5578063cc06c35914610c61578063d4ee1d9014610c8a578063dd62ed3e14610cdf578063e176507314610d4b578063e527cc9d14610dc3578063f2fde38b14610e2f578063f81fd7ea14610e68575b600080fd5b34156101f257600080fd5b6102086004808035906020019091905050610ed4565b604051808215151515815260200191505060405180910390f35b341561022d57600080fd5b61026260048080357bffffffffffffffffffffffffffffffffffffffffffffffffffffffff1916906020019091905050610ef7565b604051808215151515815260200191505060405180910390f35b341561028757600080fd5b61028f611208565b6040518080602001828103825283818151815260200191508051906020019080838360005b838110156102cf5780820151818401526020810190506102b4565b50505050905090810190601f1680156102fc5780820380516001836020036101000a031916815260200191505b509250505060405180910390f35b341561031557600080fd5b61034a600480803573ffffffffffffffffffffffffffffffffffffffff169060200190919080359060200190919050506112b0565b005b341561035757600080fd5b6103766004808035906020019091908035906020019091905050611372565b005b341561038357600080fd5b61038b6114b0565b6040518082815260200191505060405180910390f35b34156103ac57600080fd5b6103c260048080359060200190919050506114d2565b604051808273ffffffffffffffffffffffffffffffffffffffff1673ffffffffffffffffffffffffffffffffffffffff16815260200191505060405180910390f35b341561040f57600080fd5b610463600480803573ffffffffffffffffffffffffffffffffffffffff1690602001909190803573ffffffffffffffffffffffffffffffffffffffff16906020019091908035906020019091905050611505565b005b341561047057600080fd5b6104ae600480803573ffffffffffffffffffffffffffffffffffffffff169060200190919080359060200190919080359060200190919050506115b6565b005b34156104bb57600080fd5b6104f0600480803573ffffffffffffffffffffffffffffffffffffffff169060200190919080359060200190919050506116c1565b604051808215151515815260200191505060405180910390f35b341561051557600080fd5b61052b6004808035906020019091905050611956565b005b341561053857600080fd5b61056d600480803573ffffffffffffffffffffffffffffffffffffffff16906020019091908035906020019091905050611a0b565b005b341561057a57600080fd5b6105b8600480803573ffffffffffffffffffffffffffffffffffffffff16906020019091908035906020019091908035906020019091905050611b30565b005b34156105c557600080fd5b610603600480803573ffffffffffffffffffffffffffffffffffffffff16906020019091908035906020019091908035906020019091905050611c29565b005b341561061057600080fd5b6106266004808035906020019091905050611d22565b604051808273ffffffffffffffffffffffffffffffffffffffff1673ffffffffffffffffffffffffffffffffffffffff16815260200191505060405180910390f35b341561067357600080fd5b6106a8600480803573ffffffffffffffffffffffffffffffffffffffff16906020019091908035906020019091905050611da0565b604051808215151515815260200191505060405180910390f35b34156106cd57600080fd5b6106e36004808035906020019091905050611e06565b6040518080602001828103825283818151815260200191508051906020019080838360005b83811015610723578082015181840152602081019050610708565b50505050905090810190601f1680156107505780820380516001836020036101000a031916815260200191505b509250505060405180910390f35b341561076957600080fd5b610795600480803573ffffffffffffffffffffffffffffffffffffffff16906020019091905050611ece565b6040518082815260200191505060405180910390f35b34156107b657600080fd5b6107be611f17565b005b34156107cb57600080fd5b6107f7600480803573ffffffffffffffffffffffffffffffffffffffff169060200190919050506120b8565b6040518080602001828103825283818151815260200191508051906020019060200280838360005b8381101561083a57808201518184015260208101905061081f565b505050509050019250505060405180910390f35b341561085957600080fd5b6108616120d0565b604051808273ffffffffffffffffffffffffffffffffffffffff1673ffffffffffffffffffffffffffffffffffffffff16815260200191505060405180910390f35b34156108ae57600080fd5b6108b66120f6565b6040518082815260200191505060405180910390f35b34156108d757600080fd5b6108df612150565b6040518080602001828103825283818151815260200191508051906020019080838360005b8381101561091f578082015181840152602081019050610904565b50505050905090810190601f16801561094c5780820380516001836020036101000a031916815260200191505b509250505060405180910390f35b341561096557600080fd5b6109ac600480803590602001909190803573ffffffffffffffffffffffffffffffffffffffff169060200190919080359060200190919080359060200190919050506121f8565b604051808215151515815260200191505060405180910390f35b34156109d157600080fd5b6109e76004808035906020019091905050612484565b6040518082815260200191505060405180910390f35b3415610a0857600080fd5b610a1e600480803590602001909190505061249c565b604051808273ffffffffffffffffffffffffffffffffffffffff1673ffffffffffffffffffffffffffffffffffffffff16815260200191505060405180910390f35b3415610a6b57600080fd5b610aa0600480803573ffffffffffffffffffffffffffffffffffffffff169060200190919080359060200190919050506124cf565b005b3415610aad57600080fd5b610ae2600480803573ffffffffffffffffffffffffffffffffffffffff1690602001909190803590602001909190505061256a565b6040518082815260200191505060405180910390f35b3415610b0357600080fd5b610b2f600480803573ffffffffffffffffffffffffffffffffffffffff169060200190919050506125aa565b6040518082815260200191505060405180910390f35b3415610b5057600080fd5b610ba4600480803573ffffffffffffffffffffffffffffffffffffffff1690602001909190803573ffffffffffffffffffffffffffffffffffffffff1690602001909190803590602001909190505061262e565b604051808215151515815260200191505060405180910390f35b3415610bc957600080fd5b610bdf6004808035906020019091905050612ca3565b6040518082815260200191505060405180910390f35b3415610c0057600080fd5b610c4b600480803573ffffffffffffffffffffffffffffffffffffffff1690602001909190803573ffffffffffffffffffffffffffffffffffffffff16906020019091905050612ccd565b6040518082815260200191505060405180910390f35b3415610c6c57600080fd5b610c74612cf2565b6040518082815260200191505060405180910390f35b3415610c9557600080fd5b610c9d612cf8565b604051808273ffffffffffffffffffffffffffffffffffffffff1673ffffffffffffffffffffffffffffffffffffffff16815260200191505060405180910390f35b3415610cea57600080fd5b610d35600480803573ffffffffffffffffffffffffffffffffffffffff1690602001909190803573ffffffffffffffffffffffffffffffffffffffff16906020019091905050612d1e565b6040518082815260200191505060405180910390f35b3415610d5657600080fd5b610d6c6004808035906020019091905050612d43565b6040518080602001828103825283818151815260200191508051906020019060200280838360005b83811015610daf578082015181840152602081019050610d94565b505050509050019250505060405180910390f35b3415610dce57600080fd5b610e19600480803573ffffffffffffffffffffffffffffffffffffffff1690602001909190803573ffffffffffffffffffffffffffffffffffffffff16906020019091905050612dba565b6040518082815260200191505060405180910390f35b3415610e3a57600080fd5b610e66600480803573ffffffffffffffffffffffffffffffffffffffff16906020019091905050612ddf565b005b3415610e7357600080fd5b610ebe600480803573ffffffffffffffffffffffffffffffffffffffff1690602001909190803573ffffffffffffffffffffffffffffffffffffffff16906020019091905050612ed9565b6040518082815260200191505060405180910390f35b6000808214151515610ee557600080fd5b610ef0826002612fd7565b9050919050565b600060405180807f737570706f727473496e74657266616365286279746573342900000000000000815250601901905060405180910390207bffffffffffffffffffffffffffffffffffffffffffffffffffffffff1916827bffffffffffffffffffffffffffffffffffffffffffffffffffffffff19161480611201575060405180807f746f6b656e4d657461646174612875696e743235362c737472696e6729000000815250601d019050604051809103902060405180807f746f6b656e734f664f776e6572286164647265737329000000000000000000008152506016019050604051809103902060405180807f7472616e7366657246726f6d28616464726573732c616464726573732c75696e81526020017f74323536290000000000000000000000000000000000000000000000000000008152506025019050604051809103902060405180807f7472616e7366657228616464726573732c75696e7432353629000000000000008152506019019050604051809103902060405180807f617070726f766528616464726573732c75696e743235362900000000000000008152506018019050604051809103902060405180807f6f776e65724f662875696e7432353629000000000000000000000000000000008152506010019050604051809103902060405180807f62616c616e63654f6628616464726573732900000000000000000000000000008152506012019050604051809103902060405180807f746f74616c537570706c79282900000000000000000000000000000000000000815250600d019050604051809103902060405180807f73796d626f6c28290000000000000000000000000000000000000000000000008152506008019050604051809103902060405180807f6e616d6528290000000000000000000000000000000000000000000000000000815250600601905060405180910390201818181818181818187bffffffffffffffffffffffffffffffffffffffffffffffffffffffff1916827bffffffffffffffffffffffffffffffffffffffffffffffffffffffff1916145b9050919050565b611210613e4c565b60008054600181600116156101000203166002900480601f0160208091040260200160405190810160405280929190818152602001828054600181600116156101000203166002900480156112a65780601f1061127b576101008083540402835291602001916112a6565b820191906000526020600020905b81548152906001019060200180831161128957829003601f168201915b5050505050905090565b6112ba33826132f0565b15156112c557600080fd5b6112cf818361335c565b7f8c5be1e5ebec7d5bd14f71427d1e84f3dd0314c0f7b2291e5b200ac8c7c3b925338383604051808473ffffffffffffffffffffffffffffffffffffffff1673ffffffffffffffffffffffffffffffffffffffff1681526020018373ffffffffffffffffffffffffffffffffffffffff1673ffffffffffffffffffffffffffffffffffffffff168152602001828152602001935050505060405180910390a15050565b60008214158015611387575060038054905082105b151561139257600080fd5b600081141580156113a7575060038054905081105b15156113b257600080fd5b6001600c54036003828154811015156113c757fe5b9060005260206000209060050201600301541015156113e557600080fd5b80600d600084815260200190815260200160002081905550600160038281548110151561140e57fe5b9060005260206000209060050201600301540160038381548110151561143057fe5b9060005260206000209060050201600301819055507f0900f87897aa374bb21fa36753905fa2944dd2301242246101a9047a0ed227a0828260038581548110151561147757fe5b90600052602060002090600502016003015460405180848152602001838152602001828152602001935050505060405180910390a15050565b600080600380549050905060008111156114cb576001810390505b8091505090565b60046020528060005260406000206000915054906101000a900473ffffffffffffffffffffffffffffffffffffffff1681565b600073ffffffffffffffffffffffffffffffffffffffff168273ffffffffffffffffffffffffffffffffffffffff161415151561154157600080fd5b3073ffffffffffffffffffffffffffffffffffffffff168273ffffffffffffffffffffffffffffffffffffffff161415151561157c57600080fd5b61158633826133b2565b151561159157600080fd5b61159b83826132f0565b15156115a657600080fd5b6115b183838361341e565b505050565b600a60009054906101000a900473ffffffffffffffffffffffffffffffffffffffff1673ffffffffffffffffffffffffffffffffffffffff163373ffffffffffffffffffffffffffffffffffffffff1614151561160f57fe5b61161983836132f0565b151561162457600080fd5b8060038381548110151561163457fe5b9060005260206000209060050201600301819055507f48ed1b5769aee6cf16cda3da1db2a0acf83c194c9d2a98ebeff4904567af58f6838383604051808473ffffffffffffffffffffffffffffffffffffffff1673ffffffffffffffffffffffffffffffffffffffff168152602001838152602001828152602001935050505060405180910390a1505050565b600080600080600073ffffffffffffffffffffffffffffffffffffffff168673ffffffffffffffffffffffffffffffffffffffff161415151561170357600080fd5b6000851415151561171357600080fd5b33925061171f83613620565b915061172a86613620565b905080821415151561173b57600080fd5b6000821415151561174b57600080fd5b6000811415151561175b57600080fd5b80600860008573ffffffffffffffffffffffffffffffffffffffff1673ffffffffffffffffffffffffffffffffffffffff16815260200190815260200160002060008873ffffffffffffffffffffffffffffffffffffffff1673ffffffffffffffffffffffffffffffffffffffff1681526020019081526020016000208190555081600860008573ffffffffffffffffffffffffffffffffffffffff1673ffffffffffffffffffffffffffffffffffffffff16815260200190815260200160002060008573ffffffffffffffffffffffffffffffffffffffff1673ffffffffffffffffffffffffffffffffffffffff1681526020019081526020016000208190555084600960008573ffffffffffffffffffffffffffffffffffffffff1673ffffffffffffffffffffffffffffffffffffffff16815260200190815260200160002060008873ffffffffffffffffffffffffffffffffffffffff1673ffffffffffffffffffffffffffffffffffffffff168152602001908152602001600020819055507fe051949e9a44e2e9c21ee7d1c7b03ef0bf501aa3b7c4616a8543f229c0bede7a8686604051808373ffffffffffffffffffffffffffffffffffffffff1673ffffffffffffffffffffffffffffffffffffffff1681526020018281526020019250505060405180910390a16001935050505092915050565b600080821415801561196c575060038054905082105b151561197757600080fd5b61198082613670565b905060008114151561199157600080fd5b600d6000838152602001908152602001600020600090557f399c331be71add502e95a2402ba7370605a945c1c6c1dc01c5e30f7e896cfa56826003848154811015156119d957fe5b906000526020600020906005020160030154604051808381526020018281526020019250505060405180910390a15050565b600a60009054906101000a900473ffffffffffffffffffffffffffffffffffffffff1673ffffffffffffffffffffffffffffffffffffffff163373ffffffffffffffffffffffffffffffffffffffff16141515611a6457fe5b611a6e82826132f0565b1515611a7957600080fd5b6001600382815481101515611a8a57fe5b90600052602060002090600502016003015401600382815481101515611aac57fe5b9060005260206000209060050201600301819055507fb6ffa2bc58069f160ac94855c396bc8a7c591ae4b9e69d78cc004ad2e4d70d858282604051808373ffffffffffffffffffffffffffffffffffffffff1673ffffffffffffffffffffffffffffffffffffffff1681526020018281526020019250505060405180910390a15050565b60008073ffffffffffffffffffffffffffffffffffffffff168473ffffffffffffffffffffffffffffffffffffffff1614151515611b6d57600080fd5b60008214151515611b7d57600080fd5b8290506000811415611b9557611b9284613620565b90505b60008114151515611ba557600080fd5b611bb08482846136e8565b7f8ee078ba6dd38678f9ffdc8f1df2d512559df0cae2db32c829459127e1003197848484604051808473ffffffffffffffffffffffffffffffffffffffff1673ffffffffffffffffffffffffffffffffffffffff168152602001838152602001828152602001935050505060405180910390a150505050565b60008073ffffffffffffffffffffffffffffffffffffffff168473ffffffffffffffffffffffffffffffffffffffff1614151515611c6657600080fd5b60008214151515611c7657600080fd5b8290506000811415611c8e57611c8b84613620565b90505b60008114151515611c9e57600080fd5b611ca98482846137fb565b7ff3d0e22890d929d2a1cd5ca9e5f6498c4271ce2f0223ab4092297c2d11c9ef75848484604051808473ffffffffffffffffffffffffffffffffffffffff1673ffffffffffffffffffffffffffffffffffffffff168152602001838152602001828152602001935050505060405180910390a150505050565b6000806004600084815260200190815260200160002060009054906101000a900473ffffffffffffffffffffffffffffffffffffffff169050600073ffffffffffffffffffffffffffffffffffffffff168173ffffffffffffffffffffffffffffffffffffffff1614151515611d9757600080fd5b80915050919050565b600080600073ffffffffffffffffffffffffffffffffffffffff168473ffffffffffffffffffffffffffffffffffffffff1614151515611ddf57600080fd5b60008314151515611def57600080fd5b339050611dfd81858561262e565b91505092915050565b611e0e613e4c565b600382815481101515611e1d57fe5b90600052602060002090600502016001018054600181600116156101000203166002900480601f016020809104026020016040519081016040528092919081815260200182805460018160011615610100020316600290048015611ec25780601f10611e9757610100808354040283529160200191611ec2565b820191906000526020600020905b815481529060010190602001808311611ea557829003601f168201915b50505050509050919050565b6000600560008373ffffffffffffffffffffffffffffffffffffffff1673ffffffffffffffffffffffffffffffffffffffff168152602001908152602001600020549050919050565b600b60009054906101000a900473ffffffffffffffffffffffffffffffffffffffff1673ffffffffffffffffffffffffffffffffffffffff163373ffffffffffffffffffffffffffffffffffffffff16141515611f7357600080fd5b600b60009054906101000a900473ffffffffffffffffffffffffffffffffffffffff1673ffffffffffffffffffffffffffffffffffffffff16600a60009054906101000a900473ffffffffffffffffffffffffffffffffffffffff1673ffffffffffffffffffffffffffffffffffffffff167f343765429aea5a34b3ff6a3785a98a5abb2597aca87bfbb58632c173d585373a60405160405180910390a3600b60009054906101000a900473ffffffffffffffffffffffffffffffffffffffff16600a60006101000a81548173ffffffffffffffffffffffffffffffffffffffff021916908373ffffffffffffffffffffffffffffffffffffffff1602179055506000600b60006101000a81548173ffffffffffffffffffffffffffffffffffffffff021916908373ffffffffffffffffffffffffffffffffffffffff160217905550565b6120c0613e60565b6120c9826138df565b9050919050565b600a60009054906101000a900473ffffffffffffffffffffffffffffffffffffffff1681565b600080600080600092506003805490509150600190505b818110156121475760038181548110151561212457fe5b90600052602060002090600502016000015483019250808060010191505061210d565b82935050505090565b612158613e4c565b60018054600181600116156101000203166002900480601f0160208091040260200160405190810160405280929190818152602001828054600181600116156101000203166002900480156121ee5780601f106121c3576101008083540402835291602001916121ee565b820191906000526020600020905b8154815290600101906020018083116121d157829003601f168201915b5050505050905090565b600080600073ffffffffffffffffffffffffffffffffffffffff168573ffffffffffffffffffffffffffffffffffffffff161415151561223757600080fd5b83861415151561224657600080fd5b6000861415151561225657600080fd5b6000841415151561226657600080fd5b6000831415151561227657600080fd5b33905083600860008373ffffffffffffffffffffffffffffffffffffffff1673ffffffffffffffffffffffffffffffffffffffff16815260200190815260200160002060008773ffffffffffffffffffffffffffffffffffffffff1673ffffffffffffffffffffffffffffffffffffffff1681526020019081526020016000208190555085600860008373ffffffffffffffffffffffffffffffffffffffff1673ffffffffffffffffffffffffffffffffffffffff16815260200190815260200160002060008373ffffffffffffffffffffffffffffffffffffffff1673ffffffffffffffffffffffffffffffffffffffff1681526020019081526020016000208190555082600960008373ffffffffffffffffffffffffffffffffffffffff1673ffffffffffffffffffffffffffffffffffffffff16815260200190815260200160002060008773ffffffffffffffffffffffffffffffffffffffff1673ffffffffffffffffffffffffffffffffffffffff168152602001908152602001600020819055507fef4beaa380feab20776f162f92bbf15b04c59f8fd4e8ab2508b8d29fed7dfd6186868686604051808581526020018473ffffffffffffffffffffffffffffffffffffffff1673ffffffffffffffffffffffffffffffffffffffff16815260200183815260200182815260200194505050505060405180910390a16001915050949350505050565b600d6020528060005260406000206000915090505481565b60066020528060005260406000206000915054906101000a900473ffffffffffffffffffffffffffffffffffffffff1681565b600073ffffffffffffffffffffffffffffffffffffffff168273ffffffffffffffffffffffffffffffffffffffff161415151561250b57600080fd5b3073ffffffffffffffffffffffffffffffffffffffff168273ffffffffffffffffffffffffffffffffffffffff161415151561254657600080fd5b61255033826132f0565b151561255b57600080fd5b61256633838361341e565b5050565b600061257683836132f0565b151561258157600080fd5b60038281548110151561259057fe5b906000526020600020906005020160030154905092915050565b60006125b4613e60565b60008060006125c2866138df565b93506000925083519150600090505b8181101561262257600384828151811015156125e957fe5b906020019060200201518154811015156125ff57fe5b9060005260206000209060050201600001548301925080806001019150506125d1565b82945050505050919050565b60008060008060008073ffffffffffffffffffffffffffffffffffffffff168773ffffffffffffffffffffffffffffffffffffffff161415151561267157600080fd5b6000861415151561268157600080fd5b879350600860008573ffffffffffffffffffffffffffffffffffffffff1673ffffffffffffffffffffffffffffffffffffffff16815260200190815260200160002060008873ffffffffffffffffffffffffffffffffffffffff1673ffffffffffffffffffffffffffffffffffffffff168152602001908152602001600020549250600860008573ffffffffffffffffffffffffffffffffffffffff1673ffffffffffffffffffffffffffffffffffffffff16815260200190815260200160002060008573ffffffffffffffffffffffffffffffffffffffff1673ffffffffffffffffffffffffffffffffffffffff168152602001908152602001600020549150600960008573ffffffffffffffffffffffffffffffffffffffff1673ffffffffffffffffffffffffffffffffffffffff16815260200190815260200160002060008873ffffffffffffffffffffffffffffffffffffffff1673ffffffffffffffffffffffffffffffffffffffff16815260200190815260200160002054905081831415151561281057600080fd5b6000831415151561282057600080fd5b6000821415151561283057600080fd5b6000811415151561284057600080fd5b85811015151561284f57600080fd5b61285c848389868a613a4f565b85600960008673ffffffffffffffffffffffffffffffffffffffff1673ffffffffffffffffffffffffffffffffffffffff16815260200190815260200160002060008973ffffffffffffffffffffffffffffffffffffffff1673ffffffffffffffffffffffffffffffffffffffff1681526020019081526020016000205403600960008673ffffffffffffffffffffffffffffffffffffffff1673ffffffffffffffffffffffffffffffffffffffff16815260200190815260200160002060008973ffffffffffffffffffffffffffffffffffffffff1673ffffffffffffffffffffffffffffffffffffffff168152602001908152602001600020819055506000600960008673ffffffffffffffffffffffffffffffffffffffff1673ffffffffffffffffffffffffffffffffffffffff16815260200190815260200160002060008973ffffffffffffffffffffffffffffffffffffffff1673ffffffffffffffffffffffffffffffffffffffff168152602001908152602001600020541415612b6157600960008573ffffffffffffffffffffffffffffffffffffffff1673ffffffffffffffffffffffffffffffffffffffff16815260200190815260200160002060008873ffffffffffffffffffffffffffffffffffffffff1673ffffffffffffffffffffffffffffffffffffffff16815260200190815260200160002060009055600860008573ffffffffffffffffffffffffffffffffffffffff1673ffffffffffffffffffffffffffffffffffffffff16815260200190815260200160002060008573ffffffffffffffffffffffffffffffffffffffff1673ffffffffffffffffffffffffffffffffffffffff16815260200190815260200160002060009055600860008573ffffffffffffffffffffffffffffffffffffffff1673ffffffffffffffffffffffffffffffffffffffff16815260200190815260200160002060008873ffffffffffffffffffffffffffffffffffffffff1673ffffffffffffffffffffffffffffffffffffffff168152602001908152602001600020600090555b7fa085ba1c72fda1f13ecb6e0347284ac7d016a73b7a47c0ba151368bbe5ce2db9888389868a600960008b73ffffffffffffffffffffffffffffffffffffffff1673ffffffffffffffffffffffffffffffffffffffff16815260200190815260200160002060008e73ffffffffffffffffffffffffffffffffffffffff1673ffffffffffffffffffffffffffffffffffffffff16815260200190815260200160002054604051808773ffffffffffffffffffffffffffffffffffffffff1673ffffffffffffffffffffffffffffffffffffffff1681526020018681526020018573ffffffffffffffffffffffffffffffffffffffff1673ffffffffffffffffffffffffffffffffffffffff168152602001848152602001838152602001828152602001965050505050505060405180910390a160019450505050509392505050565b6000600382815481101515612cb457fe5b9060005260206000209060050201600001549050919050565b6009602052816000526040600020602052806000526040600020600091509150505481565b600c5481565b600b60009054906101000a900473ffffffffffffffffffffffffffffffffffffffff1681565b6007602052816000526040600020602052806000526040600020600091509150505481565b612d4b613e60565b600080600d6000858152602001908152602001600020549150600090505b600c54811015612db357818382815181101515612d8257fe5b9060200190602002018181525050600d60008381526020019081526020016000205491508080600101915050612d69565b5050919050565b6008602052816000526040600020602052806000526040600020600091509150505481565b600a60009054906101000a900473ffffffffffffffffffffffffffffffffffffffff1673ffffffffffffffffffffffffffffffffffffffff163373ffffffffffffffffffffffffffffffffffffffff16141515612e3857fe5b600a60009054906101000a900473ffffffffffffffffffffffffffffffffffffffff1673ffffffffffffffffffffffffffffffffffffffff168173ffffffffffffffffffffffffffffffffffffffff1614151515612e9557600080fd5b80600b60006101000a81548173ffffffffffffffffffffffffffffffffffffffff021916908373ffffffffffffffffffffffffffffffffffffffff16021790555050565b60008073ffffffffffffffffffffffffffffffffffffffff168273ffffffffffffffffffffffffffffffffffffffff1614151515612f1657600080fd5b600073ffffffffffffffffffffffffffffffffffffffff168373ffffffffffffffffffffffffffffffffffffffff1614151515612f5257600080fd5b600960008473ffffffffffffffffffffffffffffffffffffffff1673ffffffffffffffffffffffffffffffffffffffff16815260200190815260200160002060008373ffffffffffffffffffffffffffffffffffffffff1673ffffffffffffffffffffffffffffffffffffffff16815260200190815260200160002054905092915050565b6000806000806000600e8660ff16815481101515612ff157fe5b906000526020600020906006020160040154935061300e84613670565b92506001600e8760ff1681548110151561302457fe5b906000526020600020906006020160020154039150818310156130a15761304b8785611372565b7f69186e91a26c2cd1f67397df408ddeb0db9249dbd6e2a428ad8ae0d59ba3bc88878588604051808481526020018381526020018260ff1660ff168152602001935050505060405180910390a1600194506132e6565b600e8660ff168154811015156130b357fe5b906000526020600020906006020160010154600e8760ff168154811015156130d757fe5b90600052602060002090600602016003015414156130f857600094506132e6565b6131ff600060038681548110151561310c57fe5b90600052602060002090600502016001018054600181600116156101000203166002900480601f0160208091040260200160405190810160405280929190818152602001828054600181600116156101000203166002900480156131b15780601f10613186576101008083540402835291602001916131b1565b820191906000526020600020905b81548152906001019060200180831161319457829003601f168201915b50505050506003878154811015156131c557fe5b906000526020600020906005020160020154600a60009054906101000a900473ffffffffffffffffffffffffffffffffffffffff16613c0b565b90506000811415156132e1576132188160018803612fd7565b156132d8576132278782611372565b7f69186e91a26c2cd1f67397df408ddeb0db9249dbd6e2a428ad8ae0d59ba3bc88878288604051808481526020018381526020018260ff1660ff168152602001935050505060405180910390a180600e8760ff1681548110151561328757fe5b906000526020600020906006020160040181905550600e8660ff168154811015156132ae57fe5b906000526020600020906006020160030160008154809291906001019190505550600194506132e6565b600094506132e6565b600094505b5050505092915050565b60008273ffffffffffffffffffffffffffffffffffffffff166004600084815260200190815260200160002060009054906101000a900473ffffffffffffffffffffffffffffffffffffffff1673ffffffffffffffffffffffffffffffffffffffff1614905092915050565b806006600084815260200190815260200160002060006101000a81548173ffffffffffffffffffffffffffffffffffffffff021916908373ffffffffffffffffffffffffffffffffffffffff1602179055505050565b60008273ffffffffffffffffffffffffffffffffffffffff166006600084815260200190815260200160002060009054906101000a900473ffffffffffffffffffffffffffffffffffffffff1673ffffffffffffffffffffffffffffffffffffffff1614905092915050565b600560008373ffffffffffffffffffffffffffffffffffffffff1673ffffffffffffffffffffffffffffffffffffffff16815260200190815260200160002060008154809291906001019190505550816004600083815260200190815260200160002060006101000a81548173ffffffffffffffffffffffffffffffffffffffff021916908373ffffffffffffffffffffffffffffffffffffffff160217905550600073ffffffffffffffffffffffffffffffffffffffff168373ffffffffffffffffffffffffffffffffffffffff1614151561357c57600560008473ffffffffffffffffffffffffffffffffffffffff1673ffffffffffffffffffffffffffffffffffffffff16815260200190815260200160002060008154809291906001900391905055506006600082815260200190815260200160002060006101000a81549073ffffffffffffffffffffffffffffffffffffffff02191690555b7fddf252ad1be2c89b69c2b068fc378daa952ba7f163c4a11628f55a4df523b3ef838383604051808473ffffffffffffffffffffffffffffffffffffffff1673ffffffffffffffffffffffffffffffffffffffff1681526020018373ffffffffffffffffffffffffffffffffffffffff1673ffffffffffffffffffffffffffffffffffffffff168152602001828152602001935050505060405180910390a1505050565b600061362a613e60565b6000613635846138df565b915081519050600081141561364d5760009250613669565b81600081518110151561365c57fe5b9060200190602002015192505b5050919050565b6000806000808414158015613689575060038054905084105b151561369457600080fd5b61369c6114b0565b915060009250600190505b81811115156136e15783600d60008381526020019081526020016000205414156136d45782806001019350505b80806001019150506136a7565b5050919050565b6136f283836132f0565b15156136fd57600080fd5b6000811415151561370d57600080fd5b8060038381548110151561371d57fe5b9060005260206000209060050201600001541015151561373c57600080fd5b8060038381548110151561374c57fe5b9060005260206000209060050201600001540360038381548110151561376e57fe5b9060005260206000209060050201600001819055507f45dacd427fd388bf162986dbc958cdcf160c31b40efe076907cff377b9857c79838383604051808473ffffffffffffffffffffffffffffffffffffffff1673ffffffffffffffffffffffffffffffffffffffff168152602001838152602001828152602001935050505060405180910390a1505050565b61380583836132f0565b151561381057600080fd5b6000811415151561382057600080fd5b8060038381548110151561383057fe5b9060005260206000209060050201600001540160038381548110151561385257fe5b9060005260206000209060050201600001819055507f20f4934a3b4928cca0e51f3f1eaac12dee9af151a8a8ba5a424a89d93f6bf53d838383604051808473ffffffffffffffffffffffffffffffffffffffff1673ffffffffffffffffffffffffffffffffffffffff168152602001838152602001828152602001935050505060405180910390a1505050565b6138e7613e60565b60006138f1613e60565b60008060008073ffffffffffffffffffffffffffffffffffffffff168773ffffffffffffffffffffffffffffffffffffffff161415151561393157600080fd5b61393a87611ece565b9450600085141561396c5760006040518059106139545750595b90808252806020026020018201604052509550613a45565b8460405180591061397a5750595b908082528060200260200182016040525093506139956114b0565b925060009150600190505b8281111515613a41578673ffffffffffffffffffffffffffffffffffffffff166004600083815260200190815260200160002060009054906101000a900473ffffffffffffffffffffffffffffffffffffffff1673ffffffffffffffffffffffffffffffffffffffff161415613a3457808483806001019450815181101515613a2557fe5b90602001906020020181815250505b80806001019150506139a0565b8395505b5050505050919050565b613a5985856132f0565b1515613a6457600080fd5b613a6e83836132f0565b1515613a7957600080fd5b60008114151515613a8957600080fd5b818414151515613a9857600080fd5b80600385815481101515613aa857fe5b90600052602060002090600502016000015410151515613ac757600080fd5b80600385815481101515613ad757fe5b90600052602060002090600502016000015403600385815481101515613af957fe5b90600052602060002090600502016000018190555080600383815481101515613b1e57fe5b90600052602060002090600502016000015401600383815481101515613b4057fe5b9060005260206000209060050201600001819055507f6d401b913d27047ecd2042f0331e2354d30e664920b31480dc71955edb996c388585858585604051808673ffffffffffffffffffffffffffffffffffffffff1673ffffffffffffffffffffffffffffffffffffffff1681526020018581526020018473ffffffffffffffffffffffffffffffffffffffff1673ffffffffffffffffffffffffffffffffffffffff1681526020018381526020018281526020019550505050505060405180910390a15050505050565b6000613c15613e74565b600060a0604051908101604052808881526020018781526020018681526020016000815260200160008152509150600160038054806001018281613c599190613eaa565b91600052602060002090600502016000859091909150600082015181600001556020820151816001019080519060200190613c95929190613edc565b506040820151816002015560608201518160030155608082015181600401555050039050600063ffffffff16811415613d3f57600160038054806001018281613cde9190613eaa565b91600052602060002090600502016000859091909150600082015181600001556020820151816001019080519060200190613d1a929190613edc565b5060408201518160020155606082015181600301556080820151816004015550500390505b8063ffffffff1681141515613d5357600080fd5b7fdea8e87d69047e1b3cd43ad599d34e3eacfe4408b4dfc5d0f6ac6a15a468de5c8787878760405180858152602001806020018481526020018373ffffffffffffffffffffffffffffffffffffffff1673ffffffffffffffffffffffffffffffffffffffff168152602001828103825285818151815260200191508051906020019080838360005b83811015613df6578082015181840152602081019050613ddb565b50505050905090810190601f168015613e235780820380516001836020036101000a031916815260200191505b509550505050505060405180910390a1613e3f6000858361341e565b8092505050949350505050565b602060405190810160405280600081525090565b602060405190810160405280600081525090565b60a06040519081016040528060008152602001613e8f613f5c565b81526020016000815260200160008152602001600081525090565b815481835581811511613ed757600502816005028360005260206000209182019101613ed69190613f70565b5b505050565b828054600181600116156101000203166002900490600052602060002090601f016020900481019282601f10613f1d57805160ff1916838001178555613f4b565b82800160010185558215613f4b579182015b82811115613f4a578251825591602001919060010190613f2f565b5b509050613f589190613fbf565b5090565b602060405190810160405280600081525090565b613fbc91905b80821115613fb857600080820160009055600182016000613f979190613fe4565b60028201600090556003820160009055600482016000905550600501613f76565b5090565b90565b613fe191905b80821115613fdd576000816000905550600101613fc5565b5090565b90565b50805460018160011615610100020316600290046000825580601f1061400a5750614029565b601f0160209004906000526020600020908101906140289190613fbf565b5b505600a165627a7a7230582037b02d4cf356e4d286b0c58ce8f65b3e352f61ca025b7e94230c9942f8774ed90029",
  "source": "// \n// MIT License\n// \n// Copyright (c) 2018 REGA Risk Sharing\n//   \n// Permission is hereby granted, free of charge, to any person obtaining a copy\n// of this software and associated documentation files (the \"Software\"), to deal\n// in the Software without restriction, including without limitation the rights\n// to use, copy, modify, merge, publish, distribute, sublicense, and/or sell\n// copies of the Software, and to permit persons to whom the Software is\n// furnished to do so, subject to the following conditions:\n// \n// The above copyright notice and this permission notice shall be included in all\n// copies or substantial portions of the Software.\n// \n// THE SOFTWARE IS PROVIDED \"AS IS\", WITHOUT WARRANTY OF ANY KIND, EXPRESS OR\n// IMPLIED, INCLUDING BUT NOT LIMITED TO THE WARRANTIES OF MERCHANTABILITY,\n// FITNESS FOR A PARTICULAR PURPOSE AND NONINFRINGEMENT. IN NO EVENT SHALL THE\n// AUTHORS OR COPYRIGHT HOLDERS BE LIABLE FOR ANY CLAIM, DAMAGES OR OTHER\n// LIABILITY, WHETHER IN AN ACTION OF CONTRACT, TORT OR OTHERWISE, ARISING FROM,\n// OUT OF OR IN CONNECTION WITH THE SOFTWARE OR THE USE OR OTHER DEALINGS IN THE\n// SOFTWARE.\n// \n// Author: Sergei Sevriugin\n// Version: 0.0.1\n//  \n\npragma solidity ^0.4.17;\n\nimport './TokenContainer.sol';\n/// TokenPool is TokenContainer with 4 level pool structure: \n/// Super Pool (Level 0), Pool (Level 1), Sub Pool (Level 2) and Token (Level 3)\n/// Level       Container / Member\n/// ------------------------------------------------\n///   0         SuperPool\n///   1              |______Pool\n///   2                      |______SubPool\n///   3                                |_______Token\ncontract TokenPool is TokenContainer {\n    /// TokenPool insertPool event\n    /// @param id inserted token ID\n    /// @param poolId pool ID\n    /// @param level pool level\n    event InsertPool(uint256 id, uint256 poolId, uint8 level);\n    /// @dev Pool defines pool structure\n    /// @param level Pool level: 0,1,2,3\n    /// @param maxNumber Maximum number of pools on this lavel\n    /// @param maxMember Maximum number of members for the pool\n    /// @param number Pool number for this level\n    /// @param last NFT ID for last availible pool (with member capacity)\n    struct Pool {\n        uint8   level;      // Pool level: 0,1,2,3\n        uint256 maxNumber;  // Maximum number of pools on this lavel\n        uint256 maxMember;  // Maximum number of members for the pool\n        uint256 number;     // Pool number for this level\n        uint256 last;       // NFT ID for last availible pool (with member capacity)\n        uint256 share;      // Pool share from token investment\n    }\n    /// @dev Pool structure \n    Pool[] pools;           // Pool structure\n    /// inset new member in the pool\n    /// @param _id NFT token ID to inserr\n    /// @param _level Pool level to insert\n    /// @return TRUE if insert is done \n    function _insertPool(uint256 _id, uint8 _level) internal returns (bool) {\n        uint256 parentId = pools[_level].last;      // pool NFT token ID\n        uint256 size = _getPoolSize(parentId);      // current pool size\n        uint256 max = pools[_level].maxMember - 1;  // max pool size - 1\n        // check if there is a place to insert \n        if (size < max) {\n            // simple insert\n            addToken(_id, parentId); // add to pool \n            InsertPool(_id, parentId, _level); // event \n            return true;\n        }\n        else {\n            // no capacity in the current pool, so, need to add new pool\n            // check if it's possible\n            if(pools[_level].number == pools[_level].maxNumber) {\n                // no capacity to add new pool at this lavel\n                return false;\n            }\n            else {\n                // make a copy from the last pool\n                uint newPool = _createNFT(uint256(0), nfts[parentId].metadata, nfts[parentId].kind, owner);\n                if (newPool != uint(0)) { \n                    // insert pool in the pool structure\n                    if (_insertPool(newPool, _level-1)) {\n                        // insert token to the new pool\n                        addToken(_id, newPool); // add to pool\n                        InsertPool(_id, newPool, _level); // event \n                        // record new pool data in the structure \n                        pools[_level].last = newPool; // new pool is last one\n                        pools[_level].number++;\n                        // new pool and member are inserted \n                        return true;\n                    }\n                    else {\n                        return false;\n                    }\n                }\n                else {\n                    return false;\n                }\n            }\n        }\n    }\n    /// insert token in pool structure\n    /// @param _id NFT token ID to insert\n    /// @return TRUE if insert is done \n    function insertPool(uint256 _id) public returns(bool) {\n        require(_id != uint256(0));\n        return _insertPool(_id, 2);\n    }\n    /// TokenPool Constructor\n    function TokenPool(string _name, string _symbol) TokenContainer(_name, _symbol) public { \n        maxLevel = 4;\n\n        // Creating templates\n        uint superPoolId = super._createNFT(uint256(0), \"SuperPool\", uint256(1), owner);\n        uint poolId = super._createNFT(uint256(0), \"Pool\", uint256(1), owner);\n        uint subPoolId = super._createNFT(uint256(0), \"SubPool\", uint256(2), owner);\n\n        // Build initil structure SubPool --> Pool --> SuperPool\n        addToken(poolId, superPoolId);\n        addToken(subPoolId, poolId);\n\n        // Build configuration \n        // SuperPool configuration\n        Pool memory superPool = Pool({\n            level: uint8(0),\n            maxNumber: uint256(1),\n            maxMember: uint256(10),\n            number: uint256(1),\n            last: uint256(superPoolId),\n            share: uint256(10)\n        });\n        pools.push(superPool);\n        // Pool configuration \n        Pool memory pool = Pool({\n            level: uint8(1),\n            maxNumber: uint256(10),\n            maxMember: uint256(100),\n            number: uint256(1),\n            last: uint256(poolId),\n            share: uint256(20)\n        });\n        pools.push(pool);\n        // SubPool configuration \n        Pool memory subPool = Pool({\n            level: uint8(2),\n            maxNumber: uint256(1000),\n            maxMember: uint256(100),\n            number: uint256(1),\n            last: uint256(subPoolId),\n            share: uint256(50)\n        });\n        pools.push(subPool);\n    }\n}",
  "sourcePath": "/Users/sergei/ERC721SmartToken/contracts/TokenPool.sol",
  "compiler": {
    "name": "solc",
    "version": "0.4.18+commit.9cf6e910.Emscripten.clang"
  },
  "schemaVersion": "1.0.1",
  "updatedAt": "2018-04-04T19:25:58.524Z"
}