{
  "contractName": "TokenCrowdsurance",
  "abi": [
    {
      "constant": false,
      "inputs": [
        {
          "name": "_id",
          "type": "uint256"
        }
      ],
      "name": "insertPool",
      "outputs": [
        {
          "name": "",
          "type": "bool"
        }
      ],
      "payable": false,
      "stateMutability": "nonpayable",
      "type": "function"
    },
    {
      "constant": true,
      "inputs": [
        {
          "name": "",
          "type": "uint256"
        }
      ],
      "name": "tokenIdToExtension",
      "outputs": [
        {
          "name": "timeStamp",
          "type": "uint256"
        },
        {
          "name": "activated",
          "type": "uint256"
        },
        {
          "name": "duration",
          "type": "uint256"
        },
        {
          "name": "amount",
          "type": "uint256"
        },
        {
          "name": "claim",
          "type": "uint256"
        },
        {
          "name": "paid",
          "type": "uint256"
        },
        {
          "name": "score",
          "type": "uint256"
        },
        {
          "name": "status",
          "type": "uint256"
        },
        {
          "name": "claimed",
          "type": "uint256"
        },
        {
          "name": "timeToVote",
          "type": "uint8"
        },
        {
          "name": "positive",
          "type": "uint8"
        },
        {
          "name": "negative",
          "type": "uint8"
        }
      ],
      "payable": false,
      "stateMutability": "view",
      "type": "function"
    },
    {
      "constant": true,
      "inputs": [
        {
          "name": "_interfaceID",
          "type": "bytes4"
        }
      ],
      "name": "supportsInterface",
      "outputs": [
        {
          "name": "",
          "type": "bool"
        }
      ],
      "payable": false,
      "stateMutability": "view",
      "type": "function"
    },
    {
      "constant": true,
      "inputs": [],
      "name": "name",
      "outputs": [
        {
          "name": "",
          "type": "string"
        }
      ],
      "payable": false,
      "stateMutability": "view",
      "type": "function"
    },
    {
      "constant": false,
      "inputs": [
        {
          "name": "_to",
          "type": "address"
        },
        {
          "name": "_tokenId",
          "type": "uint256"
        }
      ],
      "name": "approve",
      "outputs": [],
      "payable": false,
      "stateMutability": "nonpayable",
      "type": "function"
    },
    {
      "constant": false,
      "inputs": [
        {
          "name": "_nodeId",
          "type": "uint256"
        },
        {
          "name": "_parentId",
          "type": "uint256"
        }
      ],
      "name": "addToken",
      "outputs": [],
      "payable": false,
      "stateMutability": "nonpayable",
      "type": "function"
    },
    {
      "constant": true,
      "inputs": [],
      "name": "totalSupply",
      "outputs": [
        {
          "name": "",
          "type": "uint256"
        }
      ],
      "payable": false,
      "stateMutability": "view",
      "type": "function"
    },
    {
      "constant": true,
      "inputs": [],
      "name": "getDistribution",
      "outputs": [
        {
          "name": "distribution",
          "type": "uint256[4]"
        }
      ],
      "payable": false,
      "stateMutability": "view",
      "type": "function"
    },
    {
      "constant": true,
      "inputs": [
        {
          "name": "",
          "type": "uint256"
        }
      ],
      "name": "tokenIndexToOwner",
      "outputs": [
        {
          "name": "",
          "type": "address"
        }
      ],
      "payable": false,
      "stateMutability": "view",
      "type": "function"
    },
    {
      "constant": false,
      "inputs": [
        {
          "name": "_from",
          "type": "address"
        },
        {
          "name": "_to",
          "type": "address"
        },
        {
          "name": "_tokenId",
          "type": "uint256"
        }
      ],
      "name": "transferFrom",
      "outputs": [],
      "payable": false,
      "stateMutability": "nonpayable",
      "type": "function"
    },
    {
      "constant": false,
      "inputs": [
        {
          "name": "_to",
          "type": "address"
        },
        {
          "name": "_toId",
          "type": "uint256"
        },
        {
          "name": "_level",
          "type": "uint256"
        }
      ],
      "name": "setLevel",
      "outputs": [],
      "payable": false,
      "stateMutability": "nonpayable",
      "type": "function"
    },
    {
      "constant": false,
      "inputs": [
        {
          "name": "_spender",
          "type": "address"
        },
        {
          "name": "_value",
          "type": "uint256"
        }
      ],
      "name": "cApprove",
      "outputs": [
        {
          "name": "success",
          "type": "bool"
        }
      ],
      "payable": false,
      "stateMutability": "nonpayable",
      "type": "function"
    },
    {
      "constant": false,
      "inputs": [
        {
          "name": "_nodeId",
          "type": "uint256"
        }
      ],
      "name": "removeToken",
      "outputs": [],
      "payable": false,
      "stateMutability": "nonpayable",
      "type": "function"
    },
    {
      "constant": false,
      "inputs": [
        {
          "name": "_to",
          "type": "address"
        },
        {
          "name": "_toId",
          "type": "uint256"
        }
      ],
      "name": "increaseLevel",
      "outputs": [],
      "payable": false,
      "stateMutability": "nonpayable",
      "type": "function"
    },
    {
      "constant": true,
      "inputs": [
        {
          "name": "",
          "type": "address"
        }
      ],
      "name": "addressToAmount",
      "outputs": [
        {
          "name": "",
          "type": "uint256"
        }
      ],
      "payable": false,
      "stateMutability": "view",
      "type": "function"
    },
    {
      "constant": false,
      "inputs": [
        {
          "name": "_from",
          "type": "address"
        },
        {
          "name": "_fromId",
          "type": "uint256"
        },
        {
          "name": "_amount",
          "type": "uint256"
        }
      ],
      "name": "cDestroy",
      "outputs": [],
      "payable": false,
      "stateMutability": "nonpayable",
      "type": "function"
    },
    {
      "constant": false,
      "inputs": [
        {
          "name": "_to",
          "type": "address"
        },
        {
          "name": "_toId",
          "type": "uint256"
        },
        {
          "name": "_amount",
          "type": "uint256"
        }
      ],
      "name": "cIssue",
      "outputs": [],
      "payable": false,
      "stateMutability": "nonpayable",
      "type": "function"
    },
    {
      "constant": true,
      "inputs": [
        {
          "name": "_tokenId",
          "type": "uint256"
        }
      ],
      "name": "ownerOf",
      "outputs": [
        {
          "name": "",
          "type": "address"
        }
      ],
      "payable": false,
      "stateMutability": "view",
      "type": "function"
    },
    {
      "constant": false,
      "inputs": [
        {
          "name": "_to",
          "type": "address"
        },
        {
          "name": "_value",
          "type": "uint256"
        }
      ],
      "name": "cTransfer",
      "outputs": [
        {
          "name": "success",
          "type": "bool"
        }
      ],
      "payable": false,
      "stateMutability": "nonpayable",
      "type": "function"
    },
    {
      "constant": true,
      "inputs": [
        {
          "name": "_tokenId",
          "type": "uint256"
        }
      ],
      "name": "tokenMetadata",
      "outputs": [
        {
          "name": "infoUrl",
          "type": "string"
        }
      ],
      "payable": false,
      "stateMutability": "view",
      "type": "function"
    },
    {
      "constant": true,
      "inputs": [],
      "name": "template",
      "outputs": [
        {
          "name": "timeStamp",
          "type": "uint256"
        },
        {
          "name": "activated",
          "type": "uint256"
        },
        {
          "name": "duration",
          "type": "uint256"
        },
        {
          "name": "amount",
          "type": "uint256"
        },
        {
          "name": "claim",
          "type": "uint256"
        },
        {
          "name": "paid",
          "type": "uint256"
        },
        {
          "name": "score",
          "type": "uint256"
        },
        {
          "name": "status",
          "type": "uint256"
        },
        {
          "name": "claimed",
          "type": "uint256"
        },
        {
          "name": "timeToVote",
          "type": "uint8"
        },
        {
          "name": "positive",
          "type": "uint8"
        },
        {
          "name": "negative",
          "type": "uint8"
        }
      ],
      "payable": false,
      "stateMutability": "view",
      "type": "function"
    },
    {
      "constant": true,
      "inputs": [
        {
          "name": "_owner",
          "type": "address"
        }
      ],
      "name": "balanceOf",
      "outputs": [
        {
          "name": "count",
          "type": "uint256"
        }
      ],
      "payable": false,
      "stateMutability": "view",
      "type": "function"
    },
    {
      "constant": false,
      "inputs": [],
      "name": "acceptOwnership",
      "outputs": [],
      "payable": false,
      "stateMutability": "nonpayable",
      "type": "function"
    },
    {
      "constant": true,
      "inputs": [
        {
          "name": "_owner",
          "type": "address"
        }
      ],
      "name": "tokensOfOwner",
      "outputs": [
        {
          "name": "ownerTokens",
          "type": "uint256[]"
        }
      ],
      "payable": false,
      "stateMutability": "view",
      "type": "function"
    },
    {
      "constant": true,
      "inputs": [],
      "name": "owner",
      "outputs": [
        {
          "name": "",
          "type": "address"
        }
      ],
      "payable": false,
      "stateMutability": "view",
      "type": "function"
    },
    {
      "constant": true,
      "inputs": [],
      "name": "cTotalSupply",
      "outputs": [
        {
          "name": "",
          "type": "uint256"
        }
      ],
      "payable": false,
      "stateMutability": "view",
      "type": "function"
    },
    {
      "constant": true,
      "inputs": [],
      "name": "symbol",
      "outputs": [
        {
          "name": "",
          "type": "string"
        }
      ],
      "payable": false,
      "stateMutability": "view",
      "type": "function"
    },
    {
      "constant": false,
      "inputs": [
        {
          "name": "_fromId",
          "type": "uint256"
        },
        {
          "name": "_spender",
          "type": "address"
        },
        {
          "name": "_toId",
          "type": "uint256"
        },
        {
          "name": "_value",
          "type": "uint256"
        }
      ],
      "name": "cApproveFrom",
      "outputs": [
        {
          "name": "success",
          "type": "bool"
        }
      ],
      "payable": false,
      "stateMutability": "nonpayable",
      "type": "function"
    },
    {
      "constant": true,
      "inputs": [
        {
          "name": "",
          "type": "uint256"
        }
      ],
      "name": "tokenIndexToPoolToken",
      "outputs": [
        {
          "name": "",
          "type": "uint256"
        }
      ],
      "payable": false,
      "stateMutability": "view",
      "type": "function"
    },
    {
      "constant": true,
      "inputs": [
        {
          "name": "",
          "type": "address"
        }
      ],
      "name": "voters",
      "outputs": [
        {
          "name": "weight",
          "type": "uint256"
        },
        {
          "name": "voted",
          "type": "bool"
        },
        {
          "name": "tokenId",
          "type": "uint256"
        }
      ],
      "payable": false,
      "stateMutability": "view",
      "type": "function"
    },
    {
      "constant": true,
      "inputs": [
        {
          "name": "",
          "type": "uint256"
        }
      ],
      "name": "tokenIndexToApproved",
      "outputs": [
        {
          "name": "",
          "type": "address"
        }
      ],
      "payable": false,
      "stateMutability": "view",
      "type": "function"
    },
    {
      "constant": false,
      "inputs": [
        {
          "name": "_to",
          "type": "address"
        },
        {
          "name": "_tokenId",
          "type": "uint256"
        }
      ],
      "name": "transfer",
      "outputs": [],
      "payable": false,
      "stateMutability": "nonpayable",
      "type": "function"
    },
    {
      "constant": true,
      "inputs": [
        {
          "name": "_to",
          "type": "address"
        },
        {
          "name": "_toId",
          "type": "uint256"
        }
      ],
      "name": "getLevel",
      "outputs": [
        {
          "name": "",
          "type": "uint256"
        }
      ],
      "payable": false,
      "stateMutability": "view",
      "type": "function"
    },
    {
      "constant": true,
      "inputs": [
        {
          "name": "_owner",
          "type": "address"
        }
      ],
      "name": "cBalanceOf",
      "outputs": [
        {
          "name": "",
          "type": "uint256"
        }
      ],
      "payable": false,
      "stateMutability": "view",
      "type": "function"
    },
    {
      "constant": false,
      "inputs": [
        {
          "name": "_id",
          "type": "uint256"
        }
      ],
      "name": "activate",
      "outputs": [],
      "payable": false,
      "stateMutability": "nonpayable",
      "type": "function"
    },
    {
      "constant": false,
      "inputs": [],
      "name": "join",
      "outputs": [
        {
          "name": "cowdsuranceId",
          "type": "uint256"
        }
      ],
      "payable": true,
      "stateMutability": "payable",
      "type": "function"
    },
    {
      "constant": false,
      "inputs": [
        {
          "name": "_jury",
          "type": "address"
        },
        {
          "name": "_id",
          "type": "uint256"
        }
      ],
      "name": "addVoter",
      "outputs": [],
      "payable": false,
      "stateMutability": "nonpayable",
      "type": "function"
    },
    {
      "constant": false,
      "inputs": [
        {
          "name": "_from",
          "type": "address"
        },
        {
          "name": "_to",
          "type": "address"
        },
        {
          "name": "_value",
          "type": "uint256"
        }
      ],
      "name": "cTransferFrom",
      "outputs": [
        {
          "name": "success",
          "type": "bool"
        }
      ],
      "payable": false,
      "stateMutability": "nonpayable",
      "type": "function"
    },
    {
      "constant": false,
      "inputs": [
        {
          "name": "_id",
          "type": "uint256"
        },
        {
          "name": "_claim",
          "type": "uint256"
        }
      ],
      "name": "claim",
      "outputs": [
        {
          "name": "",
          "type": "bool"
        }
      ],
      "payable": false,
      "stateMutability": "nonpayable",
      "type": "function"
    },
    {
      "constant": true,
      "inputs": [
        {
          "name": "",
          "type": "address"
        }
      ],
      "name": "addressToScore",
      "outputs": [
        {
          "name": "",
          "type": "uint256"
        }
      ],
      "payable": false,
      "stateMutability": "view",
      "type": "function"
    },
    {
      "constant": true,
      "inputs": [
        {
          "name": "_tokenId",
          "type": "uint256"
        }
      ],
      "name": "valueOf",
      "outputs": [
        {
          "name": "value",
          "type": "uint256"
        }
      ],
      "payable": false,
      "stateMutability": "view",
      "type": "function"
    },
    {
      "constant": true,
      "inputs": [
        {
          "name": "",
          "type": "address"
        },
        {
          "name": "",
          "type": "address"
        }
      ],
      "name": "allowanceAmt",
      "outputs": [
        {
          "name": "",
          "type": "uint256"
        }
      ],
      "payable": false,
      "stateMutability": "view",
      "type": "function"
    },
    {
      "constant": true,
      "inputs": [],
      "name": "maxLevel",
      "outputs": [
        {
          "name": "",
          "type": "uint256"
        }
      ],
      "payable": false,
      "stateMutability": "view",
      "type": "function"
    },
    {
      "constant": false,
      "inputs": [
        {
          "name": "_member",
          "type": "address"
        },
        {
          "name": "_score",
          "type": "uint256"
        },
        {
          "name": "_amount",
          "type": "uint256"
        }
      ],
      "name": "scoring",
      "outputs": [],
      "payable": false,
      "stateMutability": "nonpayable",
      "type": "function"
    },
    {
      "constant": true,
      "inputs": [],
      "name": "newOwner",
      "outputs": [
        {
          "name": "",
          "type": "address"
        }
      ],
      "payable": false,
      "stateMutability": "view",
      "type": "function"
    },
    {
      "constant": true,
      "inputs": [],
      "name": "apply",
      "outputs": [
        {
          "name": "amount",
          "type": "uint256"
        }
      ],
      "payable": false,
      "stateMutability": "view",
      "type": "function"
    },
    {
      "constant": true,
      "inputs": [
        {
          "name": "",
          "type": "address"
        },
        {
          "name": "",
          "type": "address"
        }
      ],
      "name": "allowance",
      "outputs": [
        {
          "name": "",
          "type": "uint256"
        }
      ],
      "payable": false,
      "stateMutability": "view",
      "type": "function"
    },
    {
      "constant": true,
      "inputs": [],
      "name": "getComission",
      "outputs": [
        {
          "name": "commission",
          "type": "uint256"
        }
      ],
      "payable": false,
      "stateMutability": "view",
      "type": "function"
    },
    {
      "constant": true,
      "inputs": [
        {
          "name": "_nodeId",
          "type": "uint256"
        }
      ],
      "name": "getPath",
      "outputs": [
        {
          "name": "path",
          "type": "uint256[]"
        }
      ],
      "payable": false,
      "stateMutability": "view",
      "type": "function"
    },
    {
      "constant": true,
      "inputs": [
        {
          "name": "",
          "type": "address"
        },
        {
          "name": "",
          "type": "address"
        }
      ],
      "name": "allowanceIds",
      "outputs": [
        {
          "name": "",
          "type": "uint256"
        }
      ],
      "payable": false,
      "stateMutability": "view",
      "type": "function"
    },
    {
      "constant": false,
      "inputs": [
        {
          "name": "_newOwner",
          "type": "address"
        }
      ],
      "name": "transferOwnership",
      "outputs": [],
      "payable": false,
      "stateMutability": "nonpayable",
      "type": "function"
    },
    {
      "constant": true,
      "inputs": [
        {
          "name": "_owner",
          "type": "address"
        },
        {
          "name": "_spender",
          "type": "address"
        }
      ],
      "name": "cAllowance",
      "outputs": [
        {
          "name": "",
          "type": "uint256"
        }
      ],
      "payable": false,
      "stateMutability": "view",
      "type": "function"
    },
    {
      "inputs": [
        {
          "name": "_name",
          "type": "string"
        },
        {
          "name": "_symbol",
          "type": "string"
        }
      ],
      "payable": false,
      "stateMutability": "nonpayable",
      "type": "constructor"
    },
    {
      "anonymous": false,
      "inputs": [
        {
          "indexed": false,
          "name": "member",
          "type": "address"
        },
        {
          "indexed": false,
          "name": "score",
          "type": "uint256"
        },
        {
          "indexed": false,
          "name": "amount",
          "type": "uint256"
        }
      ],
      "name": "Apply",
      "type": "event"
    },
    {
      "anonymous": false,
      "inputs": [
        {
          "indexed": false,
          "name": "member",
          "type": "address"
        },
        {
          "indexed": false,
          "name": "id",
          "type": "uint256"
        },
        {
          "indexed": false,
          "name": "amount",
          "type": "uint256"
        }
      ],
      "name": "Join",
      "type": "event"
    },
    {
      "anonymous": false,
      "inputs": [
        {
          "indexed": false,
          "name": "member",
          "type": "address"
        },
        {
          "indexed": false,
          "name": "score",
          "type": "uint256"
        },
        {
          "indexed": false,
          "name": "amount",
          "type": "uint256"
        }
      ],
      "name": "Scoring",
      "type": "event"
    },
    {
      "anonymous": false,
      "inputs": [
        {
          "indexed": false,
          "name": "id",
          "type": "uint256"
        },
        {
          "indexed": false,
          "name": "amount",
          "type": "uint256"
        },
        {
          "indexed": false,
          "name": "score",
          "type": "uint256"
        }
      ],
      "name": "Activate",
      "type": "event"
    },
    {
      "anonymous": false,
      "inputs": [
        {
          "indexed": false,
          "name": "id",
          "type": "uint256"
        },
        {
          "indexed": false,
          "name": "claim",
          "type": "uint256"
        }
      ],
      "name": "Claim",
      "type": "event"
    },
    {
      "anonymous": false,
      "inputs": [
        {
          "indexed": false,
          "name": "id",
          "type": "uint256"
        },
        {
          "indexed": false,
          "name": "poolId",
          "type": "uint256"
        },
        {
          "indexed": false,
          "name": "level",
          "type": "uint8"
        }
      ],
      "name": "InsertPool",
      "type": "event"
    },
    {
      "anonymous": false,
      "inputs": [
        {
          "indexed": false,
          "name": "id",
          "type": "uint256"
        },
        {
          "indexed": false,
          "name": "superPoolValue",
          "type": "uint256"
        },
        {
          "indexed": false,
          "name": "poolValue",
          "type": "uint256"
        },
        {
          "indexed": false,
          "name": "subPoolValue",
          "type": "uint256"
        },
        {
          "indexed": false,
          "name": "comission",
          "type": "uint256"
        }
      ],
      "name": "DistributeValue",
      "type": "event"
    },
    {
      "anonymous": false,
      "inputs": [
        {
          "indexed": false,
          "name": "id",
          "type": "uint256"
        },
        {
          "indexed": false,
          "name": "value",
          "type": "uint256"
        }
      ],
      "name": "SecondTierCall",
      "type": "event"
    },
    {
      "anonymous": false,
      "inputs": [
        {
          "indexed": false,
          "name": "id",
          "type": "uint256"
        },
        {
          "indexed": false,
          "name": "poolId",
          "type": "uint256"
        },
        {
          "indexed": false,
          "name": "value",
          "type": "uint256"
        },
        {
          "indexed": false,
          "name": "level",
          "type": "uint8"
        }
      ],
      "name": "ShortOfFunds",
      "type": "event"
    },
    {
      "anonymous": false,
      "inputs": [
        {
          "indexed": false,
          "name": "id",
          "type": "uint256"
        },
        {
          "indexed": false,
          "name": "value",
          "type": "uint256"
        },
        {
          "indexed": false,
          "name": "level",
          "type": "uint8"
        }
      ],
      "name": "PaymentValue",
      "type": "event"
    },
    {
      "anonymous": false,
      "inputs": [
        {
          "indexed": false,
          "name": "nodeId",
          "type": "uint256"
        },
        {
          "indexed": false,
          "name": "parentId",
          "type": "uint256"
        },
        {
          "indexed": false,
          "name": "level",
          "type": "uint256"
        }
      ],
      "name": "AddToken",
      "type": "event"
    },
    {
      "anonymous": false,
      "inputs": [
        {
          "indexed": false,
          "name": "nodeId",
          "type": "uint256"
        },
        {
          "indexed": false,
          "name": "level",
          "type": "uint256"
        }
      ],
      "name": "RemoveToken",
      "type": "event"
    },
    {
      "anonymous": false,
      "inputs": [
        {
          "indexed": false,
          "name": "from",
          "type": "address"
        },
        {
          "indexed": false,
          "name": "fromId",
          "type": "uint256"
        },
        {
          "indexed": false,
          "name": "to",
          "type": "address"
        },
        {
          "indexed": false,
          "name": "toId",
          "type": "uint256"
        },
        {
          "indexed": false,
          "name": "value",
          "type": "uint256"
        }
      ],
      "name": "Transfer",
      "type": "event"
    },
    {
      "anonymous": false,
      "inputs": [
        {
          "indexed": false,
          "name": "to",
          "type": "address"
        },
        {
          "indexed": false,
          "name": "toId",
          "type": "uint256"
        },
        {
          "indexed": false,
          "name": "value",
          "type": "uint256"
        }
      ],
      "name": "AddValue",
      "type": "event"
    },
    {
      "anonymous": false,
      "inputs": [
        {
          "indexed": false,
          "name": "from",
          "type": "address"
        },
        {
          "indexed": false,
          "name": "fromId",
          "type": "uint256"
        },
        {
          "indexed": false,
          "name": "value",
          "type": "uint256"
        }
      ],
      "name": "RemoveValue",
      "type": "event"
    },
    {
      "anonymous": false,
      "inputs": [
        {
          "indexed": false,
          "name": "to",
          "type": "address"
        },
        {
          "indexed": false,
          "name": "toId",
          "type": "uint256"
        },
        {
          "indexed": false,
          "name": "level",
          "type": "uint256"
        }
      ],
      "name": "SetLevel",
      "type": "event"
    },
    {
      "anonymous": false,
      "inputs": [
        {
          "indexed": false,
          "name": "to",
          "type": "address"
        },
        {
          "indexed": false,
          "name": "toId",
          "type": "uint256"
        }
      ],
      "name": "IncreaseLevel",
      "type": "event"
    },
    {
      "anonymous": false,
      "inputs": [
        {
          "indexed": true,
          "name": "_prevOwner",
          "type": "address"
        },
        {
          "indexed": true,
          "name": "_newOwner",
          "type": "address"
        }
      ],
      "name": "OwnerUpdate",
      "type": "event"
    },
    {
      "anonymous": false,
      "inputs": [
        {
          "indexed": false,
          "name": "fromId",
          "type": "uint256"
        },
        {
          "indexed": false,
          "name": "spender",
          "type": "address"
        },
        {
          "indexed": false,
          "name": "toId",
          "type": "uint256"
        },
        {
          "indexed": false,
          "name": "value",
          "type": "uint256"
        }
      ],
      "name": "CApproveFrom",
      "type": "event"
    },
    {
      "anonymous": false,
      "inputs": [
        {
          "indexed": false,
          "name": "spender",
          "type": "address"
        },
        {
          "indexed": false,
          "name": "value",
          "type": "uint256"
        }
      ],
      "name": "CApprove",
      "type": "event"
    },
    {
      "anonymous": false,
      "inputs": [
        {
          "indexed": false,
          "name": "from",
          "type": "address"
        },
        {
          "indexed": false,
          "name": "fromId",
          "type": "uint256"
        },
        {
          "indexed": false,
          "name": "to",
          "type": "address"
        },
        {
          "indexed": false,
          "name": "toId",
          "type": "uint256"
        },
        {
          "indexed": false,
          "name": "value",
          "type": "uint256"
        },
        {
          "indexed": false,
          "name": "allowance",
          "type": "uint256"
        }
      ],
      "name": "CTransferFrom",
      "type": "event"
    },
    {
      "anonymous": false,
      "inputs": [
        {
          "indexed": false,
          "name": "to",
          "type": "address"
        },
        {
          "indexed": false,
          "name": "toId",
          "type": "uint256"
        },
        {
          "indexed": false,
          "name": "amount",
          "type": "uint256"
        }
      ],
      "name": "CIssue",
      "type": "event"
    },
    {
      "anonymous": false,
      "inputs": [
        {
          "indexed": false,
          "name": "from",
          "type": "address"
        },
        {
          "indexed": false,
          "name": "fromId",
          "type": "uint256"
        },
        {
          "indexed": false,
          "name": "amount",
          "type": "uint256"
        }
      ],
      "name": "CDestroy",
      "type": "event"
    },
    {
      "anonymous": false,
      "inputs": [
        {
          "indexed": false,
          "name": "from",
          "type": "address"
        },
        {
          "indexed": false,
          "name": "to",
          "type": "address"
        },
        {
          "indexed": false,
          "name": "tokenId",
          "type": "uint256"
        }
      ],
      "name": "Transfer",
      "type": "event"
    },
    {
      "anonymous": false,
      "inputs": [
        {
          "indexed": false,
          "name": "owner",
          "type": "address"
        },
        {
          "indexed": false,
          "name": "approved",
          "type": "address"
        },
        {
          "indexed": false,
          "name": "tokenId",
          "type": "uint256"
        }
      ],
      "name": "Approval",
      "type": "event"
    },
    {
      "anonymous": false,
      "inputs": [
        {
          "indexed": false,
          "name": "value",
          "type": "uint256"
        },
        {
          "indexed": false,
          "name": "metadata",
          "type": "string"
        },
        {
          "indexed": false,
          "name": "kind",
          "type": "uint256"
        },
        {
          "indexed": false,
          "name": "owner",
          "type": "address"
        }
      ],
      "name": "Birth",
      "type": "event"
    }
  ],
  "bytecode": "0x606060405234156200001057600080fd5b604051620066ca380380620066ca83398101604052808051820191906020018051820191905050818160008060006200004862000be6565b6200005262000be6565b6200005c62000be6565b87878181818133600260006101000a81548173ffffffffffffffffffffffffffffffffffffffff021916908373ffffffffffffffffffffffffffffffffffffffff1602179055508160009080519060200190620000bb92919062000c20565b508060019080519060200190620000d492919062000c20565b50505033600a60006101000a81548173ffffffffffffffffffffffffffffffffffffffff021916908373ffffffffffffffffffffffffffffffffffffffff16021790555050506004600c8190555050506004600c81905550620001a760006040805190810160405280600981526020017f5375706572506f6f6c00000000000000000000000000000000000000000000008152506001600a60009054906101000a900473ffffffffffffffffffffffffffffffffffffffff16620006066401000000000262005060176401000000009004565b95506200022460006040805190810160405280600481526020017f506f6f6c000000000000000000000000000000000000000000000000000000008152506001600a60009054906101000a900473ffffffffffffffffffffffffffffffffffffffff16620006066401000000000262005060176401000000009004565b9450620002a160006040805190810160405280600781526020017f537562506f6f6c000000000000000000000000000000000000000000000000008152506002600a60009054906101000a900473ffffffffffffffffffffffffffffffffffffffff16620006066401000000000262005060176401000000009004565b9350620002c385876200086c64010000000002620018d9176401000000009004565b620002e384866200086c64010000000002620018d9176401000000009004565b60c060405190810160405280600060ff16815260200160018152602001600a815260200160018152602001878152602001600a8152509250600e805480600101828162000331919062000ca7565b9160005260206000209060060201600085909190915060008201518160000160006101000a81548160ff021916908360ff1602179055506020820151816001015560408201518160020155606082015181600301556080820151816004015560a0820151816005015550505060c060405190810160405280600160ff168152602001600a8152602001606481526020016001815260200186815260200160148152509150600e8054806001018281620003eb919062000ca7565b9160005260206000209060060201600084909190915060008201518160000160006101000a81548160ff021916908360ff1602179055506020820151816001015560408201518160020155606082015181600301556080820151816004015560a0820151816005015550505060c060405190810160405280600260ff1681526020016103e88152602001606481526020016001815260200185815260200160328152509050600e8054806001018281620004a6919062000ca7565b9160005260206000209060060201600083909190915060008201518160000160006101000a81548160ff021916908360ff1602179055506020820151816001015560408201518160020155606082015181600301556080820151816004015560a08201518160050155505050505050505050505042600f600001819055506000600f6001018190555062ed4e00600f6002018190555067016345785d8a0000600f60030181905550678ac7230489e80000600f6004018190555067ad78ebc5ac620000600f600501819055506064600f60060181905550600060058111156200058b57fe5b600f600701819055506000600f600801819055506202a300600f60090160006101000a81548160ff021916908360ff1602179055506000600f60090160016101000a81548160ff021916908360ff1602179055506000600f60090160026101000a81548160ff021916908360ff160217905550505062000f0a565b60006200061262000cdc565b600060a060405190810160405280888152602001878152602001868152602001600081526020016000815250915060016003805480600101828162000658919062000d14565b916000526020600020906005020160008590919091506000820151816000015560208201518160010190805190602001906200069692919062000d49565b506040820151816002015560608201518160030155608082015181600401555050039050600063ffffffff168114156200074557600160038054806001018281620006e2919062000d14565b916000526020600020906005020160008590919091506000820151816000015560208201518160010190805190602001906200072092919062000d49565b5060408201518160020155606082015181600301556080820151816004015550500390505b8063ffffffff16811415156200075a57600080fd5b7fdea8e87d69047e1b3cd43ad599d34e3eacfe4408b4dfc5d0f6ac6a15a468de5c8787878760405180858152602001806020018481526020018373ffffffffffffffffffffffffffffffffffffffff1673ffffffffffffffffffffffffffffffffffffffff168152602001828103825285818151815260200191508051906020019080838360005b83811015620007ff578082015181840152602081019050620007e2565b50505050905090810190601f1680156200082d5780820380516001836020036101000a031916815260200191505b509550505050505060405180910390a16200085f60008583620009b36401000000000262004a01176401000000009004565b8092505050949350505050565b6000821415801562000882575060038054905082105b15156200088e57600080fd5b60008114158015620008a4575060038054905081105b1515620008b057600080fd5b6001600c5403600382815481101515620008c657fe5b906000526020600020906005020160030154101515620008e557600080fd5b80600d60008481526020019081526020016000208190555060016003828154811015156200090f57fe5b906000526020600020906005020160030154016003838154811015156200093257fe5b9060005260206000209060050201600301819055507f0900f87897aa374bb21fa36753905fa2944dd2301242246101a9047a0ed227a082826003858154811015156200097a57fe5b90600052602060002090600502016003015460405180848152602001838152602001828152602001935050505060405180910390a15050565b610400600382815481101515620009c657fe5b90600052602060002090600502016004015414151515620009e357fe5b600560008373ffffffffffffffffffffffffffffffffffffffff1673ffffffffffffffffffffffffffffffffffffffff16815260200190815260200160002060008154809291906001019190505550816004600083815260200190815260200160002060006101000a81548173ffffffffffffffffffffffffffffffffffffffff021916908373ffffffffffffffffffffffffffffffffffffffff160217905550600073ffffffffffffffffffffffffffffffffffffffff168373ffffffffffffffffffffffffffffffffffffffff1614151562000b4257600560008473ffffffffffffffffffffffffffffffffffffffff1673ffffffffffffffffffffffffffffffffffffffff16815260200190815260200160002060008154809291906001900391905055506006600082815260200190815260200160002060006101000a81549073ffffffffffffffffffffffffffffffffffffffff02191690555b7fddf252ad1be2c89b69c2b068fc378daa952ba7f163c4a11628f55a4df523b3ef838383604051808473ffffffffffffffffffffffffffffffffffffffff1673ffffffffffffffffffffffffffffffffffffffff1681526020018373ffffffffffffffffffffffffffffffffffffffff1673ffffffffffffffffffffffffffffffffffffffff168152602001828152602001935050505060405180910390a1505050565b60c060405190810160405280600060ff16815260200160008152602001600081526020016000815260200160008152602001600081525090565b828054600181600116156101000203166002900490600052602060002090601f016020900481019282601f1062000c6357805160ff191683800117855562000c94565b8280016001018555821562000c94579182015b8281111562000c9357825182559160200191906001019062000c76565b5b50905062000ca3919062000dd0565b5090565b81548183558181151162000cd75760060281600602836000526020600020918201910162000cd6919062000df8565b5b505050565b60a0604051908101604052806000815260200162000cf962000e56565b81526020016000815260200160008152602001600081525090565b81548183558181151162000d445760050281600502836000526020600020918201910162000d43919062000e6a565b5b505050565b828054600181600116156101000203166002900490600052602060002090601f016020900481019282601f1062000d8c57805160ff191683800117855562000dbd565b8280016001018555821562000dbd579182015b8281111562000dbc57825182559160200191906001019062000d9f565b5b50905062000dcc919062000dd0565b5090565b62000df591905b8082111562000df157600081600090555060010162000dd7565b5090565b90565b62000e5391905b8082111562000e4f57600080820160006101000a81549060ff0219169055600182016000905560028201600090556003820160009055600482016000905560058201600090555060060162000dff565b5090565b90565b602060405190810160405280600081525090565b62000ebb91905b8082111562000eb75760008082016000905560018201600062000e95919062000ebe565b6002820160009055600382016000905560048201600090555060050162000e71565b5090565b90565b50805460018160011615610100020316600290046000825580601f1062000ee6575062000f07565b601f01602090049060005260206000209081019062000f06919062000dd0565b5b50565b6157b08062000f1a6000396000f300606060405260043610610271576000357c0100000000000000000000000000000000000000000000000000000000900463ffffffff168062607b7f146102765780630185c003146102b157806301ffc9a71461034757806306fdde03146103a1578063095ea7b31461042f57806317b9ebec1461047157806318160ddd1461049d5780631cced51b146104c65780631d36e06c1461051757806323b872dd1461057a57806329625005146105db57806332c4ee831461062657806336c5d7241461068057806339e6cdb1146106a35780633c7e7d28146106e55780634cabcfac14610732578063545c3d551461077d5780636352211e146107c857806366d80ba51461082b5780636914db60146108855780636f2ddd931461092157806370a08231146109a957806379ba5097146109f65780638462151c14610a0b5780638da5cb5b14610a995780638f1fc77c14610aee57806395d89b4114610b1757806398dc5c9514610ba55780639ca0883114610c11578063a3ec138d14610c48578063a8bd9c3214610ca7578063a9059cbb14610d0a578063b121f2ac14610d4c578063b135707914610da2578063b260c42a14610def578063b688a36314610e12578063b9f05f2f14610e30578063bf62266514610e72578063c349026314610eeb578063c52380e914610f2f578063cadf338f14610f7c578063cbbc9f8914610fb3578063cc06c3591461101f578063cf7c436714611048578063d4ee1d9014611093578063db595b3b146110e8578063dd62ed3e14611111578063dd6d3ca71461117d578063e1765073146111a6578063e527cc9d1461121e578063f2fde38b1461128a578063f81fd7ea146112c3575b600080fd5b341561028157600080fd5b610297600480803590602001909190505061132f565b604051808215151515815260200191505060405180910390f35b34156102bc57600080fd5b6102d260048080359060200190919050506113d7565b604051808d81526020018c81526020018b81526020018a81526020018981526020018881526020018781526020018681526020018581526020018460ff1660ff1681526020018360ff1660ff1681526020018260ff1660ff1681526020019c5050505050505050505050505060405180910390f35b341561035257600080fd5b61038760048080357bffffffffffffffffffffffffffffffffffffffffffffffffffffffff191690602001909190505061145e565b604051808215151515815260200191505060405180910390f35b34156103ac57600080fd5b6103b461176f565b6040518080602001828103825283818151815260200191508051906020019080838360005b838110156103f45780820151818401526020810190506103d9565b50505050905090810190601f1680156104215780820380516001836020036101000a031916815260200191505b509250505060405180910390f35b341561043a57600080fd5b61046f600480803573ffffffffffffffffffffffffffffffffffffffff16906020019091908035906020019091905050611817565b005b341561047c57600080fd5b61049b60048080359060200190919080359060200190919050506118d9565b005b34156104a857600080fd5b6104b0611a17565b6040518082815260200191505060405180910390f35b34156104d157600080fd5b6104d9611a39565b6040518082600460200280838360005b838110156105045780820151818401526020810190506104e9565b5050505090500191505060405180910390f35b341561052257600080fd5b6105386004808035906020019091905050611ba6565b604051808273ffffffffffffffffffffffffffffffffffffffff1673ffffffffffffffffffffffffffffffffffffffff16815260200191505060405180910390f35b341561058557600080fd5b6105d9600480803573ffffffffffffffffffffffffffffffffffffffff1690602001909190803573ffffffffffffffffffffffffffffffffffffffff16906020019091908035906020019091905050611bd9565b005b34156105e657600080fd5b610624600480803573ffffffffffffffffffffffffffffffffffffffff16906020019091908035906020019091908035906020019091905050611c8a565b005b341561063157600080fd5b610666600480803573ffffffffffffffffffffffffffffffffffffffff16906020019091908035906020019091905050611d95565b604051808215151515815260200191505060405180910390f35b341561068b57600080fd5b6106a1600480803590602001909190505061202a565b005b34156106ae57600080fd5b6106e3600480803573ffffffffffffffffffffffffffffffffffffffff169060200190919080359060200190919050506120df565b005b34156106f057600080fd5b61071c600480803573ffffffffffffffffffffffffffffffffffffffff16906020019091905050612204565b6040518082815260200191505060405180910390f35b341561073d57600080fd5b61077b600480803573ffffffffffffffffffffffffffffffffffffffff1690602001909190803590602001909190803590602001909190505061221c565b005b341561078857600080fd5b6107c6600480803573ffffffffffffffffffffffffffffffffffffffff16906020019091908035906020019091908035906020019091905050612315565b005b34156107d357600080fd5b6107e9600480803590602001909190505061240e565b604051808273ffffffffffffffffffffffffffffffffffffffff1673ffffffffffffffffffffffffffffffffffffffff16815260200191505060405180910390f35b341561083657600080fd5b61086b600480803573ffffffffffffffffffffffffffffffffffffffff1690602001909190803590602001909190505061248c565b604051808215151515815260200191505060405180910390f35b341561089057600080fd5b6108a660048080359060200190919050506124f2565b6040518080602001828103825283818151815260200191508051906020019080838360005b838110156108e65780820151818401526020810190506108cb565b50505050905090810190601f1680156109135780820380516001836020036101000a031916815260200191505b509250505060405180910390f35b341561092c57600080fd5b6109346125ba565b604051808d81526020018c81526020018b81526020018a81526020018981526020018881526020018781526020018681526020018581526020018460ff1660ff1681526020018360ff1660ff1681526020018260ff1660ff1681526020019c5050505050505050505050505060405180910390f35b34156109b457600080fd5b6109e0600480803573ffffffffffffffffffffffffffffffffffffffff1690602001909190505061262f565b6040518082815260200191505060405180910390f35b3415610a0157600080fd5b610a09612678565b005b3415610a1657600080fd5b610a42600480803573ffffffffffffffffffffffffffffffffffffffff16906020019091905050612819565b6040518080602001828103825283818151815260200191508051906020019060200280838360005b83811015610a85578082015181840152602081019050610a6a565b505050509050019250505060405180910390f35b3415610aa457600080fd5b610aac612831565b604051808273ffffffffffffffffffffffffffffffffffffffff1673ffffffffffffffffffffffffffffffffffffffff16815260200191505060405180910390f35b3415610af957600080fd5b610b01612857565b6040518082815260200191505060405180910390f35b3415610b2257600080fd5b610b2a6128b1565b6040518080602001828103825283818151815260200191508051906020019080838360005b83811015610b6a578082015181840152602081019050610b4f565b50505050905090810190601f168015610b975780820380516001836020036101000a031916815260200191505b509250505060405180910390f35b3415610bb057600080fd5b610bf7600480803590602001909190803573ffffffffffffffffffffffffffffffffffffffff16906020019091908035906020019091908035906020019091905050612959565b604051808215151515815260200191505060405180910390f35b3415610c1c57600080fd5b610c326004808035906020019091905050612be5565b6040518082815260200191505060405180910390f35b3415610c5357600080fd5b610c7f600480803573ffffffffffffffffffffffffffffffffffffffff16906020019091905050612bfd565b6040518084815260200183151515158152602001828152602001935050505060405180910390f35b3415610cb257600080fd5b610cc86004808035906020019091905050612c34565b604051808273ffffffffffffffffffffffffffffffffffffffff1673ffffffffffffffffffffffffffffffffffffffff16815260200191505060405180910390f35b3415610d1557600080fd5b610d4a600480803573ffffffffffffffffffffffffffffffffffffffff16906020019091908035906020019091905050612c67565b005b3415610d5757600080fd5b610d8c600480803573ffffffffffffffffffffffffffffffffffffffff16906020019091908035906020019091905050612d02565b6040518082815260200191505060405180910390f35b3415610dad57600080fd5b610dd9600480803573ffffffffffffffffffffffffffffffffffffffff16906020019091905050612d42565b6040518082815260200191505060405180910390f35b3415610dfa57600080fd5b610e106004808035906020019091905050612dc6565b005b610e1a612ef0565b6040518082815260200191505060405180910390f35b3415610e3b57600080fd5b610e70600480803573ffffffffffffffffffffffffffffffffffffffff16906020019091908035906020019091905050613277565b005b3415610e7d57600080fd5b610ed1600480803573ffffffffffffffffffffffffffffffffffffffff1690602001909190803573ffffffffffffffffffffffffffffffffffffffff16906020019091908035906020019091905050613444565b604051808215151515815260200191505060405180910390f35b3415610ef657600080fd5b610f156004808035906020019091908035906020019091905050613ab9565b604051808215151515815260200191505060405180910390f35b3415610f3a57600080fd5b610f66600480803573ffffffffffffffffffffffffffffffffffffffff16906020019091905050613bee565b6040518082815260200191505060405180910390f35b3415610f8757600080fd5b610f9d6004808035906020019091905050613c06565b6040518082815260200191505060405180910390f35b3415610fbe57600080fd5b611009600480803573ffffffffffffffffffffffffffffffffffffffff1690602001909190803573ffffffffffffffffffffffffffffffffffffffff16906020019091905050613c30565b6040518082815260200191505060405180910390f35b341561102a57600080fd5b611032613c55565b6040518082815260200191505060405180910390f35b341561105357600080fd5b611091600480803573ffffffffffffffffffffffffffffffffffffffff16906020019091908035906020019091908035906020019091905050613c5b565b005b341561109e57600080fd5b6110a6613e10565b604051808273ffffffffffffffffffffffffffffffffffffffff1673ffffffffffffffffffffffffffffffffffffffff16815260200191505060405180910390f35b34156110f357600080fd5b6110fb613e36565b6040518082815260200191505060405180910390f35b341561111c57600080fd5b611167600480803573ffffffffffffffffffffffffffffffffffffffff1690602001909190803573ffffffffffffffffffffffffffffffffffffffff16906020019091905050613f34565b6040518082815260200191505060405180910390f35b341561118857600080fd5b611190613f59565b6040518082815260200191505060405180910390f35b34156111b157600080fd5b6111c76004808035906020019091905050613f82565b6040518080602001828103825283818151815260200191508051906020019060200280838360005b8381101561120a5780820151818401526020810190506111ef565b505050509050019250505060405180910390f35b341561122957600080fd5b611274600480803573ffffffffffffffffffffffffffffffffffffffff1690602001909190803573ffffffffffffffffffffffffffffffffffffffff16906020019091905050613ff9565b6040518082815260200191505060405180910390f35b341561129557600080fd5b6112c1600480803573ffffffffffffffffffffffffffffffffffffffff1690602001909190505061401e565b005b34156112ce57600080fd5b611319600480803573ffffffffffffffffffffffffffffffffffffffff1690602001909190803573ffffffffffffffffffffffffffffffffffffffff16906020019091905050614118565b6040518082815260200191505060405180910390f35b6000600a60009054906101000a900473ffffffffffffffffffffffffffffffffffffffff1673ffffffffffffffffffffffffffffffffffffffff163373ffffffffffffffffffffffffffffffffffffffff1614151561138a57fe5b6000821415801561139f575060038054905082105b15156113aa57600080fd5b6113b5826002614216565b15156113bd57fe5b6113c6826144f8565b15156113ce57fe5b60019050919050565b601b6020528060005260406000206000915090508060000154908060010154908060020154908060030154908060040154908060050154908060060154908060070154908060080154908060090160009054906101000a900460ff16908060090160019054906101000a900460ff16908060090160029054906101000a900460ff1690508c565b600060405180807f737570706f727473496e74657266616365286279746573342900000000000000815250601901905060405180910390207bffffffffffffffffffffffffffffffffffffffffffffffffffffffff1916827bffffffffffffffffffffffffffffffffffffffffffffffffffffffff19161480611768575060405180807f746f6b656e4d657461646174612875696e743235362c737472696e6729000000815250601d019050604051809103902060405180807f746f6b656e734f664f776e6572286164647265737329000000000000000000008152506016019050604051809103902060405180807f7472616e7366657246726f6d28616464726573732c616464726573732c75696e81526020017f74323536290000000000000000000000000000000000000000000000000000008152506025019050604051809103902060405180807f7472616e7366657228616464726573732c75696e7432353629000000000000008152506019019050604051809103902060405180807f617070726f766528616464726573732c75696e743235362900000000000000008152506018019050604051809103902060405180807f6f776e65724f662875696e7432353629000000000000000000000000000000008152506010019050604051809103902060405180807f62616c616e63654f6628616464726573732900000000000000000000000000008152506012019050604051809103902060405180807f746f74616c537570706c79282900000000000000000000000000000000000000815250600d019050604051809103902060405180807f73796d626f6c28290000000000000000000000000000000000000000000000008152506008019050604051809103902060405180807f6e616d6528290000000000000000000000000000000000000000000000000000815250600601905060405180910390201818181818181818187bffffffffffffffffffffffffffffffffffffffffffffffffffffffff1916827bffffffffffffffffffffffffffffffffffffffffffffffffffffffff1916145b9050919050565b6117776154ed565b60008054600181600116156101000203166002900480601f01602080910402602001604051908101604052809291908181526020018280546001816001161561010002031660029004801561180d5780601f106117e25761010080835404028352916020019161180d565b820191906000526020600020905b8154815290600101906020018083116117f057829003601f168201915b5050505050905090565b61182133826148d3565b151561182c57600080fd5b611836818361493f565b7f8c5be1e5ebec7d5bd14f71427d1e84f3dd0314c0f7b2291e5b200ac8c7c3b925338383604051808473ffffffffffffffffffffffffffffffffffffffff1673ffffffffffffffffffffffffffffffffffffffff1681526020018373ffffffffffffffffffffffffffffffffffffffff1673ffffffffffffffffffffffffffffffffffffffff168152602001828152602001935050505060405180910390a15050565b600082141580156118ee575060038054905082105b15156118f957600080fd5b6000811415801561190e575060038054905081105b151561191957600080fd5b6001600c540360038281548110151561192e57fe5b90600052602060002090600502016003015410151561194c57600080fd5b80600d600084815260200190815260200160002081905550600160038281548110151561197557fe5b9060005260206000209060050201600301540160038381548110151561199757fe5b9060005260206000209060050201600301819055507f0900f87897aa374bb21fa36753905fa2944dd2301242246101a9047a0ed227a082826003858154811015156119de57fe5b90600052602060002090600502016003015460405180848152602001838152602001828152602001935050505060405180910390a15050565b60008060038054905090506000811115611a32576001810390505b8091505090565b611a41615501565b6000806000836000600481101515611a5557fe5b6020020181815250506000836001600481101515611a6f57fe5b6020020181815250506000836002600481101515611a8957fe5b6020020181815250506000836003600481101515611aa357fe5b602002018181525050600190505b600380549050811015611ba157600381815481101515611acd57fe5b9060005260206000209060050201600301549150600c548260ff161015611b4557600381815481101515611afd57fe5b906000526020600020906005020160000154838360ff16600481101515611b2057fe5b602002015101838360ff16600481101515611b3757fe5b602002018181525050611b94565b600381815481101515611b5457fe5b906000526020600020906005020160000154836003600481101515611b7557fe5b602002015101836003600481101515611b8a57fe5b6020020181815250505b8080600101915050611ab1565b505090565b60046020528060005260406000206000915054906101000a900473ffffffffffffffffffffffffffffffffffffffff1681565b600073ffffffffffffffffffffffffffffffffffffffff168273ffffffffffffffffffffffffffffffffffffffff1614151515611c1557600080fd5b3073ffffffffffffffffffffffffffffffffffffffff168273ffffffffffffffffffffffffffffffffffffffff1614151515611c5057600080fd5b611c5a3382614995565b1515611c6557600080fd5b611c6f83826148d3565b1515611c7a57600080fd5b611c85838383614a01565b505050565b600a60009054906101000a900473ffffffffffffffffffffffffffffffffffffffff1673ffffffffffffffffffffffffffffffffffffffff163373ffffffffffffffffffffffffffffffffffffffff16141515611ce357fe5b611ced83836148d3565b1515611cf857600080fd5b80600383815481101515611d0857fe5b9060005260206000209060050201600301819055507f48ed1b5769aee6cf16cda3da1db2a0acf83c194c9d2a98ebeff4904567af58f6838383604051808473ffffffffffffffffffffffffffffffffffffffff1673ffffffffffffffffffffffffffffffffffffffff168152602001838152602001828152602001935050505060405180910390a1505050565b600080600080600073ffffffffffffffffffffffffffffffffffffffff168673ffffffffffffffffffffffffffffffffffffffff1614151515611dd757600080fd5b60008514151515611de757600080fd5b339250611df383614c31565b9150611dfe86614c31565b9050808214151515611e0f57600080fd5b60008214151515611e1f57600080fd5b60008114151515611e2f57600080fd5b80600860008573ffffffffffffffffffffffffffffffffffffffff1673ffffffffffffffffffffffffffffffffffffffff16815260200190815260200160002060008873ffffffffffffffffffffffffffffffffffffffff1673ffffffffffffffffffffffffffffffffffffffff1681526020019081526020016000208190555081600860008573ffffffffffffffffffffffffffffffffffffffff1673ffffffffffffffffffffffffffffffffffffffff16815260200190815260200160002060008573ffffffffffffffffffffffffffffffffffffffff1673ffffffffffffffffffffffffffffffffffffffff1681526020019081526020016000208190555084600960008573ffffffffffffffffffffffffffffffffffffffff1673ffffffffffffffffffffffffffffffffffffffff16815260200190815260200160002060008873ffffffffffffffffffffffffffffffffffffffff1673ffffffffffffffffffffffffffffffffffffffff168152602001908152602001600020819055507fe051949e9a44e2e9c21ee7d1c7b03ef0bf501aa3b7c4616a8543f229c0bede7a8686604051808373ffffffffffffffffffffffffffffffffffffffff1673ffffffffffffffffffffffffffffffffffffffff1681526020018281526020019250505060405180910390a16001935050505092915050565b6000808214158015612040575060038054905082105b151561204b57600080fd5b61205482614c81565b905060008114151561206557600080fd5b600d6000838152602001908152602001600020600090557f399c331be71add502e95a2402ba7370605a945c1c6c1dc01c5e30f7e896cfa56826003848154811015156120ad57fe5b906000526020600020906005020160030154604051808381526020018281526020019250505060405180910390a15050565b600a60009054906101000a900473ffffffffffffffffffffffffffffffffffffffff1673ffffffffffffffffffffffffffffffffffffffff163373ffffffffffffffffffffffffffffffffffffffff1614151561213857fe5b61214282826148d3565b151561214d57600080fd5b600160038281548110151561215e57fe5b9060005260206000209060050201600301540160038281548110151561218057fe5b9060005260206000209060050201600301819055507fb6ffa2bc58069f160ac94855c396bc8a7c591ae4b9e69d78cc004ad2e4d70d858282604051808373ffffffffffffffffffffffffffffffffffffffff1673ffffffffffffffffffffffffffffffffffffffff1681526020018281526020019250505060405180910390a15050565b60196020528060005260406000206000915090505481565b60008073ffffffffffffffffffffffffffffffffffffffff168473ffffffffffffffffffffffffffffffffffffffff161415151561225957600080fd5b6000821415151561226957600080fd5b82905060008114156122815761227e84614c31565b90505b6000811415151561229157600080fd5b61229c848284614cf9565b7f8ee078ba6dd38678f9ffdc8f1df2d512559df0cae2db32c829459127e1003197848484604051808473ffffffffffffffffffffffffffffffffffffffff1673ffffffffffffffffffffffffffffffffffffffff168152602001838152602001828152602001935050505060405180910390a150505050565b60008073ffffffffffffffffffffffffffffffffffffffff168473ffffffffffffffffffffffffffffffffffffffff161415151561235257600080fd5b6000821415151561236257600080fd5b829050600081141561237a5761237784614c31565b90505b6000811415151561238a57600080fd5b612395848284614e0c565b7ff3d0e22890d929d2a1cd5ca9e5f6498c4271ce2f0223ab4092297c2d11c9ef75848484604051808473ffffffffffffffffffffffffffffffffffffffff1673ffffffffffffffffffffffffffffffffffffffff168152602001838152602001828152602001935050505060405180910390a150505050565b6000806004600084815260200190815260200160002060009054906101000a900473ffffffffffffffffffffffffffffffffffffffff169050600073ffffffffffffffffffffffffffffffffffffffff168173ffffffffffffffffffffffffffffffffffffffff161415151561248357600080fd5b80915050919050565b600080600073ffffffffffffffffffffffffffffffffffffffff168473ffffffffffffffffffffffffffffffffffffffff16141515156124cb57600080fd5b600083141515156124db57600080fd5b3390506124e9818585613444565b91505092915050565b6124fa6154ed565b60038281548110151561250957fe5b90600052602060002090600502016001018054600181600116156101000203166002900480601f0160208091040260200160405190810160405280929190818152602001828054600181600116156101000203166002900480156125ae5780601f10612583576101008083540402835291602001916125ae565b820191906000526020600020905b81548152906001019060200180831161259157829003601f168201915b50505050509050919050565b600f8060000154908060010154908060020154908060030154908060040154908060050154908060060154908060070154908060080154908060090160009054906101000a900460ff16908060090160019054906101000a900460ff16908060090160029054906101000a900460ff1690508c565b6000600560008373ffffffffffffffffffffffffffffffffffffffff1673ffffffffffffffffffffffffffffffffffffffff168152602001908152602001600020549050919050565b600b60009054906101000a900473ffffffffffffffffffffffffffffffffffffffff1673ffffffffffffffffffffffffffffffffffffffff163373ffffffffffffffffffffffffffffffffffffffff161415156126d457600080fd5b600b60009054906101000a900473ffffffffffffffffffffffffffffffffffffffff1673ffffffffffffffffffffffffffffffffffffffff16600a60009054906101000a900473ffffffffffffffffffffffffffffffffffffffff1673ffffffffffffffffffffffffffffffffffffffff167f343765429aea5a34b3ff6a3785a98a5abb2597aca87bfbb58632c173d585373a60405160405180910390a3600b60009054906101000a900473ffffffffffffffffffffffffffffffffffffffff16600a60006101000a81548173ffffffffffffffffffffffffffffffffffffffff021916908373ffffffffffffffffffffffffffffffffffffffff1602179055506000600b60006101000a81548173ffffffffffffffffffffffffffffffffffffffff021916908373ffffffffffffffffffffffffffffffffffffffff160217905550565b612821615529565b61282a82614ef0565b9050919050565b600a60009054906101000a900473ffffffffffffffffffffffffffffffffffffffff1681565b600080600080600092506003805490509150600190505b818110156128a85760038181548110151561288557fe5b90600052602060002090600502016000015483019250808060010191505061286e565b82935050505090565b6128b96154ed565b60018054600181600116156101000203166002900480601f01602080910402602001604051908101604052809291908181526020018280546001816001161561010002031660029004801561294f5780601f106129245761010080835404028352916020019161294f565b820191906000526020600020905b81548152906001019060200180831161293257829003601f168201915b5050505050905090565b600080600073ffffffffffffffffffffffffffffffffffffffff168573ffffffffffffffffffffffffffffffffffffffff161415151561299857600080fd5b8386141515156129a757600080fd5b600086141515156129b757600080fd5b600084141515156129c757600080fd5b600083141515156129d757600080fd5b33905083600860008373ffffffffffffffffffffffffffffffffffffffff1673ffffffffffffffffffffffffffffffffffffffff16815260200190815260200160002060008773ffffffffffffffffffffffffffffffffffffffff1673ffffffffffffffffffffffffffffffffffffffff1681526020019081526020016000208190555085600860008373ffffffffffffffffffffffffffffffffffffffff1673ffffffffffffffffffffffffffffffffffffffff16815260200190815260200160002060008373ffffffffffffffffffffffffffffffffffffffff1673ffffffffffffffffffffffffffffffffffffffff1681526020019081526020016000208190555082600960008373ffffffffffffffffffffffffffffffffffffffff1673ffffffffffffffffffffffffffffffffffffffff16815260200190815260200160002060008773ffffffffffffffffffffffffffffffffffffffff1673ffffffffffffffffffffffffffffffffffffffff168152602001908152602001600020819055507fef4beaa380feab20776f162f92bbf15b04c59f8fd4e8ab2508b8d29fed7dfd6186868686604051808581526020018473ffffffffffffffffffffffffffffffffffffffff1673ffffffffffffffffffffffffffffffffffffffff16815260200183815260200182815260200194505050505060405180910390a16001915050949350505050565b600d6020528060005260406000206000915090505481565b601c6020528060005260406000206000915090508060000154908060010160009054906101000a900460ff16908060020154905083565b60066020528060005260406000206000915054906101000a900473ffffffffffffffffffffffffffffffffffffffff1681565b600073ffffffffffffffffffffffffffffffffffffffff168273ffffffffffffffffffffffffffffffffffffffff1614151515612ca357600080fd5b3073ffffffffffffffffffffffffffffffffffffffff168273ffffffffffffffffffffffffffffffffffffffff1614151515612cde57600080fd5b612ce833826148d3565b1515612cf357600080fd5b612cfe338383614a01565b5050565b6000612d0e83836148d3565b1515612d1957600080fd5b600382815481101515612d2857fe5b906000526020600020906005020160030154905092915050565b6000612d4c615529565b6000806000612d5a86614ef0565b93506000925083519150600090505b81811015612dba5760038482815181101515612d8157fe5b90602001906020020151815481101515612d9757fe5b906000526020600020906005020160000154830192508080600101915050612d69565b82945050505050919050565b60008114151515612dd657600080fd5b612de033826148d3565b1515612deb57600080fd5b6000601b60008381526020019081526020016000206003015414151515612e1157600080fd5b610400600382815481101515612e2357fe5b90600052602060002090600502016004018190555060016005811115612e4557fe5b601b60008381526020019081526020016000206007018190555042601b6000838152602001908152602001600020600101819055507ff5d2d36fd2c60192fd8f874c962737f1858ff797bf9865d071ade33eeee0070181601b600084815260200190815260200160002060030154601b60008581526020019081526020016000206006015460405180848152602001838152602001828152602001935050505060405180910390a150565b6000806000806000612f0061553d565b349450339350601a60008573ffffffffffffffffffffffffffffffffffffffff1673ffffffffffffffffffffffffffffffffffffffff16815260200190815260200160002054925060008514151515612f5857600080fd5b60008314151515612f6857600080fd5b601960008573ffffffffffffffffffffffffffffffffffffffff1673ffffffffffffffffffffffffffffffffffffffff1681526020019081526020016000205485141515612fb557600080fd5b612ff7856040805190810160405280600c81526020017f43726f7764737572616e63650000000000000000000000000000000000000000815250600087615060565b91506000821415151561300957600080fd5b6101806040519081016040528042815260200160008152602001600f600201548152602001868152602001600f600401548152602001600f600501548152602001848152602001600f60070154815260200160008152602001600f60090160009054906101000a900460ff1660ff168152602001600060ff168152602001600060ff16815250905080601b6000848152602001908152602001600020600082015181600001556020820151816001015560408201518160020155606082015181600301556080820151816004015560a0820151816005015560c0820151816006015560e0820151816007015561010082015181600801556101208201518160090160006101000a81548160ff021916908360ff1602179055506101408201518160090160016101000a81548160ff021916908360ff1602179055506101608201518160090160026101000a81548160ff021916908360ff1602179055509050506131728261132f565b508195507fbca387acb0ba7d06e329c4372885bb664f19a98153ccf3e74e56c136bf0e88c4848387604051808473ffffffffffffffffffffffffffffffffffffffff1673ffffffffffffffffffffffffffffffffffffffff168152602001838152602001828152602001935050505060405180910390a1601960008573ffffffffffffffffffffffffffffffffffffffff1673ffffffffffffffffffffffffffffffffffffffff16815260200190815260200160002060009055601a60008573ffffffffffffffffffffffffffffffffffffffff1673ffffffffffffffffffffffffffffffffffffffff16815260200190815260200160002060009055505050505090565b60006132816155a8565b600a60009054906101000a900473ffffffffffffffffffffffffffffffffffffffff1673ffffffffffffffffffffffffffffffffffffffff163373ffffffffffffffffffffffffffffffffffffffff161415156132da57fe5b600073ffffffffffffffffffffffffffffffffffffffff168473ffffffffffffffffffffffffffffffffffffffff161415151561331657600080fd5b6000831415151561332657600080fd5b6002600581111561333357fe5b601b60008581526020019081526020016000206007015414151561335657600080fd5b601b600084815260200190815260200160002060090160009054906101000a900460ff1660ff16601b60008581526020019081526020016000206008015401915042821115156133a557600080fd5b6060604051908101604052806001815260200160001515815260200184815250905080601c60008673ffffffffffffffffffffffffffffffffffffffff1673ffffffffffffffffffffffffffffffffffffffff1681526020019081526020016000206000820151816000015560208201518160010160006101000a81548160ff0219169083151502179055506040820151816002015590505050505050565b60008060008060008073ffffffffffffffffffffffffffffffffffffffff168773ffffffffffffffffffffffffffffffffffffffff161415151561348757600080fd5b6000861415151561349757600080fd5b879350600860008573ffffffffffffffffffffffffffffffffffffffff1673ffffffffffffffffffffffffffffffffffffffff16815260200190815260200160002060008873ffffffffffffffffffffffffffffffffffffffff1673ffffffffffffffffffffffffffffffffffffffff168152602001908152602001600020549250600860008573ffffffffffffffffffffffffffffffffffffffff1673ffffffffffffffffffffffffffffffffffffffff16815260200190815260200160002060008573ffffffffffffffffffffffffffffffffffffffff1673ffffffffffffffffffffffffffffffffffffffff168152602001908152602001600020549150600960008573ffffffffffffffffffffffffffffffffffffffff1673ffffffffffffffffffffffffffffffffffffffff16815260200190815260200160002060008873ffffffffffffffffffffffffffffffffffffffff1673ffffffffffffffffffffffffffffffffffffffff16815260200190815260200160002054905081831415151561362657600080fd5b6000831415151561363657600080fd5b6000821415151561364657600080fd5b6000811415151561365657600080fd5b85811015151561366557600080fd5b613672848389868a6152a1565b85600960008673ffffffffffffffffffffffffffffffffffffffff1673ffffffffffffffffffffffffffffffffffffffff16815260200190815260200160002060008973ffffffffffffffffffffffffffffffffffffffff1673ffffffffffffffffffffffffffffffffffffffff1681526020019081526020016000205403600960008673ffffffffffffffffffffffffffffffffffffffff1673ffffffffffffffffffffffffffffffffffffffff16815260200190815260200160002060008973ffffffffffffffffffffffffffffffffffffffff1673ffffffffffffffffffffffffffffffffffffffff168152602001908152602001600020819055506000600960008673ffffffffffffffffffffffffffffffffffffffff1673ffffffffffffffffffffffffffffffffffffffff16815260200190815260200160002060008973ffffffffffffffffffffffffffffffffffffffff1673ffffffffffffffffffffffffffffffffffffffff16815260200190815260200160002054141561397757600960008573ffffffffffffffffffffffffffffffffffffffff1673ffffffffffffffffffffffffffffffffffffffff16815260200190815260200160002060008873ffffffffffffffffffffffffffffffffffffffff1673ffffffffffffffffffffffffffffffffffffffff16815260200190815260200160002060009055600860008573ffffffffffffffffffffffffffffffffffffffff1673ffffffffffffffffffffffffffffffffffffffff16815260200190815260200160002060008573ffffffffffffffffffffffffffffffffffffffff1673ffffffffffffffffffffffffffffffffffffffff16815260200190815260200160002060009055600860008573ffffffffffffffffffffffffffffffffffffffff1673ffffffffffffffffffffffffffffffffffffffff16815260200190815260200160002060008873ffffffffffffffffffffffffffffffffffffffff1673ffffffffffffffffffffffffffffffffffffffff168152602001908152602001600020600090555b7fa085ba1c72fda1f13ecb6e0347284ac7d016a73b7a47c0ba151368bbe5ce2db9888389868a600960008b73ffffffffffffffffffffffffffffffffffffffff1673ffffffffffffffffffffffffffffffffffffffff16815260200190815260200160002060008e73ffffffffffffffffffffffffffffffffffffffff1673ffffffffffffffffffffffffffffffffffffffff16815260200190815260200160002054604051808773ffffffffffffffffffffffffffffffffffffffff1673ffffffffffffffffffffffffffffffffffffffff1681526020018681526020018573ffffffffffffffffffffffffffffffffffffffff1673ffffffffffffffffffffffffffffffffffffffff168152602001848152602001838152602001828152602001965050505050505060405180910390a160019450505050509392505050565b6000808314151515613aca57600080fd5b613ad433846148d3565b1515613adf57600080fd5b60008214151515613aef57600080fd5b60016005811115613afc57fe5b601b600085815260200190815260200160002060070154141515613b1f57600080fd5b600f6004015482601b6000868152602001908152602001600020600401540111151515613b4b57600080fd5b60026005811115613b5857fe5b601b60008581526020019081526020016000206007018190555081601b60008581526020019081526020016000206004015401601b6000858152602001908152602001600020600401819055507f022e3d29644ead4083349ca84d24bcac368b2461819b70f5921fea15de4dec4d8383604051808381526020018281526020019250505060405180910390a16001905092915050565b601a6020528060005260406000206000915090505481565b6000600382815481101515613c1757fe5b9060005260206000209060050201600001549050919050565b6009602052816000526040600020602052806000526040600020600091509150505481565b600c5481565b600a60009054906101000a900473ffffffffffffffffffffffffffffffffffffffff1673ffffffffffffffffffffffffffffffffffffffff163373ffffffffffffffffffffffffffffffffffffffff16141515613cb457fe5b600073ffffffffffffffffffffffffffffffffffffffff168373ffffffffffffffffffffffffffffffffffffffff1614151515613cf057600080fd5b60008214151515613d0057600080fd5b60008114151515613d1057600080fd5b80601960008573ffffffffffffffffffffffffffffffffffffffff1673ffffffffffffffffffffffffffffffffffffffff1681526020019081526020016000208190555081601a60008573ffffffffffffffffffffffffffffffffffffffff1673ffffffffffffffffffffffffffffffffffffffff168152602001908152602001600020819055507f21619a95128e7e5c5367774b6479b6edbc059210239e39bbd50dbae00cfe0972838383604051808473ffffffffffffffffffffffffffffffffffffffff1673ffffffffffffffffffffffffffffffffffffffff168152602001838152602001828152602001935050505060405180910390a1505050565b600b60009054906101000a900473ffffffffffffffffffffffffffffffffffffffff1681565b600080601960003373ffffffffffffffffffffffffffffffffffffffff1673ffffffffffffffffffffffffffffffffffffffff168152602001908152602001600020549150601a60003373ffffffffffffffffffffffffffffffffffffffff1673ffffffffffffffffffffffffffffffffffffffff1681526020019081526020016000205490507fdafdd0f2a3af66f1d9ab59928d5fb2e9eb5428db4b63362502d21e2511624ff7338284604051808473ffffffffffffffffffffffffffffffffffffffff1673ffffffffffffffffffffffffffffffffffffffff168152602001838152602001828152602001935050505060405180910390a15090565b6007602052816000526040600020602052806000526040600020600091509150505481565b600060036000815481101515613f6b57fe5b906000526020600020906005020160000154905090565b613f8a615529565b600080600d6000858152602001908152602001600020549150600090505b600c54811015613ff257818382815181101515613fc157fe5b9060200190602002018181525050600d60008381526020019081526020016000205491508080600101915050613fa8565b5050919050565b6008602052816000526040600020602052806000526040600020600091509150505481565b600a60009054906101000a900473ffffffffffffffffffffffffffffffffffffffff1673ffffffffffffffffffffffffffffffffffffffff163373ffffffffffffffffffffffffffffffffffffffff1614151561407757fe5b600a60009054906101000a900473ffffffffffffffffffffffffffffffffffffffff1673ffffffffffffffffffffffffffffffffffffffff168173ffffffffffffffffffffffffffffffffffffffff16141515156140d457600080fd5b80600b60006101000a81548173ffffffffffffffffffffffffffffffffffffffff021916908373ffffffffffffffffffffffffffffffffffffffff16021790555050565b60008073ffffffffffffffffffffffffffffffffffffffff168273ffffffffffffffffffffffffffffffffffffffff161415151561415557600080fd5b600073ffffffffffffffffffffffffffffffffffffffff168373ffffffffffffffffffffffffffffffffffffffff161415151561419157600080fd5b600960008473ffffffffffffffffffffffffffffffffffffffff1673ffffffffffffffffffffffffffffffffffffffff16815260200190815260200160002060008373ffffffffffffffffffffffffffffffffffffffff1673ffffffffffffffffffffffffffffffffffffffff16815260200190815260200160002054905092915050565b6000806000806000614228878761548e565b935061423384614c81565b925061423f87876154bc565b9150818310156142a95761425387856118d9565b7f69186e91a26c2cd1f67397df408ddeb0db9249dbd6e2a428ad8ae0d59ba3bc88878588604051808481526020018381526020018260ff1660ff168152602001935050505060405180910390a1600194506144ee565b600e8660ff168154811015156142bb57fe5b906000526020600020906006020160010154600e8760ff168154811015156142df57fe5b906000526020600020906006020160030154141561430057600094506144ee565b614407600060038681548110151561431457fe5b90600052602060002090600502016001018054600181600116156101000203166002900480601f0160208091040260200160405190810160405280929190818152602001828054600181600116156101000203166002900480156143b95780601f1061438e576101008083540402835291602001916143b9565b820191906000526020600020905b81548152906001019060200180831161439c57829003601f168201915b50505050506003878154811015156143cd57fe5b906000526020600020906005020160020154600a60009054906101000a900473ffffffffffffffffffffffffffffffffffffffff16615060565b90506000811415156144e9576144208160018803614216565b156144e05761442f87826118d9565b7f69186e91a26c2cd1f67397df408ddeb0db9249dbd6e2a428ad8ae0d59ba3bc88878288604051808481526020018381526020018260ff1660ff168152602001935050505060405180910390a180600e8760ff1681548110151561448f57fe5b906000526020600020906006020160040181905550600e8660ff168154811015156144b657fe5b906000526020600020906006020160030160008154809291906001019190505550600194506144ee565b600094506144ee565b600094505b5050505092915050565b60008060008060008060008060008914158015614519575060038054905089105b151561452457600080fd5b6001600c540360038a81548110151561453957fe5b90600052602060002090600502016003015414151561455757600080fd5b600d60008a81526020019081526020016000205496506000871415151561457d57600080fd5b600d6000888152602001908152602001600020549550600086141515156145a357600080fd5b600d6000878152602001908152602001600020549450600085141515156145c957600080fd5b600e60028154811015156145d957fe5b906000526020600020906006020160050154606460038b8154811015156145fc57fe5b9060005260206000209060050201600001540281151561461857fe5b0493506000841415151561462b57600080fd5b600e600181548110151561463b57fe5b906000526020600020906006020160050154606460038b81548110151561465e57fe5b9060005260206000209060050201600001540281151561467a57fe5b0492506000831415151561468d57600080fd5b600e600081548110151561469d57fe5b906000526020600020906006020160050154606460038b8154811015156146c057fe5b906000526020600020906005020160000154028115156146dc57fe5b049150600082141515156146ef57600080fd5b81838560038c81548110151561470157fe5b90600052602060002090600502016000015403030390506000811415151561472857600080fd5b8360038881548110151561473857fe5b9060005260206000209060050201600001540160038881548110151561475a57fe5b9060005260206000209060050201600001819055508260038781548110151561477f57fe5b906000526020600020906005020160000154016003878154811015156147a157fe5b906000526020600020906005020160000181905550816003868154811015156147c657fe5b906000526020600020906005020160000154016003868154811015156147e857fe5b906000526020600020906005020160000181905550806003600081548110151561480e57fe5b906000526020600020906005020160000154016003600081548110151561483157fe5b906000526020600020906005020160000181905550600060038a81548110151561485757fe5b9060005260206000209060050201600001819055507fcfd3c3fcdcb63bcee48ff9a9ec28351afef5ba4fc9b5a8f46d5aa65565a3b1a38983858785604051808681526020018581526020018481526020018381526020018281526020019550505050505060405180910390a16001975050505050505050919050565b60008273ffffffffffffffffffffffffffffffffffffffff166004600084815260200190815260200160002060009054906101000a900473ffffffffffffffffffffffffffffffffffffffff1673ffffffffffffffffffffffffffffffffffffffff1614905092915050565b806006600084815260200190815260200160002060006101000a81548173ffffffffffffffffffffffffffffffffffffffff021916908373ffffffffffffffffffffffffffffffffffffffff1602179055505050565b60008273ffffffffffffffffffffffffffffffffffffffff166006600084815260200190815260200160002060009054906101000a900473ffffffffffffffffffffffffffffffffffffffff1673ffffffffffffffffffffffffffffffffffffffff1614905092915050565b610400600382815481101515614a1357fe5b90600052602060002090600502016004015414151515614a2f57fe5b600560008373ffffffffffffffffffffffffffffffffffffffff1673ffffffffffffffffffffffffffffffffffffffff16815260200190815260200160002060008154809291906001019190505550816004600083815260200190815260200160002060006101000a81548173ffffffffffffffffffffffffffffffffffffffff021916908373ffffffffffffffffffffffffffffffffffffffff160217905550600073ffffffffffffffffffffffffffffffffffffffff168373ffffffffffffffffffffffffffffffffffffffff16141515614b8d57600560008473ffffffffffffffffffffffffffffffffffffffff1673ffffffffffffffffffffffffffffffffffffffff16815260200190815260200160002060008154809291906001900391905055506006600082815260200190815260200160002060006101000a81549073ffffffffffffffffffffffffffffffffffffffff02191690555b7fddf252ad1be2c89b69c2b068fc378daa952ba7f163c4a11628f55a4df523b3ef838383604051808473ffffffffffffffffffffffffffffffffffffffff1673ffffffffffffffffffffffffffffffffffffffff1681526020018373ffffffffffffffffffffffffffffffffffffffff1673ffffffffffffffffffffffffffffffffffffffff168152602001828152602001935050505060405180910390a1505050565b6000614c3b615529565b6000614c4684614ef0565b9150815190506000811415614c5e5760009250614c7a565b816000815181101515614c6d57fe5b9060200190602002015192505b5050919050565b6000806000808414158015614c9a575060038054905084105b1515614ca557600080fd5b614cad611a17565b915060009250600190505b8181111515614cf25783600d6000838152602001908152602001600020541415614ce55782806001019350505b8080600101915050614cb8565b5050919050565b614d0383836148d3565b1515614d0e57600080fd5b60008114151515614d1e57600080fd5b80600383815481101515614d2e57fe5b90600052602060002090600502016000015410151515614d4d57600080fd5b80600383815481101515614d5d57fe5b90600052602060002090600502016000015403600383815481101515614d7f57fe5b9060005260206000209060050201600001819055507f45dacd427fd388bf162986dbc958cdcf160c31b40efe076907cff377b9857c79838383604051808473ffffffffffffffffffffffffffffffffffffffff1673ffffffffffffffffffffffffffffffffffffffff168152602001838152602001828152602001935050505060405180910390a1505050565b614e1683836148d3565b1515614e2157600080fd5b60008114151515614e3157600080fd5b80600383815481101515614e4157fe5b90600052602060002090600502016000015401600383815481101515614e6357fe5b9060005260206000209060050201600001819055507f20f4934a3b4928cca0e51f3f1eaac12dee9af151a8a8ba5a424a89d93f6bf53d838383604051808473ffffffffffffffffffffffffffffffffffffffff1673ffffffffffffffffffffffffffffffffffffffff168152602001838152602001828152602001935050505060405180910390a1505050565b614ef8615529565b6000614f02615529565b60008060008073ffffffffffffffffffffffffffffffffffffffff168773ffffffffffffffffffffffffffffffffffffffff1614151515614f4257600080fd5b614f4b8761262f565b94506000851415614f7d576000604051805910614f655750595b90808252806020026020018201604052509550615056565b84604051805910614f8b5750595b90808252806020026020018201604052509350614fa6611a17565b925060009150600190505b8281111515615052578673ffffffffffffffffffffffffffffffffffffffff166004600083815260200190815260200160002060009054906101000a900473ffffffffffffffffffffffffffffffffffffffff1673ffffffffffffffffffffffffffffffffffffffff1614156150455780848380600101945081518110151561503657fe5b90602001906020020181815250505b8080600101915050614fb1565b8395505b5050505050919050565b600061506a6155cc565b600060a06040519081016040528088815260200187815260200186815260200160008152602001600081525091506001600380548060010182816150ae9190615602565b916000526020600020906005020160008590919091506000820151816000015560208201518160010190805190602001906150ea929190615634565b506040820151816002015560608201518160030155608082015181600401555050039050600063ffffffff16811415615194576001600380548060010182816151339190615602565b9160005260206000209060050201600085909190915060008201518160000155602082015181600101908051906020019061516f929190615634565b5060408201518160020155606082015181600301556080820151816004015550500390505b8063ffffffff16811415156151a857600080fd5b7fdea8e87d69047e1b3cd43ad599d34e3eacfe4408b4dfc5d0f6ac6a15a468de5c8787878760405180858152602001806020018481526020018373ffffffffffffffffffffffffffffffffffffffff1673ffffffffffffffffffffffffffffffffffffffff168152602001828103825285818151815260200191508051906020019080838360005b8381101561524b578082015181840152602081019050615230565b50505050905090810190601f1680156152785780820380516001836020036101000a031916815260200191505b509550505050505060405180910390a161529460008583614a01565b8092505050949350505050565b6152ab85856148d3565b15156152b657600080fd5b6152c083836148d3565b15156152cb57600080fd5b600081141515156152db57600080fd5b8184141515156152ea57600080fd5b806003858154811015156152fa57fe5b9060005260206000209060050201600001541015151561531957600080fd5b61040060038581548110151561532b57fe5b9060005260206000209060050201600401541415151561534a57600080fd5b8060038581548110151561535a57fe5b9060005260206000209060050201600001540360038581548110151561537c57fe5b906000526020600020906005020160000181905550806003838154811015156153a157fe5b906000526020600020906005020160000154016003838154811015156153c357fe5b9060005260206000209060050201600001819055507f6d401b913d27047ecd2042f0331e2354d30e664920b31480dc71955edb996c388585858585604051808673ffffffffffffffffffffffffffffffffffffffff1673ffffffffffffffffffffffffffffffffffffffff1681526020018581526020018473ffffffffffffffffffffffffffffffffffffffff1673ffffffffffffffffffffffffffffffffffffffff1681526020018381526020018281526020019550505050505060405180910390a15050505050565b6000600e8260ff168154811015156154a257fe5b906000526020600020906006020160040154905092915050565b60006001600e8360ff168154811015156154d257fe5b90600052602060002090600602016002015403905092915050565b602060405190810160405280600081525090565b6080604051908101604052806004905b60008152602001906001900390816155115790505090565b602060405190810160405280600081525090565b61018060405190810160405280600081526020016000815260200160008152602001600081526020016000815260200160008152602001600081526020016000815260200160008152602001600060ff168152602001600060ff168152602001600060ff1681525090565b60606040519081016040528060008152602001600015158152602001600081525090565b60a060405190810160405280600081526020016155e76156b4565b81526020016000815260200160008152602001600081525090565b81548183558181151161562f5760050281600502836000526020600020918201910161562e91906156c8565b5b505050565b828054600181600116156101000203166002900490600052602060002090601f016020900481019282601f1061567557805160ff19168380011785556156a3565b828001600101855582156156a3579182015b828111156156a2578251825591602001919060010190615687565b5b5090506156b09190615717565b5090565b602060405190810160405280600081525090565b61571491905b80821115615710576000808201600090556001820160006156ef919061573c565b600282016000905560038201600090556004820160009055506005016156ce565b5090565b90565b61573991905b8082111561573557600081600090555060010161571d565b5090565b90565b50805460018160011615610100020316600290046000825580601f106157625750615781565b601f0160209004906000526020600020908101906157809190615717565b5b505600a165627a7a7230582032c27d5591249e4aeaef69e0b683e7705fe0d609456509089558fe356e78884a0029",
  "source": "// \n// MIT License\n// \n// Copyright (c) 2018 REGA Risk Sharing\n//   \n// Permission is hereby granted, free of charge, to any person obtaining a copy\n// of this software and associated documentation files (the \"Software\"), to deal\n// in the Software without restriction, including without limitation the rights\n// to use, copy, modify, merge, publish, distribute, sublicense, and/or sell\n// copies of the Software, and to permit persons to whom the Software is\n// furnished to do so, subject to the following conditions:\n// \n// The above copyright notice and this permission notice shall be included in all\n// copies or substantial portions of the Software.\n// \n// THE SOFTWARE IS PROVIDED \"AS IS\", WITHOUT WARRANTY OF ANY KIND, EXPRESS OR\n// IMPLIED, INCLUDING BUT NOT LIMITED TO THE WARRANTIES OF MERCHANTABILITY,\n// FITNESS FOR A PARTICULAR PURPOSE AND NONINFRINGEMENT. IN NO EVENT SHALL THE\n// AUTHORS OR COPYRIGHT HOLDERS BE LIABLE FOR ANY CLAIM, DAMAGES OR OTHER\n// LIABILITY, WHETHER IN AN ACTION OF CONTRACT, TORT OR OTHERWISE, ARISING FROM,\n// OUT OF OR IN CONNECTION WITH THE SOFTWARE OR THE USE OR OTHER DEALINGS IN THE\n// SOFTWARE.\n// \n// Author: Sergei Sevriugin\n// Version: 0.0.1\n//  \n\npragma solidity ^0.4.17;\n\nimport './TokenPool.sol';\n/// TokenCrowdsurance is ERC721SmartToken for crowdsurance products. \n/// Crowdsurance, meaning people unite in communities to provide a guarantee of compensation for unexpected loss. \n/// Using ERC721SmartToken crowdsurance product can be 'tokenized' and can be availible as ERC20 token.\ncontract TokenCrowdsurance is TokenPool {\n    /// Crowdsurance token ERC721 extention\n    /// @param timeStamp join time stemp\n    /// @param activated coverage activation time stamp\n    /// @param duration crowdsurance coverage duration\n    /// @param amount join amount\n    /// @param claim claim amount\n    /// @param paid paid claim amount\n    /// @param score member score\n    /// @param status crowdsurance status\n    /// @param claimed claim time stamp\n    /// @param timeToVote voting period\n    /// @param positive votes to pay claims\n    /// @param negative votes not to pay\n    struct Crowdsurance {\n        uint    timeStamp;  // join time stamp\n        uint    activated;  // coverage activation time stamp\n        uint    duration;   // risk coverage duration\n        uint256 amount;     // join amount\n        uint256 claim;      // claim amount\n        uint256 paid;       // paid amoutn\n        uint256 score;      // score\n        uint    status;     // current status\n        uint    claimed;    // claim time stamp\n        uint8   timeToVote; // voting period\n        uint8   positive;   // votes to pay claims\n        uint8   negative;   // votes not to pay    \n    }\n    /// Crowdsurance voting \n    /// @param weight voter weight\n    /// @param voted true if voted\n    /// @param tokenId Crowdsurance NFT token ID to vote\n    struct Voter {\n        uint    weight;\n        bool    voted;\n        uint256 tokenId;\n    }\n    /// Crowdsurance template\n    Crowdsurance public template;\n    mapping (address => uint256) public addressToAmount;            // address to join amount mapping\n    mapping (address => uint256) public addressToScore;             // address to scoring mapping\n    mapping (uint256 => Crowdsurance) public tokenIdToExtension;    // crowdsurance extension mapping\n    mapping (address => Voter) public voters;                       // crowdsurance voting\n    /// TokenCrowdsurance Apply event\n    /// @param member new member address\n    /// @param score member score\n    /// @param amount need to pay to join\n    event Apply(address member, uint256 score, uint256 amount);\n    /// TokenCrowdsurance Join event\n    /// @param member new member addrsss\n    /// @param id NFT token id for crowdsurance token\n    /// @param amount paid to join\n    event Join(address member, uint256 id, uint256 amount);\n    /// TokenCrowdsurance Scoring event\n    /// @param member new member addrsss\n    /// @param score member scoring\n    /// @param amount join amount\n    event Scoring(address member, uint256 score, uint256 amount);\n    /// TokenCrowdsurance Activate event\n    /// @param id NFT Id to activate\n    /// @param amount acowdsurance join amount\n    /// @param score member scoring\n    event Activate(uint256 id, uint256 amount, uint256 score);\n    /// TokenCrowdsurance Activate event\n    /// @param id NFT Id to activate\n    /// @param claim claim amount\n    event Claim(uint256 id, uint256 claim);\n    /// TokenCrowdsurance Status\n    enum Status {Init, Active, Claim, Approved, Rejected, Closed}\n    /// scoring function\n    /// @param _member address of the member to score\n    /// @param _score member scoroing result\n    /// @param _amount join amount calculated based on score\n    function scoring(address _member, uint256 _score, uint256 _amount) ownerOnly public {\n        require(_member != address(0));\n        require(_score != uint256(0));\n        require(_amount != uint256(0));\n        addressToAmount[_member] = _amount;\n        addressToScore[_member] = _score;\n        // emit scoring event\n        Scoring(_member, _score, _amount);\n    }\n    /// apply function \n    /// @return join ampount - must be not zero to join\n    function apply() public view returns(uint256 amount) {\n        amount = addressToAmount[msg.sender];\n        uint256 score = addressToScore[msg.sender];\n        // emit Apply event\n        Apply(msg.sender, score, amount);\n    }\n    /// join function\n    /// @return cowdsuranceId NFT token ID for created crowdsurance\n    function join() public payable returns(uint256 cowdsuranceId) {\n        uint256 amount = msg.value;\n        address member = msg.sender;\n        uint256 score = addressToScore[member];\n        require(amount != uint256(0));\n        require(score != uint256(0));\n        require(amount == addressToAmount[member]);\n        uint256 id = _createNFT(amount, \"Crowdsurance\", uint256(0), member);\n        require(id != uint(0));\n        // Create extension \n        Crowdsurance memory _crowdsurance = Crowdsurance ({\n            timeStamp: now,\n            activated: uint(0),\n            duration: template.duration,\n            amount: amount,\n            claim: template.claim,\n            paid: template.paid,\n            score: score,\n            status: template.status,\n            claimed: uint(0),\n            timeToVote: template.timeToVote,\n            positive: uint8(0),\n            negative: uint8(0)\n        });\n        // add extension\n        tokenIdToExtension[id] = _crowdsurance;\n        // now insert in the pool\n        insertPool(id);\n        cowdsuranceId = id;\n        // emit event \n        Join(member, id, amount);\n        // clear mapping\n        delete addressToAmount[member];\n        delete addressToScore[member];\n    }\n    /// activate function \n    /// @param _id NFT token ID to activate\n    function activate(uint256 _id) public {\n        require(_id != uint256(0));\n        require(_owns(msg.sender, _id));\n        require(tokenIdToExtension[_id].amount != uint256(0));\n\n        nfts[_id].state = StateBlocked; // block transfer\n        tokenIdToExtension[_id].status = uint(Status.Active);\n        tokenIdToExtension[_id].activated = now;\n        // emit event\n        Activate(_id, tokenIdToExtension[_id].amount, tokenIdToExtension[_id].score);\n    }\n    /// claim function\n    /// @param _id NFT token ID to claim payment \n    /// @param _claim claim amount\n    function claim(uint256 _id, uint256 _claim) public returns(bool) {\n        require(_id != uint256(0));\n        require(_owns(msg.sender, _id));\n        require(_claim != uint256(0));\n        require(tokenIdToExtension[_id].status == uint(Status.Active));\n        require((tokenIdToExtension[_id].claim + _claim) <= template.claim);\n\n        tokenIdToExtension[_id].status = uint(Status.Claim);\n        tokenIdToExtension[_id].claim = tokenIdToExtension[_id].claim + _claim;\n        // emit event\n        Claim(_id, _claim);\n        return true;\n    }\n    function addVoter(address _jury, uint256 _id) ownerOnly public {\n        require(_jury != address(0));\n        require(_id != uint256(0));\n        require(tokenIdToExtension[_id].status == uint(Status.Claim));\n        uint votingEnd = tokenIdToExtension[_id].claimed + tokenIdToExtension[_id].timeToVote;\n        require(votingEnd > now);\n        \n        Voter memory _voter = Voter({\n            weight: 1,\n            voted: false,\n            tokenId: _id\n        });\n        voters[_jury] = _voter;\n    }\n    function TokenCrowdsurance(string _name, string _symbol) TokenPool(_name, _symbol) public {\n        template.timeStamp = now;\n        template.activated = uint(0);\n        template.duration = uint(60*60*24*180);\n        template.amount = 0.1 ether;                // default join amount\n        template.claim = 10 ether;                  // max claim amount\n        template.paid = 10 ether * 100 / 80;        // max paid amount\n        template.score = uint256(100);\n        template.status = uint(Status.Init);\n        template.claimed = uint(0);\n        template.timeToVote = uint8(60*60*24*2);\n        template.positive = uint8(0);\n        template.negative = uint8(0);\n    }\n}",
  "sourcePath": "/Users/sergei/ERC721SmartToken/contracts/TokenCrowdsurance.sol",
  "compiler": {
    "name": "solc",
    "version": "0.4.18+commit.9cf6e910.Emscripten.clang"
  },
  "schemaVersion": "1.0.1",
  "updatedAt": "2018-04-10T18:50:12.660Z"
}